{
  "contractName": "Staking",
  "abi": [
    {
      "inputs": [
        {
          "internalType": "address",
          "name": "tokenAddress",
          "type": "address"
        }
      ],
      "stateMutability": "nonpayable",
      "type": "constructor"
    },
    {
      "inputs": [
        {
          "internalType": "uint256",
          "name": "id",
          "type": "uint256"
        },
        {
          "internalType": "enum Staking.StakeStatus",
          "name": "status",
          "type": "uint8"
        }
      ],
      "name": "CanOnlyPlayedFilledStakes",
      "type": "error"
    },
    {
      "inputs": [
        {
          "internalType": "uint256",
          "name": "id",
          "type": "uint256"
        },
        {
          "internalType": "enum Staking.StakeStatus",
          "name": "status",
          "type": "uint8"
        }
      ],
      "name": "CanOnlyReturnEscrowWhenAwaitingReturnPayment",
      "type": "error"
    },
    {
      "inputs": [
        {
          "internalType": "uint256",
          "name": "id",
          "type": "uint256"
        },
        {
          "internalType": "address",
          "name": "canceller",
          "type": "address"
        },
        {
          "internalType": "address",
          "name": "horse",
          "type": "address"
        }
      ],
      "name": "CancellingSenderIsNotHorse",
      "type": "error"
    },
    {
      "inputs": [
        {
          "internalType": "uint256",
          "name": "id",
          "type": "uint256"
        },
        {
          "internalType": "uint256",
          "name": "escrow",
          "type": "uint256"
        }
      ],
      "name": "CannotReturnNoEscrow",
      "type": "error"
    },
    {
      "inputs": [
        {
          "internalType": "uint256",
          "name": "escrow",
          "type": "uint256"
        },
        {
          "internalType": "uint256",
          "name": "value",
          "type": "uint256"
        }
      ],
      "name": "EscrowValueNotMatching",
      "type": "error"
    },
    {
      "inputs": [
        {
          "internalType": "uint256",
          "name": "profitShare",
          "type": "uint256"
        }
      ],
      "name": "InvalidProfitShare",
      "type": "error"
    },
    {
      "inputs": [
        {
          "internalType": "uint256",
          "name": "id",
          "type": "uint256"
        }
      ],
      "name": "InvalidStakeId",
      "type": "error"
    },
    {
      "inputs": [
        {
          "internalType": "uint256",
          "name": "value",
          "type": "uint256"
        },
        {
          "internalType": "uint256",
          "name": "backerReturns",
          "type": "uint256"
        }
      ],
      "name": "MessageValueNotEqualToBackerReturns",
      "type": "error"
    },
    {
      "inputs": [
        {
          "internalType": "address",
          "name": "backer",
          "type": "address"
        }
      ],
      "name": "NoStakesSelected",
      "type": "error"
    },
    {
      "inputs": [
        {
          "internalType": "uint256",
          "name": "id",
          "type": "uint256"
        },
        {
          "internalType": "address",
          "name": "sender",
          "type": "address"
        }
      ],
      "name": "OnlyBackerCanRequestEscrow",
      "type": "error"
    },
    {
      "inputs": [],
      "name": "OnlyOwnerCanKill",
      "type": "error"
    },
    {
      "inputs": [
        {
          "internalType": "address",
          "name": "playerAddress",
          "type": "address"
        }
      ],
      "name": "PlayerAlreadyExists",
      "type": "error"
    },
    {
      "inputs": [
        {
          "internalType": "address",
          "name": "sender",
          "type": "address"
        }
      ],
      "name": "PlayerDoesNotExist",
      "type": "error"
    },
    {
      "inputs": [
        {
          "internalType": "address",
          "name": "playerAddress",
          "type": "address"
        }
      ],
      "name": "PlayerDoesntExist",
      "type": "error"
    },
    {
      "inputs": [
        {
          "internalType": "address",
          "name": "player",
          "type": "address"
        }
      ],
      "name": "PlayerNotAllowedToCreateStake",
      "type": "error"
    },
    {
      "inputs": [
        {
          "internalType": "uint256",
          "name": "id",
          "type": "uint256"
        },
        {
          "internalType": "address",
          "name": "sender",
          "type": "address"
        },
        {
          "internalType": "address",
          "name": "horse",
          "type": "address"
        }
      ],
      "name": "ReturningProfitsSenderIsNotHorse",
      "type": "error"
    },
    {
      "inputs": [
        {
          "internalType": "uint256",
          "name": "id",
          "type": "uint256"
        },
        {
          "internalType": "enum Staking.StakeStatus",
          "name": "status",
          "type": "uint8"
        }
      ],
      "name": "StakeIsNotCancellable",
      "type": "error"
    },
    {
      "inputs": [
        {
          "internalType": "uint256",
          "name": "id",
          "type": "uint256"
        },
        {
          "internalType": "enum Staking.StakeStatus",
          "name": "status",
          "type": "uint8"
        }
      ],
      "name": "StakeIsNotExpirable",
      "type": "error"
    },
    {
      "inputs": [
        {
          "internalType": "uint256",
          "name": "id",
          "type": "uint256"
        }
      ],
      "name": "StakeNotFillable",
      "type": "error"
    },
    {
      "inputs": [
        {
          "internalType": "uint256",
          "name": "id",
          "type": "uint256"
        },
        {
          "internalType": "enum Staking.StakeStatus",
          "name": "status",
          "type": "uint8"
        }
      ],
      "name": "StakeProfitNotReturnable",
      "type": "error"
    },
    {
      "inputs": [
        {
          "internalType": "uint256",
          "name": "id",
          "type": "uint256"
        },
        {
          "internalType": "uint256",
          "name": "stakedAmount",
          "type": "uint256"
        },
        {
          "internalType": "uint256",
          "name": "remainingAmount",
          "type": "uint256"
        }
      ],
      "name": "StakedMoreThanRemaining",
      "type": "error"
    },
    {
      "inputs": [
        {
          "internalType": "uint256",
          "name": "id",
          "type": "uint256"
        },
        {
          "internalType": "address",
          "name": "horse",
          "type": "address"
        },
        {
          "internalType": "address",
          "name": "backer",
          "type": "address"
        }
      ],
      "name": "StakingSelf",
      "type": "error"
    },
    {
      "inputs": [
        {
          "internalType": "uint256",
          "name": "amount",
          "type": "uint256"
        },
        {
          "internalType": "uint256",
          "name": "value",
          "type": "uint256"
        }
      ],
      "name": "ValueAndAmountDoNotMatch",
      "type": "error"
    },
    {
      "anonymous": false,
      "inputs": [
        {
          "indexed": false,
          "internalType": "uint256",
          "name": "id",
          "type": "uint256"
        },
        {
          "indexed": false,
          "internalType": "uint256",
          "name": "escrow",
          "type": "uint256"
        },
        {
          "indexed": false,
          "internalType": "address",
          "name": "backer",
          "type": "address"
        }
      ],
      "name": "EscrowClaimed",
      "type": "event"
    },
    {
      "anonymous": false,
      "inputs": [
        {
          "indexed": false,
          "internalType": "uint256",
          "name": "id",
          "type": "uint256"
        },
        {
          "indexed": false,
          "internalType": "int256",
          "name": "pnl",
          "type": "int256"
        },
        {
          "indexed": false,
          "internalType": "uint256",
          "name": "backerReturns",
          "type": "uint256"
        }
      ],
      "name": "GamePlayed",
      "type": "event"
    },
    {
      "anonymous": false,
      "inputs": [
        {
          "indexed": false,
          "internalType": "uint256",
          "name": "count",
          "type": "uint256"
        }
      ],
      "name": "MultipleStakesFilled",
      "type": "event"
    },
    {
      "anonymous": false,
      "inputs": [
        {
          "indexed": false,
          "internalType": "address",
          "name": "playerAddress",
          "type": "address"
        },
        {
          "indexed": false,
          "internalType": "string",
          "name": "apiId",
          "type": "string"
        },
        {
          "indexed": false,
          "internalType": "string",
          "name": "name",
          "type": "string"
        },
        {
          "indexed": false,
          "internalType": "string",
          "name": "sharkscopeLink",
          "type": "string"
        },
        {
          "indexed": false,
          "internalType": "string",
          "name": "profilePicPath",
          "type": "string"
        }
      ],
      "name": "PlayerCreated",
      "type": "event"
    },
    {
      "anonymous": false,
      "inputs": [
        {
          "indexed": false,
          "internalType": "address",
          "name": "playerAddress",
          "type": "address"
        }
      ],
      "name": "PlayerEdited",
      "type": "event"
    },
    {
      "anonymous": false,
      "inputs": [
        {
          "indexed": false,
          "internalType": "uint256",
          "name": "id",
          "type": "uint256"
        },
        {
          "indexed": false,
          "internalType": "uint256",
          "name": "backerReturns",
          "type": "uint256"
        }
      ],
      "name": "ProfitsReturned",
      "type": "event"
    },
    {
      "anonymous": false,
      "inputs": [
        {
          "indexed": false,
          "internalType": "uint256",
          "name": "id",
          "type": "uint256"
        }
      ],
      "name": "StakeCancelled",
      "type": "event"
    },
    {
      "anonymous": false,
      "inputs": [
        {
          "indexed": false,
          "internalType": "uint256",
          "name": "id",
          "type": "uint256"
        }
      ],
      "name": "StakeExpired",
      "type": "event"
    },
    {
      "anonymous": false,
      "inputs": [
        {
          "components": [
            {
              "internalType": "uint256",
              "name": "id",
              "type": "uint256"
            },
            {
              "internalType": "address payable",
              "name": "horse",
              "type": "address"
            },
            {
              "components": [
                {
                  "internalType": "address payable[]",
                  "name": "backers",
                  "type": "address[]"
                },
                {
                  "internalType": "uint256[]",
                  "name": "investments",
                  "type": "uint256[]"
                },
                {
                  "internalType": "uint256[]",
                  "name": "backerReturns",
                  "type": "uint256[]"
                },
                {
                  "internalType": "uint256",
                  "name": "filledAmount",
                  "type": "uint256"
                },
                {
                  "internalType": "uint256",
                  "name": "playThreshold",
                  "type": "uint256"
                }
              ],
              "internalType": "struct Staking.InvestmentDetails",
              "name": "investmentDetails",
              "type": "tuple"
            },
            {
              "internalType": "uint256",
              "name": "amount",
              "type": "uint256"
            },
            {
              "internalType": "uint256",
              "name": "escrow",
              "type": "uint256"
            },
            {
              "internalType": "uint256",
              "name": "profitShare",
              "type": "uint256"
            },
            {
              "internalType": "int256",
              "name": "pnl",
              "type": "int256"
            },
            {
              "internalType": "uint256",
              "name": "backerReturns",
              "type": "uint256"
            },
            {
              "internalType": "enum Staking.StakeStatus",
              "name": "status",
              "type": "uint8"
            },
            {
              "internalType": "enum Staking.GameType",
              "name": "gameType",
              "type": "uint8"
            },
            {
              "internalType": "string",
              "name": "apiId",
              "type": "string"
            },
            {
              "components": [
                {
                  "internalType": "uint256",
                  "name": "createdTimestamp",
                  "type": "uint256"
                },
                {
                  "internalType": "uint256",
                  "name": "lastFilledTimestamp",
                  "type": "uint256"
                },
                {
                  "internalType": "uint256",
                  "name": "gamePlayedTimestamp",
                  "type": "uint256"
                },
                {
                  "internalType": "uint256",
                  "name": "scheduledForTimestamp",
                  "type": "uint256"
                }
              ],
              "internalType": "struct Staking.StakeTimeStamp",
              "name": "stakeTimeStamp",
              "type": "tuple"
            }
          ],
          "indexed": false,
          "internalType": "struct Staking.Stake",
          "name": "stake",
          "type": "tuple"
        }
      ],
      "name": "StakeFilled",
      "type": "event"
    },
    {
      "anonymous": false,
      "inputs": [
        {
          "components": [
            {
              "internalType": "uint256",
              "name": "id",
              "type": "uint256"
            },
            {
              "internalType": "address payable",
              "name": "horse",
              "type": "address"
            },
            {
              "components": [
                {
                  "internalType": "address payable[]",
                  "name": "backers",
                  "type": "address[]"
                },
                {
                  "internalType": "uint256[]",
                  "name": "investments",
                  "type": "uint256[]"
                },
                {
                  "internalType": "uint256[]",
                  "name": "backerReturns",
                  "type": "uint256[]"
                },
                {
                  "internalType": "uint256",
                  "name": "filledAmount",
                  "type": "uint256"
                },
                {
                  "internalType": "uint256",
                  "name": "playThreshold",
                  "type": "uint256"
                }
              ],
              "internalType": "struct Staking.InvestmentDetails",
              "name": "investmentDetails",
              "type": "tuple"
            },
            {
              "internalType": "uint256",
              "name": "amount",
              "type": "uint256"
            },
            {
              "internalType": "uint256",
              "name": "escrow",
              "type": "uint256"
            },
            {
              "internalType": "uint256",
              "name": "profitShare",
              "type": "uint256"
            },
            {
              "internalType": "int256",
              "name": "pnl",
              "type": "int256"
            },
            {
              "internalType": "uint256",
              "name": "backerReturns",
              "type": "uint256"
            },
            {
              "internalType": "enum Staking.StakeStatus",
              "name": "status",
              "type": "uint8"
            },
            {
              "internalType": "enum Staking.GameType",
              "name": "gameType",
              "type": "uint8"
            },
            {
              "internalType": "string",
              "name": "apiId",
              "type": "string"
            },
            {
              "components": [
                {
                  "internalType": "uint256",
                  "name": "createdTimestamp",
                  "type": "uint256"
                },
                {
                  "internalType": "uint256",
                  "name": "lastFilledTimestamp",
                  "type": "uint256"
                },
                {
                  "internalType": "uint256",
                  "name": "gamePlayedTimestamp",
                  "type": "uint256"
                },
                {
                  "internalType": "uint256",
                  "name": "scheduledForTimestamp",
                  "type": "uint256"
                }
              ],
              "internalType": "struct Staking.StakeTimeStamp",
              "name": "stakeTimeStamp",
              "type": "tuple"
            }
          ],
          "indexed": false,
          "internalType": "struct Staking.Stake",
          "name": "stake",
          "type": "tuple"
        }
      ],
      "name": "StakeRequested",
      "type": "event"
    },
    {
      "inputs": [],
      "name": "owner",
      "outputs": [
        {
          "internalType": "address payable",
          "name": "",
          "type": "address"
        }
      ],
      "stateMutability": "view",
      "type": "function",
      "constant": true
    },
    {
      "inputs": [
        {
          "internalType": "address",
          "name": "",
          "type": "address"
        }
      ],
      "name": "players",
      "outputs": [
        {
          "internalType": "address payable",
          "name": "playerAddress",
          "type": "address"
        },
        {
          "internalType": "string",
          "name": "apiId",
          "type": "string"
        },
        {
          "internalType": "string",
          "name": "name",
          "type": "string"
        },
        {
          "internalType": "string",
          "name": "sharkscopeLink",
          "type": "string"
        },
        {
          "internalType": "string",
          "name": "profilePicPath",
          "type": "string"
        },
        {
          "internalType": "uint256",
          "name": "createdTimestamp",
          "type": "uint256"
        },
        {
          "internalType": "bool",
          "name": "canCreateStake",
          "type": "bool"
        }
      ],
      "stateMutability": "view",
      "type": "function",
      "constant": true
    },
    {
      "inputs": [],
      "name": "requestCount",
      "outputs": [
        {
          "internalType": "uint256",
          "name": "",
          "type": "uint256"
        }
      ],
      "stateMutability": "view",
      "type": "function",
      "constant": true
    },
    {
      "inputs": [
        {
          "internalType": "uint256",
          "name": "",
          "type": "uint256"
        }
      ],
      "name": "stakes",
      "outputs": [
        {
          "internalType": "uint256",
          "name": "id",
          "type": "uint256"
        },
        {
          "internalType": "address payable",
          "name": "horse",
          "type": "address"
        },
        {
          "components": [
            {
              "internalType": "address payable[]",
              "name": "backers",
              "type": "address[]"
            },
            {
              "internalType": "uint256[]",
              "name": "investments",
              "type": "uint256[]"
            },
            {
              "internalType": "uint256[]",
              "name": "backerReturns",
              "type": "uint256[]"
            },
            {
              "internalType": "uint256",
              "name": "filledAmount",
              "type": "uint256"
            },
            {
              "internalType": "uint256",
              "name": "playThreshold",
              "type": "uint256"
            }
          ],
          "internalType": "struct Staking.InvestmentDetails",
          "name": "investmentDetails",
          "type": "tuple"
        },
        {
          "internalType": "uint256",
          "name": "amount",
          "type": "uint256"
        },
        {
          "internalType": "uint256",
          "name": "escrow",
          "type": "uint256"
        },
        {
          "internalType": "uint256",
          "name": "profitShare",
          "type": "uint256"
        },
        {
          "internalType": "int256",
          "name": "pnl",
          "type": "int256"
        },
        {
          "internalType": "uint256",
          "name": "backerReturns",
          "type": "uint256"
        },
        {
          "internalType": "enum Staking.StakeStatus",
          "name": "status",
          "type": "uint8"
        },
        {
          "internalType": "enum Staking.GameType",
          "name": "gameType",
          "type": "uint8"
        },
        {
          "internalType": "string",
          "name": "apiId",
          "type": "string"
        },
        {
          "components": [
            {
              "internalType": "uint256",
              "name": "createdTimestamp",
              "type": "uint256"
            },
            {
              "internalType": "uint256",
              "name": "lastFilledTimestamp",
              "type": "uint256"
            },
            {
              "internalType": "uint256",
              "name": "gamePlayedTimestamp",
              "type": "uint256"
            },
            {
              "internalType": "uint256",
              "name": "scheduledForTimestamp",
              "type": "uint256"
            }
          ],
          "internalType": "struct Staking.StakeTimeStamp",
          "name": "stakeTimeStamp",
          "type": "tuple"
        }
      ],
      "stateMutability": "view",
      "type": "function",
      "constant": true
    },
    {
      "inputs": [],
      "name": "token",
      "outputs": [
        {
          "internalType": "contract Token",
          "name": "",
          "type": "address"
        }
      ],
      "stateMutability": "view",
      "type": "function",
      "constant": true
    },
    {
      "inputs": [
        {
          "internalType": "string",
          "name": "apiId",
          "type": "string"
        },
        {
          "internalType": "string",
          "name": "name",
          "type": "string"
        },
        {
          "internalType": "string",
          "name": "sharkscopeLink",
          "type": "string"
        },
        {
          "internalType": "string",
          "name": "profilePicPath",
          "type": "string"
        }
      ],
      "name": "createPlayer",
      "outputs": [],
      "stateMutability": "payable",
      "type": "function",
      "payable": true
    },
    {
      "inputs": [
        {
          "internalType": "address",
          "name": "add",
          "type": "address"
        }
      ],
      "name": "getPlayer",
      "outputs": [
        {
          "components": [
            {
              "internalType": "address payable",
              "name": "playerAddress",
              "type": "address"
            },
            {
              "internalType": "string",
              "name": "apiId",
              "type": "string"
            },
            {
              "internalType": "string",
              "name": "name",
              "type": "string"
            },
            {
              "internalType": "string",
              "name": "sharkscopeLink",
              "type": "string"
            },
            {
              "internalType": "string",
              "name": "profilePicPath",
              "type": "string"
            },
            {
              "internalType": "uint256[]",
              "name": "stakeIds",
              "type": "uint256[]"
            },
            {
              "internalType": "uint256",
              "name": "createdTimestamp",
              "type": "uint256"
            },
            {
              "internalType": "bool",
              "name": "canCreateStake",
              "type": "bool"
            }
          ],
          "internalType": "struct Staking.Player",
          "name": "",
          "type": "tuple"
        }
      ],
      "stateMutability": "view",
      "type": "function",
      "constant": true
    },
    {
      "inputs": [
        {
          "internalType": "string",
          "name": "name",
          "type": "string"
        },
        {
          "internalType": "string",
          "name": "sharkscopeLink",
          "type": "string"
        },
        {
          "internalType": "string",
          "name": "profilePicPath",
          "type": "string"
        }
      ],
      "name": "editPlayer",
      "outputs": [],
      "stateMutability": "nonpayable",
      "type": "function"
    },
    {
      "inputs": [],
      "name": "kill",
      "outputs": [],
      "stateMutability": "nonpayable",
      "type": "function"
    },
    {
      "inputs": [
        {
          "internalType": "uint256",
          "name": "id",
          "type": "uint256"
        }
      ],
      "name": "getStake",
      "outputs": [
        {
          "components": [
            {
              "internalType": "uint256",
              "name": "id",
              "type": "uint256"
            },
            {
              "internalType": "address payable",
              "name": "horse",
              "type": "address"
            },
            {
              "components": [
                {
                  "internalType": "address payable[]",
                  "name": "backers",
                  "type": "address[]"
                },
                {
                  "internalType": "uint256[]",
                  "name": "investments",
                  "type": "uint256[]"
                },
                {
                  "internalType": "uint256[]",
                  "name": "backerReturns",
                  "type": "uint256[]"
                },
                {
                  "internalType": "uint256",
                  "name": "filledAmount",
                  "type": "uint256"
                },
                {
                  "internalType": "uint256",
                  "name": "playThreshold",
                  "type": "uint256"
                }
              ],
              "internalType": "struct Staking.InvestmentDetails",
              "name": "investmentDetails",
              "type": "tuple"
            },
            {
              "internalType": "uint256",
              "name": "amount",
              "type": "uint256"
            },
            {
              "internalType": "uint256",
              "name": "escrow",
              "type": "uint256"
            },
            {
              "internalType": "uint256",
              "name": "profitShare",
              "type": "uint256"
            },
            {
              "internalType": "int256",
              "name": "pnl",
              "type": "int256"
            },
            {
              "internalType": "uint256",
              "name": "backerReturns",
              "type": "uint256"
            },
            {
              "internalType": "enum Staking.StakeStatus",
              "name": "status",
              "type": "uint8"
            },
            {
              "internalType": "enum Staking.GameType",
              "name": "gameType",
              "type": "uint8"
            },
            {
              "internalType": "string",
              "name": "apiId",
              "type": "string"
            },
            {
              "components": [
                {
                  "internalType": "uint256",
                  "name": "createdTimestamp",
                  "type": "uint256"
                },
                {
                  "internalType": "uint256",
                  "name": "lastFilledTimestamp",
                  "type": "uint256"
                },
                {
                  "internalType": "uint256",
                  "name": "gamePlayedTimestamp",
                  "type": "uint256"
                },
                {
                  "internalType": "uint256",
                  "name": "scheduledForTimestamp",
                  "type": "uint256"
                }
              ],
              "internalType": "struct Staking.StakeTimeStamp",
              "name": "stakeTimeStamp",
              "type": "tuple"
            }
          ],
          "internalType": "struct Staking.Stake",
          "name": "",
          "type": "tuple"
        }
      ],
      "stateMutability": "view",
      "type": "function",
      "constant": true
    },
    {
      "inputs": [
        {
          "internalType": "uint256",
          "name": "amount",
          "type": "uint256"
        },
        {
          "internalType": "uint256",
          "name": "profitShare",
          "type": "uint256"
        },
        {
          "internalType": "uint256",
          "name": "escrow",
          "type": "uint256"
        },
        {
          "internalType": "uint256",
          "name": "playThreshold",
          "type": "uint256"
        },
        {
          "internalType": "enum Staking.GameType",
          "name": "gameType",
          "type": "uint8"
        },
        {
          "internalType": "string",
          "name": "apiId",
          "type": "string"
        },
        {
          "internalType": "uint256",
          "name": "scheduledFor",
          "type": "uint256"
        }
      ],
      "name": "createRequest",
      "outputs": [],
      "stateMutability": "payable",
      "type": "function",
      "payable": true
    },
    {
      "inputs": [
        {
          "internalType": "uint256",
          "name": "id",
          "type": "uint256"
        },
        {
          "internalType": "uint256",
          "name": "amount",
          "type": "uint256"
        }
      ],
      "name": "stakeHorse",
      "outputs": [],
      "stateMutability": "payable",
      "type": "function",
      "payable": true
    },
    {
      "inputs": [
        {
          "internalType": "uint256[]",
          "name": "ids",
          "type": "uint256[]"
        },
        {
          "internalType": "uint256[]",
          "name": "amounts",
          "type": "uint256[]"
        }
      ],
      "name": "stakeMultipleGamesOnHorse",
      "outputs": [],
      "stateMutability": "payable",
      "type": "function",
      "payable": true
    },
    {
      "inputs": [
        {
          "internalType": "uint256",
          "name": "id",
          "type": "uint256"
        }
      ],
      "name": "expireStake",
      "outputs": [],
      "stateMutability": "nonpayable",
      "type": "function"
    },
    {
      "inputs": [
        {
          "internalType": "uint256",
          "name": "id",
          "type": "uint256"
        }
      ],
      "name": "cancelStakeAsHorse",
      "outputs": [],
      "stateMutability": "nonpayable",
      "type": "function"
    },
    {
      "inputs": [
        {
          "internalType": "uint256",
          "name": "id",
          "type": "uint256"
        }
      ],
      "name": "returnProfits",
      "outputs": [],
      "stateMutability": "payable",
      "type": "function",
      "payable": true
    },
    {
      "inputs": [
        {
          "internalType": "uint256",
          "name": "id",
          "type": "uint256"
        },
        {
          "internalType": "int256",
          "name": "pnl",
          "type": "int256"
        }
      ],
      "name": "gamePlayed",
      "outputs": [],
      "stateMutability": "nonpayable",
      "type": "function"
    },
    {
      "inputs": [
        {
          "internalType": "uint256",
          "name": "id",
          "type": "uint256"
        }
      ],
      "name": "backerClaimEscrow",
      "outputs": [],
      "stateMutability": "nonpayable",
      "type": "function"
    }
  ],
  "bytecode": "0x608060405260006001553480156200001657600080fd5b50604051620047743803806200477483398101604081905262000039916200006d565b60038054336001600160a01b031991821617909155600080549091166001600160a01b03929092169190911790556200009f565b6000602082840312156200008057600080fd5b81516001600160a01b03811681146200009857600080fd5b9392505050565b6146c580620000af6000396000f3fe6080604052600436106101095760003560e01c80635f9af98111610095578063d5a44f8611610064578063d5a44f86146102b9578063d8aedc55146102f1578063dddc0b9114610304578063e2eb41ff14610317578063fc0c546a1461034a57600080fd5b80635f9af9811461022e5780638da5cb5b14610241578063a9b25f7b14610279578063ce325bf81461028c57600080fd5b806353da1bd0116100dc57806353da1bd0146101785780635badbe4c146101985780635c12cd4b146101c15780635dee65dc146101ee5780635f9047751461020e57600080fd5b80630be3721d1461010e5780631a55d43b1461012357806341c0e1b51461014357806352ec50ce14610158575b600080fd5b61012161011c366004613a4c565b61036a565b005b34801561012f57600080fd5b5061012161013e366004613a4c565b6107b7565b34801561014f57600080fd5b50610121610e8b565b34801561016457600080fd5b50610121610173366004613b08565b610ec4565b34801561018457600080fd5b50610121610193366004613a4c565b610fdd565b3480156101a457600080fd5b506101ae60015481565b6040519081526020015b60405180910390f35b3480156101cd57600080fd5b506101e16101dc366004613b90565b6112e6565b6040516101b89190613c48565b3480156101fa57600080fd5b50610121610209366004613d1f565b61162d565b34801561021a57600080fd5b50610121610229366004613a4c565b611914565b61012161023c366004613d41565b611efd565b34801561024d57600080fd5b50600354610261906001600160a01b031681565b6040516001600160a01b0390911681526020016101b8565b610121610287366004613d1f565b61228a565b34801561029857600080fd5b506102ac6102a7366004613a4c565b612829565b6040516101b89190613e99565b3480156102c557600080fd5b506102d96102d4366004613a4c565b612b33565b6040516101b89c9b9a99989796959493929190613f93565b6101216102ff366004614050565b612d86565b610121610312366004614149565b612ed1565b34801561032357600080fd5b50610337610332366004613b90565b61352e565b6040516101b897969594939291906141b5565b34801561035657600080fd5b50600054610261906001600160a01b031681565b610375816001541190565b61039a576040516333200a8b60e11b8152600481018290526024015b60405180910390fd5b600081815260026020526040902060018101546001600160a01b031633146103f3576001810154604051636764e9b760e01b8152600481018490523360248201526001600160a01b039091166044820152606401610391565b6004600c82015460ff16600781111561040e5761040e613e5f565b1461043957600c81015460405163fb98578360e01b815261039191849160ff9091169060040161422f565b60005b6002820154811015610531576000546002830180546001600160a01b03909216916323b872dd9133918590811061047557610475614243565b6000918252602090912001546004860180546001600160a01b0390921691869081106104a3576104a3614243565b90600052602060002001546040518463ffffffff1660e01b81526004016104cc93929190614259565b602060405180830381600087803b1580156104e657600080fd5b505af11580156104fa573d6000803e3d6000fd5b505050506040513d601f19601f8201168201806040525081019061051e919061427d565b5080610529816142b5565b91505061043c565b506008810154156105ce576000546001820154600883015460405163a9059cbb60e01b81526001600160a01b039283166004820152602481019190915291169063a9059cbb90604401602060405180830381600087803b15801561059457600080fd5b505af11580156105a8573d6000803e3d6000fd5b505050506040513d601f19601f820116820180604052508101906105cc919061427d565b505b600c810180546005919060ff19166001830217905550600181810180546001600160a01b039081166000908152600460209081526040808320600701805460ff19168717905587835260029182905290912085548155925493830180546001600160a01b03191694909216939093179055818301805484938301906106569082908490613797565b506001828101805461066b9284019190613797565b50600282810180546106809284019190613797565b5060038281015490820155600491820154910155600782810154828201556008808401549083015560098084015490830155600a8084015490830155600b8084015490830155600c80840154908301805460ff90921692909160ff19169060019084908111156106f2576106f2613e5f565b0217905550600c82810154908201805460ff61010093849004169261ff00199091169083600181111561072757610727613e5f565b0217905550600d820181600d01908054610740906142d0565b61074b9291906137e7565b50600e8281015490820155600f808301549082015560108083015490820155601191820154910155600b8101546040805184815260208101929092527f120c71dc5e7cec3dab59d0ac108c8fcf42b7789d60d79cadf046b35476c321b991015b60405180910390a15050565b6107c2816001541190565b6107e2576040516333200a8b60e11b815260048101829052602401610391565b60008181526002602081815260408084208151610180810183528154815260018201546001600160a01b0316818501528251948201805460c095810287018601855260a087018181529296939594870194919284929091849184018282801561087457602002820191906000526020600020905b81546001600160a01b03168152600190910190602001808311610856575b50505050508152602001600182018054806020026020016040519081016040528092919081815260200182805480156108cc57602002820191906000526020600020905b8154815260200190600101908083116108b8575b505050505081526020016002820180548060200260200160405190810160405280929190818152602001828054801561092457602002820191906000526020600020905b815481526020019060010190808311610910575b50505050508152602001600382015481526020016004820154815250508152602001600782015481526020016008820154815260200160098201548152602001600a8201548152602001600b8201548152602001600c820160009054906101000a900460ff16600781111561099b5761099b613e5f565b60078111156109ac576109ac613e5f565b8152602001600c820160019054906101000a900460ff1660018111156109d4576109d4613e5f565b60018111156109e5576109e5613e5f565b8152602001600d820180546109f9906142d0565b80601f0160208091040260200160405190810160405280929190818152602001828054610a25906142d0565b8015610a725780601f10610a4757610100808354040283529160200191610a72565b820191906000526020600020905b815481529060010190602001808311610a5557829003601f168201915b505050918352505060408051608081018252600e8401548152600f84015460208281019190915260108501549282019290925260119093015460608401520152905060008161010001516007811115610acd57610acd613e5f565b14158015610af2575060078161010001516007811115610aef57610aef613e5f565b14155b15610b185761010081015160405163c17f7b2360e01b815261039191849160040161422f565b60078161010001516007811115610b3157610b31613e5f565b1415610c385760005b60408201515151811015610c365760005460408301515180516001600160a01b039092169163a9059cbb919084908110610b7657610b76614243565b60200260200101518460400151602001518481518110610b9857610b98614243565b60200260200101516040518363ffffffff1660e01b8152600401610bd19291906001600160a01b03929092168252602082015260400190565b602060405180830381600087803b158015610beb57600080fd5b505af1158015610bff573d6000803e3d6000fd5b505050506040513d601f19601f82011682018060405250810190610c23919061427d565b5080610c2e816142b5565b915050610b3a565b505b608081015115610cd4576000546020820151608083015160405163a9059cbb60e01b81526001600160a01b039283166004820152602481019190915291169063a9059cbb90604401602060405180830381600087803b158015610c9a57600080fd5b505af1158015610cae573d6000803e3d6000fd5b505050506040513d601f19601f82011682018060405250810190610cd2919061427d565b505b600261010082018190526000838152602082815260409182902084518155818501516001820180546001600160a01b0319166001600160a01b0390921691909117905591840151805180518695929392850192610d35928492910190613861565b506020828101518051610d4e92600185019201906138b6565b5060408201518051610d6a9160028401916020909101906138b6565b5060608201518160030155608082015181600401555050606082015181600701556080820151816008015560a0820151816009015560c082015181600a015560e082015181600b015561010082015181600c0160006101000a81548160ff02191690836007811115610dde57610dde613e5f565b0217905550610120820151600c8201805461ff001916610100836001811115610e0957610e09613e5f565b02179055506101408201518051610e2a91600d8401916020909101906138f1565b5061016091909101518051600e830155602080820151600f8401556040808301516010850155606090920151601190930192909255518381527f6c34b941d3225b0d595f0c4a79b97e492c627f68a9b6c9e21084e68511f618c291016107ab565b6003546001600160a01b03163314610eb65760405163102fe0af60e11b815260040160405180910390fd5b6003546001600160a01b0316ff5b336000908152600460205260409020546001600160a01b0316610f2f576040513381527f2331a775e7acafeac91fb7978e92af7120c11dec8c6e73fd7f2be8ab7a92aee09060200160405180910390a1604051631c56515760e31b8152336004820152602401610391565b3360009081526004602090815260409091208451610f55926002909201918601906138f1565b503360009081526004602090815260409091208351610f7c926003909201918501906138f1565b503360009081526004602081815260409092208351610fa3939190920191908401906138f1565b506040513381527f2331a775e7acafeac91fb7978e92af7120c11dec8c6e73fd7f2be8ab7a92aee0906020015b60405180910390a1505050565b610fe8816001541190565b611008576040516333200a8b60e11b815260048101829052602401610391565b60046000828152600260205260409020600c015460ff16600781111561103057611030613e5f565b146110695760008181526002602052604090819020600c01549051630c68324760e11b815261039191839160ff9091169060040161422f565b6000818152600260205260409020600801546110b65760008181526002602052604090819020600801549051634889d8e160e11b8152610391918391600401918252602082015260400190565b6000805b6000838152600260208190526040909120015481101561125e576000838152600260208190526040909120018054829081106110f8576110f8614243565b6000918252602090912001546001600160a01b031633141561124c57600080548482526002602081905260409092209091018054600194506001600160a01b039092169163a9059cbb91908490811061115357611153614243565b6000918252602080832090910154878352600290915260409091206005810154600390910180546001600160a01b03909316928690811061119657611196614243565b906000526020600020015460026000898152602001908152602001600020600801546111c2919061430b565b6111cc919061432a565b6040516001600160e01b031960e085901b1681526001600160a01b0390921660048301526024820152604401602060405180830381600087803b15801561121257600080fd5b505af1158015611226573d6000803e3d6000fd5b505050506040513d601f19601f8201168201806040525081019061124a919061427d565b505b80611256816142b5565b9150506110ba565b5080611286576040516305a16d1960e31b815260048101839052336024820152604401610391565b600082815260026020908152604091829020600c8101805460ff191660061790556008015482518581529182015233918101919091527fa768e527233d17984f1796f3e374ca38761c79bc6e27ae499cb41343983a6997906060016107ab565b61133960405180610100016040528060006001600160a01b031681526020016060815260200160608152602001606081526020016060815260200160608152602001600081526020016000151581525090565b6001600160a01b0380831660009081526004602090815260409182902082516101008101909352805490931682526001830180549293929184019161137d906142d0565b80601f01602080910402602001604051908101604052809291908181526020018280546113a9906142d0565b80156113f65780601f106113cb576101008083540402835291602001916113f6565b820191906000526020600020905b8154815290600101906020018083116113d957829003601f168201915b5050505050815260200160028201805461140f906142d0565b80601f016020809104026020016040519081016040528092919081815260200182805461143b906142d0565b80156114885780601f1061145d57610100808354040283529160200191611488565b820191906000526020600020905b81548152906001019060200180831161146b57829003601f168201915b505050505081526020016003820180546114a1906142d0565b80601f01602080910402602001604051908101604052809291908181526020018280546114cd906142d0565b801561151a5780601f106114ef5761010080835404028352916020019161151a565b820191906000526020600020905b8154815290600101906020018083116114fd57829003601f168201915b50505050508152602001600482018054611533906142d0565b80601f016020809104026020016040519081016040528092919081815260200182805461155f906142d0565b80156115ac5780601f10611581576101008083540402835291602001916115ac565b820191906000526020600020905b81548152906001019060200180831161158f57829003601f168201915b505050505081526020016005820180548060200260200160405190810160405280929190818152602001828054801561160457602002820191906000526020600020905b8154815260200190600101908083116115f0575b50505091835250506006820154602082015260079091015460ff16151560409091015292915050565b611638826001541190565b611658576040516333200a8b60e11b815260048101839052602401610391565b60016000838152600260205260409020600c015460ff16600781111561168057611680613e5f565b14806116d3575060076000838152600260205260409020600c015460ff1660078111156116af576116af613e5f565b1480156116d357506000828152600260205260409020600681015460059091015410155b61170b5760008281526002602052604090819020600c01549051634696731360e11b815261039191849160ff9091169060040161422f565b6000808212156117855760008381526002602052604081206005015461173290849061434c565b90506000811361175f576000848152600260205260408120600c01805460ff19166005179055915061177f565b6000848152600260205260409020600c01805460ff191660041790559050805b506117e9565b6000838152600260205260409020600901546064906117a4908461430b565b6117ae919061432a565b6000848152600260205260409020600501546117ca919061438d565b6000848152600260205260409020600c01805460ff1916600417905590505b60005b600084815260026020819052604090912001548110156118915760008481526002602052604090206005810154600390910180548390811061183057611830614243565b906000526020600020015483611846919061430b565b611850919061432a565b600085815260026020526040902060040180548390811061187357611873614243565b60009182526020909120015580611889816142b5565b9150506117ec565b506000838152600260209081526040808320600a8101869055600b8101859055426010820155600101546001600160a01b031683526004825291829020600701805460ff1916905581518581529081018490529081018290527f16c789abef2652197ccb19511e836a8f2ef9394a419b3cff6efb5fa69de8271c90606001610fd0565b61191f816001541190565b61193f576040516333200a8b60e11b815260048101829052602401610391565b60008181526002602081815260408084208151610180810183528154815260018201546001600160a01b0316818501528251948201805460c095810287018601855260a08701818152929693959487019491928492909184918401828280156119d157602002820191906000526020600020905b81546001600160a01b031681526001909101906020018083116119b3575b5050505050815260200160018201805480602002602001604051908101604052809291908181526020018280548015611a2957602002820191906000526020600020905b815481526020019060010190808311611a15575b5050505050815260200160028201805480602002602001604051908101604052809291908181526020018280548015611a8157602002820191906000526020600020905b815481526020019060010190808311611a6d575b50505050508152602001600382015481526020016004820154815250508152602001600782015481526020016008820154815260200160098201548152602001600a8201548152602001600b8201548152602001600c820160009054906101000a900460ff166007811115611af857611af8613e5f565b6007811115611b0957611b09613e5f565b8152602001600c820160019054906101000a900460ff166001811115611b3157611b31613e5f565b6001811115611b4257611b42613e5f565b8152602001600d82018054611b56906142d0565b80601f0160208091040260200160405190810160405280929190818152602001828054611b82906142d0565b8015611bcf5780601f10611ba457610100808354040283529160200191611bcf565b820191906000526020600020905b815481529060010190602001808311611bb257829003601f168201915b50505050508152602001600e820160405180608001604052908160008201548152602001600182015481526020016002820154815260200160038201548152505081525050905080602001516001600160a01b0316336001600160a01b031614611c6a57602081015160405163fc1bd14560e01b8152600481018490523360248201526001600160a01b039091166044820152606401610391565b60008161010001516007811115611c8357611c83613e5f565b14611ca95761010081015160405163050ec7a160e31b815261039191849160040161422f565b608081015115611d45576000546020820151608083015160405163a9059cbb60e01b81526001600160a01b039283166004820152602481019190915291169063a9059cbb90604401602060405180830381600087803b158015611d0b57600080fd5b505af1158015611d1f573d6000803e3d6000fd5b505050506040513d601f19601f82011682018060405250810190611d43919061427d565b505b600361010082015260008281526002602081815260409283902084518155818501516001820180546001600160a01b0319166001600160a01b039092169190911790559284015180518051869594929392850192611da7928492910190613861565b506020828101518051611dc092600185019201906138b6565b5060408201518051611ddc9160028401916020909101906138b6565b5060608201518160030155608082015181600401555050606082015181600701556080820151816008015560a0820151816009015560c082015181600a015560e082015181600b015561010082015181600c0160006101000a81548160ff02191690836007811115611e5057611e50613e5f565b0217905550610120820151600c8201805461ff001916610100836001811115611e7b57611e7b613e5f565b02179055506101408201518051611e9c91600d8401916020909101906138f1565b5061016091909101518051600e830155602080820151600f8401556040808301516010850155606090920151601190930192909255518381527f5d556abff222ff6c24a87f221f26036806352e4b08fb27b5a885d5f0064264a491016107ab565b336000908152600460205260409020546001600160a01b0316611f355760405163a125d24160e01b8152336004820152602401610391565b3360009081526004602052604090206007015460ff16611f6a57604051632ab50b9d60e21b8152336004820152602401610391565b6064861115611f8f57604051633d2c9c1b60e11b815260048101879052602401610391565b841561201d576000546040516323b872dd60e01b81526001600160a01b03909116906323b872dd90611fc990339030908a90600401614259565b602060405180830381600087803b158015611fe357600080fd5b505af1158015611ff7573d6000803e3d6000fd5b505050506040513d601f19601f8201168201806040525081019061201b919061427d565b505b6000604051806080016040528042815260200160008152602001600081526020018381525090506120766040518060a0016040528060608152602001606081526020016060815260200160008152602001600081525090565b6080810186905260018054600081815260026020818152604080842094855593850180546001600160a01b03191633179055845483528383206007018e9055845483528383206005018390559354825291902083518051859492909301926120e19284920190613861565b5060208281015180516120fa92600185019201906138b6565b50604082015180516121169160028401916020909101906138b6565b5060608201516003820155608090910151600490910155600180546000908152600260205260408082206008018a9055825482528082206009018b905582548252808220600c908101805460ff19169055835483529120018054879261ff00199091169061010090849081111561218f5761218f613e5f565b0217905550600154600090815260026020908152604090912085516121bc92600d909201918701906138f1565b506001805460009081526002602090815260408083208651600e82015582870151600f820155818701516010820155606087015160119091015533835260048252822083546005909101805480860182559084529183209091015581549190612224836142b5565b91905055507f74b2fcd82579577d402b8188390b8447c55bdaec3bfb7a4946045a97294a5048600260006001805461225c91906143a5565b81526020019081526020016000206040516122779190614612565b60405180910390a1505050505050505050565b60015482106122af576040516333200a8b60e11b815260048101839052602401610391565b600082815260026020526040812090600c82015460ff1660078111156122d7576122d7613e5f565b141580156122fe57506007600c82015460ff1660078111156122fb576122fb613e5f565b14155b1561231f576040516363d82b4360e01b815260048101849052602401610391565b60018101546001600160a01b031633808214156123695760405163b6ccca7f60e01b8152600481018690526001600160a01b03808416602483015282166044820152606401610391565b6007830154600584015461237d908661438d565b11156123c65784848460020160030154856007015461239c91906143a5565b604051630f59198960e01b8152600481019390935260248301919091526044820152606401610391565b6006830154600584018054600c8601805460ff1916600717905591821015918691906000906123f690849061438d565b909155505060078401546005850154141561241b57600c8401805460ff191660011790555b8015801561243157506006840154600585015410155b15612554576000546040516323b872dd60e01b81526001600160a01b03909116906323b872dd9061246a90339030908a90600401614259565b602060405180830381600087803b15801561248457600080fd5b505af1158015612498573d6000803e3d6000fd5b505050506040513d601f19601f820116820180604052508101906124bc919061427d565b506000546001850154600586015460405163a9059cbb60e01b81526001600160a01b039283166004820152602481019190915291169063a9059cbb906044015b602060405180830381600087803b15801561251657600080fd5b505af115801561252a573d6000803e3d6000fd5b505050506040513d601f19601f8201168201806040525081019061254e919061427d565b50612626565b600684015460058501541061259e5760005460018501546040516323b872dd60e01b81526001600160a01b03928316926323b872dd926124fc923392909116908a90600401614259565b6000546040516323b872dd60e01b81526001600160a01b03909116906323b872dd906125d290339030908a90600401614259565b602060405180830381600087803b1580156125ec57600080fd5b505af1158015612600573d6000803e3d6000fd5b505050506040513d601f19601f82011682018060405250810190612624919061427d565b505b60028085018054600181810183556000838152602080822090930180546001600160a01b03808a166001600160a01b03199283161790925560038b0180548086018255908452858420018c905560048b01805480860182559084528584200183905542600f8c01558c835293869052604090912089548155828a015492810180549094169290911691909117909155815487939192918301906126cc9082908490613797565b50600182810180546126e19284019190613797565b50600282810180546126f69284019190613797565b5060038281015490820155600491820154910155600782810154828201556008808401549083015560098084015490830155600a8084015490830155600b8084015490830155600c80840154908301805460ff90921692909160ff191690600190849081111561276857612768613e5f565b0217905550600c82810154908201805460ff61010093849004169261ff00199091169083600181111561279d5761279d613e5f565b0217905550600d820181600d019080546127b6906142d0565b6127c19291906137e7565b50600e8281015490820155600f8083015490820155601080830154908201556011918201549101556040517fd8bcc4c3f457f8c4855c1b35305da14304eece612b6af8babd3ddfc09598bbd490612819908690614612565b60405180910390a1505050505050565b612831613964565b61283c826001541190565b61285c576040516333200a8b60e11b815260048101839052602401610391565b6000828152600260208181526040928390208351610180810185528154815260018201546001600160a01b0316818401528451938201805460c094810286018501875260a08601818152929693959387019491928492909184918401828280156128ef57602002820191906000526020600020905b81546001600160a01b031681526001909101906020018083116128d1575b505050505081526020016001820180548060200260200160405190810160405280929190818152602001828054801561294757602002820191906000526020600020905b815481526020019060010190808311612933575b505050505081526020016002820180548060200260200160405190810160405280929190818152602001828054801561299f57602002820191906000526020600020905b81548152602001906001019080831161298b575b50505050508152602001600382015481526020016004820154815250508152602001600782015481526020016008820154815260200160098201548152602001600a8201548152602001600b8201548152602001600c820160009054906101000a900460ff166007811115612a1657612a16613e5f565b6007811115612a2757612a27613e5f565b8152602001600c820160019054906101000a900460ff166001811115612a4f57612a4f613e5f565b6001811115612a6057612a60613e5f565b8152602001600d82018054612a74906142d0565b80601f0160208091040260200160405190810160405280929190818152602001828054612aa0906142d0565b8015612aed5780601f10612ac257610100808354040283529160200191612aed565b820191906000526020600020905b815481529060010190602001808311612ad057829003601f168201915b505050918352505060408051608081018252600e8401548152600f8401546020828101919091526010850154928201929092526011909301546060840152015292915050565b600260208181526000928352604092839020805460018201548551948301805460c09581028701860190975260a0860187815292966001600160a01b03909216959394909284929091849190840182828015612bb857602002820191906000526020600020905b81546001600160a01b03168152600190910190602001808311612b9a575b5050505050815260200160018201805480602002602001604051908101604052809291908181526020018280548015612c1057602002820191906000526020600020905b815481526020019060010190808311612bfc575b5050505050815260200160028201805480602002602001604051908101604052809291908181526020018280548015612c6857602002820191906000526020600020905b815481526020019060010190808311612c54575b505050918352505060038201546020820152600490910154604090910152600782015460088301546009840154600a850154600b860154600c870154600d8801805497989697959694959394929360ff8084169461010090940416929190612ccf906142d0565b80601f0160208091040260200160405190810160405280929190818152602001828054612cfb906142d0565b8015612d485780601f10612d1d57610100808354040283529160200191612d48565b820191906000526020600020905b815481529060010190602001808311612d2b57829003601f168201915b505060408051608081018252600e8701548152600f8701546020820152601087015491810191909152601190950154606086015250919291508d9050565b336000908152600460205260409020546001600160a01b031615612dbf5760405163304e021f60e11b8152336004820152602401610391565b3360009081526004602090815260409091208551612de5926001909201918701906138f1565b5033600081815260046020908152604090912080546001600160a01b03191690921782558451612e1b92600201918601906138f1565b503360009081526004602090815260409091208351612e42926003909201918501906138f1565b503360009081526004602081815260409092208351612e69939190920191908401906138f1565b503360008181526004602052604090819020426006820155600701805460ff19166001179055517f7f9d16a3c205132230d8fdf1dbfaa2b2b741f5a3f0599a6c813d1e94acd66e3291612ec3918790879087908790614625565b60405180910390a150505050565b6001831015612ef5576040516318f12a9560e01b8152336004820152602401610391565b600080805260026020527fac33ff75c19e70fe83507db0d683fd3465c996598dc972688b7ace676c89077c5433916001600160a01b03909116905b858110156134fd576000878783818110612f4c57612f4c614243565b9050602002013590506001548110612f7a576040516333200a8b60e11b815260048101829052602401610391565b600081815260026020526040812090600c82015460ff166007811115612fa257612fa2613e5f565b14158015612fc957506007600c82015460ff166007811115612fc657612fc6613e5f565b14155b15612fea576040516363d82b4360e01b815260048101839052602401610391565b846001600160a01b0316846001600160a01b031614156130375760405163b6ccca7f60e01b8152600481018390526001600160a01b03808616602483015286166044820152606401610391565b600087878581811061304b5761304b614243565b905060200201359050816007015482600201600301548261306c919061438d565b111561308b5782818360020160030154846007015461239c91906143a5565b6006820154600583018054600c8501805460ff1916600717905591821015918391906000906130bb90849061438d565b90915550506007830154600584015414156130e057600c8301805460ff191660011790555b801580156130f657506006830154600584015410155b15613219576000546040516323b872dd60e01b81526001600160a01b03909116906323b872dd9061312f90339030908790600401614259565b602060405180830381600087803b15801561314957600080fd5b505af115801561315d573d6000803e3d6000fd5b505050506040513d601f19601f82011682018060405250810190613181919061427d565b506000546001840154600585015460405163a9059cbb60e01b81526001600160a01b039283166004820152602481019190915291169063a9059cbb906044015b602060405180830381600087803b1580156131db57600080fd5b505af11580156131ef573d6000803e3d6000fd5b505050506040513d601f19601f82011682018060405250810190613213919061427d565b506132eb565b60068301546005840154106132635760005460018401546040516323b872dd60e01b81526001600160a01b03928316926323b872dd926131c1923392909116908790600401614259565b6000546040516323b872dd60e01b81526001600160a01b03909116906323b872dd9061329790339030908790600401614259565b602060405180830381600087803b1580156132b157600080fd5b505af11580156132c5573d6000803e3d6000fd5b505050506040513d601f19601f820116820180604052508101906132e9919061427d565b505b60028084018054600181810183556000838152602080822090930180546001600160a01b03808f166001600160a01b03199283161790925560038a01805480860182559084528584200189905560048a01805480860182559084528584200183905542600f8b01558a8352938690526040909120885481558289015492810180549094169290911691909117909155815486939192918301906133919082908490613797565b50600182810180546133a69284019190613797565b50600282810180546133bb9284019190613797565b5060038281015490820155600491820154910155600782810154828201556008808401549083015560098084015490830155600a8084015490830155600b8084015490830155600c80840154908301805460ff90921692909160ff191690600190849081111561342d5761342d613e5f565b0217905550600c82810154908201805460ff61010093849004169261ff00199091169083600181111561346257613462613e5f565b0217905550600d820181600d0190805461347b906142d0565b6134869291906137e7565b50600e8281015490820155600f8083015490820155601080830154908201556011918201549101556040517fd8bcc4c3f457f8c4855c1b35305da14304eece612b6af8babd3ddfc09598bbd4906134de908590614612565b60405180910390a15050505080806134f5906142b5565b915050612f30565b506040518581527ff051953d79f418ca95b84a3bd32cf9eef5649d7bf216947fab4ca85b650aa80990602001612819565b600460205260009081526040902080546001820180546001600160a01b03909216929161355a906142d0565b80601f0160208091040260200160405190810160405280929190818152602001828054613586906142d0565b80156135d35780601f106135a8576101008083540402835291602001916135d3565b820191906000526020600020905b8154815290600101906020018083116135b657829003601f168201915b5050505050908060020180546135e8906142d0565b80601f0160208091040260200160405190810160405280929190818152602001828054613614906142d0565b80156136615780601f1061363657610100808354040283529160200191613661565b820191906000526020600020905b81548152906001019060200180831161364457829003601f168201915b505050505090806003018054613676906142d0565b80601f01602080910402602001604051908101604052809291908181526020018280546136a2906142d0565b80156136ef5780601f106136c4576101008083540402835291602001916136ef565b820191906000526020600020905b8154815290600101906020018083116136d257829003601f168201915b505050505090806004018054613704906142d0565b80601f0160208091040260200160405190810160405280929190818152602001828054613730906142d0565b801561377d5780601f106137525761010080835404028352916020019161377d565b820191906000526020600020905b81548152906001019060200180831161376057829003601f168201915b50505050600683015460079093015491929160ff16905087565b8280548282559060005260206000209081019282156137d75760005260206000209182015b828111156137d75782548255916001019190600101906137bc565b506137e3929150613a37565b5090565b8280546137f3906142d0565b90600052602060002090601f01602090048101928261381557600085556137d7565b82601f1061382657805485556137d7565b828001600101855582156137d757600052602060002091601f01602090048201828111156137d75782548255916001019190600101906137bc565b8280548282559060005260206000209081019282156137d7579160200282015b828111156137d757825182546001600160a01b0319166001600160a01b03909116178255602090920191600190910190613881565b8280548282559060005260206000209081019282156137d7579160200282015b828111156137d75782518255916020019190600101906138d6565b8280546138fd906142d0565b90600052602060002090601f01602090048101928261391f57600085556137d7565b82601f1061393857805160ff19168380011785556137d7565b828001600101855582156137d757918201828111156137d75782518255916020019190600101906138d6565b6040518061018001604052806000815260200160006001600160a01b031681526020016139b96040518060a0016040528060608152602001606081526020016060815260200160008152602001600081525090565b81526020016000815260200160008152602001600081526020016000815260200160008152602001600060078111156139f4576139f4613e5f565b81526020016000815260200160608152602001613a326040518060800160405280600081526020016000815260200160008152602001600081525090565b905290565b5b808211156137e35760008155600101613a38565b600060208284031215613a5e57600080fd5b5035919050565b634e487b7160e01b600052604160045260246000fd5b600082601f830112613a8c57600080fd5b813567ffffffffffffffff80821115613aa757613aa7613a65565b604051601f8301601f19908116603f01168101908282118183101715613acf57613acf613a65565b81604052838152866020858801011115613ae857600080fd5b836020870160208301376000602085830101528094505050505092915050565b600080600060608486031215613b1d57600080fd5b833567ffffffffffffffff80821115613b3557600080fd5b613b4187838801613a7b565b94506020860135915080821115613b5757600080fd5b613b6387838801613a7b565b93506040860135915080821115613b7957600080fd5b50613b8686828701613a7b565b9150509250925092565b600060208284031215613ba257600080fd5b81356001600160a01b0381168114613bb957600080fd5b9392505050565b6000815180845260005b81811015613be657602081850181015186830182015201613bca565b81811115613bf8576000602083870101525b50601f01601f19169290920160200192915050565b600081518084526020808501945080840160005b83811015613c3d57815187529582019590820190600101613c21565b509495945050505050565b60208152613c626020820183516001600160a01b03169052565b60006020830151610100806040850152613c80610120850183613bc0565b91506040850151601f1980868503016060870152613c9e8483613bc0565b93506060870151915080868503016080870152613cbb8483613bc0565b935060808701519150808685030160a0870152613cd88483613bc0565b935060a08701519150808685030160c087015250613cf68382613c0d565b92505060c085015160e085015260e0850151613d158286018215159052565b5090949350505050565b60008060408385031215613d3257600080fd5b50508035926020909101359150565b600080600080600080600060e0888a031215613d5c57600080fd5b87359650602088013595506040880135945060608801359350608088013560028110613d8757600080fd5b925060a088013567ffffffffffffffff811115613da357600080fd5b613daf8a828b01613a7b565b92505060c0880135905092959891949750929550565b805160a080845281519084018190526000916020919082019060c0860190845b81811015613e0a5783516001600160a01b031683529284019291840191600101613de5565b505082850151915085810383870152613e238183613c0d565b9250505060408301518482036040860152613e3e8282613c0d565b91505060608301516060850152608083015160808501528091505092915050565b634e487b7160e01b600052602160045260246000fd5b60088110613e8557613e85613e5f565b9052565b60028110613e8557613e85613e5f565b602081528151602082015260006020830151613ec060408401826001600160a01b03169052565b5060408301516101e06060840152613edc610200840182613dc5565b905060608401516080840152608084015160a084015260a084015160c084015260c084015160e084015260e0840151610100818186015280860151915050610120613f2981860183613e75565b8501519050610140613f3d85820183613e89565b80860151915050610160601f198584030181860152613f5c8383613bc0565b950151805161018086015260208101516101a086015260408101516101c0860152606001516101e090940193909352509192915050565b8c81526001600160a01b038c1660208201526101e060408201819052600090613fbe8382018e613dc5565b90508b60608401528a60808401528960a08401528860c08401528760e0840152613fec610100840188613e75565b613ffa610120840187613e89565b82810361014084015261400d8186613bc0565b8451610160850152602085015161018085015260408501516101a085015260608501516101c0850152915061403f9050565b9d9c50505050505050505050505050565b6000806000806080858703121561406657600080fd5b843567ffffffffffffffff8082111561407e57600080fd5b61408a88838901613a7b565b955060208701359150808211156140a057600080fd5b6140ac88838901613a7b565b945060408701359150808211156140c257600080fd5b6140ce88838901613a7b565b935060608701359150808211156140e457600080fd5b506140f187828801613a7b565b91505092959194509250565b60008083601f84011261410f57600080fd5b50813567ffffffffffffffff81111561412757600080fd5b6020830191508360208260051b850101111561414257600080fd5b9250929050565b6000806000806040858703121561415f57600080fd5b843567ffffffffffffffff8082111561417757600080fd5b614183888389016140fd565b9096509450602087013591508082111561419c57600080fd5b506141a9878288016140fd565b95989497509550505050565b6001600160a01b038816815260e0602082018190526000906141d990830189613bc0565b82810360408401526141eb8189613bc0565b905082810360608401526141ff8188613bc0565b905082810360808401526142138187613bc0565b60a0840195909552505090151560c09091015295945050505050565b82815260408101613bb96020830184613e75565b634e487b7160e01b600052603260045260246000fd5b6001600160a01b039384168152919092166020820152604081019190915260600190565b60006020828403121561428f57600080fd5b81518015158114613bb957600080fd5b634e487b7160e01b600052601160045260246000fd5b60006000198214156142c9576142c961429f565b5060010190565b600181811c908216806142e457607f821691505b6020821081141561430557634e487b7160e01b600052602260045260246000fd5b50919050565b60008160001904831182151516156143255761432561429f565b500290565b60008261434757634e487b7160e01b600052601260045260246000fd5b500490565b600080821280156001600160ff1b038490038513161561436e5761436e61429f565b600160ff1b83900384128116156143875761438761429f565b50500190565b600082198211156143a0576143a061429f565b500190565b6000828210156143b7576143b761429f565b500390565b6000815480845260208085019450836000528060002060005b83811015613c3d578154875295820195600191820191016143d5565b600060a0830160a0845280835480835260c08601915084600052602092508260002060005b8281101561443b5781546001600160a01b031684529284019260019182019101614416565b5050508481038286015261445281600186016143bc565b915050838103604085015261446a81600285016143bc565b6003840154606086015260049093015460809094019390935250919050565b8054600090600181811c90808316806144a357607f831692505b60208084108214156144c557634e487b7160e01b600052602260045260246000fd5b838852602088018280156144e057600181146144f15761451c565b60ff1987168252828201975061451c565b60008981526020902060005b87811015614516578154848201529086019084016144fd565b83019850505b5050505050505092915050565b60006101e08254845261454660018401546001600160a01b031690565b6001600160a01b031660208501526040840181905261456a818501600285016143f1565b90506007830154606085015260088301546080850152600983015460a0850152600a83015460c0850152600b83015460e0850152600c8301546145b4610100860160ff8316613e75565b6145c8610120860160ff8360081c16613e89565b508381036101408501526145df81600d8501614489565b600e840154610160860152600f84015461018086015260108401546101a086015260118401546101c08601529050613bb9565b602081526000613bb96020830184614529565b6001600160a01b038616815260a06020820181905260009061464990830187613bc0565b828103604084015261465b8187613bc0565b9050828103606084015261466f8186613bc0565b905082810360808401526146838185613bc0565b9897505050505050505056fea26469706673582212209323c2bb111bf8f74bb4fde7a78a2a9e825d01102c8f8c2cb3a9ccd38170b86564736f6c63430008090033",
  "immutableReferences": {},
  "source": "// SPDX-License-Identifier: MIT\npragma solidity ^0.8.9;\n\n// Dai or StakeCoin (production or development)\ninterface Token {\n    function transfer(address dst, uint amount) external returns (bool);\n    function transferFrom(address src, address dst, uint amount) external returns (bool);\n    function balanceOf(address guy) external view returns (uint);\n    function approve(address spender, uint amount) external returns (bool);\n}\n\ncontract Staking {\n    Token public token;\n    uint public requestCount = 0;\n    mapping(uint => Stake) public stakes;\n    address payable public owner;\n\n    mapping(address => Player) public players;\n\n    enum StakeStatus {\n        Requested,\n        Filled,\n        Expired, // TODO: When will we use this\n        Cancelled,\n        AwaitingReturnPayment,\n        Completed,\n        EscrowClaimed,\n        PartiallyFilled\n    }\n\n    enum GameType {\n        SingleGame,\n        Tournament\n    }\n\n    struct InvestmentDetails {\n        address payable[] backers;\n        uint[] investments;\n        uint[] backerReturns;\n        uint filledAmount;\n        uint playThreshold;\n    }\n\n    struct Stake {\n        uint id;\n        address payable horse;\n        InvestmentDetails investmentDetails;\n        uint amount;\n        uint escrow;\n        uint profitShare;\n        int pnl;\n        uint backerReturns;\n        StakeStatus status;\n        GameType gameType;\n        string apiId;\n        StakeTimeStamp stakeTimeStamp;\n    }\n\n    struct StakeTimeStamp {\n        uint256 createdTimestamp;\n        uint256 lastFilledTimestamp;\n        uint256 gamePlayedTimestamp;\n        uint256 scheduledForTimestamp;\n    }\n\n    struct Player {\n        address payable playerAddress;\n        string apiId;\n        string name;\n        string sharkscopeLink;\n        string profilePicPath;\n        uint[] stakeIds; // stakes where the player is the horse.\n        uint256 createdTimestamp;\n        bool canCreateStake; // False when they have a stake that is awaiting repayment\n    }\n\n    constructor(address tokenAddress) {\n        owner = payable(msg.sender);\n        token = Token(tokenAddress);\n    }\n\n    event PlayerCreated(address playerAddress, string apiId, string name, string sharkscopeLink, string profilePicPath);\n\n    /// A player with this address already exists\n    error PlayerAlreadyExists(address playerAddress);\n\n    function createPlayer(string memory apiId, string memory name, string memory sharkscopeLink, string memory profilePicPath) external payable {\n        if (players[msg.sender].playerAddress != address(0)) {\n            revert PlayerAlreadyExists(msg.sender);\n        }\n        players[msg.sender].apiId = apiId;\n        players[msg.sender].playerAddress = payable(msg.sender);\n        players[msg.sender].name = name;\n        players[msg.sender].sharkscopeLink = sharkscopeLink;\n        players[msg.sender].profilePicPath = profilePicPath;\n        players[msg.sender].createdTimestamp = block.timestamp;\n        players[msg.sender].canCreateStake = true;\n\n        emit PlayerCreated(msg.sender, apiId, name, sharkscopeLink, profilePicPath);\n    }\n\n    function getPlayer(address add) external view returns (Player memory) {\n        return players[add];\n    }\n\n    // player doesn't exist\n    error PlayerDoesntExist(address playerAddress);\n\n    event PlayerEdited(address playerAddress);\n\n    function editPlayer(string memory name, string memory sharkscopeLink, string memory profilePicPath) external {\n        if (players[msg.sender].playerAddress == address(0)) {\n            emit PlayerEdited(msg.sender);\n            revert PlayerDoesntExist(msg.sender);\n        }\n\n        players[msg.sender].name = name;\n        players[msg.sender].sharkscopeLink = sharkscopeLink;\n        players[msg.sender].profilePicPath = profilePicPath;\n\n        emit PlayerEdited(msg.sender);\n    }\n\n    /// Only the owner can kill this contract\n    error OnlyOwnerCanKill();\n\n    function kill() external {\n        if (msg.sender != owner) {\n            revert OnlyOwnerCanKill();\n        }\n        selfdestruct(owner);\n    }\n\n    // Get an individual stake\n\n    /// Not a valid id for a stake request\n    error InvalidStakeId(uint id);\n\n    function getStake(uint id) external view returns (Stake memory) {\n        if (!validId(id)) {\n            revert InvalidStakeId(id);\n        }\n\n        return stakes[id];\n    }\n\n    // Creating a new stake request\n    event StakeRequested(Stake stake);\n\n    /// Profit share must be between 0 and 100\n    error InvalidProfitShare(uint profitShare);\n    /// Escrow does not match msg.value\n    error EscrowValueNotMatching(uint escrow, uint value);\n    /// Player has not registered\n    error PlayerDoesNotExist(address sender);\n    /// Player is locked from creating new stakes. Return awaiting payments first.\n    error PlayerNotAllowedToCreateStake(address player);\n\n    function createRequest(uint amount, uint profitShare, uint escrow, uint playThreshold, GameType gameType, string memory apiId, uint256 scheduledFor) external payable {\n        if (players[msg.sender].playerAddress == address(0)) {\n            revert PlayerDoesNotExist(msg.sender);\n        }\n        if (!players[msg.sender].canCreateStake) {\n            revert PlayerNotAllowedToCreateStake(msg.sender);\n        }\n        if (profitShare > 100) {\n            revert InvalidProfitShare(profitShare);\n        }\n        if (escrow > 0) {\n            token.transferFrom(msg.sender, address(this), escrow);\n        }\n\n        StakeTimeStamp memory stakeTimeStamp = StakeTimeStamp(block.timestamp, 0, 0, scheduledFor);\n        InvestmentDetails memory investmentDetails;\n        investmentDetails.playThreshold = playThreshold;\n\n        stakes[requestCount].id = requestCount;\n        stakes[requestCount].horse = payable(msg.sender);\n        stakes[requestCount].amount = amount;\n        stakes[requestCount].investmentDetails.filledAmount = 0;\n        stakes[requestCount].investmentDetails = investmentDetails;\n        stakes[requestCount].escrow = escrow;\n        stakes[requestCount].profitShare = profitShare;\n        stakes[requestCount].status = StakeStatus.Requested;\n        stakes[requestCount].gameType = gameType;\n        stakes[requestCount].apiId = apiId;\n        stakes[requestCount].stakeTimeStamp = stakeTimeStamp;\n\n        players[msg.sender].stakeIds.push(requestCount);\n        requestCount++;\n\n        emit StakeRequested(stakes[requestCount - 1]);\n    }\n\n    // Staking a request\n    event StakeFilled(Stake stake);\n    \n    /// Stake has already been filled/cancelled\n    error StakeNotFillable(uint id);\n    /// You cannot stake yourself\n    error StakingSelf(uint id, address horse, address backer);\n    /// Cannot stake more than the remaining amount\n    error StakedMoreThanRemaining(uint id, uint stakedAmount, uint remainingAmount);\n    /// Staked amount and msg value do not match\n    error ValueAndAmountDoNotMatch(uint amount, uint value);\n   \n    function stakeHorse(uint id, uint amount) external payable {\n//         require(validId(id), \"This is not a valid ID for a stake!\");\n        if (id >= requestCount) {\n            revert InvalidStakeId(id);\n        }\n    \n        Stake storage stake = stakes[id];\n        if (stake.status != StakeStatus.Requested && stake.status != StakeStatus.PartiallyFilled) {\n            revert StakeNotFillable(id);\n        }\n\n        address payable horse = stake.horse;\n        address payable backer = payable(msg.sender);\n        if (horse == backer) {\n            revert StakingSelf(id, horse, backer);\n        }\n//        if (msg.value != amount) {\n//            revert ValueAndAmountDoNotMatch(amount, msg.value);\n//        }\n\n        if (amount + stake.investmentDetails.filledAmount > stake.amount) {\n            revert StakedMoreThanRemaining(id, amount, stake.amount - stake.investmentDetails.filledAmount);\n        }\n\n        bool passedThresholdBefore = stake.investmentDetails.filledAmount >= stake.investmentDetails.playThreshold;\n        stake.status = StakeStatus.PartiallyFilled;\n        // Update stake status and transfer funds\n        stake.investmentDetails.filledAmount += amount;\n        if (stake.investmentDetails.filledAmount == stake.amount) {\n            stake.status = StakeStatus.Filled;\n        }\n        if (!passedThresholdBefore && stake.investmentDetails.filledAmount >= stake.investmentDetails.playThreshold) {\n            // Just passed the threshold - send money pool to horse\n            token.transferFrom(msg.sender, address(this), amount);\n            token.transfer(stake.horse, stake.investmentDetails.filledAmount);\n        } else if (stake.investmentDetails.filledAmount >= stake.investmentDetails.playThreshold) {\n            // We have already passed the threshold - send money directly to horse\n            token.transferFrom(msg.sender, stake.horse, amount);\n        } else {\n            // We are still below the threshold - add to money pool\n            token.transferFrom(msg.sender, address(this), amount);\n        }\n        stake.investmentDetails.backers.push(payable(backer));\n        stake.investmentDetails.investments.push(amount);\n        stake.investmentDetails.backerReturns.push(0);\n        stake.stakeTimeStamp.lastFilledTimestamp = block.timestamp;\n\n        stakes[id] = stake;\n        emit StakeFilled(stake);\n    }\n    \n    event MultipleStakesFilled(uint count);\n    error NoStakesSelected(address backer);\n\n    function stakeMultipleGamesOnHorse(uint[] calldata ids, uint[] calldata amounts) external payable {\n        if (ids.length < 1) {\n            revert NoStakesSelected(msg.sender);\n        }\n        \n        address payable backer = payable(msg.sender);\n        address payable horse = stakes[0].horse;\n        \n        for (uint i = 0; i < ids.length; i++) {\n            uint id = ids[i];\n            if (id >= requestCount) {\n                revert InvalidStakeId(id);\n            }\n        \n            Stake storage stake = stakes[id];\n            if (stake.status != StakeStatus.Requested && stake.status != StakeStatus.PartiallyFilled) {\n                revert StakeNotFillable(id);\n            }\n\n            if (horse == backer) {\n                revert StakingSelf(id, horse, backer);\n            }\n            uint amount = amounts[i];\n\n            if (amount + stake.investmentDetails.filledAmount > stake.amount) {\n                revert StakedMoreThanRemaining(id, amount, stake.amount - stake.investmentDetails.filledAmount);\n            }\n\n            bool passedThresholdBefore = stake.investmentDetails.filledAmount >= stake.investmentDetails.playThreshold;\n            stake.status = StakeStatus.PartiallyFilled;\n            // Update stake status and transfer funds\n            stake.investmentDetails.filledAmount += amount;\n            if (stake.investmentDetails.filledAmount == stake.amount) {\n                stake.status = StakeStatus.Filled;\n            }\n            if (!passedThresholdBefore && stake.investmentDetails.filledAmount >= stake.investmentDetails.playThreshold) {\n                // Just passed the threshold - send money pool to horse\n                token.transferFrom(msg.sender, address(this), amount);\n                token.transfer(stake.horse, stake.investmentDetails.filledAmount);\n            } else if (stake.investmentDetails.filledAmount >= stake.investmentDetails.playThreshold) {\n                // We have already passed the threshold - send money directly to horse\n                token.transferFrom(msg.sender, stake.horse, amount);\n            } else {\n                // We are still below the threshold - add to money pool\n                token.transferFrom(msg.sender, address(this), amount);\n            }\n            stake.investmentDetails.backers.push(payable(backer));\n            stake.investmentDetails.investments.push(amount);\n            stake.investmentDetails.backerReturns.push(0);\n            stake.stakeTimeStamp.lastFilledTimestamp = block.timestamp;\n\n            stakes[id] = stake;\n            emit StakeFilled(stake);\n        }\n\n        emit MultipleStakesFilled(ids.length);\n    }\n\n    // Expiring a stake for a game that has been played\n    event StakeExpired(uint id);\n\n    // A stake can only be expired if it is status Requested or PartiallyFilled\n    error StakeIsNotExpirable(uint id, StakeStatus status);\n\n    // Only the oracle can expire stakes\n    //TODO: this!!\n    // error OnlyOracleCanExpireStake(uint id, address sender);\n\n    function expireStake(uint id) external {\n        if (!validId(id)) {\n            revert InvalidStakeId(id);\n        }\n        Stake memory stake = stakes[id];\n\n        // TODO: This!!\n        // if (msg.sender != /*<oracle_address>*/) {\n        //     revert OnlyOracleCanExpireStake(id, msg.sender)\n        // }\n\n        if (stake.status != StakeStatus.Requested && stake.status != StakeStatus.PartiallyFilled) {\n            revert StakeIsNotExpirable(id, stake.status);\n        }\n\n        if (stake.status == StakeStatus.PartiallyFilled) {\n            for (uint i = 0; i < stake.investmentDetails.backers.length; i++) {\n                token.transfer(stake.investmentDetails.backers[i], stake.investmentDetails.investments[i]);\n            }\n        }\n\n        if (stake.escrow > 0) {\n            token.transfer(stake.horse, stake.escrow);\n        }\n\n        stake.status = StakeStatus.Expired;\n        stakes[id] = stake;\n        emit StakeExpired(id);\n    }\n\n    // Cancelling a reqested stake\n    event StakeCancelled(uint id);\n    \n    /// Only the horse can cancel a requested stake\n    error CancellingSenderIsNotHorse(uint id, address canceller, address horse);\n    /// A horse can only cancel a stake when it has only been requested\n    error StakeIsNotCancellable(uint id, StakeStatus status);\n\n    function cancelStakeAsHorse(uint id) external {\n        if(!validId(id)) {\n            revert InvalidStakeId(id);\n        }\n        Stake memory stake = stakes[id];\n        \n        if (msg.sender != stake.horse) {\n            revert CancellingSenderIsNotHorse(id, msg.sender, stake.horse);\n        }\n        \n        if (stake.status != StakeStatus.Requested) {\n            revert StakeIsNotCancellable(id, stake.status);\n        }\n\n        if (stake.escrow > 0) {\n            token.transfer(stake.horse, stake.escrow);\n            // stake.horse.transfer(stake.escrow);\n        }\n        stake.status = StakeStatus.Cancelled;\n\n        stakes[id] = stake;\n        emit StakeCancelled(id);\n    }\n    \n\n    // Returning profits to backer after completing games\n    event ProfitsReturned(uint id, uint backerReturns);\n    \n    /// Only the horse can return the profits from a stake\n    error ReturningProfitsSenderIsNotHorse(uint id, address sender, address horse);\n    /// Profits can only be returned if a stake has been filled\n    error StakeProfitNotReturnable(uint id, StakeStatus status);\n    /// Message value not equal to the profit returns of the backer\n    error MessageValueNotEqualToBackerReturns(uint value, uint backerReturns);\n    \n    function returnProfits(uint id) external payable {\n        if(!validId(id)) {\n            revert InvalidStakeId(id);\n        }\n        Stake storage stake = stakes[id];\n\n        if (msg.sender != stake.horse) {\n            revert ReturningProfitsSenderIsNotHorse(id, msg.sender, stake.horse);\n        }\n        \n        if (stake.status != StakeStatus.AwaitingReturnPayment) {\n            revert StakeProfitNotReturnable(id, stake.status);\n        }\n\n        // TODO: See above before we can do this\n        // if (msg.value != backerReturns) {\n        //     revert MessageValueNotEqualToBackerReturns(msg.value, backerReturns);\n        // }\n        for (uint i = 0; i < stake.investmentDetails.backers.length; i++) {\n            token.transferFrom(msg.sender, stake.investmentDetails.backers[i], stake.investmentDetails.backerReturns[i]);\n        }\n        if (stake.escrow > 0) {\n            token.transfer(stake.horse, stake.escrow);\n            // stake.horse.transfer(stake.escrow);\n        }\n        stake.status = StakeStatus.Completed;\n        players[stake.horse].canCreateStake = true;\n\n        stakes[id] = stake;\n        emit ProfitsReturned(id, stake.backerReturns);\n    }\n\n\n    // Setting the status of a stake to AwaitingReturnPayment\n\n    event GamePlayed(uint id, int pnl, uint backerReturns);\n\n    /// You can only complete a game after it has been filled\n    error CanOnlyPlayedFilledStakes(uint id, StakeStatus status);\n\n    function gamePlayed(uint id, int pnl) external {\n        if(!validId(id)) {\n            revert InvalidStakeId(id);\n        }\n\n        if (!(stakes[id].status == StakeStatus.Filled || (stakes[id].status == StakeStatus.PartiallyFilled && stakes[id].investmentDetails.filledAmount >= stakes[id].investmentDetails.playThreshold))) {\n            revert CanOnlyPlayedFilledStakes(id, stakes[id].status);\n        }\n\n        // TODO: Check this calculation. Do we do it here or calculate it in the frontend?\n        uint backerReturns;\n        if (pnl < 0) {\n            int owed = int(stakes[id].investmentDetails.filledAmount) + pnl;\n            if (owed <= 0) {\n                backerReturns = 0;\n                stakes[id].status = StakeStatus.Completed;\n            } else {\n                backerReturns = uint(owed);\n                stakes[id].status = StakeStatus.AwaitingReturnPayment;\n            }\n        } else {\n            backerReturns = stakes[id].investmentDetails.filledAmount + ((uint(pnl) * stakes[id].profitShare) / 100);\n            stakes[id].status = StakeStatus.AwaitingReturnPayment;\n        }\n\n        for (uint i = 0; i < stakes[id].investmentDetails.backers.length; i++) {\n            stakes[id].investmentDetails.backerReturns[i] = (backerReturns * stakes[id].investmentDetails.investments[i]) / stakes[id].investmentDetails.filledAmount;\n        }\n\n        stakes[id].pnl = pnl;\n        stakes[id].backerReturns = backerReturns;\n        stakes[id].stakeTimeStamp.gamePlayedTimestamp = block.timestamp;\n        players[stakes[id].horse].canCreateStake = false;\n        emit GamePlayed(id, pnl, backerReturns);\n    }\n\n\n    // Requesting back your escrow while awaiting return payment\n    event EscrowClaimed(uint id, uint escrow, address backer);\n\n    /// You can only request your escrow back when the status of the stake is awaiting return payment\n    error CanOnlyReturnEscrowWhenAwaitingReturnPayment(uint id, StakeStatus status);\n    /// Only the stake backer can request the contract's escrow\n    error OnlyBackerCanRequestEscrow(uint id, address sender);\n    /// Cannot return back escrow for a stake which never had an escrow put up\n    error CannotReturnNoEscrow(uint id, uint escrow);\n\n    // TODO: Only allow this when the state is actually AwaitingReturnPaymentClaimEscrow\n    function backerClaimEscrow(uint id) external {\n        if(!validId(id)) {\n            revert InvalidStakeId(id);\n        }\n        if (stakes[id].status != StakeStatus.AwaitingReturnPayment) {\n            revert CanOnlyReturnEscrowWhenAwaitingReturnPayment(id, stakes[id].status);\n        }\n\n        if (stakes[id].escrow == 0) {\n            revert CannotReturnNoEscrow(id, stakes[id].escrow);\n        }\n\n        bool isBacker = false;\n        for (uint i = 0; i < stakes[id].investmentDetails.backers.length; i++) {\n            if (msg.sender == stakes[id].investmentDetails.backers[i]) {\n                isBacker = true;\n                token.transfer(stakes[id].investmentDetails.backers[i], (stakes[id].escrow * stakes[id].investmentDetails.investments[i] / stakes[id].investmentDetails.filledAmount));\n            }\n        }\n        if (!isBacker) {\n            revert OnlyBackerCanRequestEscrow(id, msg.sender);\n        }\n\n        stakes[id].status = StakeStatus.EscrowClaimed;\n        emit EscrowClaimed(id, stakes[id].escrow, msg.sender);\n    }\n\n    function validId(uint id) internal view returns (bool) {\n        return id < requestCount;\n    }\n\n\n\n}",
  "sourcePath": "/Users/julesdehon/Documents/Uni/year-3/group-project/decentralized_poker_staking/contracts/Staking.sol",
  "compiler": {
    "name": "solc",
    "version": "0.8.9+commit.e5eed63a.Emscripten.clang"
  },
  "schemaVersion": "3.4.3",
  "updatedAt": "2021-12-03T09:20:51.461Z",
  "networkType": "ethereum",
  "devdoc": {
    "kind": "dev",
    "methods": {},
    "version": 1
  },
  "userdoc": {
    "errors": {
      "CanOnlyPlayedFilledStakes(uint256,uint8)": [
        {
          "notice": "You can only complete a game after it has been filled"
        }
      ],
      "CanOnlyReturnEscrowWhenAwaitingReturnPayment(uint256,uint8)": [
        {
          "notice": "You can only request your escrow back when the status of the stake is awaiting return payment"
        }
      ],
      "CancellingSenderIsNotHorse(uint256,address,address)": [
        {
          "notice": "Only the horse can cancel a requested stake"
        }
      ],
      "CannotReturnNoEscrow(uint256,uint256)": [
        {
          "notice": "Cannot return back escrow for a stake which never had an escrow put up"
        }
      ],
      "EscrowValueNotMatching(uint256,uint256)": [
        {
          "notice": "Escrow does not match msg.value"
        }
      ],
      "InvalidProfitShare(uint256)": [
        {
          "notice": "Profit share must be between 0 and 100"
        }
      ],
      "InvalidStakeId(uint256)": [
        {
          "notice": "Not a valid id for a stake request"
        }
      ],
      "MessageValueNotEqualToBackerReturns(uint256,uint256)": [
        {
          "notice": "Message value not equal to the profit returns of the backer"
        }
      ],
      "OnlyBackerCanRequestEscrow(uint256,address)": [
        {
          "notice": "Only the stake backer can request the contract's escrow"
        }
      ],
      "OnlyOwnerCanKill()": [
        {
          "notice": "Only the owner can kill this contract"
        }
      ],
      "PlayerAlreadyExists(address)": [
        {
          "notice": "A player with this address already exists"
        }
      ],
      "PlayerDoesNotExist(address)": [
        {
          "notice": "Player has not registered"
        }
      ],
      "PlayerNotAllowedToCreateStake(address)": [
        {
          "notice": "Player is locked from creating new stakes. Return awaiting payments first."
        }
      ],
      "ReturningProfitsSenderIsNotHorse(uint256,address,address)": [
        {
          "notice": "Only the horse can return the profits from a stake"
        }
      ],
      "StakeIsNotCancellable(uint256,uint8)": [
        {
          "notice": "A horse can only cancel a stake when it has only been requested"
        }
      ],
      "StakeNotFillable(uint256)": [
        {
          "notice": "Stake has already been filled/cancelled"
        }
      ],
      "StakeProfitNotReturnable(uint256,uint8)": [
        {
          "notice": "Profits can only be returned if a stake has been filled"
        }
      ],
      "StakedMoreThanRemaining(uint256,uint256,uint256)": [
        {
          "notice": "Cannot stake more than the remaining amount"
        }
      ],
      "StakingSelf(uint256,address,address)": [
        {
          "notice": "You cannot stake yourself"
        }
      ],
      "ValueAndAmountDoNotMatch(uint256,uint256)": [
        {
          "notice": "Staked amount and msg value do not match"
        }
      ]
    },
    "kind": "user",
    "methods": {},
    "version": 1
  }
}