{
  "contractName": "Staking",
  "abi": [
    {
      "inputs": [
        {
          "internalType": "address",
          "name": "tokenAddress",
          "type": "address"
        }
      ],
      "stateMutability": "nonpayable",
      "type": "constructor"
    },
    {
      "inputs": [
        {
          "internalType": "uint256",
          "name": "id",
          "type": "uint256"
        },
        {
          "internalType": "enum Staking.StakeStatus",
          "name": "status",
          "type": "uint8"
        }
      ],
      "name": "CanOnlyPlayedFilledStakes",
      "type": "error"
    },
    {
      "inputs": [
        {
          "internalType": "uint256",
          "name": "id",
          "type": "uint256"
        },
        {
          "internalType": "enum Staking.StakeStatus",
          "name": "status",
          "type": "uint8"
        }
      ],
      "name": "CanOnlyReturnEscrowWhenAwaitingReturnPayment",
      "type": "error"
    },
    {
      "inputs": [
        {
          "internalType": "uint256",
          "name": "id",
          "type": "uint256"
        },
        {
          "internalType": "address",
          "name": "canceller",
          "type": "address"
        },
        {
          "internalType": "address",
          "name": "horse",
          "type": "address"
        }
      ],
      "name": "CancellingSenderIsNotHorse",
      "type": "error"
    },
    {
      "inputs": [
        {
          "internalType": "uint256",
          "name": "id",
          "type": "uint256"
        },
        {
          "internalType": "uint256",
          "name": "escrow",
          "type": "uint256"
        }
      ],
      "name": "CannotReturnNoEscrow",
      "type": "error"
    },
    {
      "inputs": [
        {
          "internalType": "uint256",
          "name": "escrow",
          "type": "uint256"
        },
        {
          "internalType": "uint256",
          "name": "value",
          "type": "uint256"
        }
      ],
      "name": "EscrowValueNotMatching",
      "type": "error"
    },
    {
      "inputs": [
        {
          "internalType": "uint256",
          "name": "profitShare",
          "type": "uint256"
        }
      ],
      "name": "InvalidProfitShare",
      "type": "error"
    },
    {
      "inputs": [
        {
          "internalType": "uint256",
          "name": "id",
          "type": "uint256"
        }
      ],
      "name": "InvalidStakeId",
      "type": "error"
    },
    {
      "inputs": [
        {
          "internalType": "uint256",
          "name": "value",
          "type": "uint256"
        },
        {
          "internalType": "uint256",
          "name": "backerReturns",
          "type": "uint256"
        }
      ],
      "name": "MessageValueNotEqualToBackerReturns",
      "type": "error"
    },
    {
      "inputs": [
        {
          "internalType": "uint256",
          "name": "id",
          "type": "uint256"
        },
        {
          "internalType": "address",
          "name": "sender",
          "type": "address"
        }
      ],
      "name": "OnlyBackerCanRequestEscrow",
      "type": "error"
    },
    {
      "inputs": [],
      "name": "OnlyOwnerCanKill",
      "type": "error"
    },
    {
      "inputs": [
        {
          "internalType": "address",
          "name": "playerAddress",
          "type": "address"
        }
      ],
      "name": "PlayerAlreadyExists",
      "type": "error"
    },
    {
      "inputs": [
        {
          "internalType": "address",
          "name": "sender",
          "type": "address"
        }
      ],
      "name": "PlayerDoesNotExist",
      "type": "error"
    },
    {
      "inputs": [
        {
          "internalType": "address",
          "name": "playerAddress",
          "type": "address"
        }
      ],
      "name": "PlayerDoesntExist",
      "type": "error"
    },
    {
      "inputs": [
        {
          "internalType": "address",
          "name": "player",
          "type": "address"
        }
      ],
      "name": "PlayerNotAllowedToCreateStake",
      "type": "error"
    },
    {
      "inputs": [
        {
          "internalType": "uint256",
          "name": "id",
          "type": "uint256"
        },
        {
          "internalType": "address",
          "name": "sender",
          "type": "address"
        },
        {
          "internalType": "address",
          "name": "horse",
          "type": "address"
        }
      ],
      "name": "ReturningProfitsSenderIsNotHorse",
      "type": "error"
    },
    {
      "inputs": [
        {
          "internalType": "uint256",
          "name": "id",
          "type": "uint256"
        },
        {
          "internalType": "enum Staking.StakeStatus",
          "name": "status",
          "type": "uint8"
        }
      ],
      "name": "StakeIsNotCancellable",
      "type": "error"
    },
    {
      "inputs": [
        {
          "internalType": "uint256",
          "name": "id",
          "type": "uint256"
        },
        {
          "internalType": "enum Staking.StakeStatus",
          "name": "status",
          "type": "uint8"
        }
      ],
      "name": "StakeIsNotExpirable",
      "type": "error"
    },
    {
      "inputs": [
        {
          "internalType": "uint256",
          "name": "id",
          "type": "uint256"
        }
      ],
      "name": "StakeNotFillable",
      "type": "error"
    },
    {
      "inputs": [
        {
          "internalType": "uint256",
          "name": "id",
          "type": "uint256"
        },
        {
          "internalType": "enum Staking.StakeStatus",
          "name": "status",
          "type": "uint8"
        }
      ],
      "name": "StakeProfitNotReturnable",
      "type": "error"
    },
    {
      "inputs": [
        {
          "internalType": "uint256",
          "name": "id",
          "type": "uint256"
        },
        {
          "internalType": "uint256",
          "name": "stakedAmount",
          "type": "uint256"
        },
        {
          "internalType": "uint256",
          "name": "remainingAmount",
          "type": "uint256"
        }
      ],
      "name": "StakedMoreThanRemaining",
      "type": "error"
    },
    {
      "inputs": [
        {
          "internalType": "uint256",
          "name": "id",
          "type": "uint256"
        },
        {
          "internalType": "address",
          "name": "horse",
          "type": "address"
        },
        {
          "internalType": "address",
          "name": "backer",
          "type": "address"
        }
      ],
      "name": "StakingSelf",
      "type": "error"
    },
    {
      "inputs": [
        {
          "internalType": "uint256",
          "name": "amount",
          "type": "uint256"
        },
        {
          "internalType": "uint256",
          "name": "value",
          "type": "uint256"
        }
      ],
      "name": "ValueAndAmountDoNotMatch",
      "type": "error"
    },
    {
      "anonymous": false,
      "inputs": [
        {
          "indexed": false,
          "internalType": "uint256",
          "name": "id",
          "type": "uint256"
        },
        {
          "indexed": false,
          "internalType": "uint256",
          "name": "escrow",
          "type": "uint256"
        },
        {
          "indexed": false,
          "internalType": "address",
          "name": "backer",
          "type": "address"
        }
      ],
      "name": "EscrowClaimed",
      "type": "event"
    },
    {
      "anonymous": false,
      "inputs": [
        {
          "indexed": false,
          "internalType": "uint256",
          "name": "id",
          "type": "uint256"
        },
        {
          "indexed": false,
          "internalType": "int256",
          "name": "pnl",
          "type": "int256"
        },
        {
          "indexed": false,
          "internalType": "uint256",
          "name": "backerReturns",
          "type": "uint256"
        }
      ],
      "name": "GamePlayed",
      "type": "event"
    },
    {
      "anonymous": false,
      "inputs": [
        {
          "indexed": false,
          "internalType": "address",
          "name": "playerAddress",
          "type": "address"
        },
        {
          "indexed": false,
          "internalType": "string",
          "name": "apiId",
          "type": "string"
        },
        {
          "indexed": false,
          "internalType": "string",
          "name": "name",
          "type": "string"
        },
        {
          "indexed": false,
          "internalType": "string",
          "name": "sharkscopeLink",
          "type": "string"
        },
        {
          "indexed": false,
          "internalType": "string",
          "name": "profilePicPath",
          "type": "string"
        }
      ],
      "name": "PlayerCreated",
      "type": "event"
    },
    {
      "anonymous": false,
      "inputs": [
        {
          "indexed": false,
          "internalType": "address",
          "name": "playerAddress",
          "type": "address"
        }
      ],
      "name": "PlayerEdited",
      "type": "event"
    },
    {
      "anonymous": false,
      "inputs": [
        {
          "indexed": false,
          "internalType": "uint256",
          "name": "id",
          "type": "uint256"
        },
        {
          "indexed": false,
          "internalType": "uint256",
          "name": "backerReturns",
          "type": "uint256"
        }
      ],
      "name": "ProfitsReturned",
      "type": "event"
    },
    {
      "anonymous": false,
      "inputs": [
        {
          "indexed": false,
          "internalType": "uint256",
          "name": "id",
          "type": "uint256"
        }
      ],
      "name": "StakeCancelled",
      "type": "event"
    },
    {
      "anonymous": false,
      "inputs": [
        {
          "indexed": false,
          "internalType": "uint256",
          "name": "id",
          "type": "uint256"
        }
      ],
      "name": "StakeExpired",
      "type": "event"
    },
    {
      "anonymous": false,
      "inputs": [
        {
          "components": [
            {
              "internalType": "uint256",
              "name": "id",
              "type": "uint256"
            },
            {
              "internalType": "address payable",
              "name": "horse",
              "type": "address"
            },
            {
              "components": [
                {
                  "internalType": "address payable[]",
                  "name": "backers",
                  "type": "address[]"
                },
                {
                  "internalType": "uint256[]",
                  "name": "investments",
                  "type": "uint256[]"
                },
                {
                  "internalType": "uint256",
                  "name": "filledAmount",
                  "type": "uint256"
                },
                {
                  "internalType": "uint256",
                  "name": "playThreshold",
                  "type": "uint256"
                }
              ],
              "internalType": "struct Staking.InvestmentDetails",
              "name": "investmentDetails",
              "type": "tuple"
            },
            {
              "internalType": "uint256",
              "name": "amount",
              "type": "uint256"
            },
            {
              "internalType": "uint256",
              "name": "escrow",
              "type": "uint256"
            },
            {
              "internalType": "uint256",
              "name": "profitShare",
              "type": "uint256"
            },
            {
              "internalType": "int256",
              "name": "pnl",
              "type": "int256"
            },
            {
              "internalType": "uint256",
              "name": "backerReturns",
              "type": "uint256"
            },
            {
              "internalType": "enum Staking.StakeStatus",
              "name": "status",
              "type": "uint8"
            },
            {
              "internalType": "enum Staking.GameType",
              "name": "gameType",
              "type": "uint8"
            },
            {
              "internalType": "string",
              "name": "apiId",
              "type": "string"
            },
            {
              "components": [
                {
                  "internalType": "uint256",
                  "name": "createdTimestamp",
                  "type": "uint256"
                },
                {
                  "internalType": "uint256",
                  "name": "lastFilledTimestamp",
                  "type": "uint256"
                },
                {
                  "internalType": "uint256",
                  "name": "gamePlayedTimestamp",
                  "type": "uint256"
                },
                {
                  "internalType": "uint256",
                  "name": "scheduledForTimestamp",
                  "type": "uint256"
                }
              ],
              "internalType": "struct Staking.StakeTimeStamp",
              "name": "stakeTimeStamp",
              "type": "tuple"
            }
          ],
          "indexed": false,
          "internalType": "struct Staking.Stake",
          "name": "stake",
          "type": "tuple"
        }
      ],
      "name": "StakeFilled",
      "type": "event"
    },
    {
      "anonymous": false,
      "inputs": [
        {
          "components": [
            {
              "internalType": "uint256",
              "name": "id",
              "type": "uint256"
            },
            {
              "internalType": "address payable",
              "name": "horse",
              "type": "address"
            },
            {
              "components": [
                {
                  "internalType": "address payable[]",
                  "name": "backers",
                  "type": "address[]"
                },
                {
                  "internalType": "uint256[]",
                  "name": "investments",
                  "type": "uint256[]"
                },
                {
                  "internalType": "uint256",
                  "name": "filledAmount",
                  "type": "uint256"
                },
                {
                  "internalType": "uint256",
                  "name": "playThreshold",
                  "type": "uint256"
                }
              ],
              "internalType": "struct Staking.InvestmentDetails",
              "name": "investmentDetails",
              "type": "tuple"
            },
            {
              "internalType": "uint256",
              "name": "amount",
              "type": "uint256"
            },
            {
              "internalType": "uint256",
              "name": "escrow",
              "type": "uint256"
            },
            {
              "internalType": "uint256",
              "name": "profitShare",
              "type": "uint256"
            },
            {
              "internalType": "int256",
              "name": "pnl",
              "type": "int256"
            },
            {
              "internalType": "uint256",
              "name": "backerReturns",
              "type": "uint256"
            },
            {
              "internalType": "enum Staking.StakeStatus",
              "name": "status",
              "type": "uint8"
            },
            {
              "internalType": "enum Staking.GameType",
              "name": "gameType",
              "type": "uint8"
            },
            {
              "internalType": "string",
              "name": "apiId",
              "type": "string"
            },
            {
              "components": [
                {
                  "internalType": "uint256",
                  "name": "createdTimestamp",
                  "type": "uint256"
                },
                {
                  "internalType": "uint256",
                  "name": "lastFilledTimestamp",
                  "type": "uint256"
                },
                {
                  "internalType": "uint256",
                  "name": "gamePlayedTimestamp",
                  "type": "uint256"
                },
                {
                  "internalType": "uint256",
                  "name": "scheduledForTimestamp",
                  "type": "uint256"
                }
              ],
              "internalType": "struct Staking.StakeTimeStamp",
              "name": "stakeTimeStamp",
              "type": "tuple"
            }
          ],
          "indexed": false,
          "internalType": "struct Staking.Stake",
          "name": "stake",
          "type": "tuple"
        }
      ],
      "name": "StakeRequested",
      "type": "event"
    },
    {
      "inputs": [],
      "name": "owner",
      "outputs": [
        {
          "internalType": "address payable",
          "name": "",
          "type": "address"
        }
      ],
      "stateMutability": "view",
      "type": "function",
      "constant": true
    },
    {
      "inputs": [
        {
          "internalType": "address",
          "name": "",
          "type": "address"
        }
      ],
      "name": "players",
      "outputs": [
        {
          "internalType": "address payable",
          "name": "playerAddress",
          "type": "address"
        },
        {
          "internalType": "string",
          "name": "apiId",
          "type": "string"
        },
        {
          "internalType": "string",
          "name": "name",
          "type": "string"
        },
        {
          "internalType": "string",
          "name": "sharkscopeLink",
          "type": "string"
        },
        {
          "internalType": "string",
          "name": "profilePicPath",
          "type": "string"
        },
        {
          "internalType": "uint256",
          "name": "createdTimestamp",
          "type": "uint256"
        },
        {
          "internalType": "bool",
          "name": "canCreateStake",
          "type": "bool"
        }
      ],
      "stateMutability": "view",
      "type": "function",
      "constant": true
    },
    {
      "inputs": [],
      "name": "requestCount",
      "outputs": [
        {
          "internalType": "uint256",
          "name": "",
          "type": "uint256"
        }
      ],
      "stateMutability": "view",
      "type": "function",
      "constant": true
    },
    {
      "inputs": [
        {
          "internalType": "uint256",
          "name": "",
          "type": "uint256"
        }
      ],
      "name": "stakes",
      "outputs": [
        {
          "internalType": "uint256",
          "name": "id",
          "type": "uint256"
        },
        {
          "internalType": "address payable",
          "name": "horse",
          "type": "address"
        },
        {
          "components": [
            {
              "internalType": "address payable[]",
              "name": "backers",
              "type": "address[]"
            },
            {
              "internalType": "uint256[]",
              "name": "investments",
              "type": "uint256[]"
            },
            {
              "internalType": "uint256",
              "name": "filledAmount",
              "type": "uint256"
            },
            {
              "internalType": "uint256",
              "name": "playThreshold",
              "type": "uint256"
            }
          ],
          "internalType": "struct Staking.InvestmentDetails",
          "name": "investmentDetails",
          "type": "tuple"
        },
        {
          "internalType": "uint256",
          "name": "amount",
          "type": "uint256"
        },
        {
          "internalType": "uint256",
          "name": "escrow",
          "type": "uint256"
        },
        {
          "internalType": "uint256",
          "name": "profitShare",
          "type": "uint256"
        },
        {
          "internalType": "int256",
          "name": "pnl",
          "type": "int256"
        },
        {
          "internalType": "uint256",
          "name": "backerReturns",
          "type": "uint256"
        },
        {
          "internalType": "enum Staking.StakeStatus",
          "name": "status",
          "type": "uint8"
        },
        {
          "internalType": "enum Staking.GameType",
          "name": "gameType",
          "type": "uint8"
        },
        {
          "internalType": "string",
          "name": "apiId",
          "type": "string"
        },
        {
          "components": [
            {
              "internalType": "uint256",
              "name": "createdTimestamp",
              "type": "uint256"
            },
            {
              "internalType": "uint256",
              "name": "lastFilledTimestamp",
              "type": "uint256"
            },
            {
              "internalType": "uint256",
              "name": "gamePlayedTimestamp",
              "type": "uint256"
            },
            {
              "internalType": "uint256",
              "name": "scheduledForTimestamp",
              "type": "uint256"
            }
          ],
          "internalType": "struct Staking.StakeTimeStamp",
          "name": "stakeTimeStamp",
          "type": "tuple"
        }
      ],
      "stateMutability": "view",
      "type": "function",
      "constant": true
    },
    {
      "inputs": [],
      "name": "token",
      "outputs": [
        {
          "internalType": "contract Token",
          "name": "",
          "type": "address"
        }
      ],
      "stateMutability": "view",
      "type": "function",
      "constant": true
    },
    {
      "inputs": [
        {
          "internalType": "string",
          "name": "apiId",
          "type": "string"
        },
        {
          "internalType": "string",
          "name": "name",
          "type": "string"
        },
        {
          "internalType": "string",
          "name": "sharkscopeLink",
          "type": "string"
        },
        {
          "internalType": "string",
          "name": "profilePicPath",
          "type": "string"
        }
      ],
      "name": "createPlayer",
      "outputs": [],
      "stateMutability": "payable",
      "type": "function",
      "payable": true
    },
    {
      "inputs": [
        {
          "internalType": "address",
          "name": "add",
          "type": "address"
        }
      ],
      "name": "getPlayer",
      "outputs": [
        {
          "components": [
            {
              "internalType": "address payable",
              "name": "playerAddress",
              "type": "address"
            },
            {
              "internalType": "string",
              "name": "apiId",
              "type": "string"
            },
            {
              "internalType": "string",
              "name": "name",
              "type": "string"
            },
            {
              "internalType": "string",
              "name": "sharkscopeLink",
              "type": "string"
            },
            {
              "internalType": "string",
              "name": "profilePicPath",
              "type": "string"
            },
            {
              "internalType": "uint256[]",
              "name": "stakeIds",
              "type": "uint256[]"
            },
            {
              "internalType": "uint256",
              "name": "createdTimestamp",
              "type": "uint256"
            },
            {
              "internalType": "bool",
              "name": "canCreateStake",
              "type": "bool"
            }
          ],
          "internalType": "struct Staking.Player",
          "name": "",
          "type": "tuple"
        }
      ],
      "stateMutability": "view",
      "type": "function",
      "constant": true
    },
    {
      "inputs": [
        {
          "internalType": "string",
          "name": "name",
          "type": "string"
        },
        {
          "internalType": "string",
          "name": "sharkscopeLink",
          "type": "string"
        },
        {
          "internalType": "string",
          "name": "profilePicPath",
          "type": "string"
        }
      ],
      "name": "editPlayer",
      "outputs": [],
      "stateMutability": "nonpayable",
      "type": "function"
    },
    {
      "inputs": [],
      "name": "kill",
      "outputs": [],
      "stateMutability": "nonpayable",
      "type": "function"
    },
    {
      "inputs": [
        {
          "internalType": "uint256",
          "name": "id",
          "type": "uint256"
        }
      ],
      "name": "getStake",
      "outputs": [
        {
          "components": [
            {
              "internalType": "uint256",
              "name": "id",
              "type": "uint256"
            },
            {
              "internalType": "address payable",
              "name": "horse",
              "type": "address"
            },
            {
              "components": [
                {
                  "internalType": "address payable[]",
                  "name": "backers",
                  "type": "address[]"
                },
                {
                  "internalType": "uint256[]",
                  "name": "investments",
                  "type": "uint256[]"
                },
                {
                  "internalType": "uint256",
                  "name": "filledAmount",
                  "type": "uint256"
                },
                {
                  "internalType": "uint256",
                  "name": "playThreshold",
                  "type": "uint256"
                }
              ],
              "internalType": "struct Staking.InvestmentDetails",
              "name": "investmentDetails",
              "type": "tuple"
            },
            {
              "internalType": "uint256",
              "name": "amount",
              "type": "uint256"
            },
            {
              "internalType": "uint256",
              "name": "escrow",
              "type": "uint256"
            },
            {
              "internalType": "uint256",
              "name": "profitShare",
              "type": "uint256"
            },
            {
              "internalType": "int256",
              "name": "pnl",
              "type": "int256"
            },
            {
              "internalType": "uint256",
              "name": "backerReturns",
              "type": "uint256"
            },
            {
              "internalType": "enum Staking.StakeStatus",
              "name": "status",
              "type": "uint8"
            },
            {
              "internalType": "enum Staking.GameType",
              "name": "gameType",
              "type": "uint8"
            },
            {
              "internalType": "string",
              "name": "apiId",
              "type": "string"
            },
            {
              "components": [
                {
                  "internalType": "uint256",
                  "name": "createdTimestamp",
                  "type": "uint256"
                },
                {
                  "internalType": "uint256",
                  "name": "lastFilledTimestamp",
                  "type": "uint256"
                },
                {
                  "internalType": "uint256",
                  "name": "gamePlayedTimestamp",
                  "type": "uint256"
                },
                {
                  "internalType": "uint256",
                  "name": "scheduledForTimestamp",
                  "type": "uint256"
                }
              ],
              "internalType": "struct Staking.StakeTimeStamp",
              "name": "stakeTimeStamp",
              "type": "tuple"
            }
          ],
          "internalType": "struct Staking.Stake",
          "name": "",
          "type": "tuple"
        }
      ],
      "stateMutability": "view",
      "type": "function",
      "constant": true
    },
    {
      "inputs": [
        {
          "internalType": "uint256",
          "name": "amount",
          "type": "uint256"
        },
        {
          "internalType": "uint256",
          "name": "profitShare",
          "type": "uint256"
        },
        {
          "internalType": "uint256",
          "name": "escrow",
          "type": "uint256"
        },
        {
          "internalType": "uint256",
          "name": "playThreshold",
          "type": "uint256"
        },
        {
          "internalType": "enum Staking.GameType",
          "name": "gameType",
          "type": "uint8"
        },
        {
          "internalType": "string",
          "name": "apiId",
          "type": "string"
        },
        {
          "internalType": "uint256",
          "name": "scheduledFor",
          "type": "uint256"
        }
      ],
      "name": "createRequest",
      "outputs": [],
      "stateMutability": "payable",
      "type": "function",
      "payable": true
    },
    {
      "inputs": [
        {
          "internalType": "uint256",
          "name": "id",
          "type": "uint256"
        },
        {
          "internalType": "uint256",
          "name": "amount",
          "type": "uint256"
        }
      ],
      "name": "stakeHorse",
      "outputs": [],
      "stateMutability": "payable",
      "type": "function",
      "payable": true
    },
    {
      "inputs": [
        {
          "internalType": "uint256",
          "name": "id",
          "type": "uint256"
        }
      ],
      "name": "expireStake",
      "outputs": [],
      "stateMutability": "nonpayable",
      "type": "function"
    },
    {
      "inputs": [
        {
          "internalType": "uint256",
          "name": "id",
          "type": "uint256"
        }
      ],
      "name": "cancelStakeAsHorse",
      "outputs": [],
      "stateMutability": "nonpayable",
      "type": "function"
    },
    {
      "inputs": [
        {
          "internalType": "uint256",
          "name": "id",
          "type": "uint256"
        }
      ],
      "name": "returnProfits",
      "outputs": [],
      "stateMutability": "payable",
      "type": "function",
      "payable": true
    },
    {
      "inputs": [
        {
          "internalType": "uint256",
          "name": "id",
          "type": "uint256"
        },
        {
          "internalType": "int256",
          "name": "pnl",
          "type": "int256"
        }
      ],
      "name": "gamePlayed",
      "outputs": [],
      "stateMutability": "nonpayable",
      "type": "function"
    },
    {
      "inputs": [
        {
          "internalType": "uint256",
          "name": "id",
          "type": "uint256"
        }
      ],
      "name": "backerClaimEscrow",
      "outputs": [],
      "stateMutability": "nonpayable",
      "type": "function"
    }
  ],
  "bytecode": "0x608060405260006001553480156200001657600080fd5b5060405162003ebd38038062003ebd83398101604081905262000039916200006d565b60038054336001600160a01b031991821617909155600080549091166001600160a01b03929092169190911790556200009f565b6000602082840312156200008057600080fd5b81516001600160a01b03811681146200009857600080fd5b9392505050565b613e0e80620000af6000396000f3fe60806040526004361061010e5760003560e01c80635f904775116100a5578063ce325bf811610074578063d8aedc5511610059578063d8aedc55146102f6578063e2eb41ff14610309578063fc0c546a1461033c57600080fd5b8063ce325bf814610291578063d5a44f86146102be57600080fd5b80635f904775146102135780635f9af981146102335780638da5cb5b14610246578063a9b25f7b1461027e57600080fd5b806353da1bd0116100e157806353da1bd01461017d5780635badbe4c1461019d5780635c12cd4b146101c65780635dee65dc146101f357600080fd5b80630be3721d146101135780631a55d43b1461012857806341c0e1b51461014857806352ec50ce1461015d575b600080fd5b610126610121366004613274565b61035c565b005b34801561013457600080fd5b50610126610143366004613274565b610809565b34801561015457600080fd5b50610126610de6565b34801561016957600080fd5b50610126610178366004613330565b610e38565b34801561018957600080fd5b50610126610198366004613274565b610f6a565b3480156101a957600080fd5b506101b360015481565b6040519081526020015b60405180910390f35b3480156101d257600080fd5b506101e66101e13660046133b8565b6112d6565b6040516101bd9190613470565b3480156101ff57600080fd5b5061012661020e366004613547565b61161d565b34801561021f57600080fd5b5061012661022e366004613274565b611822565b610126610241366004613569565b611dc9565b34801561025257600080fd5b50600354610266906001600160a01b031681565b6040516001600160a01b0390911681526020016101bd565b61012661028c366004613547565b61217d565b34801561029d57600080fd5b506102b16102ac366004613274565b61274c565b6040516101bd91906136a7565b3480156102ca57600080fd5b506102de6102d9366004613274565b6129fe565b6040516101bd9c9b9a999897969594939291906137a1565b61012661030436600461385c565b612bf9565b34801561031557600080fd5b506103296103243660046133b8565b612d5d565b6040516101bd9796959493929190613909565b34801561034857600080fd5b50600054610266906001600160a01b031681565b610367816001541190565b61038c576040516333200a8b60e11b8152600481018290526024015b60405180910390fd5b600081815260026020526040902060018101546001600160a01b031633146103fe5760018101546040517f6764e9b7000000000000000000000000000000000000000000000000000000008152600481018490523360248201526001600160a01b039091166044820152606401610383565b6004600b82015460ff1660078111156104195761041961366d565b1461045d57600b8101546040517ffb98578300000000000000000000000000000000000000000000000000000000815261038391849160ff90911690600401613981565b60005b6002820154811015610598576000546002830180546001600160a01b039092169163a9059cbb91908490811061049857610498613995565b60009182526020909120015460048501546003860180546001600160a01b0390931692869081106104cb576104cb613995565b906000526020600020015486600a01546104e591906139c1565b6104ef91906139e0565b6040517fffffffff0000000000000000000000000000000000000000000000000000000060e085901b1681526001600160a01b0390921660048301526024820152604401602060405180830381600087803b15801561054d57600080fd5b505af1158015610561573d6000803e3d6000fd5b505050506040513d601f19601f820116820180604052508101906105859190613a02565b508061059081613a24565b915050610460565b50600781015415610635576000546001820154600783015460405163a9059cbb60e01b81526001600160a01b039283166004820152602481019190915291169063a9059cbb90604401602060405180830381600087803b1580156105fb57600080fd5b505af115801561060f573d6000803e3d6000fd5b505050506040513d601f19601f820116820180604052508101906106339190613a02565b505b600b810180546005919060ff19166001830217905550600181810180546001600160a01b039081166000908152600460209081526040808320600701805460ff19168717905587835260029182905290912085548155925493830180546001600160a01b03191694909216939093179055818301805484938301906106bd9082908490612fc6565b50600182810180546106d29284019190612fc6565b506002828101549082015560039182015491015560068281015490820155600780830154818301556008808401549083015560098084015490830155600a8084015490830155600b80840154908301805460ff90921692909160ff19169060019084908111156107445761074461366d565b0217905550600b82810154908201805460ff61010093849004169261ff0019909116908360018111156107795761077961366d565b0217905550600c820181600c0190805461079290613a3f565b61079d929190613016565b50600d8281015490820155600e8083015490820155600f8083015490820155601091820154910155600a8101546040805184815260208101929092527f120c71dc5e7cec3dab59d0ac108c8fcf42b7789d60d79cadf046b35476c321b991015b60405180910390a15050565b610814816001541190565b610834576040516333200a8b60e11b815260048101829052602401610383565b60008181526002602081815260408084208151610180810183528154815260018201546001600160a01b0316818501528251948201805460a095810287018601855260808701818152929693959487019491928492909184918401828280156108c657602002820191906000526020600020905b81546001600160a01b031681526001909101906020018083116108a8575b505050505081526020016001820180548060200260200160405190810160405280929190818152602001828054801561091e57602002820191906000526020600020905b81548152602001906001019080831161090a575b5050505050815260200160028201548152602001600382015481525050815260200160068201548152602001600782015481526020016008820154815260200160098201548152602001600a8201548152602001600b820160009054906101000a900460ff1660078111156109955761099561366d565b60078111156109a6576109a661366d565b8152602001600b820160019054906101000a900460ff1660018111156109ce576109ce61366d565b60018111156109df576109df61366d565b8152602001600c820180546109f390613a3f565b80601f0160208091040260200160405190810160405280929190818152602001828054610a1f90613a3f565b8015610a6c5780601f10610a4157610100808354040283529160200191610a6c565b820191906000526020600020905b815481529060010190602001808311610a4f57829003601f168201915b505050918352505060408051608081018252600d8401548152600e840154602082810191909152600f8501549282019290925260109093015460608401520152905060008161010001516007811115610ac757610ac761366d565b14158015610aec575060078161010001516007811115610ae957610ae961366d565b14155b15610b2b576101008101516040517fc17f7b23000000000000000000000000000000000000000000000000000000008152610383918491600401613981565b60078161010001516007811115610b4457610b4461366d565b1415610c4b5760005b60408201515151811015610c495760005460408301515180516001600160a01b039092169163a9059cbb919084908110610b8957610b89613995565b60200260200101518460400151602001518481518110610bab57610bab613995565b60200260200101516040518363ffffffff1660e01b8152600401610be49291906001600160a01b03929092168252602082015260400190565b602060405180830381600087803b158015610bfe57600080fd5b505af1158015610c12573d6000803e3d6000fd5b505050506040513d601f19601f82011682018060405250810190610c369190613a02565b5080610c4181613a24565b915050610b4d565b505b600261010082018190526000838152602082815260409182902084518155818501516001820180546001600160a01b0319166001600160a01b0390921691909117905591840151805180518695929392850192610cac928492910190613090565b506020828101518051610cc592600185019201906130e5565b5060408201518160020155606082015181600301555050606082015181600601556080820151816007015560a0820151816008015560c0820151816009015560e082015181600a015561010082015181600b0160006101000a81548160ff02191690836007811115610d3957610d3961366d565b0217905550610120820151600b8201805461ff001916610100836001811115610d6457610d6461366d565b02179055506101408201518051610d8591600c840191602090910190613120565b5061016091909101518051600d830155602080820151600e840155604080830151600f850155606090920151601090930192909255518381527f6c34b941d3225b0d595f0c4a79b97e492c627f68a9b6c9e21084e68511f618c291016107fd565b6003546001600160a01b03163314610e2a576040517f205fc15e00000000000000000000000000000000000000000000000000000000815260040160405180910390fd5b6003546001600160a01b0316ff5b336000908152600460205260409020546001600160a01b0316610ebc576040513381527f2331a775e7acafeac91fb7978e92af7120c11dec8c6e73fd7f2be8ab7a92aee09060200160405180910390a16040517fe2b28ab8000000000000000000000000000000000000000000000000000000008152336004820152602401610383565b3360009081526004602090815260409091208451610ee292600290920191860190613120565b503360009081526004602090815260409091208351610f0992600390920191850190613120565b503360009081526004602081815260409092208351610f3093919092019190840190613120565b506040513381527f2331a775e7acafeac91fb7978e92af7120c11dec8c6e73fd7f2be8ab7a92aee0906020015b60405180910390a1505050565b610f75816001541190565b610f95576040516333200a8b60e11b815260048101829052602401610383565b60046000828152600260205260409020600b015460ff166007811115610fbd57610fbd61366d565b1461100f5760008181526002602052604090819020600b015490517f18d0648e00000000000000000000000000000000000000000000000000000000815261038391839160ff90911690600401613981565b60008181526002602052604090206007015461107557600081815260026020526040908190206007015490517f9113b1c2000000000000000000000000000000000000000000000000000000008152610383918391600401918252602082015260400190565b6000805b60008381526002602081905260409091200154811015611235576000838152600260208190526040909120018054829081106110b7576110b7613995565b6000918252602090912001546001600160a01b031633141561122357600080548482526002602081905260409092209091018054600194506001600160a01b039092169163a9059cbb91908490811061111257611112613995565b6000918252602080832090910154878352600290915260409091206004810154600390910180546001600160a01b03909316928690811061115557611155613995565b9060005260206000200154600260008981526020019081526020016000206007015461118191906139c1565b61118b91906139e0565b6040517fffffffff0000000000000000000000000000000000000000000000000000000060e085901b1681526001600160a01b0390921660048301526024820152604401602060405180830381600087803b1580156111e957600080fd5b505af11580156111fd573d6000803e3d6000fd5b505050506040513d601f19601f820116820180604052508101906112219190613a02565b505b8061122d81613a24565b915050611079565b5080611276576040517f2d0b68c800000000000000000000000000000000000000000000000000000000815260048101839052336024820152604401610383565b600082815260026020908152604091829020600b8101805460ff191660061790556007015482518581529182015233918101919091527fa768e527233d17984f1796f3e374ca38761c79bc6e27ae499cb41343983a6997906060016107fd565b61132960405180610100016040528060006001600160a01b031681526020016060815260200160608152602001606081526020016060815260200160608152602001600081526020016000151581525090565b6001600160a01b0380831660009081526004602090815260409182902082516101008101909352805490931682526001830180549293929184019161136d90613a3f565b80601f016020809104026020016040519081016040528092919081815260200182805461139990613a3f565b80156113e65780601f106113bb576101008083540402835291602001916113e6565b820191906000526020600020905b8154815290600101906020018083116113c957829003601f168201915b505050505081526020016002820180546113ff90613a3f565b80601f016020809104026020016040519081016040528092919081815260200182805461142b90613a3f565b80156114785780601f1061144d57610100808354040283529160200191611478565b820191906000526020600020905b81548152906001019060200180831161145b57829003601f168201915b5050505050815260200160038201805461149190613a3f565b80601f01602080910402602001604051908101604052809291908181526020018280546114bd90613a3f565b801561150a5780601f106114df5761010080835404028352916020019161150a565b820191906000526020600020905b8154815290600101906020018083116114ed57829003601f168201915b5050505050815260200160048201805461152390613a3f565b80601f016020809104026020016040519081016040528092919081815260200182805461154f90613a3f565b801561159c5780601f106115715761010080835404028352916020019161159c565b820191906000526020600020905b81548152906001019060200180831161157f57829003601f168201915b50505050508152602001600582018054806020026020016040519081016040528092919081815260200182805480156115f457602002820191906000526020600020905b8154815260200190600101908083116115e0575b50505091835250506006820154602082015260079091015460ff16151560409091015292915050565b611628826001541190565b611648576040516333200a8b60e11b815260048101839052602401610383565b60016000838152600260205260409020600b015460ff1660078111156116705761167061366d565b146116c25760008281526002602052604090819020600b015490517f8d2ce62600000000000000000000000000000000000000000000000000000000815261038391849160ff90911690600401613981565b60008082121561173c576000838152600260205260408120600601546116e9908490613a7a565b905060008113611716576000848152600260205260408120600b01805460ff191660051790559150611736565b6000848152600260205260409020600b01805460ff191660041790559050805b506117a0565b60008381526002602052604090206008015460649061175b90846139c1565b61176591906139e0565b6000848152600260205260409020600601546117819190613aee565b6000848152600260205260409020600b01805460ff1916600417905590505b600083815260026020908152604080832060098101869055600a810185905542600f820155600101546001600160a01b031683526004825291829020600701805460ff1916905581518581529081018490529081018290527f16c789abef2652197ccb19511e836a8f2ef9394a419b3cff6efb5fa69de8271c90606001610f5d565b61182d816001541190565b61184d576040516333200a8b60e11b815260048101829052602401610383565b60008181526002602081815260408084208151610180810183528154815260018201546001600160a01b0316818501528251948201805460a095810287018601855260808701818152929693959487019491928492909184918401828280156118df57602002820191906000526020600020905b81546001600160a01b031681526001909101906020018083116118c1575b505050505081526020016001820180548060200260200160405190810160405280929190818152602001828054801561193757602002820191906000526020600020905b815481526020019060010190808311611923575b5050505050815260200160028201548152602001600382015481525050815260200160068201548152602001600782015481526020016008820154815260200160098201548152602001600a8201548152602001600b820160009054906101000a900460ff1660078111156119ae576119ae61366d565b60078111156119bf576119bf61366d565b8152602001600b820160019054906101000a900460ff1660018111156119e7576119e761366d565b60018111156119f8576119f861366d565b8152602001600c82018054611a0c90613a3f565b80601f0160208091040260200160405190810160405280929190818152602001828054611a3890613a3f565b8015611a855780601f10611a5a57610100808354040283529160200191611a85565b820191906000526020600020905b815481529060010190602001808311611a6857829003601f168201915b50505050508152602001600d820160405180608001604052908160008201548152602001600182015481526020016002820154815260200160038201548152505081525050905080602001516001600160a01b0316336001600160a01b031614611b395760208101516040517ffc1bd145000000000000000000000000000000000000000000000000000000008152600481018490523360248201526001600160a01b039091166044820152606401610383565b60008161010001516007811115611b5257611b5261366d565b14611b91576101008101516040517f28763d08000000000000000000000000000000000000000000000000000000008152610383918491600401613981565b608081015115611c2d576000546020820151608083015160405163a9059cbb60e01b81526001600160a01b039283166004820152602481019190915291169063a9059cbb90604401602060405180830381600087803b158015611bf357600080fd5b505af1158015611c07573d6000803e3d6000fd5b505050506040513d601f19601f82011682018060405250810190611c2b9190613a02565b505b600361010082015260008281526002602081815260409283902084518155818501516001820180546001600160a01b0319166001600160a01b039092169190911790559284015180518051869594929392850192611c8f928492910190613090565b506020828101518051611ca892600185019201906130e5565b5060408201518160020155606082015181600301555050606082015181600601556080820151816007015560a0820151816008015560c0820151816009015560e082015181600a015561010082015181600b0160006101000a81548160ff02191690836007811115611d1c57611d1c61366d565b0217905550610120820151600b8201805461ff001916610100836001811115611d4757611d4761366d565b02179055506101408201518051611d6891600c840191602090910190613120565b5061016091909101518051600d830155602080820151600e840155604080830151600f850155606090920151601090930192909255518381527f5d556abff222ff6c24a87f221f26036806352e4b08fb27b5a885d5f0064264a491016107fd565b336000908152600460205260409020546001600160a01b0316611e1a576040517fa125d241000000000000000000000000000000000000000000000000000000008152336004820152602401610383565b3360009081526004602052604090206007015460ff16611e68576040517faad42e74000000000000000000000000000000000000000000000000000000008152336004820152602401610383565b6064861115611ea6576040517f7a59383600000000000000000000000000000000000000000000000000000000815260048101879052602401610383565b8415611f38576000546040516323b872dd60e01b8152336004820152306024820152604481018790526001600160a01b03909116906323b872dd90606401602060405180830381600087803b158015611efe57600080fd5b505af1158015611f12573d6000803e3d6000fd5b505050506040513d601f19601f82011682018060405250810190611f369190613a02565b505b600060405180608001604052804281526020016000815260200160008152602001838152509050611f8a6040518060800160405280606081526020016060815260200160008152602001600081525090565b6060810186905260018054600081815260026020818152604080842094855593850180546001600160a01b03191633179055845483528383206006018e905584548352838320600401839055935482529190208351805185949290930192611ff59284920190613090565b50602082810151805161200e92600185019201906130e5565b506040828101516002838101919091556060909301516003909201919091556001805460009081526020939093528183206007018a9055805483528183206008018b905580548352818320600b908101805460ff191690558154845291909220018054879261ff0019909116906101009084908111156120905761209061366d565b0217905550600154600090815260026020908152604090912085516120bd92600c90920191870190613120565b506001805460009081526002602090815260408083208651600d82015582870151600e82015581870151600f82015560608701516010909101553383526004825282208354600590910180548086018255908452918320909101558154919061212583613a24565b90915550506001546000908152600260205260409081902090517f9c7d6a0d3bcb11b809dcac26aefe743e2dcfccc1aae2257f7922007998786aaf9161216a91613d46565b60405180910390a1505050505050505050565b60015482106121a2576040516333200a8b60e11b815260048101839052602401610383565b600082815260026020526040812090600b82015460ff1660078111156121ca576121ca61366d565b1415806121f057506007600b82015460ff1660078111156121ed576121ed61366d565b14155b1561222a576040517f63d82b4300000000000000000000000000000000000000000000000000000000815260048101849052602401610383565b60018101546001600160a01b0316338082141561228d576040517fb6ccca7f000000000000000000000000000000000000000000000000000000008152600481018690526001600160a01b03808416602483015282166044820152606401610383565b600683015460048401546122a19086613aee565b1115612303578484846002016002015485600601546122c09190613d59565b6040517f0f591989000000000000000000000000000000000000000000000000000000008152600481019390935260248301919091526044820152606401610383565b6005830154600484018054600b8601805460ff191660071790559182101591869190600090612333908490613aee565b909155505060068401546004850154141561235857600b8401805460ff191660011790555b8015801561236e57506005840154600485015410155b15612495576000546040516323b872dd60e01b8152336004820152306024820152604481018790526001600160a01b03909116906323b872dd90606401602060405180830381600087803b1580156123c557600080fd5b505af11580156123d9573d6000803e3d6000fd5b505050506040513d601f19601f820116820180604052508101906123fd9190613a02565b50600054600185015460048087015460405163a9059cbb60e01b81526001600160a01b0393841692810192909252602482015291169063a9059cbb906044015b602060405180830381600087803b15801561245757600080fd5b505af115801561246b573d6000803e3d6000fd5b505050506040513d601f19601f8201168201806040525081019061248f9190613a02565b50612573565b60058401546004850154106124e75760005460018501546040516323b872dd60e01b81523360048201526001600160a01b039182166024820152604481018890529116906323b872dd9060640161243d565b6000546040516323b872dd60e01b8152336004820152306024820152604481018790526001600160a01b03909116906323b872dd90606401602060405180830381600087803b15801561253957600080fd5b505af115801561254d573d6000803e3d6000fd5b505050506040513d601f19601f820116820180604052508101906125719190613a02565b505b60028085018054600181810183556000838152602080822090930180546001600160a01b03808a166001600160a01b03199283161790925560038b0180548086018255908452858420018c905542600e8c01558c835293869052604090912089548155828a015492810180549094169290911691909117909155815487939192918301906126049082908490612fc6565b50600182810180546126199284019190612fc6565b506002828101549082015560039182015491015560068281015490820155600780830154818301556008808401549083015560098084015490830155600a8084015490830155600b80840154908301805460ff90921692909160ff191690600190849081111561268b5761268b61366d565b0217905550600b82810154908201805460ff61010093849004169261ff0019909116908360018111156126c0576126c061366d565b0217905550600c820181600c019080546126d990613a3f565b6126e4929190613016565b50600d8281015490820155600e8083015490820155600f80830154908201556010918201549101556040517fc3ad659f85ff9c5e75807183196801d65f542c216de85a2ff55edbe769d8ef829061273c908690613d46565b60405180910390a1505050505050565b612754613193565b61275f826001541190565b61277f576040516333200a8b60e11b815260048101839052602401610383565b6000828152600260208181526040928390208351610180810185528154815260018201546001600160a01b0316818401528451938201805460a0948102860185018752608086018181529296939593870194919284929091849184018282801561281257602002820191906000526020600020905b81546001600160a01b031681526001909101906020018083116127f4575b505050505081526020016001820180548060200260200160405190810160405280929190818152602001828054801561286a57602002820191906000526020600020905b815481526020019060010190808311612856575b5050505050815260200160028201548152602001600382015481525050815260200160068201548152602001600782015481526020016008820154815260200160098201548152602001600a8201548152602001600b820160009054906101000a900460ff1660078111156128e1576128e161366d565b60078111156128f2576128f261366d565b8152602001600b820160019054906101000a900460ff16600181111561291a5761291a61366d565b600181111561292b5761292b61366d565b8152602001600c8201805461293f90613a3f565b80601f016020809104026020016040519081016040528092919081815260200182805461296b90613a3f565b80156129b85780601f1061298d576101008083540402835291602001916129b8565b820191906000526020600020905b81548152906001019060200180831161299b57829003601f168201915b505050918352505060408051608081018252600d8401548152600e840154602082810191909152600f850154928201929092526010909301546060840152015292915050565b600260208181526000928352604092839020805460018201548551948301805460a0958102870186019097526080860187815292966001600160a01b03909216959394909284929091849190840182828015612a8357602002820191906000526020600020905b81546001600160a01b03168152600190910190602001808311612a65575b5050505050815260200160018201805480602002602001604051908101604052809291908181526020018280548015612adb57602002820191906000526020600020905b815481526020019060010190808311612ac7575b5050509183525050600282015460208201526003909101546040909101526006820154600783015460088401546009850154600a860154600b870154600c8801805497989697959694959394929360ff8084169461010090940416929190612b4290613a3f565b80601f0160208091040260200160405190810160405280929190818152602001828054612b6e90613a3f565b8015612bbb5780601f10612b9057610100808354040283529160200191612bbb565b820191906000526020600020905b815481529060010190602001808311612b9e57829003601f168201915b505060408051608081018252600d8701548152600e8701546020820152600f87015491810191909152601090950154606086015250919291508d9050565b336000908152600460205260409020546001600160a01b031615612c4b576040517f609c043e000000000000000000000000000000000000000000000000000000008152336004820152602401610383565b3360009081526004602090815260409091208551612c7192600190920191870190613120565b5033600081815260046020908152604090912080546001600160a01b03191690921782558451612ca79260020191860190613120565b503360009081526004602090815260409091208351612cce92600390920191850190613120565b503360009081526004602081815260409092208351612cf593919092019190840190613120565b503360008181526004602052604090819020426006820155600701805460ff19166001179055517f7f9d16a3c205132230d8fdf1dbfaa2b2b741f5a3f0599a6c813d1e94acd66e3291612d4f918790879087908790613d70565b60405180910390a150505050565b600460205260009081526040902080546001820180546001600160a01b039092169291612d8990613a3f565b80601f0160208091040260200160405190810160405280929190818152602001828054612db590613a3f565b8015612e025780601f10612dd757610100808354040283529160200191612e02565b820191906000526020600020905b815481529060010190602001808311612de557829003601f168201915b505050505090806002018054612e1790613a3f565b80601f0160208091040260200160405190810160405280929190818152602001828054612e4390613a3f565b8015612e905780601f10612e6557610100808354040283529160200191612e90565b820191906000526020600020905b815481529060010190602001808311612e7357829003601f168201915b505050505090806003018054612ea590613a3f565b80601f0160208091040260200160405190810160405280929190818152602001828054612ed190613a3f565b8015612f1e5780601f10612ef357610100808354040283529160200191612f1e565b820191906000526020600020905b815481529060010190602001808311612f0157829003601f168201915b505050505090806004018054612f3390613a3f565b80601f0160208091040260200160405190810160405280929190818152602001828054612f5f90613a3f565b8015612fac5780601f10612f8157610100808354040283529160200191612fac565b820191906000526020600020905b815481529060010190602001808311612f8f57829003601f168201915b50505050600683015460079093015491929160ff16905087565b8280548282559060005260206000209081019282156130065760005260206000209182015b82811115613006578254825591600101919060010190612feb565b5061301292915061325f565b5090565b82805461302290613a3f565b90600052602060002090601f0160209004810192826130445760008555613006565b82601f106130555780548555613006565b8280016001018555821561300657600052602060002091601f0160209004820182811115613006578254825591600101919060010190612feb565b828054828255906000526020600020908101928215613006579160200282015b8281111561300657825182546001600160a01b0319166001600160a01b039091161782556020909201916001909101906130b0565b828054828255906000526020600020908101928215613006579160200282015b82811115613006578251825591602001919060010190613105565b82805461312c90613a3f565b90600052602060002090601f01602090048101928261314e5760008555613006565b82601f1061316757805160ff1916838001178555613006565b828001600101855582156130065791820182811115613006578251825591602001919060010190613105565b6040518061018001604052806000815260200160006001600160a01b031681526020016131e16040518060800160405280606081526020016060815260200160008152602001600081525090565b815260200160008152602001600081526020016000815260200160008152602001600081526020016000600781111561321c5761321c61366d565b8152602001600081526020016060815260200161325a6040518060800160405280600081526020016000815260200160008152602001600081525090565b905290565b5b808211156130125760008155600101613260565b60006020828403121561328657600080fd5b5035919050565b634e487b7160e01b600052604160045260246000fd5b600082601f8301126132b457600080fd5b813567ffffffffffffffff808211156132cf576132cf61328d565b604051601f8301601f19908116603f011681019082821181831017156132f7576132f761328d565b8160405283815286602085880101111561331057600080fd5b836020870160208301376000602085830101528094505050505092915050565b60008060006060848603121561334557600080fd5b833567ffffffffffffffff8082111561335d57600080fd5b613369878388016132a3565b9450602086013591508082111561337f57600080fd5b61338b878388016132a3565b935060408601359150808211156133a157600080fd5b506133ae868287016132a3565b9150509250925092565b6000602082840312156133ca57600080fd5b81356001600160a01b03811681146133e157600080fd5b9392505050565b6000815180845260005b8181101561340e576020818501810151868301820152016133f2565b81811115613420576000602083870101525b50601f01601f19169290920160200192915050565b600081518084526020808501945080840160005b8381101561346557815187529582019590820190600101613449565b509495945050505050565b6020815261348a6020820183516001600160a01b03169052565b600060208301516101008060408501526134a86101208501836133e8565b91506040850151601f19808685030160608701526134c684836133e8565b935060608701519150808685030160808701526134e384836133e8565b935060808701519150808685030160a087015261350084836133e8565b935060a08701519150808685030160c08701525061351e8382613435565b92505060c085015160e085015260e085015161353d8286018215159052565b5090949350505050565b6000806040838503121561355a57600080fd5b50508035926020909101359150565b600080600080600080600060e0888a03121561358457600080fd5b873596506020880135955060408801359450606088013593506080880135600281106135af57600080fd5b925060a088013567ffffffffffffffff8111156135cb57600080fd5b6135d78a828b016132a3565b92505060c0880135905092959891949750929550565b8051608080845281519084018190526000916020919082019060a0860190845b818110156136325783516001600160a01b03168352928401929184019160010161360d565b50508285015191508581038387015261364b8183613435565b9250505060408301516040850152606083015160608501528091505092915050565b634e487b7160e01b600052602160045260246000fd5b600881106136935761369361366d565b9052565b600281106136935761369361366d565b6020815281516020820152600060208301516136ce60408401826001600160a01b03169052565b5060408301516101e060608401526136ea6102008401826135ed565b905060608401516080840152608084015160a084015260a084015160c084015260c084015160e084015260e084015161010081818601528086015191505061012061373781860183613683565b850151905061014061374b85820183613697565b80860151915050610160601f19858403018186015261376a83836133e8565b950151805161018086015260208101516101a086015260408101516101c0860152606001516101e090940193909352509192915050565b60006101e08e83526001600160a01b038e1660208401528060408401526137ca8184018e6135ed565b90508b60608401528a60808401528960a08401528860c08401528760e08401526137f8610100840188613683565b613806610120840187613697565b82810361014084015261381981866133e8565b8451610160850152602085015161018085015260408501516101a085015260608501516101c0850152915061384b9050565b9d9c50505050505050505050505050565b6000806000806080858703121561387257600080fd5b843567ffffffffffffffff8082111561388a57600080fd5b613896888389016132a3565b955060208701359150808211156138ac57600080fd5b6138b8888389016132a3565b945060408701359150808211156138ce57600080fd5b6138da888389016132a3565b935060608701359150808211156138f057600080fd5b506138fd878288016132a3565b91505092959194509250565b6001600160a01b038816815260e06020820152600061392b60e08301896133e8565b828103604084015261393d81896133e8565b9050828103606084015261395181886133e8565b9050828103608084015261396581876133e8565b60a0840195909552505090151560c09091015295945050505050565b828152604081016133e16020830184613683565b634e487b7160e01b600052603260045260246000fd5b634e487b7160e01b600052601160045260246000fd5b60008160001904831182151516156139db576139db6139ab565b500290565b6000826139fd57634e487b7160e01b600052601260045260246000fd5b500490565b600060208284031215613a1457600080fd5b815180151581146133e157600080fd5b6000600019821415613a3857613a386139ab565b5060010190565b600181811c90821680613a5357607f821691505b60208210811415613a7457634e487b7160e01b600052602260045260246000fd5b50919050565b6000808212827f7fffffffffffffffffffffffffffffffffffffffffffffffffffffffffffffff03841381151615613ab457613ab46139ab565b827f8000000000000000000000000000000000000000000000000000000000000000038412811615613ae857613ae86139ab565b50500190565b60008219821115613b0157613b016139ab565b500190565b6000815480845260208085019450836000528060002060005b8381101561346557815487529582019560019182019101613b1f565b6000608083016080845280835480835260a08601915084600052602092508260002060005b82811015613b855781546001600160a01b031684529284019260019182019101613b60565b50505084810382860152613b9c8160018601613b06565b91505060028301546040850152600383015460608501528091505092915050565b8054600090600181811c9080831680613bd757607f831692505b6020808410821415613bf957634e487b7160e01b600052602260045260246000fd5b83885260208801828015613c145760018114613c2557613c50565b60ff19871682528282019750613c50565b60008981526020902060005b87811015613c4a57815484820152908601908401613c31565b83019850505b5050505050505092915050565b60006101e082548452613c7a60018401546001600160a01b031690565b6001600160a01b0316602085015260408401819052613c9e81850160028501613b3b565b90506006830154606085015260078301546080850152600883015460a0850152600983015460c0850152600a83015460e0850152600b830154613ce8610100860160ff8316613683565b613cfc610120860160ff8360081c16613697565b50838103610140850152613d1381600c8501613bbd565b600d840154610160860152600e840154610180860152600f8401546101a086015260108401546101c086015290506133e1565b6020815260006133e16020830184613c5d565b600082821015613d6b57613d6b6139ab565b500390565b6001600160a01b038616815260a060208201526000613d9260a08301876133e8565b8281036040840152613da481876133e8565b90508281036060840152613db881866133e8565b90508281036080840152613dcc81856133e8565b9897505050505050505056fea2646970667358221220ab967cbbbd221098bcc4190d4feb1684722f2f5390ab9d2983796afcfb083eaa64736f6c63430008090033",
  "immutableReferences": {},
  "source": "// SPDX-License-Identifier: MIT\npragma solidity ^0.8.9;\n\n// Dai or StakeCoin (production or development)\ninterface Token {\n    function transfer(address dst, uint amount) external returns (bool);\n    function transferFrom(address src, address dst, uint amount) external returns (bool);\n    function balanceOf(address guy) external view returns (uint);\n    function approve(address spender, uint amount) external returns (bool);\n}\n\ncontract Staking {\n    Token public token;\n    uint public requestCount = 0;\n    mapping(uint => Stake) public stakes;\n    address payable public owner;\n\n    mapping(address => Player) public players;\n\n    enum StakeStatus {\n        Requested,\n        Filled,\n        Expired, // TODO: When will we use this\n        Cancelled,\n        AwaitingReturnPayment,\n        Completed,\n        EscrowClaimed,\n        PartiallyFilled\n    }\n\n    enum GameType {\n        SingleGame,\n        Tournament\n    }\n\n    struct InvestmentDetails {\n        address payable[] backers;\n        uint[] investments;\n        uint filledAmount;\n        uint playThreshold;\n    }\n\n    struct Stake {\n        uint id;\n        address payable horse;\n        InvestmentDetails investmentDetails;\n        uint amount;\n        uint escrow;\n        uint profitShare;\n        int pnl;\n        uint backerReturns;\n        StakeStatus status;\n        GameType gameType;\n        string apiId;\n        StakeTimeStamp stakeTimeStamp;\n    }\n\n    struct StakeTimeStamp {\n        uint256 createdTimestamp;\n        uint256 lastFilledTimestamp;\n        uint256 gamePlayedTimestamp;\n        uint256 scheduledForTimestamp;\n    }\n\n    struct Player {\n        address payable playerAddress;\n        string apiId;\n        string name;\n        string sharkscopeLink;\n        string profilePicPath;\n        uint[] stakeIds; // stakes where the player is the horse.\n        uint256 createdTimestamp;\n        bool canCreateStake; // False when they have a stake that is awaiting repayment\n    }\n\n    constructor(address tokenAddress) {\n        owner = payable(msg.sender);\n        token = Token(tokenAddress);\n    }\n\n    event PlayerCreated(address playerAddress, string apiId, string name, string sharkscopeLink, string profilePicPath);\n\n    /// A player with this address already exists\n    error PlayerAlreadyExists(address playerAddress);\n\n    function createPlayer(string memory apiId, string memory name, string memory sharkscopeLink, string memory profilePicPath) external payable {\n        if (players[msg.sender].playerAddress != address(0)) {\n            revert PlayerAlreadyExists(msg.sender);\n        }\n        players[msg.sender].apiId = apiId;\n        players[msg.sender].playerAddress = payable(msg.sender);\n        players[msg.sender].name = name;\n        players[msg.sender].sharkscopeLink = sharkscopeLink;\n        players[msg.sender].profilePicPath = profilePicPath;\n        players[msg.sender].createdTimestamp = block.timestamp;\n        players[msg.sender].canCreateStake = true;\n\n        emit PlayerCreated(msg.sender, apiId, name, sharkscopeLink, profilePicPath);\n    }\n\n    function getPlayer(address add) external view returns (Player memory) {\n        return players[add];\n    }\n\n    // player doesn't exist\n    error PlayerDoesntExist(address playerAddress);\n\n    event PlayerEdited(address playerAddress);\n\n    function editPlayer(string memory name, string memory sharkscopeLink, string memory profilePicPath) external {\n        if (players[msg.sender].playerAddress == address(0)) {\n            emit PlayerEdited(msg.sender);\n            revert PlayerDoesntExist(msg.sender);\n        }\n\n        players[msg.sender].name = name;\n        players[msg.sender].sharkscopeLink = sharkscopeLink;\n        players[msg.sender].profilePicPath = profilePicPath;\n\n        emit PlayerEdited(msg.sender);\n    }\n\n    /// Only the owner can kill this contract\n    error OnlyOwnerCanKill();\n\n    function kill() external {\n        if (msg.sender != owner) {\n            revert OnlyOwnerCanKill();\n        }\n        selfdestruct(owner);\n    }\n\n    // Get an individual stake\n\n    /// Not a valid id for a stake request\n    error InvalidStakeId(uint id);\n\n    function getStake(uint id) external view returns (Stake memory) {\n        if (!validId(id)) {\n            revert InvalidStakeId(id);\n        }\n\n        return stakes[id];\n    }\n\n    // Creating a new stake request\n    event StakeRequested(Stake stake);\n\n    /// Profit share must be between 0 and 100\n    error InvalidProfitShare(uint profitShare);\n    /// Escrow does not match msg.value\n    error EscrowValueNotMatching(uint escrow, uint value);\n    /// Player has not registered\n    error PlayerDoesNotExist(address sender);\n    /// Player is locked from creating new stakes. Return awaiting payments first.\n    error PlayerNotAllowedToCreateStake(address player);\n\n    function createRequest(uint amount, uint profitShare, uint escrow, uint playThreshold, GameType gameType, string memory apiId, uint256 scheduledFor) external payable {\n        if (players[msg.sender].playerAddress == address(0)) {\n            revert PlayerDoesNotExist(msg.sender);\n        }\n        if (!players[msg.sender].canCreateStake) {\n            revert PlayerNotAllowedToCreateStake(msg.sender);\n        }\n        if (profitShare > 100) {\n            revert InvalidProfitShare(profitShare);\n        }\n        if (escrow > 0) {\n            token.transferFrom(msg.sender, address(this), escrow);\n        }\n\n        StakeTimeStamp memory stakeTimeStamp = StakeTimeStamp(block.timestamp, 0, 0, scheduledFor);\n        InvestmentDetails memory investmentDetails;\n        investmentDetails.playThreshold = playThreshold;\n\n        stakes[requestCount].id = requestCount;\n        stakes[requestCount].horse = payable(msg.sender);\n        stakes[requestCount].amount = amount;\n        stakes[requestCount].investmentDetails.filledAmount = 0;\n        stakes[requestCount].investmentDetails = investmentDetails;\n        stakes[requestCount].escrow = escrow;\n        stakes[requestCount].profitShare = profitShare;\n        stakes[requestCount].status = StakeStatus.Requested;\n        stakes[requestCount].gameType = gameType;\n        stakes[requestCount].apiId = apiId;\n        stakes[requestCount].stakeTimeStamp = stakeTimeStamp;\n\n        players[msg.sender].stakeIds.push(requestCount);\n        requestCount++;\n\n        emit StakeRequested(stakes[requestCount]);\n    }\n\n    // Staking a request\n    event StakeFilled(Stake stake);\n    \n    /// Stake has already been filled/cancelled\n    error StakeNotFillable(uint id);\n    /// You cannot stake yourself\n    error StakingSelf(uint id, address horse, address backer);\n    /// Cannot stake more than the remaining amount\n    error StakedMoreThanRemaining(uint id, uint stakedAmount, uint remainingAmount);\n    /// Staked amount and msg value do not match\n    error ValueAndAmountDoNotMatch(uint amount, uint value);\n   \n    function stakeHorse(uint id, uint amount) external payable {\n        // require(validId(id), \"This is not a valid ID for a stake!\");\n        if (id >= requestCount) {\n            revert InvalidStakeId(id);\n        }\n    \n        Stake storage stake = stakes[id];\n        if (stake.status != StakeStatus.Requested || stake.status != StakeStatus.PartiallyFilled) {\n            revert StakeNotFillable(id);\n        }\n\n        address payable horse = stake.horse;\n        address payable backer = payable(msg.sender);\n        if (horse == backer) {\n            revert StakingSelf(id, horse, backer);\n        }\n        \n//        if (msg.value != amount) {\n//            revert ValueAndAmountDoNotMatch(amount, msg.value);\n//        }\n\n        if (amount + stake.investmentDetails.filledAmount > stake.amount) {\n            revert StakedMoreThanRemaining(id, amount, stake.amount - stake.investmentDetails.filledAmount);\n        }\n        \n        bool passedThresholdBefore = stake.investmentDetails.filledAmount >= stake.investmentDetails.playThreshold;\n        stake.status = StakeStatus.PartiallyFilled;\n        // Update stake status and transfer funds\n        stake.investmentDetails.filledAmount += amount;\n        if (stake.investmentDetails.filledAmount == stake.amount) {\n            stake.status = StakeStatus.Filled;\n        }\n        if (!passedThresholdBefore && stake.investmentDetails.filledAmount >= stake.investmentDetails.playThreshold) {\n            // Just passed the threshold - send money pool to horse\n            token.transferFrom(msg.sender, address(this), amount);\n            token.transfer(stake.horse, stake.investmentDetails.filledAmount);\n        } else if (stake.investmentDetails.filledAmount >= stake.investmentDetails.playThreshold) {\n            // We have already passed the threshold - send money directly to horse\n            token.transferFrom(msg.sender, stake.horse, amount);\n        } else {\n            // We are still below the threshold - add to money pool\n            token.transferFrom(msg.sender, address(this), amount);\n        }\n        stake.investmentDetails.backers.push(payable(backer));\n        stake.investmentDetails.investments.push(amount);\n        stake.stakeTimeStamp.lastFilledTimestamp = block.timestamp;\n\n        stakes[id] = stake;\n        emit StakeFilled(stake);\n    }\n\n    // Expiring a stake for a game that has been played\n    event StakeExpired(uint id);\n\n    // A stake can only be expired if it is status Requested or PartiallyFilled\n    error StakeIsNotExpirable(uint id, StakeStatus status);\n\n    // Only the oracle can expire stakes\n    //TODO: this!!\n    // error OnlyOracleCanExpireStake(uint id, address sender);\n\n    function expireStake(uint id) external {\n        if (!validId(id)) {\n            revert InvalidStakeId(id);\n        }\n        Stake memory stake = stakes[id];\n\n        // TODO: This!!\n        // if (msg.sender != /*<oracle_address>*/) {\n        //     revert OnlyOracleCanExpireStake(id, msg.sender)\n        // }\n\n        if (stake.status != StakeStatus.Requested && stake.status != StakeStatus.PartiallyFilled) {\n            revert StakeIsNotExpirable(id, stake.status);\n        }\n\n        if (stake.status == StakeStatus.PartiallyFilled) {\n            for (uint i = 0; i < stake.investmentDetails.backers.length; i++) {\n                token.transfer(stake.investmentDetails.backers[i], stake.investmentDetails.investments[i]);\n            }\n        }\n        stake.status = StakeStatus.Expired;\n        stakes[id] = stake;\n        emit StakeExpired(id);\n    }\n\n    // Cancelling a reqested stake\n    event StakeCancelled(uint id);\n    \n    /// Only the horse can cancel a requested stake\n    error CancellingSenderIsNotHorse(uint id, address canceller, address horse);\n    /// A horse can only cancel a stake when it has only been requested\n    error StakeIsNotCancellable(uint id, StakeStatus status);\n\n    function cancelStakeAsHorse(uint id) external {\n        if(!validId(id)) {\n            revert InvalidStakeId(id);\n        }\n        Stake memory stake = stakes[id];\n        \n        if (msg.sender != stake.horse) {\n            revert CancellingSenderIsNotHorse(id, msg.sender, stake.horse);\n        }\n        \n        if (stake.status != StakeStatus.Requested) {\n            revert StakeIsNotCancellable(id, stake.status);\n        }\n\n        if (stake.escrow > 0) {\n            token.transfer(stake.horse, stake.escrow);\n            // stake.horse.transfer(stake.escrow);\n        }\n        stake.status = StakeStatus.Cancelled;\n\n        stakes[id] = stake;\n        emit StakeCancelled(id);\n    }\n    \n\n    // Returning profits to backer after completing games\n    event ProfitsReturned(uint id, uint backerReturns);\n    \n    /// Only the horse can return the profits from a stake\n    error ReturningProfitsSenderIsNotHorse(uint id, address sender, address horse);\n    /// Profits can only be returned if a stake has been filled\n    error StakeProfitNotReturnable(uint id, StakeStatus status);\n    /// Message value not equal to the profit returns of the backer\n    error MessageValueNotEqualToBackerReturns(uint value, uint backerReturns);\n    \n    function returnProfits(uint id) external payable {\n        if(!validId(id)) {\n            revert InvalidStakeId(id);\n        }\n        Stake storage stake = stakes[id];\n\n        if (msg.sender != stake.horse) {\n            revert ReturningProfitsSenderIsNotHorse(id, msg.sender, stake.horse);\n        }\n        \n        if (stake.status != StakeStatus.AwaitingReturnPayment) {\n            revert StakeProfitNotReturnable(id, stake.status);\n        }\n\n        // TODO: See above before we can do this\n        // if (msg.value != backerReturns) {\n        //     revert MessageValueNotEqualToBackerReturns(msg.value, backerReturns);\n        // }\n        for (uint i = 0; i < stake.investmentDetails.backers.length; i++) {\n            token.transfer(stake.investmentDetails.backers[i], (stake.backerReturns * stake.investmentDetails.investments[i]) / stake.investmentDetails.filledAmount);\n        }\n        if (stake.escrow > 0) {\n            token.transfer(stake.horse, stake.escrow);\n            // stake.horse.transfer(stake.escrow);\n        }\n        stake.status = StakeStatus.Completed;\n        players[stake.horse].canCreateStake = true;\n\n        stakes[id] = stake;\n        emit ProfitsReturned(id, stake.backerReturns);\n    }\n\n\n    // Setting the status of a stake to AwaitingReturnPayment\n\n    event GamePlayed(uint id, int pnl, uint backerReturns);\n\n    /// You can only complete a game after it has been filled\n    error CanOnlyPlayedFilledStakes(uint id, StakeStatus status);\n\n    function gamePlayed(uint id, int pnl) external {\n        if(!validId(id)) {\n            revert InvalidStakeId(id);\n        }\n\n        if (stakes[id].status != StakeStatus.Filled) {\n            revert CanOnlyPlayedFilledStakes(id, stakes[id].status);\n        }\n\n        // TODO: Check this calculation. Do we do it here or calculate it in the frontend?\n        uint backerReturns;\n        if (pnl < 0) {\n            int owed = int(stakes[id].amount) + pnl;\n            if (owed <= 0) {\n                backerReturns = 0;\n                stakes[id].status = StakeStatus.Completed;\n            } else {\n                backerReturns = uint(owed);\n                stakes[id].status = StakeStatus.AwaitingReturnPayment;\n            }\n        } else {\n            backerReturns = stakes[id].amount + ((uint(pnl) * stakes[id].profitShare) / 100);\n            stakes[id].status = StakeStatus.AwaitingReturnPayment;\n        }\n\n        stakes[id].pnl = pnl;\n        stakes[id].backerReturns = backerReturns;\n        stakes[id].stakeTimeStamp.gamePlayedTimestamp = block.timestamp;\n        players[stakes[id].horse].canCreateStake = false;\n        emit GamePlayed(id, pnl, backerReturns);\n    }\n\n\n    // Requesting back your escrow while awaiting return payment\n    event EscrowClaimed(uint id, uint escrow, address backer);\n\n    /// You can only request your escrow back when the status of the stake is awaiting return payment\n    error CanOnlyReturnEscrowWhenAwaitingReturnPayment(uint id, StakeStatus status);\n    /// Only the stake backer can request the contract's escrow\n    error OnlyBackerCanRequestEscrow(uint id, address sender);\n    /// Cannot return back escrow for a stake which never had an escrow put up\n    error CannotReturnNoEscrow(uint id, uint escrow);\n\n    // TODO: Only allow this when the state is actually AwaitingReturnPaymentClaimEscrow\n    function backerClaimEscrow(uint id) external {\n        if(!validId(id)) {\n            revert InvalidStakeId(id);\n        }\n        if (stakes[id].status != StakeStatus.AwaitingReturnPayment) {\n            revert CanOnlyReturnEscrowWhenAwaitingReturnPayment(id, stakes[id].status);\n        }\n\n        if (stakes[id].escrow == 0) {\n            revert CannotReturnNoEscrow(id, stakes[id].escrow);\n        }\n\n        bool isBacker = false;\n        for (uint i = 0; i < stakes[id].investmentDetails.backers.length; i++) {\n            if (msg.sender == stakes[id].investmentDetails.backers[i]) {\n                isBacker = true;\n                token.transfer(stakes[id].investmentDetails.backers[i], (stakes[id].escrow * stakes[id].investmentDetails.investments[i] / stakes[id].investmentDetails.filledAmount));\n            }\n        }\n        if (!isBacker) {\n            revert OnlyBackerCanRequestEscrow(id, msg.sender);\n        }\n\n        stakes[id].status = StakeStatus.EscrowClaimed;\n        emit EscrowClaimed(id, stakes[id].escrow, msg.sender);\n    }\n\n    function validId(uint id) internal view returns (bool) {\n        return id < requestCount;\n    }\n\n\n\n}",
  "sourcePath": "/Users/julesdehon/Documents/Uni/year-3/group-project/decentralized_poker_staking/contracts/Staking.sol",
  "compiler": {
    "name": "solc",
    "version": "0.8.9+commit.e5eed63a.Emscripten.clang"
  },
  "schemaVersion": "3.4.3",
  "updatedAt": "2021-12-01T13:18:28.857Z",
  "networkType": "ethereum",
  "devdoc": {
    "kind": "dev",
    "methods": {},
    "version": 1
  },
  "userdoc": {
    "errors": {
      "CanOnlyPlayedFilledStakes(uint256,uint8)": [
        {
          "notice": "You can only complete a game after it has been filled"
        }
      ],
      "CanOnlyReturnEscrowWhenAwaitingReturnPayment(uint256,uint8)": [
        {
          "notice": "You can only request your escrow back when the status of the stake is awaiting return payment"
        }
      ],
      "CancellingSenderIsNotHorse(uint256,address,address)": [
        {
          "notice": "Only the horse can cancel a requested stake"
        }
      ],
      "CannotReturnNoEscrow(uint256,uint256)": [
        {
          "notice": "Cannot return back escrow for a stake which never had an escrow put up"
        }
      ],
      "EscrowValueNotMatching(uint256,uint256)": [
        {
          "notice": "Escrow does not match msg.value"
        }
      ],
      "InvalidProfitShare(uint256)": [
        {
          "notice": "Profit share must be between 0 and 100"
        }
      ],
      "InvalidStakeId(uint256)": [
        {
          "notice": "Not a valid id for a stake request"
        }
      ],
      "MessageValueNotEqualToBackerReturns(uint256,uint256)": [
        {
          "notice": "Message value not equal to the profit returns of the backer"
        }
      ],
      "OnlyBackerCanRequestEscrow(uint256,address)": [
        {
          "notice": "Only the stake backer can request the contract's escrow"
        }
      ],
      "OnlyOwnerCanKill()": [
        {
          "notice": "Only the owner can kill this contract"
        }
      ],
      "PlayerAlreadyExists(address)": [
        {
          "notice": "A player with this address already exists"
        }
      ],
      "PlayerDoesNotExist(address)": [
        {
          "notice": "Player has not registered"
        }
      ],
      "PlayerNotAllowedToCreateStake(address)": [
        {
          "notice": "Player is locked from creating new stakes. Return awaiting payments first."
        }
      ],
      "ReturningProfitsSenderIsNotHorse(uint256,address,address)": [
        {
          "notice": "Only the horse can return the profits from a stake"
        }
      ],
      "StakeIsNotCancellable(uint256,uint8)": [
        {
          "notice": "A horse can only cancel a stake when it has only been requested"
        }
      ],
      "StakeNotFillable(uint256)": [
        {
          "notice": "Stake has already been filled/cancelled"
        }
      ],
      "StakeProfitNotReturnable(uint256,uint8)": [
        {
          "notice": "Profits can only be returned if a stake has been filled"
        }
      ],
      "StakedMoreThanRemaining(uint256,uint256,uint256)": [
        {
          "notice": "Cannot stake more than the remaining amount"
        }
      ],
      "StakingSelf(uint256,address,address)": [
        {
          "notice": "You cannot stake yourself"
        }
      ],
      "ValueAndAmountDoNotMatch(uint256,uint256)": [
        {
          "notice": "Staked amount and msg value do not match"
        }
      ]
    },
    "kind": "user",
    "methods": {},
    "version": 1
  }
}