{
  "contractName": "Staking",
  "abi": [
    {
      "inputs": [],
      "stateMutability": "nonpayable",
      "type": "constructor"
    },
    {
      "inputs": [
        {
          "internalType": "uint256",
          "name": "id",
          "type": "uint256"
        },
        {
          "internalType": "enum Staking.StakeStatus",
          "name": "status",
          "type": "uint8"
        }
      ],
      "name": "CanOnlyPlayedFilledStakes",
      "type": "error"
    },
    {
      "inputs": [
        {
          "internalType": "uint256",
          "name": "id",
          "type": "uint256"
        },
        {
          "internalType": "enum Staking.StakeStatus",
          "name": "status",
          "type": "uint8"
        }
      ],
      "name": "CanOnlyReturnEscrowWhenAwaitingReturnPayment",
      "type": "error"
    },
    {
      "inputs": [
        {
          "internalType": "uint256",
          "name": "id",
          "type": "uint256"
        },
        {
          "internalType": "address",
          "name": "canceller",
          "type": "address"
        },
        {
          "internalType": "address",
          "name": "horse",
          "type": "address"
        }
      ],
      "name": "CancellingSenderIsNotHorse",
      "type": "error"
    },
    {
      "inputs": [
        {
          "internalType": "uint256",
          "name": "id",
          "type": "uint256"
        },
        {
          "internalType": "uint256",
          "name": "escrow",
          "type": "uint256"
        }
      ],
      "name": "CannotReturnNoEscrow",
      "type": "error"
    },
    {
      "inputs": [
        {
          "internalType": "uint256",
          "name": "escrow",
          "type": "uint256"
        },
        {
          "internalType": "uint256",
          "name": "value",
          "type": "uint256"
        }
      ],
      "name": "EscrowValueNotMatching",
      "type": "error"
    },
    {
      "inputs": [
        {
          "internalType": "uint256",
          "name": "profitShare",
          "type": "uint256"
        }
      ],
      "name": "InvalidProfitShare",
      "type": "error"
    },
    {
      "inputs": [
        {
          "internalType": "uint256",
          "name": "id",
          "type": "uint256"
        }
      ],
      "name": "InvalidStakeId",
      "type": "error"
    },
    {
      "inputs": [
        {
          "internalType": "uint256",
          "name": "value",
          "type": "uint256"
        },
        {
          "internalType": "uint256",
          "name": "backerReturns",
          "type": "uint256"
        }
      ],
      "name": "MessageValueNotEqualToBackerReturns",
      "type": "error"
    },
    {
      "inputs": [
        {
          "internalType": "uint256",
          "name": "id",
          "type": "uint256"
        },
        {
          "internalType": "address",
          "name": "backer",
          "type": "address"
        },
        {
          "internalType": "address",
          "name": "sender",
          "type": "address"
        }
      ],
      "name": "OnlyBackerCanRequestEscrow",
      "type": "error"
    },
    {
      "inputs": [],
      "name": "OnlyOwnerCanKill",
      "type": "error"
    },
    {
      "inputs": [
        {
          "internalType": "address",
          "name": "playerAddress",
          "type": "address"
        }
      ],
      "name": "PlayerAlreadyExists",
      "type": "error"
    },
    {
      "inputs": [
        {
          "internalType": "address",
          "name": "playerAddress",
          "type": "address"
        }
      ],
      "name": "PlayerDoesntExist",
      "type": "error"
    },
    {
      "inputs": [
        {
          "internalType": "uint256",
          "name": "id",
          "type": "uint256"
        },
        {
          "internalType": "address",
          "name": "sender",
          "type": "address"
        },
        {
          "internalType": "address",
          "name": "horse",
          "type": "address"
        }
      ],
      "name": "ReturningProfitsSenderIsNotHorse",
      "type": "error"
    },
    {
      "inputs": [
        {
          "internalType": "uint256",
          "name": "id",
          "type": "uint256"
        },
        {
          "internalType": "enum Staking.StakeStatus",
          "name": "status",
          "type": "uint8"
        }
      ],
      "name": "StakeIsNotCancellable",
      "type": "error"
    },
    {
      "inputs": [
        {
          "internalType": "uint256",
          "name": "id",
          "type": "uint256"
        }
      ],
      "name": "StakeNotFillable",
      "type": "error"
    },
    {
      "inputs": [
        {
          "internalType": "uint256",
          "name": "id",
          "type": "uint256"
        },
        {
          "internalType": "enum Staking.StakeStatus",
          "name": "status",
          "type": "uint8"
        }
      ],
      "name": "StakeProfitNotReturnable",
      "type": "error"
    },
    {
      "inputs": [
        {
          "internalType": "uint256",
          "name": "id",
          "type": "uint256"
        },
        {
          "internalType": "address",
          "name": "horse",
          "type": "address"
        },
        {
          "internalType": "address",
          "name": "backer",
          "type": "address"
        }
      ],
      "name": "StakingSelf",
      "type": "error"
    },
    {
      "inputs": [
        {
          "internalType": "uint256",
          "name": "id",
          "type": "uint256"
        },
        {
          "internalType": "uint256",
          "name": "value",
          "type": "uint256"
        },
        {
          "internalType": "uint256",
          "name": "amount",
          "type": "uint256"
        }
      ],
      "name": "ValueDoesNotMatchStakeAmount",
      "type": "error"
    },
    {
      "anonymous": false,
      "inputs": [
        {
          "indexed": false,
          "internalType": "uint256",
          "name": "id",
          "type": "uint256"
        },
        {
          "indexed": false,
          "internalType": "uint256",
          "name": "escrow",
          "type": "uint256"
        },
        {
          "indexed": false,
          "internalType": "address",
          "name": "backer",
          "type": "address"
        }
      ],
      "name": "EscrowClaimed",
      "type": "event"
    },
    {
      "anonymous": false,
      "inputs": [
        {
          "indexed": false,
          "internalType": "uint256",
          "name": "id",
          "type": "uint256"
        },
        {
          "indexed": false,
          "internalType": "int256",
          "name": "pnl",
          "type": "int256"
        },
        {
          "indexed": false,
          "internalType": "uint256",
          "name": "backerReturns",
          "type": "uint256"
        }
      ],
      "name": "GamePlayed",
      "type": "event"
    },
    {
      "anonymous": false,
      "inputs": [
        {
          "indexed": false,
          "internalType": "address",
          "name": "playerAddress",
          "type": "address"
        },
        {
          "indexed": false,
          "internalType": "string",
          "name": "apiId",
          "type": "string"
        },
        {
          "indexed": false,
          "internalType": "string",
          "name": "name",
          "type": "string"
        },
        {
          "indexed": false,
          "internalType": "string",
          "name": "sharkscopeLink",
          "type": "string"
        },
        {
          "indexed": false,
          "internalType": "string",
          "name": "profilePicPath",
          "type": "string"
        }
      ],
      "name": "PlayerCreated",
      "type": "event"
    },
    {
      "anonymous": false,
      "inputs": [
        {
          "indexed": false,
          "internalType": "address",
          "name": "playerAddress",
          "type": "address"
        }
      ],
      "name": "PlayerEdited",
      "type": "event"
    },
    {
      "anonymous": false,
      "inputs": [
        {
          "indexed": false,
          "internalType": "uint256",
          "name": "id",
          "type": "uint256"
        },
        {
          "indexed": false,
          "internalType": "uint256",
          "name": "backerReturns",
          "type": "uint256"
        }
      ],
      "name": "ProfitsReturned",
      "type": "event"
    },
    {
      "anonymous": false,
      "inputs": [
        {
          "indexed": false,
          "internalType": "uint256",
          "name": "id",
          "type": "uint256"
        }
      ],
      "name": "StakeCancelled",
      "type": "event"
    },
    {
      "anonymous": false,
      "inputs": [
        {
          "components": [
            {
              "internalType": "uint256",
              "name": "id",
              "type": "uint256"
            },
            {
              "internalType": "address payable",
              "name": "horse",
              "type": "address"
            },
            {
              "internalType": "address payable",
              "name": "backer",
              "type": "address"
            },
            {
              "internalType": "uint256",
              "name": "amount",
              "type": "uint256"
            },
            {
              "internalType": "uint256",
              "name": "escrow",
              "type": "uint256"
            },
            {
              "internalType": "uint256",
              "name": "profitShare",
              "type": "uint256"
            },
            {
              "internalType": "int256",
              "name": "pnl",
              "type": "int256"
            },
            {
              "internalType": "uint256",
              "name": "backerReturns",
              "type": "uint256"
            },
            {
              "internalType": "enum Staking.StakeStatus",
              "name": "status",
              "type": "uint8"
            },
            {
              "internalType": "enum Staking.GameType",
              "name": "gameType",
              "type": "uint8"
            },
            {
              "internalType": "string",
              "name": "apiId",
              "type": "string"
            },
            {
              "components": [
                {
                  "internalType": "uint256",
                  "name": "createdTimestamp",
                  "type": "uint256"
                },
                {
                  "internalType": "uint256",
                  "name": "filledTimestamp",
                  "type": "uint256"
                },
                {
                  "internalType": "uint256",
                  "name": "gamePlayedTimestamp",
                  "type": "uint256"
                }
              ],
              "internalType": "struct Staking.StakeTimeStamp",
              "name": "stakeTimeStamp",
              "type": "tuple"
            }
          ],
          "indexed": false,
          "internalType": "struct Staking.Stake",
          "name": "stake",
          "type": "tuple"
        }
      ],
      "name": "StakeFilled",
      "type": "event"
    },
    {
      "anonymous": false,
      "inputs": [
        {
          "indexed": false,
          "internalType": "address",
          "name": "horse",
          "type": "address"
        },
        {
          "indexed": false,
          "internalType": "uint256",
          "name": "amount",
          "type": "uint256"
        },
        {
          "indexed": false,
          "internalType": "uint256",
          "name": "escrow",
          "type": "uint256"
        }
      ],
      "name": "StakeRequested",
      "type": "event"
    },
    {
      "inputs": [],
      "name": "owner",
      "outputs": [
        {
          "internalType": "address payable",
          "name": "",
          "type": "address"
        }
      ],
      "stateMutability": "view",
      "type": "function",
      "constant": true
    },
    {
      "inputs": [
        {
          "internalType": "address",
          "name": "",
          "type": "address"
        }
      ],
      "name": "players",
      "outputs": [
        {
          "internalType": "address payable",
          "name": "playerAddress",
          "type": "address"
        },
        {
          "internalType": "string",
          "name": "apiId",
          "type": "string"
        },
        {
          "internalType": "string",
          "name": "name",
          "type": "string"
        },
        {
          "internalType": "string",
          "name": "sharkscopeLink",
          "type": "string"
        },
        {
          "internalType": "string",
          "name": "profilePicPath",
          "type": "string"
        },
        {
          "internalType": "uint256",
          "name": "createdTimestamp",
          "type": "uint256"
        }
      ],
      "stateMutability": "view",
      "type": "function",
      "constant": true
    },
    {
      "inputs": [],
      "name": "requestCount",
      "outputs": [
        {
          "internalType": "uint256",
          "name": "",
          "type": "uint256"
        }
      ],
      "stateMutability": "view",
      "type": "function",
      "constant": true
    },
    {
      "inputs": [
        {
          "internalType": "uint256",
          "name": "",
          "type": "uint256"
        }
      ],
      "name": "stakes",
      "outputs": [
        {
          "internalType": "uint256",
          "name": "id",
          "type": "uint256"
        },
        {
          "internalType": "address payable",
          "name": "horse",
          "type": "address"
        },
        {
          "internalType": "address payable",
          "name": "backer",
          "type": "address"
        },
        {
          "internalType": "uint256",
          "name": "amount",
          "type": "uint256"
        },
        {
          "internalType": "uint256",
          "name": "escrow",
          "type": "uint256"
        },
        {
          "internalType": "uint256",
          "name": "profitShare",
          "type": "uint256"
        },
        {
          "internalType": "int256",
          "name": "pnl",
          "type": "int256"
        },
        {
          "internalType": "uint256",
          "name": "backerReturns",
          "type": "uint256"
        },
        {
          "internalType": "enum Staking.StakeStatus",
          "name": "status",
          "type": "uint8"
        },
        {
          "internalType": "enum Staking.GameType",
          "name": "gameType",
          "type": "uint8"
        },
        {
          "internalType": "string",
          "name": "apiId",
          "type": "string"
        },
        {
          "components": [
            {
              "internalType": "uint256",
              "name": "createdTimestamp",
              "type": "uint256"
            },
            {
              "internalType": "uint256",
              "name": "filledTimestamp",
              "type": "uint256"
            },
            {
              "internalType": "uint256",
              "name": "gamePlayedTimestamp",
              "type": "uint256"
            }
          ],
          "internalType": "struct Staking.StakeTimeStamp",
          "name": "stakeTimeStamp",
          "type": "tuple"
        }
      ],
      "stateMutability": "view",
      "type": "function",
      "constant": true
    },
    {
      "inputs": [
        {
          "internalType": "string",
          "name": "apiId",
          "type": "string"
        },
        {
          "internalType": "string",
          "name": "name",
          "type": "string"
        },
        {
          "internalType": "string",
          "name": "sharkscopeLink",
          "type": "string"
        },
        {
          "internalType": "string",
          "name": "profilePicPath",
          "type": "string"
        }
      ],
      "name": "createPlayer",
      "outputs": [],
      "stateMutability": "payable",
      "type": "function",
      "payable": true
    },
    {
      "inputs": [
        {
          "internalType": "address",
          "name": "add",
          "type": "address"
        }
      ],
      "name": "getPlayer",
      "outputs": [
        {
          "components": [
            {
              "internalType": "address payable",
              "name": "playerAddress",
              "type": "address"
            },
            {
              "internalType": "string",
              "name": "apiId",
              "type": "string"
            },
            {
              "internalType": "string",
              "name": "name",
              "type": "string"
            },
            {
              "internalType": "string",
              "name": "sharkscopeLink",
              "type": "string"
            },
            {
              "internalType": "string",
              "name": "profilePicPath",
              "type": "string"
            },
            {
              "internalType": "uint256[]",
              "name": "stakeIds",
              "type": "uint256[]"
            },
            {
              "internalType": "uint256",
              "name": "createdTimestamp",
              "type": "uint256"
            }
          ],
          "internalType": "struct Staking.Player",
          "name": "",
          "type": "tuple"
        }
      ],
      "stateMutability": "view",
      "type": "function",
      "constant": true
    },
    {
      "inputs": [
        {
          "internalType": "string",
          "name": "name",
          "type": "string"
        },
        {
          "internalType": "string",
          "name": "sharkscopeLink",
          "type": "string"
        },
        {
          "internalType": "string",
          "name": "profilePicPath",
          "type": "string"
        }
      ],
      "name": "editPlayer",
      "outputs": [],
      "stateMutability": "nonpayable",
      "type": "function"
    },
    {
      "inputs": [],
      "name": "kill",
      "outputs": [],
      "stateMutability": "nonpayable",
      "type": "function"
    },
    {
      "inputs": [
        {
          "internalType": "uint256",
          "name": "id",
          "type": "uint256"
        }
      ],
      "name": "getStake",
      "outputs": [
        {
          "components": [
            {
              "internalType": "uint256",
              "name": "id",
              "type": "uint256"
            },
            {
              "internalType": "address payable",
              "name": "horse",
              "type": "address"
            },
            {
              "internalType": "address payable",
              "name": "backer",
              "type": "address"
            },
            {
              "internalType": "uint256",
              "name": "amount",
              "type": "uint256"
            },
            {
              "internalType": "uint256",
              "name": "escrow",
              "type": "uint256"
            },
            {
              "internalType": "uint256",
              "name": "profitShare",
              "type": "uint256"
            },
            {
              "internalType": "int256",
              "name": "pnl",
              "type": "int256"
            },
            {
              "internalType": "uint256",
              "name": "backerReturns",
              "type": "uint256"
            },
            {
              "internalType": "enum Staking.StakeStatus",
              "name": "status",
              "type": "uint8"
            },
            {
              "internalType": "enum Staking.GameType",
              "name": "gameType",
              "type": "uint8"
            },
            {
              "internalType": "string",
              "name": "apiId",
              "type": "string"
            },
            {
              "components": [
                {
                  "internalType": "uint256",
                  "name": "createdTimestamp",
                  "type": "uint256"
                },
                {
                  "internalType": "uint256",
                  "name": "filledTimestamp",
                  "type": "uint256"
                },
                {
                  "internalType": "uint256",
                  "name": "gamePlayedTimestamp",
                  "type": "uint256"
                }
              ],
              "internalType": "struct Staking.StakeTimeStamp",
              "name": "stakeTimeStamp",
              "type": "tuple"
            }
          ],
          "internalType": "struct Staking.Stake",
          "name": "",
          "type": "tuple"
        }
      ],
      "stateMutability": "view",
      "type": "function",
      "constant": true
    },
    {
      "inputs": [
        {
          "internalType": "uint256",
          "name": "amount",
          "type": "uint256"
        },
        {
          "internalType": "uint256",
          "name": "profitShare",
          "type": "uint256"
        },
        {
          "internalType": "uint256",
          "name": "escrow",
          "type": "uint256"
        },
        {
          "internalType": "enum Staking.GameType",
          "name": "gameType",
          "type": "uint8"
        },
        {
          "internalType": "string",
          "name": "apiId",
          "type": "string"
        }
      ],
      "name": "createRequest",
      "outputs": [],
      "stateMutability": "payable",
      "type": "function",
      "payable": true
    },
    {
      "inputs": [
        {
          "internalType": "uint256",
          "name": "id",
          "type": "uint256"
        }
      ],
      "name": "stakeHorse",
      "outputs": [],
      "stateMutability": "payable",
      "type": "function",
      "payable": true
    },
    {
      "inputs": [
        {
          "internalType": "uint256",
          "name": "id",
          "type": "uint256"
        }
      ],
      "name": "cancelStakeAsHorse",
      "outputs": [],
      "stateMutability": "nonpayable",
      "type": "function"
    },
    {
      "inputs": [
        {
          "internalType": "uint256",
          "name": "id",
          "type": "uint256"
        }
      ],
      "name": "returnProfits",
      "outputs": [],
      "stateMutability": "payable",
      "type": "function",
      "payable": true
    },
    {
      "inputs": [
        {
          "internalType": "uint256",
          "name": "id",
          "type": "uint256"
        },
        {
          "internalType": "int256",
          "name": "pnl",
          "type": "int256"
        }
      ],
      "name": "gamePlayed",
      "outputs": [],
      "stateMutability": "nonpayable",
      "type": "function"
    },
    {
      "inputs": [
        {
          "internalType": "uint256",
          "name": "id",
          "type": "uint256"
        }
      ],
      "name": "backerClaimEscrow",
      "outputs": [],
      "stateMutability": "nonpayable",
      "type": "function"
    }
  ],
  "bytecode": "0x60806040526000805534801561001457600080fd5b5033600260006101000a81548173ffffffffffffffffffffffffffffffffffffffff021916908373ffffffffffffffffffffffffffffffffffffffff160217905550614372806100656000396000f3fe6080604052600436106100e85760003560e01c80635f9047751161008a578063d5a44f8611610059578063d5a44f86146102b0578063d8aedc55146102f8578063dd15ece514610314578063e2eb41ff14610330576100e8565b80635f904775146102035780638da5cb5b1461022c578063a141efea14610257578063ce325bf814610273576100e8565b806353da1bd0116100c657806353da1bd0146101495780635badbe4c146101725780635c12cd4b1461019d5780635dee65dc146101da576100e8565b80630be3721d146100ed57806341c0e1b51461010957806352ec50ce14610120575b600080fd5b61010760048036038101906101029190613284565b610372565b005b34801561011557600080fd5b5061011e61099c565b005b34801561012c57600080fd5b50610147600480360381019061014291906133f7565b610a5e565b005b34801561015557600080fd5b50610170600480360381019061016b9190613284565b610caa565b005b34801561017e57600080fd5b50610187611055565b60405161019491906134ad565b60405180910390f35b3480156101a957600080fd5b506101c460048036038101906101bf9190613526565b61105b565b6040516101d19190613772565b60405180910390f35b3480156101e657600080fd5b5061020160048036038101906101fc91906137ca565b6113b4565b005b34801561020f57600080fd5b5061022a60048036038101906102259190613284565b61169d565b005b34801561023857600080fd5b50610241611c72565b60405161024e9190613819565b60405180910390f35b610271600480360381019061026c9190613284565b611c98565b005b34801561027f57600080fd5b5061029a60048036038101906102959190613284565b6122f0565b6040516102a79190613a48565b60405180910390f35b3480156102bc57600080fd5b506102d760048036038101906102d29190613284565b61258a565b6040516102ef9c9b9a99989796959493929190613b23565b60405180910390f35b610312600480360381019061030d9190613be4565b6126f4565b005b61032e60048036038101906103299190613ce0565b612a30565b005b34801561033c57600080fd5b5061035760048036038101906103529190613526565b612de3565b60405161036996959493929190613d77565b60405180910390f35b61037b8161305f565b6103bc57806040517f664015160000000000000000000000000000000000000000000000000000000081526004016103b391906134ad565b60405180910390fd5b60006001600083815260200190815260200160002060405180610180016040529081600082015481526020016001820160009054906101000a900473ffffffffffffffffffffffffffffffffffffffff1673ffffffffffffffffffffffffffffffffffffffff1673ffffffffffffffffffffffffffffffffffffffff1681526020016002820160009054906101000a900473ffffffffffffffffffffffffffffffffffffffff1673ffffffffffffffffffffffffffffffffffffffff1673ffffffffffffffffffffffffffffffffffffffff16815260200160038201548152602001600482015481526020016005820154815260200160068201548152602001600782015481526020016008820160009054906101000a900460ff1660068111156104ea576104e9613843565b5b60068111156104fc576104fb613843565b5b81526020016008820160019054906101000a900460ff16600181111561052557610524613843565b5b600181111561053757610536613843565b5b815260200160098201805461054b90613e23565b80601f016020809104026020016040519081016040528092919081815260200182805461057790613e23565b80156105c45780601f10610599576101008083540402835291602001916105c4565b820191906000526020600020905b8154815290600101906020018083116105a757829003601f168201915b50505050508152602001600a82016040518060600160405290816000820154815260200160018201548152602001600282015481525050815250509050806020015173ffffffffffffffffffffffffffffffffffffffff163373ffffffffffffffffffffffffffffffffffffffff161461067d57813382602001516040517f6764e9b700000000000000000000000000000000000000000000000000000000815260040161067493929190613ec3565b60405180910390fd5b6004600681111561069157610690613843565b5b81610100015160068111156106a9576106a8613843565b5b146106f257818161010001516040517ffb9857830000000000000000000000000000000000000000000000000000000081526004016106e9929190613efa565b60405180910390fd5b806040015173ffffffffffffffffffffffffffffffffffffffff166108fc8260e001519081150290604051600060405180830381858888f19350505050158015610740573d6000803e3d6000fd5b5060008160800151111561079e57806020015173ffffffffffffffffffffffffffffffffffffffff166108fc82608001519081150290604051600060405180830381858888f1935050505015801561079c573d6000803e3d6000fd5b505b600581610100019060068111156107b8576107b7613843565b5b908160068111156107cc576107cb613843565b5b8152505080600160008481526020019081526020016000206000820151816000015560208201518160010160006101000a81548173ffffffffffffffffffffffffffffffffffffffff021916908373ffffffffffffffffffffffffffffffffffffffff16021790555060408201518160020160006101000a81548173ffffffffffffffffffffffffffffffffffffffff021916908373ffffffffffffffffffffffffffffffffffffffff160217905550606082015181600301556080820151816004015560a0820151816005015560c0820151816006015560e082015181600701556101008201518160080160006101000a81548160ff021916908360068111156108da576108d9613843565b5b02179055506101208201518160080160016101000a81548160ff0219169083600181111561090b5761090a613843565b5b021790555061014082015181600901908051906020019061092d92919061306c565b5061016082015181600a0160008201518160000155602082015181600101556040820151816002015550509050507f120c71dc5e7cec3dab59d0ac108c8fcf42b7789d60d79cadf046b35476c321b9828260e00151604051610990929190613f23565b60405180910390a15050565b600260009054906101000a900473ffffffffffffffffffffffffffffffffffffffff1673ffffffffffffffffffffffffffffffffffffffff163373ffffffffffffffffffffffffffffffffffffffff1614610a23576040517f205fc15e00000000000000000000000000000000000000000000000000000000815260040160405180910390fd5b600260009054906101000a900473ffffffffffffffffffffffffffffffffffffffff1673ffffffffffffffffffffffffffffffffffffffff16ff5b600073ffffffffffffffffffffffffffffffffffffffff16600360003373ffffffffffffffffffffffffffffffffffffffff1673ffffffffffffffffffffffffffffffffffffffff16815260200190815260200160002060000160009054906101000a900473ffffffffffffffffffffffffffffffffffffffff1673ffffffffffffffffffffffffffffffffffffffff161415610b69577f2331a775e7acafeac91fb7978e92af7120c11dec8c6e73fd7f2be8ab7a92aee033604051610b249190613f4c565b60405180910390a1336040517fe2b28ab8000000000000000000000000000000000000000000000000000000008152600401610b609190613f4c565b60405180910390fd5b82600360003373ffffffffffffffffffffffffffffffffffffffff1673ffffffffffffffffffffffffffffffffffffffff1681526020019081526020016000206002019080519060200190610bbf92919061306c565b5081600360003373ffffffffffffffffffffffffffffffffffffffff1673ffffffffffffffffffffffffffffffffffffffff1681526020019081526020016000206003019080519060200190610c1692919061306c565b5080600360003373ffffffffffffffffffffffffffffffffffffffff1673ffffffffffffffffffffffffffffffffffffffff1681526020019081526020016000206004019080519060200190610c6d92919061306c565b507f2331a775e7acafeac91fb7978e92af7120c11dec8c6e73fd7f2be8ab7a92aee033604051610c9d9190613f4c565b60405180910390a1505050565b610cb38161305f565b610cf457806040517f66401516000000000000000000000000000000000000000000000000000000008152600401610ceb91906134ad565b60405180910390fd5b60046006811115610d0857610d07613843565b5b6001600083815260200190815260200160002060080160009054906101000a900460ff166006811115610d3e57610d3d613843565b5b14610da557806001600083815260200190815260200160002060080160009054906101000a900460ff166040517f18d0648e000000000000000000000000000000000000000000000000000000008152600401610d9c929190613efa565b60405180910390fd5b6001600082815260200190815260200160002060020160009054906101000a900473ffffffffffffffffffffffffffffffffffffffff1673ffffffffffffffffffffffffffffffffffffffff163373ffffffffffffffffffffffffffffffffffffffff1614610e8557806001600083815260200190815260200160002060020160009054906101000a900473ffffffffffffffffffffffffffffffffffffffff16336040517fd9275265000000000000000000000000000000000000000000000000000000008152600401610e7c93929190613f67565b60405180910390fd5b600060016000838152602001908152602001600020600401541415610ef9578060016000838152602001908152602001600020600401546040517f9113b1c2000000000000000000000000000000000000000000000000000000008152600401610ef0929190613f23565b60405180910390fd5b6001600082815260200190815260200160002060020160009054906101000a900473ffffffffffffffffffffffffffffffffffffffff1673ffffffffffffffffffffffffffffffffffffffff166108fc60016000848152602001908152602001600020600401549081150290604051600060405180830381858888f19350505050158015610f8b573d6000803e3d6000fd5b5060066001600083815260200190815260200160002060080160006101000a81548160ff02191690836006811115610fc657610fc5613843565b5b02179055507fa768e527233d17984f1796f3e374ca38761c79bc6e27ae499cb41343983a69978160016000848152602001908152602001600020600401546001600085815260200190815260200160002060020160009054906101000a900473ffffffffffffffffffffffffffffffffffffffff1660405161104a93929190613f9e565b60405180910390a150565b60005481565b6110636130f2565b600360008373ffffffffffffffffffffffffffffffffffffffff1673ffffffffffffffffffffffffffffffffffffffff1681526020019081526020016000206040518060e00160405290816000820160009054906101000a900473ffffffffffffffffffffffffffffffffffffffff1673ffffffffffffffffffffffffffffffffffffffff1673ffffffffffffffffffffffffffffffffffffffff16815260200160018201805461111390613e23565b80601f016020809104026020016040519081016040528092919081815260200182805461113f90613e23565b801561118c5780601f106111615761010080835404028352916020019161118c565b820191906000526020600020905b81548152906001019060200180831161116f57829003601f168201915b505050505081526020016002820180546111a590613e23565b80601f01602080910402602001604051908101604052809291908181526020018280546111d190613e23565b801561121e5780601f106111f35761010080835404028352916020019161121e565b820191906000526020600020905b81548152906001019060200180831161120157829003601f168201915b5050505050815260200160038201805461123790613e23565b80601f016020809104026020016040519081016040528092919081815260200182805461126390613e23565b80156112b05780601f10611285576101008083540402835291602001916112b0565b820191906000526020600020905b81548152906001019060200180831161129357829003601f168201915b505050505081526020016004820180546112c990613e23565b80601f01602080910402602001604051908101604052809291908181526020018280546112f590613e23565b80156113425780601f1061131757610100808354040283529160200191611342565b820191906000526020600020905b81548152906001019060200180831161132557829003601f168201915b505050505081526020016005820180548060200260200160405190810160405280929190818152602001828054801561139a57602002820191906000526020600020905b815481526020019060010190808311611386575b505050505081526020016006820154815250509050919050565b6113bd8261305f565b6113fe57816040517f664015160000000000000000000000000000000000000000000000000000000081526004016113f591906134ad565b60405180910390fd5b6001600681111561141257611411613843565b5b6001600084815260200190815260200160002060080160009054906101000a900460ff16600681111561144857611447613843565b5b146114af57816001600084815260200190815260200160002060080160009054906101000a900460ff166040517f8d2ce6260000000000000000000000000000000000000000000000000000000081526004016114a6929190613efa565b60405180910390fd5b6000808212156115785760008260016000868152602001908152602001600020600301546114dd9190614004565b90506000811361152f576000915060056001600086815260200190815260200160002060080160006101000a81548160ff0219169083600681111561152557611524613843565b5b0217905550611572565b80915060046001600086815260200190815260200160002060080160006101000a81548160ff0219169083600681111561156c5761156b613843565b5b02179055505b50611609565b606460016000858152602001908152602001600020600501548361159c9190614098565b6115a69190614121565b60016000858152602001908152602001600020600301546115c79190614152565b905060046001600085815260200190815260200160002060080160006101000a81548160ff0219169083600681111561160357611602613843565b5b02179055505b8160016000858152602001908152602001600020600601819055508060016000858152602001908152602001600020600701819055504260016000858152602001908152602001600020600a01600201819055507f16c789abef2652197ccb19511e836a8f2ef9394a419b3cff6efb5fa69de8271c838383604051611690939291906141a8565b60405180910390a1505050565b6116a68161305f565b6116e757806040517f664015160000000000000000000000000000000000000000000000000000000081526004016116de91906134ad565b60405180910390fd5b60006001600083815260200190815260200160002060405180610180016040529081600082015481526020016001820160009054906101000a900473ffffffffffffffffffffffffffffffffffffffff1673ffffffffffffffffffffffffffffffffffffffff1673ffffffffffffffffffffffffffffffffffffffff1681526020016002820160009054906101000a900473ffffffffffffffffffffffffffffffffffffffff1673ffffffffffffffffffffffffffffffffffffffff1673ffffffffffffffffffffffffffffffffffffffff16815260200160038201548152602001600482015481526020016005820154815260200160068201548152602001600782015481526020016008820160009054906101000a900460ff16600681111561181557611814613843565b5b600681111561182757611826613843565b5b81526020016008820160019054906101000a900460ff1660018111156118505761184f613843565b5b600181111561186257611861613843565b5b815260200160098201805461187690613e23565b80601f01602080910402602001604051908101604052809291908181526020018280546118a290613e23565b80156118ef5780601f106118c4576101008083540402835291602001916118ef565b820191906000526020600020905b8154815290600101906020018083116118d257829003601f168201915b50505050508152602001600a82016040518060600160405290816000820154815260200160018201548152602001600282015481525050815250509050806020015173ffffffffffffffffffffffffffffffffffffffff163373ffffffffffffffffffffffffffffffffffffffff16146119a857813382602001516040517ffc1bd14500000000000000000000000000000000000000000000000000000000815260040161199f93929190613ec3565b60405180910390fd5b600060068111156119bc576119bb613843565b5b81610100015160068111156119d4576119d3613843565b5b14611a1d57818161010001516040517f28763d08000000000000000000000000000000000000000000000000000000008152600401611a14929190613efa565b60405180910390fd5b600081608001511115611a7a57806020015173ffffffffffffffffffffffffffffffffffffffff166108fc82608001519081150290604051600060405180830381858888f19350505050158015611a78573d6000803e3d6000fd5b505b60038161010001906006811115611a9457611a93613843565b5b90816006811115611aa857611aa7613843565b5b8152505080600160008481526020019081526020016000206000820151816000015560208201518160010160006101000a81548173ffffffffffffffffffffffffffffffffffffffff021916908373ffffffffffffffffffffffffffffffffffffffff16021790555060408201518160020160006101000a81548173ffffffffffffffffffffffffffffffffffffffff021916908373ffffffffffffffffffffffffffffffffffffffff160217905550606082015181600301556080820151816004015560a0820151816005015560c0820151816006015560e082015181600701556101008201518160080160006101000a81548160ff02191690836006811115611bb657611bb5613843565b5b02179055506101208201518160080160016101000a81548160ff02191690836001811115611be757611be6613843565b5b0217905550610140820151816009019080519060200190611c0992919061306c565b5061016082015181600a0160008201518160000155602082015181600101556040820151816002015550509050507f5d556abff222ff6c24a87f221f26036806352e4b08fb27b5a885d5f0064264a482604051611c6691906134ad565b60405180910390a15050565b600260009054906101000a900473ffffffffffffffffffffffffffffffffffffffff1681565b6000548110611cde57806040517f66401516000000000000000000000000000000000000000000000000000000008152600401611cd591906134ad565b60405180910390fd5b60006001600083815260200190815260200160002060405180610180016040529081600082015481526020016001820160009054906101000a900473ffffffffffffffffffffffffffffffffffffffff1673ffffffffffffffffffffffffffffffffffffffff1673ffffffffffffffffffffffffffffffffffffffff1681526020016002820160009054906101000a900473ffffffffffffffffffffffffffffffffffffffff1673ffffffffffffffffffffffffffffffffffffffff1673ffffffffffffffffffffffffffffffffffffffff16815260200160038201548152602001600482015481526020016005820154815260200160068201548152602001600782015481526020016008820160009054906101000a900460ff166006811115611e0c57611e0b613843565b5b6006811115611e1e57611e1d613843565b5b81526020016008820160019054906101000a900460ff166001811115611e4757611e46613843565b5b6001811115611e5957611e58613843565b5b8152602001600982018054611e6d90613e23565b80601f0160208091040260200160405190810160405280929190818152602001828054611e9990613e23565b8015611ee65780601f10611ebb57610100808354040283529160200191611ee6565b820191906000526020600020905b815481529060010190602001808311611ec957829003601f168201915b50505050508152602001600a8201604051806060016040529081600082015481526020016001820154815260200160028201548152505081525050905060006006811115611f3757611f36613843565b5b8161010001516006811115611f4f57611f4e613843565b5b14611f9157816040517f63d82b43000000000000000000000000000000000000000000000000000000008152600401611f8891906134ad565b60405180910390fd5b60008160200151905060003390508073ffffffffffffffffffffffffffffffffffffffff168273ffffffffffffffffffffffffffffffffffffffff161415612014578382826040517fb6ccca7f00000000000000000000000000000000000000000000000000000000815260040161200b939291906141df565b60405180910390fd5b8260600151341461206457833484606001516040517faad22d6f00000000000000000000000000000000000000000000000000000000815260040161205b93929190614216565b60405180910390fd5b6001836101000190600681111561207e5761207d613843565b5b9081600681111561209257612091613843565b5b8152505080836040019073ffffffffffffffffffffffffffffffffffffffff16908173ffffffffffffffffffffffffffffffffffffffff16815250504283610160015160200181815250508173ffffffffffffffffffffffffffffffffffffffff166108fc84606001519081150290604051600060405180830381858888f19350505050158015612127573d6000803e3d6000fd5b5082600160008681526020019081526020016000206000820151816000015560208201518160010160006101000a81548173ffffffffffffffffffffffffffffffffffffffff021916908373ffffffffffffffffffffffffffffffffffffffff16021790555060408201518160020160006101000a81548173ffffffffffffffffffffffffffffffffffffffff021916908373ffffffffffffffffffffffffffffffffffffffff160217905550606082015181600301556080820151816004015560a0820151816005015560c0820151816006015560e082015181600701556101008201518160080160006101000a81548160ff0219169083600681111561223257612231613843565b5b02179055506101208201518160080160016101000a81548160ff0219169083600181111561226357612262613843565b5b021790555061014082015181600901908051906020019061228592919061306c565b5061016082015181600a0160008201518160000155602082015181600101556040820151816002015550509050507f5f22349574906886fd57cd690a5c7a897ada83ad4c2b8ca4f4cf740b60502904836040516122e29190613a48565b60405180910390a150505050565b6122f8613145565b6123018261305f565b61234257816040517f6640151600000000000000000000000000000000000000000000000000000000815260040161233991906134ad565b60405180910390fd5b6001600083815260200190815260200160002060405180610180016040529081600082015481526020016001820160009054906101000a900473ffffffffffffffffffffffffffffffffffffffff1673ffffffffffffffffffffffffffffffffffffffff1673ffffffffffffffffffffffffffffffffffffffff1681526020016002820160009054906101000a900473ffffffffffffffffffffffffffffffffffffffff1673ffffffffffffffffffffffffffffffffffffffff1673ffffffffffffffffffffffffffffffffffffffff16815260200160038201548152602001600482015481526020016005820154815260200160068201548152602001600782015481526020016008820160009054906101000a900460ff16600681111561246e5761246d613843565b5b60068111156124805761247f613843565b5b81526020016008820160019054906101000a900460ff1660018111156124a9576124a8613843565b5b60018111156124bb576124ba613843565b5b81526020016009820180546124cf90613e23565b80601f01602080910402602001604051908101604052809291908181526020018280546124fb90613e23565b80156125485780601f1061251d57610100808354040283529160200191612548565b820191906000526020600020905b81548152906001019060200180831161252b57829003601f168201915b50505050508152602001600a82016040518060600160405290816000820154815260200160018201548152602001600282015481525050815250509050919050565b60016020528060005260406000206000915090508060000154908060010160009054906101000a900473ffffffffffffffffffffffffffffffffffffffff16908060020160009054906101000a900473ffffffffffffffffffffffffffffffffffffffff16908060030154908060040154908060050154908060060154908060070154908060080160009054906101000a900460ff16908060080160019054906101000a900460ff169080600901805461264390613e23565b80601f016020809104026020016040519081016040528092919081815260200182805461266f90613e23565b80156126bc5780601f10612691576101008083540402835291602001916126bc565b820191906000526020600020905b81548152906001019060200180831161269f57829003601f168201915b50505050509080600a01604051806060016040529081600082015481526020016001820154815260200160028201548152505090508c565b600073ffffffffffffffffffffffffffffffffffffffff16600360003373ffffffffffffffffffffffffffffffffffffffff1673ffffffffffffffffffffffffffffffffffffffff16815260200190815260200160002060000160009054906101000a900473ffffffffffffffffffffffffffffffffffffffff1673ffffffffffffffffffffffffffffffffffffffff16146127c757336040517f609c043e0000000000000000000000000000000000000000000000000000000081526004016127be9190613f4c565b60405180910390fd5b83600360003373ffffffffffffffffffffffffffffffffffffffff1673ffffffffffffffffffffffffffffffffffffffff168152602001908152602001600020600101908051906020019061281d92919061306c565b5033600360003373ffffffffffffffffffffffffffffffffffffffff1673ffffffffffffffffffffffffffffffffffffffff16815260200190815260200160002060000160006101000a81548173ffffffffffffffffffffffffffffffffffffffff021916908373ffffffffffffffffffffffffffffffffffffffff16021790555082600360003373ffffffffffffffffffffffffffffffffffffffff1673ffffffffffffffffffffffffffffffffffffffff16815260200190815260200160002060020190805190602001906128f592919061306c565b5081600360003373ffffffffffffffffffffffffffffffffffffffff1673ffffffffffffffffffffffffffffffffffffffff168152602001908152602001600020600301908051906020019061294c92919061306c565b5080600360003373ffffffffffffffffffffffffffffffffffffffff1673ffffffffffffffffffffffffffffffffffffffff16815260200190815260200160002060040190805190602001906129a392919061306c565b5042600360003373ffffffffffffffffffffffffffffffffffffffff1673ffffffffffffffffffffffffffffffffffffffff168152602001908152602001600020600601819055507f7f9d16a3c205132230d8fdf1dbfaa2b2b741f5a3f0599a6c813d1e94acd66e323385858585604051612a2295949392919061424d565b60405180910390a150505050565b6064841115612a7657836040517f7a593836000000000000000000000000000000000000000000000000000000008152600401612a6d91906134ad565b60405180910390fd5b600083118015612a865750348314155b15612aca5782346040517fb911ac7c000000000000000000000000000000000000000000000000000000008152600401612ac1929190613f23565b60405180910390fd5b60006040518060600160405280428152602001600081526020016000815250905060405180610180016040528060005481526020013373ffffffffffffffffffffffffffffffffffffffff168152602001600073ffffffffffffffffffffffffffffffffffffffff168152602001878152602001858152602001868152602001600081526020016000815260200160006006811115612b6c57612b6b613843565b5b8152602001846001811115612b8457612b83613843565b5b81526020018381526020018281525060016000805481526020019081526020016000206000820151816000015560208201518160010160006101000a81548173ffffffffffffffffffffffffffffffffffffffff021916908373ffffffffffffffffffffffffffffffffffffffff16021790555060408201518160020160006101000a81548173ffffffffffffffffffffffffffffffffffffffff021916908373ffffffffffffffffffffffffffffffffffffffff160217905550606082015181600301556080820151816004015560a0820151816005015560c0820151816006015560e082015181600701556101008201518160080160006101000a81548160ff02191690836006811115612c9d57612c9c613843565b5b02179055506101208201518160080160016101000a81548160ff02191690836001811115612cce57612ccd613843565b5b0217905550610140820151816009019080519060200190612cf092919061306c565b5061016082015181600a016000820151816000015560208201518160010155604082015181600201555050905050600360003373ffffffffffffffffffffffffffffffffffffffff1673ffffffffffffffffffffffffffffffffffffffff1681526020019081526020016000206005016000549080600181540180825580915050600190039060005260206000200160009091909190915055600080815480929190612d9b906142bc565b91905055507fc1e517c7b7e52bcb43f08b43f62d341ce29d8f40f41ff21811ffc93aa10e8553338786604051612dd393929190614305565b60405180910390a1505050505050565b60036020528060005260406000206000915090508060000160009054906101000a900473ffffffffffffffffffffffffffffffffffffffff1690806001018054612e2c90613e23565b80601f0160208091040260200160405190810160405280929190818152602001828054612e5890613e23565b8015612ea55780601f10612e7a57610100808354040283529160200191612ea5565b820191906000526020600020905b815481529060010190602001808311612e8857829003601f168201915b505050505090806002018054612eba90613e23565b80601f0160208091040260200160405190810160405280929190818152602001828054612ee690613e23565b8015612f335780601f10612f0857610100808354040283529160200191612f33565b820191906000526020600020905b815481529060010190602001808311612f1657829003601f168201915b505050505090806003018054612f4890613e23565b80601f0160208091040260200160405190810160405280929190818152602001828054612f7490613e23565b8015612fc15780601f10612f9657610100808354040283529160200191612fc1565b820191906000526020600020905b815481529060010190602001808311612fa457829003601f168201915b505050505090806004018054612fd690613e23565b80601f016020809104026020016040519081016040528092919081815260200182805461300290613e23565b801561304f5780601f106130245761010080835404028352916020019161304f565b820191906000526020600020905b81548152906001019060200180831161303257829003601f168201915b5050505050908060060154905086565b6000805482109050919050565b82805461307890613e23565b90600052602060002090601f01602090048101928261309a57600085556130e1565b82601f106130b357805160ff19168380011785556130e1565b828001600101855582156130e1579182015b828111156130e05782518255916020019190600101906130c5565b5b5090506130ee91906131fc565b5090565b6040518060e00160405280600073ffffffffffffffffffffffffffffffffffffffff1681526020016060815260200160608152602001606081526020016060815260200160608152602001600081525090565b60405180610180016040528060008152602001600073ffffffffffffffffffffffffffffffffffffffff168152602001600073ffffffffffffffffffffffffffffffffffffffff1681526020016000815260200160008152602001600081526020016000815260200160008152602001600060068111156131c9576131c8613843565b5b8152602001600060018111156131e2576131e1613843565b5b8152602001606081526020016131f6613219565b81525090565b5b808211156132155760008160009055506001016131fd565b5090565b60405180606001604052806000815260200160008152602001600081525090565b6000604051905090565b600080fd5b600080fd5b6000819050919050565b6132618161324e565b811461326c57600080fd5b50565b60008135905061327e81613258565b92915050565b60006020828403121561329a57613299613244565b5b60006132a88482850161326f565b91505092915050565b600080fd5b600080fd5b6000601f19601f8301169050919050565b7f4e487b7100000000000000000000000000000000000000000000000000000000600052604160045260246000fd5b613304826132bb565b810181811067ffffffffffffffff82111715613323576133226132cc565b5b80604052505050565b600061333661323a565b905061334282826132fb565b919050565b600067ffffffffffffffff821115613362576133616132cc565b5b61336b826132bb565b9050602081019050919050565b82818337600083830152505050565b600061339a61339584613347565b61332c565b9050828152602081018484840111156133b6576133b56132b6565b5b6133c1848285613378565b509392505050565b600082601f8301126133de576133dd6132b1565b5b81356133ee848260208601613387565b91505092915050565b6000806000606084860312156134105761340f613244565b5b600084013567ffffffffffffffff81111561342e5761342d613249565b5b61343a868287016133c9565b935050602084013567ffffffffffffffff81111561345b5761345a613249565b5b613467868287016133c9565b925050604084013567ffffffffffffffff81111561348857613487613249565b5b613494868287016133c9565b9150509250925092565b6134a78161324e565b82525050565b60006020820190506134c2600083018461349e565b92915050565b600073ffffffffffffffffffffffffffffffffffffffff82169050919050565b60006134f3826134c8565b9050919050565b613503816134e8565b811461350e57600080fd5b50565b600081359050613520816134fa565b92915050565b60006020828403121561353c5761353b613244565b5b600061354a84828501613511565b91505092915050565b600061355e826134c8565b9050919050565b61356e81613553565b82525050565b600081519050919050565b600082825260208201905092915050565b60005b838110156135ae578082015181840152602081019050613593565b838111156135bd576000848401525b50505050565b60006135ce82613574565b6135d8818561357f565b93506135e8818560208601613590565b6135f1816132bb565b840191505092915050565b600081519050919050565b600082825260208201905092915050565b6000819050602082019050919050565b6136318161324e565b82525050565b60006136438383613628565b60208301905092915050565b6000602082019050919050565b6000613667826135fc565b6136718185613607565b935061367c83613618565b8060005b838110156136ad5781516136948882613637565b975061369f8361364f565b925050600181019050613680565b5085935050505092915050565b600060e0830160008301516136d26000860182613565565b50602083015184820360208601526136ea82826135c3565b9150506040830151848203604086015261370482826135c3565b9150506060830151848203606086015261371e82826135c3565b9150506080830151848203608086015261373882826135c3565b91505060a083015184820360a0860152613752828261365c565b91505060c083015161376760c0860182613628565b508091505092915050565b6000602082019050818103600083015261378c81846136ba565b905092915050565b6000819050919050565b6137a781613794565b81146137b257600080fd5b50565b6000813590506137c48161379e565b92915050565b600080604083850312156137e1576137e0613244565b5b60006137ef8582860161326f565b9250506020613800858286016137b5565b9150509250929050565b61381381613553565b82525050565b600060208201905061382e600083018461380a565b92915050565b61383d81613794565b82525050565b7f4e487b7100000000000000000000000000000000000000000000000000000000600052602160045260246000fd5b6007811061388357613882613843565b5b50565b600081905061389482613872565b919050565b60006138a482613886565b9050919050565b6138b481613899565b82525050565b600281106138cb576138ca613843565b5b50565b60008190506138dc826138ba565b919050565b60006138ec826138ce565b9050919050565b6138fc816138e1565b82525050565b6060820160008201516139186000850182613628565b50602082015161392b6020850182613628565b50604082015161393e6040850182613628565b50505050565b60006101c08301600083015161395d6000860182613628565b5060208301516139706020860182613565565b5060408301516139836040860182613565565b5060608301516139966060860182613628565b5060808301516139a96080860182613628565b5060a08301516139bc60a0860182613628565b5060c08301516139cf60c0860182613834565b5060e08301516139e260e0860182613628565b506101008301516139f76101008601826138ab565b50610120830151613a0c6101208601826138f3565b50610140830151848203610140860152613a2682826135c3565b915050610160830151613a3d610160860182613902565b508091505092915050565b60006020820190508181036000830152613a628184613944565b905092915050565b613a7381613794565b82525050565b613a8281613899565b82525050565b613a91816138e1565b82525050565b600082825260208201905092915050565b6000613ab382613574565b613abd8185613a97565b9350613acd818560208601613590565b613ad6816132bb565b840191505092915050565b606082016000820151613af76000850182613628565b506020820151613b0a6020850182613628565b506040820151613b1d6040850182613628565b50505050565b60006101c082019050613b39600083018f61349e565b613b46602083018e61380a565b613b53604083018d61380a565b613b60606083018c61349e565b613b6d608083018b61349e565b613b7a60a083018a61349e565b613b8760c0830189613a6a565b613b9460e083018861349e565b613ba2610100830187613a79565b613bb0610120830186613a88565b818103610140830152613bc38185613aa8565b9050613bd3610160830184613ae1565b9d9c50505050505050505050505050565b60008060008060808587031215613bfe57613bfd613244565b5b600085013567ffffffffffffffff811115613c1c57613c1b613249565b5b613c28878288016133c9565b945050602085013567ffffffffffffffff811115613c4957613c48613249565b5b613c55878288016133c9565b935050604085013567ffffffffffffffff811115613c7657613c75613249565b5b613c82878288016133c9565b925050606085013567ffffffffffffffff811115613ca357613ca2613249565b5b613caf878288016133c9565b91505092959194509250565b60028110613cc857600080fd5b50565b600081359050613cda81613cbb565b92915050565b600080600080600060a08688031215613cfc57613cfb613244565b5b6000613d0a8882890161326f565b9550506020613d1b8882890161326f565b9450506040613d2c8882890161326f565b9350506060613d3d88828901613ccb565b925050608086013567ffffffffffffffff811115613d5e57613d5d613249565b5b613d6a888289016133c9565b9150509295509295909350565b600060c082019050613d8c600083018961380a565b8181036020830152613d9e8188613aa8565b90508181036040830152613db28187613aa8565b90508181036060830152613dc68186613aa8565b90508181036080830152613dda8185613aa8565b9050613de960a083018461349e565b979650505050505050565b7f4e487b7100000000000000000000000000000000000000000000000000000000600052602260045260246000fd5b60006002820490506001821680613e3b57607f821691505b60208210811415613e4f57613e4e613df4565b5b50919050565b613e5e816134e8565b82525050565b6000819050919050565b6000613e89613e84613e7f846134c8565b613e64565b6134c8565b9050919050565b6000613e9b82613e6e565b9050919050565b6000613ead82613e90565b9050919050565b613ebd81613ea2565b82525050565b6000606082019050613ed8600083018661349e565b613ee56020830185613e55565b613ef26040830184613eb4565b949350505050565b6000604082019050613f0f600083018561349e565b613f1c6020830184613a79565b9392505050565b6000604082019050613f38600083018561349e565b613f45602083018461349e565b9392505050565b6000602082019050613f616000830184613e55565b92915050565b6000606082019050613f7c600083018661349e565b613f896020830185613eb4565b613f966040830184613e55565b949350505050565b6000606082019050613fb3600083018661349e565b613fc0602083018561349e565b613fcd6040830184613eb4565b949350505050565b7f4e487b7100000000000000000000000000000000000000000000000000000000600052601160045260246000fd5b600061400f82613794565b915061401a83613794565b9250817f7fffffffffffffffffffffffffffffffffffffffffffffffffffffffffffffff0383136000831215161561405557614054613fd5565b5b817f800000000000000000000000000000000000000000000000000000000000000003831260008312161561408d5761408c613fd5565b5b828201905092915050565b60006140a38261324e565b91506140ae8361324e565b9250817fffffffffffffffffffffffffffffffffffffffffffffffffffffffffffffffff04831182151516156140e7576140e6613fd5565b5b828202905092915050565b7f4e487b7100000000000000000000000000000000000000000000000000000000600052601260045260246000fd5b600061412c8261324e565b91506141378361324e565b925082614147576141466140f2565b5b828204905092915050565b600061415d8261324e565b91506141688361324e565b9250827fffffffffffffffffffffffffffffffffffffffffffffffffffffffffffffffff0382111561419d5761419c613fd5565b5b828201905092915050565b60006060820190506141bd600083018661349e565b6141ca6020830185613a6a565b6141d7604083018461349e565b949350505050565b60006060820190506141f4600083018661349e565b6142016020830185613eb4565b61420e6040830184613eb4565b949350505050565b600060608201905061422b600083018661349e565b614238602083018561349e565b614245604083018461349e565b949350505050565b600060a0820190506142626000830188613e55565b81810360208301526142748187613aa8565b905081810360408301526142888186613aa8565b9050818103606083015261429c8185613aa8565b905081810360808301526142b08184613aa8565b90509695505050505050565b60006142c78261324e565b91507fffffffffffffffffffffffffffffffffffffffffffffffffffffffffffffffff8214156142fa576142f9613fd5565b5b600182019050919050565b600060608201905061431a6000830186613e55565b614327602083018561349e565b614334604083018461349e565b94935050505056fea2646970667358221220050f9f51c69a5446810eec3287e48ec4e5063f910190cba3bbe57652d2dfb14e64736f6c63430008090033",
  "immutableReferences": {},
  "source": "// SPDX-License-Identifier: MIT\npragma solidity ^0.8.9;\n\ncontract Staking {\n    uint public requestCount = 0;\n    mapping(uint => Stake) public stakes;\n    address payable public owner;\n\n    mapping(address => Player) public players;\n\n    enum StakeStatus {\n        Requested,\n        Filled,\n        Expired, // TODO: When will we use this\n        Cancelled,\n        AwaitingReturnPayment,\n        Completed,\n        EscrowClaimed\n    }\n\n    enum GameType {\n        SingleGame,\n        Tournament\n    }\n\n    struct Stake {\n        uint id;\n        address payable horse;\n        address payable backer;\n        uint amount;\n        uint escrow;\n        uint profitShare;\n        int pnl;\n        uint backerReturns;\n        StakeStatus status;\n        GameType gameType;\n        string apiId;\n        StakeTimeStamp stakeTimeStamp;\n    }\n\n    struct StakeTimeStamp {\n        uint256 createdTimestamp;\n        uint256 filledTimestamp;\n        uint256 gamePlayedTimestamp;\n    }\n\n    struct Player {\n        address payable playerAddress;\n        string apiId;\n        string name;\n        string sharkscopeLink;\n        string profilePicPath;\n        uint[] stakeIds; // stakes where the player is the horse.\n        uint256 createdTimestamp;\n    }\n\n    constructor() {\n        owner = payable(msg.sender);\n    }\n\n    event PlayerCreated(address playerAddress, string apiId, string name, string sharkscopeLink, string profilePicPath);\n\n    /// A player with this address already exists\n    error PlayerAlreadyExists(address playerAddress);\n\n    function createPlayer(string memory apiId, string memory name, string memory sharkscopeLink, string memory profilePicPath) external payable {\n        if (players[msg.sender].playerAddress != address(0)) {\n            revert PlayerAlreadyExists(msg.sender);\n        }\n        players[msg.sender].apiId = apiId;\n        players[msg.sender].playerAddress = payable(msg.sender);\n        players[msg.sender].name = name;\n        players[msg.sender].sharkscopeLink = sharkscopeLink;\n        players[msg.sender].profilePicPath = profilePicPath;\n        players[msg.sender].createdTimestamp = block.timestamp;\n\n        emit PlayerCreated(msg.sender, apiId, name, sharkscopeLink, profilePicPath);\n    }\n\n    function getPlayer(address add) external view returns (Player memory) {\n        return players[add];\n    }\n\n    // player doesn't exist\n    error PlayerDoesntExist(address playerAddress);\n\n    event PlayerEdited(address playerAddress);\n\n    function editPlayer(string memory name, string memory sharkscopeLink, string memory profilePicPath) external {\n        if (players[msg.sender].playerAddress == address(0)) {\n            emit PlayerEdited(msg.sender);\n            revert PlayerDoesntExist(msg.sender);\n        }\n\n        players[msg.sender].name = name;\n        players[msg.sender].sharkscopeLink = sharkscopeLink;\n        players[msg.sender].profilePicPath = profilePicPath;\n\n        emit PlayerEdited(msg.sender);\n    }\n\n    /// Only the owner can kill this contract\n    error OnlyOwnerCanKill();\n\n    function kill() external {\n        if (msg.sender != owner) {\n            revert OnlyOwnerCanKill();\n        }\n        selfdestruct(owner);\n    }\n\n    // Get an individual stake\n\n    /// Not a valid id for a stake request\n    error InvalidStakeId(uint id);\n\n    function getStake(uint id) external view returns (Stake memory) {\n        if (!validId(id)) {\n            revert InvalidStakeId(id);\n        }\n\n        return stakes[id];\n    }\n\n    // Creating a new stake request\n    event StakeRequested(address horse, uint amount, uint escrow);\n\n    /// Profit share must be between 0 and 100\n    error InvalidProfitShare(uint profitShare);\n    /// Escrow does not match msg.value\n    error EscrowValueNotMatching(uint escrow, uint value);\n\n    function createRequest(uint amount, uint profitShare, uint escrow, GameType gameType, string memory apiId) external payable {\n        if (profitShare > 100) {\n            revert InvalidProfitShare(profitShare);\n        }\n        if (escrow > 0 && escrow != msg.value) {\n            revert EscrowValueNotMatching(escrow, msg.value);\n        }\n        StakeTimeStamp memory stakeTimeStamp = StakeTimeStamp(block.timestamp, 0, 0);\n        stakes[requestCount] = Stake(requestCount, payable(msg.sender), payable(address(0)), amount, escrow, profitShare, 0, 0, StakeStatus.Requested, gameType, apiId, stakeTimeStamp);\n        players[msg.sender].stakeIds.push(requestCount);\n        requestCount++;\n\n        emit StakeRequested(msg.sender, amount, escrow);\n    }\n\n    // Staking a request\n    event StakeFilled(Stake stake);\n    \n    /// Stake has already been filled/cancelled\n    error StakeNotFillable(uint id);\n    /// You cannot stake yourself\n    error StakingSelf(uint id, address horse, address backer);\n    /// Message value doesn't match the requested amount\n    error ValueDoesNotMatchStakeAmount(uint id, uint value, uint amount);\n   \n    function stakeHorse(uint id) external payable {\n        // require(validId(id), \"This is not a valid ID for a stake!\");\n        if (id >= requestCount) {\n            revert InvalidStakeId(id);\n        }\n    \n        Stake memory stake = stakes[id];\n        if (stake.status != StakeStatus.Requested) {\n            revert StakeNotFillable(id);\n        }\n\n        address payable horse = stake.horse;\n        address payable backer = payable(msg.sender);\n        if (horse == backer) {\n            revert StakingSelf(id, horse, backer);\n        }\n        \n        if (msg.value != stake.amount) {\n            revert ValueDoesNotMatchStakeAmount(id, msg.value, stake.amount);\n        }\n\n        // Update stake status and transfer funds\n        stake.status = StakeStatus.Filled;\n        stake.backer = backer;\n        stake.stakeTimeStamp.filledTimestamp = block.timestamp;\n        horse.transfer(stake.amount);\n\n        stakes[id] = stake;\n        emit StakeFilled(stake);\n    }\n\n    // Cancelling a reqested stake\n    event StakeCancelled(uint id);\n    \n    /// Only the horse can cancel a requested stake\n    error CancellingSenderIsNotHorse(uint id, address canceller, address horse);\n    /// A horse can only cancel a stake when it has only been requested\n    error StakeIsNotCancellable(uint id, StakeStatus status);\n\n    function cancelStakeAsHorse(uint id) external {\n        if(!validId(id)) {\n            revert InvalidStakeId(id);\n        }\n        Stake memory stake = stakes[id];\n        \n        if (msg.sender != stake.horse) {\n            revert CancellingSenderIsNotHorse(id, msg.sender, stake.horse);\n        }\n        \n        if (stake.status != StakeStatus.Requested) {\n            revert StakeIsNotCancellable(id, stake.status);\n        }\n\n        if (stake.escrow > 0) {\n            stake.horse.transfer(stake.escrow);\n        }\n        stake.status = StakeStatus.Cancelled;\n\n        stakes[id] = stake;\n        emit StakeCancelled(id);\n    }\n    \n    // TODO: How might we allow this?\n    \n    // function cancelStakeAsBacker(uint id) external payable {\n    //     Stake memory stake = stakes[id];\n    //     require(msg.sender == stake.backer);\n    //     require(validId(id), \"This is not a valid ID for a stake!\");\n    // }\n\n    // Returning profits to backer after completing games\n    event ProfitsReturned(uint id, uint backerReturns);\n    \n    /// Only the horse can return the profits from a stake\n    error ReturningProfitsSenderIsNotHorse(uint id, address sender, address horse);\n    /// Profits can only be returned if a stake has been filled\n    error StakeProfitNotReturnable(uint id, StakeStatus status);\n    /// Message value not equal to the profit returns of the backer\n    error MessageValueNotEqualToBackerReturns(uint value, uint backerReturns);\n    \n    // TODO: handle the case where no profit was made\n    function returnProfits(uint id) external payable {\n        if(!validId(id)) {\n            revert InvalidStakeId(id);\n        }\n        Stake memory stake = stakes[id];\n\n        if (msg.sender != stake.horse) {\n            revert ReturningProfitsSenderIsNotHorse(id, msg.sender, stake.horse);\n        }\n        \n        if (stake.status != StakeStatus.AwaitingReturnPayment) {\n            revert StakeProfitNotReturnable(id, stake.status);\n        }\n\n        // TODO: See above before we can do this\n        // if (msg.value != backerReturns) {\n        //     revert MessageValueNotEqualToBackerReturns(msg.value, backerReturns);\n        // }\n        stake.backer.transfer(stake.backerReturns);\n        if (stake.escrow > 0) {\n            stake.horse.transfer(stake.escrow);\n        }\n        stake.status = StakeStatus.Completed;\n\n        stakes[id] = stake;\n        emit ProfitsReturned(id, stake.backerReturns);\n    }\n\n\n    // Setting the status of a stake to AwaitingReturnPayment\n\n    event GamePlayed(uint id, int pnl, uint backerReturns);\n\n    /// You can only complete a game after it has been filled\n    error CanOnlyPlayedFilledStakes(uint id, StakeStatus status);\n\n    function gamePlayed(uint id, int pnl) external {\n        if(!validId(id)) {\n            revert InvalidStakeId(id);\n        }\n\n        if (stakes[id].status != StakeStatus.Filled) {\n            revert CanOnlyPlayedFilledStakes(id, stakes[id].status);\n        }\n\n        // TODO: Check this calculation. Do we do it here or calculate it in the frontend?\n        uint backerReturns;\n        if (pnl < 0) {\n            int owed = int(stakes[id].amount) + pnl;\n            if (owed <= 0) {\n                backerReturns = 0;\n                stakes[id].status = StakeStatus.Completed;\n            } else {\n                backerReturns = uint(owed);\n                stakes[id].status = StakeStatus.AwaitingReturnPayment;\n            }\n        } else {\n            backerReturns = stakes[id].amount + ((uint(pnl) * stakes[id].profitShare) / 100);\n            stakes[id].status = StakeStatus.AwaitingReturnPayment;\n        }\n\n        stakes[id].pnl = pnl;\n        stakes[id].backerReturns = backerReturns;\n        stakes[id].stakeTimeStamp.gamePlayedTimestamp = block.timestamp;\n        emit GamePlayed(id, pnl, backerReturns);\n    }\n\n\n    // Requesting back your escrow while awaiting return payment\n    event EscrowClaimed(uint id, uint escrow, address backer);\n\n    /// You can only request your escrow back when the status of the stake is awaiting return payment\n    error CanOnlyReturnEscrowWhenAwaitingReturnPayment(uint id, StakeStatus status);\n    /// Only the stake backer can request the contract's escrow\n    error OnlyBackerCanRequestEscrow(uint id, address backer, address sender);\n    /// Cannot return back escrow for a stake which never had an escrow put up\n    error CannotReturnNoEscrow(uint id, uint escrow);\n\n    // TODO: Only allow this when the state is actually AwaitingReturnPaymentClaimEscrow\n    function backerClaimEscrow(uint id) external {\n        if(!validId(id)) {\n            revert InvalidStakeId(id);\n        }\n        if (stakes[id].status != StakeStatus.AwaitingReturnPayment) {\n            revert CanOnlyReturnEscrowWhenAwaitingReturnPayment(id, stakes[id].status);\n        }\n        if (msg.sender != stakes[id].backer) {\n            revert OnlyBackerCanRequestEscrow(id, stakes[id].backer, msg.sender);\n        }\n        if (stakes[id].escrow == 0) {\n            revert CannotReturnNoEscrow(id, stakes[id].escrow);\n        }\n\n        stakes[id].backer.transfer(stakes[id].escrow);\n        stakes[id].status = StakeStatus.EscrowClaimed;\n        emit EscrowClaimed(id, stakes[id].escrow, stakes[id].backer);\n    }\n\n    function validId(uint id) internal view returns (bool) {\n        return id < requestCount;\n    }\n\n\n\n}",
  "sourcePath": "/Users/julesdehon/Documents/Uni/year-3/group-project/decentralized_poker_staking/contracts/Staking.sol",
  "compiler": {
    "name": "solc",
    "version": "0.8.9+commit.e5eed63a.Emscripten.clang"
  },
  "schemaVersion": "3.4.3",
  "updatedAt": "2021-11-19T09:34:25.184Z",
  "networkType": "ethereum",
  "devdoc": {
    "kind": "dev",
    "methods": {},
    "version": 1
  },
  "userdoc": {
    "errors": {
      "CanOnlyPlayedFilledStakes(uint256,uint8)": [
        {
          "notice": "You can only complete a game after it has been filled"
        }
      ],
      "CanOnlyReturnEscrowWhenAwaitingReturnPayment(uint256,uint8)": [
        {
          "notice": "You can only request your escrow back when the status of the stake is awaiting return payment"
        }
      ],
      "CancellingSenderIsNotHorse(uint256,address,address)": [
        {
          "notice": "Only the horse can cancel a requested stake"
        }
      ],
      "CannotReturnNoEscrow(uint256,uint256)": [
        {
          "notice": "Cannot return back escrow for a stake which never had an escrow put up"
        }
      ],
      "EscrowValueNotMatching(uint256,uint256)": [
        {
          "notice": "Escrow does not match msg.value"
        }
      ],
      "InvalidProfitShare(uint256)": [
        {
          "notice": "Profit share must be between 0 and 100"
        }
      ],
      "InvalidStakeId(uint256)": [
        {
          "notice": "Not a valid id for a stake request"
        }
      ],
      "MessageValueNotEqualToBackerReturns(uint256,uint256)": [
        {
          "notice": "Message value not equal to the profit returns of the backer"
        }
      ],
      "OnlyBackerCanRequestEscrow(uint256,address,address)": [
        {
          "notice": "Only the stake backer can request the contract's escrow"
        }
      ],
      "OnlyOwnerCanKill()": [
        {
          "notice": "Only the owner can kill this contract"
        }
      ],
      "PlayerAlreadyExists(address)": [
        {
          "notice": "A player with this address already exists"
        }
      ],
      "ReturningProfitsSenderIsNotHorse(uint256,address,address)": [
        {
          "notice": "Only the horse can return the profits from a stake"
        }
      ],
      "StakeIsNotCancellable(uint256,uint8)": [
        {
          "notice": "A horse can only cancel a stake when it has only been requested"
        }
      ],
      "StakeNotFillable(uint256)": [
        {
          "notice": "Stake has already been filled/cancelled"
        }
      ],
      "StakeProfitNotReturnable(uint256,uint8)": [
        {
          "notice": "Profits can only be returned if a stake has been filled"
        }
      ],
      "StakingSelf(uint256,address,address)": [
        {
          "notice": "You cannot stake yourself"
        }
      ],
      "ValueDoesNotMatchStakeAmount(uint256,uint256,uint256)": [
        {
          "notice": "Message value doesn't match the requested amount"
        }
      ]
    },
    "kind": "user",
    "methods": {},
    "version": 1
  }
}