{
  "contractName": "Staking",
  "abi": [
    {
      "inputs": [],
      "stateMutability": "nonpayable",
      "type": "constructor"
    },
    {
      "inputs": [
        {
          "internalType": "uint256",
          "name": "id",
          "type": "uint256"
        },
        {
          "internalType": "enum Staking.StakeStatus",
          "name": "status",
          "type": "uint8"
        }
      ],
      "name": "CanOnlyPlayedFilledStakes",
      "type": "error"
    },
    {
      "inputs": [
        {
          "internalType": "uint256",
          "name": "id",
          "type": "uint256"
        },
        {
          "internalType": "enum Staking.StakeStatus",
          "name": "status",
          "type": "uint8"
        }
      ],
      "name": "CanOnlyReturnEscrowWhenAwaitingReturnPayment",
      "type": "error"
    },
    {
      "inputs": [
        {
          "internalType": "uint256",
          "name": "id",
          "type": "uint256"
        },
        {
          "internalType": "address",
          "name": "canceller",
          "type": "address"
        },
        {
          "internalType": "address",
          "name": "horse",
          "type": "address"
        }
      ],
      "name": "CancellingSenderIsNotHorse",
      "type": "error"
    },
    {
      "inputs": [
        {
          "internalType": "uint256",
          "name": "id",
          "type": "uint256"
        },
        {
          "internalType": "uint256",
          "name": "escrow",
          "type": "uint256"
        }
      ],
      "name": "CannotReturnNoEscrow",
      "type": "error"
    },
    {
      "inputs": [
        {
          "internalType": "uint256",
          "name": "escrow",
          "type": "uint256"
        },
        {
          "internalType": "uint256",
          "name": "value",
          "type": "uint256"
        }
      ],
      "name": "EscrowValueNotMatching",
      "type": "error"
    },
    {
      "inputs": [
        {
          "internalType": "uint256",
          "name": "profitShare",
          "type": "uint256"
        }
      ],
      "name": "InvalidProfitShare",
      "type": "error"
    },
    {
      "inputs": [
        {
          "internalType": "uint256",
          "name": "id",
          "type": "uint256"
        }
      ],
      "name": "InvalidStakeId",
      "type": "error"
    },
    {
      "inputs": [
        {
          "internalType": "uint256",
          "name": "value",
          "type": "uint256"
        },
        {
          "internalType": "uint256",
          "name": "backerReturns",
          "type": "uint256"
        }
      ],
      "name": "MessageValueNotEqualToBackerReturns",
      "type": "error"
    },
    {
      "inputs": [
        {
          "internalType": "uint256",
          "name": "id",
          "type": "uint256"
        },
        {
          "internalType": "address",
          "name": "backer",
          "type": "address"
        },
        {
          "internalType": "address",
          "name": "sender",
          "type": "address"
        }
      ],
      "name": "OnlyBackerCanRequestEscrow",
      "type": "error"
    },
    {
      "inputs": [],
      "name": "OnlyOwnerCanKill",
      "type": "error"
    },
    {
      "inputs": [
        {
          "internalType": "address",
          "name": "playerAddress",
          "type": "address"
        }
      ],
      "name": "PlayerAlreadyExists",
      "type": "error"
    },
    {
      "inputs": [
        {
          "internalType": "uint256",
          "name": "id",
          "type": "uint256"
        },
        {
          "internalType": "address",
          "name": "sender",
          "type": "address"
        },
        {
          "internalType": "address",
          "name": "horse",
          "type": "address"
        }
      ],
      "name": "ReturningProfitsSenderIsNotHorse",
      "type": "error"
    },
    {
      "inputs": [
        {
          "internalType": "uint256",
          "name": "id",
          "type": "uint256"
        },
        {
          "internalType": "enum Staking.StakeStatus",
          "name": "status",
          "type": "uint8"
        }
      ],
      "name": "StakeIsNotCancellable",
      "type": "error"
    },
    {
      "inputs": [
        {
          "internalType": "uint256",
          "name": "id",
          "type": "uint256"
        }
      ],
      "name": "StakeNotFillable",
      "type": "error"
    },
    {
      "inputs": [
        {
          "internalType": "uint256",
          "name": "id",
          "type": "uint256"
        },
        {
          "internalType": "enum Staking.StakeStatus",
          "name": "status",
          "type": "uint8"
        }
      ],
      "name": "StakeProfitNotReturnable",
      "type": "error"
    },
    {
      "inputs": [
        {
          "internalType": "uint256",
          "name": "id",
          "type": "uint256"
        },
        {
          "internalType": "address",
          "name": "horse",
          "type": "address"
        },
        {
          "internalType": "address",
          "name": "backer",
          "type": "address"
        }
      ],
      "name": "StakingSelf",
      "type": "error"
    },
    {
      "inputs": [
        {
          "internalType": "uint256",
          "name": "id",
          "type": "uint256"
        },
        {
          "internalType": "uint256",
          "name": "value",
          "type": "uint256"
        },
        {
          "internalType": "uint256",
          "name": "amount",
          "type": "uint256"
        }
      ],
      "name": "ValueDoesNotMatchStakeAmount",
      "type": "error"
    },
    {
      "anonymous": false,
      "inputs": [
        {
          "indexed": false,
          "internalType": "uint256",
          "name": "id",
          "type": "uint256"
        },
        {
          "indexed": false,
          "internalType": "uint256",
          "name": "escrow",
          "type": "uint256"
        },
        {
          "indexed": false,
          "internalType": "address",
          "name": "backer",
          "type": "address"
        }
      ],
      "name": "EscrowClaimed",
      "type": "event"
    },
    {
      "anonymous": false,
      "inputs": [
        {
          "indexed": false,
          "internalType": "uint256",
          "name": "id",
          "type": "uint256"
        },
        {
          "indexed": false,
          "internalType": "uint256",
          "name": "profit",
          "type": "uint256"
        }
      ],
      "name": "GamePlayed",
      "type": "event"
    },
    {
      "anonymous": false,
      "inputs": [
        {
          "indexed": false,
          "internalType": "address",
          "name": "playerAddress",
          "type": "address"
        },
        {
          "indexed": false,
          "internalType": "string",
          "name": "apiId",
          "type": "string"
        },
        {
          "indexed": false,
          "internalType": "string",
          "name": "name",
          "type": "string"
        },
        {
          "indexed": false,
          "internalType": "string",
          "name": "sharkscopeLink",
          "type": "string"
        },
        {
          "indexed": false,
          "internalType": "string",
          "name": "profilePicPath",
          "type": "string"
        }
      ],
      "name": "PlayerCreated",
      "type": "event"
    },
    {
      "anonymous": false,
      "inputs": [
        {
          "indexed": false,
          "internalType": "uint256",
          "name": "id",
          "type": "uint256"
        },
        {
          "indexed": false,
          "internalType": "uint256",
          "name": "backerReturns",
          "type": "uint256"
        }
      ],
      "name": "ProfitsReturned",
      "type": "event"
    },
    {
      "anonymous": false,
      "inputs": [
        {
          "indexed": false,
          "internalType": "uint256",
          "name": "id",
          "type": "uint256"
        }
      ],
      "name": "StakeCancelled",
      "type": "event"
    },
    {
      "anonymous": false,
      "inputs": [
        {
          "components": [
            {
              "internalType": "uint256",
              "name": "id",
              "type": "uint256"
            },
            {
              "internalType": "address payable",
              "name": "horse",
              "type": "address"
            },
            {
              "internalType": "address payable",
              "name": "backer",
              "type": "address"
            },
            {
              "internalType": "uint256",
              "name": "amount",
              "type": "uint256"
            },
            {
              "internalType": "uint256",
              "name": "escrow",
              "type": "uint256"
            },
            {
              "internalType": "uint256",
              "name": "profitShare",
              "type": "uint256"
            },
            {
              "internalType": "uint256",
              "name": "profit",
              "type": "uint256"
            },
            {
              "internalType": "enum Staking.StakeStatus",
              "name": "status",
              "type": "uint8"
            },
            {
              "internalType": "bool",
              "name": "horseWon",
              "type": "bool"
            },
            {
              "internalType": "enum Staking.GameType",
              "name": "gameType",
              "type": "uint8"
            },
            {
              "internalType": "string",
              "name": "apiId",
              "type": "string"
            },
            {
              "components": [
                {
                  "internalType": "uint256",
                  "name": "createdTimestamp",
                  "type": "uint256"
                },
                {
                  "internalType": "uint256",
                  "name": "filledTimestamp",
                  "type": "uint256"
                },
                {
                  "internalType": "uint256",
                  "name": "gamePlayedTimestamp",
                  "type": "uint256"
                }
              ],
              "internalType": "struct Staking.StakeTimeStamp",
              "name": "stakeTimeStamp",
              "type": "tuple"
            }
          ],
          "indexed": false,
          "internalType": "struct Staking.Stake",
          "name": "stake",
          "type": "tuple"
        }
      ],
      "name": "StakeFilled",
      "type": "event"
    },
    {
      "anonymous": false,
      "inputs": [
        {
          "indexed": false,
          "internalType": "address",
          "name": "horse",
          "type": "address"
        },
        {
          "indexed": false,
          "internalType": "uint256",
          "name": "amount",
          "type": "uint256"
        },
        {
          "indexed": false,
          "internalType": "uint256",
          "name": "escrow",
          "type": "uint256"
        }
      ],
      "name": "StakeRequested",
      "type": "event"
    },
    {
      "inputs": [],
      "name": "owner",
      "outputs": [
        {
          "internalType": "address payable",
          "name": "",
          "type": "address"
        }
      ],
      "stateMutability": "view",
      "type": "function",
      "constant": true
    },
    {
      "inputs": [
        {
          "internalType": "address",
          "name": "",
          "type": "address"
        }
      ],
      "name": "players",
      "outputs": [
        {
          "internalType": "address payable",
          "name": "playerAddress",
          "type": "address"
        },
        {
          "internalType": "string",
          "name": "apiId",
          "type": "string"
        },
        {
          "internalType": "string",
          "name": "name",
          "type": "string"
        },
        {
          "internalType": "string",
          "name": "sharkscopeLink",
          "type": "string"
        },
        {
          "internalType": "string",
          "name": "profilePicPath",
          "type": "string"
        },
        {
          "internalType": "uint256",
          "name": "createdTimestamp",
          "type": "uint256"
        }
      ],
      "stateMutability": "view",
      "type": "function",
      "constant": true
    },
    {
      "inputs": [],
      "name": "requestCount",
      "outputs": [
        {
          "internalType": "uint256",
          "name": "",
          "type": "uint256"
        }
      ],
      "stateMutability": "view",
      "type": "function",
      "constant": true
    },
    {
      "inputs": [
        {
          "internalType": "uint256",
          "name": "",
          "type": "uint256"
        }
      ],
      "name": "stakes",
      "outputs": [
        {
          "internalType": "uint256",
          "name": "id",
          "type": "uint256"
        },
        {
          "internalType": "address payable",
          "name": "horse",
          "type": "address"
        },
        {
          "internalType": "address payable",
          "name": "backer",
          "type": "address"
        },
        {
          "internalType": "uint256",
          "name": "amount",
          "type": "uint256"
        },
        {
          "internalType": "uint256",
          "name": "escrow",
          "type": "uint256"
        },
        {
          "internalType": "uint256",
          "name": "profitShare",
          "type": "uint256"
        },
        {
          "internalType": "uint256",
          "name": "profit",
          "type": "uint256"
        },
        {
          "internalType": "enum Staking.StakeStatus",
          "name": "status",
          "type": "uint8"
        },
        {
          "internalType": "bool",
          "name": "horseWon",
          "type": "bool"
        },
        {
          "internalType": "enum Staking.GameType",
          "name": "gameType",
          "type": "uint8"
        },
        {
          "internalType": "string",
          "name": "apiId",
          "type": "string"
        },
        {
          "components": [
            {
              "internalType": "uint256",
              "name": "createdTimestamp",
              "type": "uint256"
            },
            {
              "internalType": "uint256",
              "name": "filledTimestamp",
              "type": "uint256"
            },
            {
              "internalType": "uint256",
              "name": "gamePlayedTimestamp",
              "type": "uint256"
            }
          ],
          "internalType": "struct Staking.StakeTimeStamp",
          "name": "stakeTimeStamp",
          "type": "tuple"
        }
      ],
      "stateMutability": "view",
      "type": "function",
      "constant": true
    },
    {
      "inputs": [
        {
          "internalType": "string",
          "name": "apiId",
          "type": "string"
        },
        {
          "internalType": "string",
          "name": "name",
          "type": "string"
        },
        {
          "internalType": "string",
          "name": "sharkscopeLink",
          "type": "string"
        },
        {
          "internalType": "string",
          "name": "profilePicPath",
          "type": "string"
        }
      ],
      "name": "createPlayer",
      "outputs": [],
      "stateMutability": "payable",
      "type": "function",
      "payable": true
    },
    {
      "inputs": [
        {
          "internalType": "address",
          "name": "add",
          "type": "address"
        }
      ],
      "name": "getPlayer",
      "outputs": [
        {
          "components": [
            {
              "internalType": "address payable",
              "name": "playerAddress",
              "type": "address"
            },
            {
              "internalType": "string",
              "name": "apiId",
              "type": "string"
            },
            {
              "internalType": "string",
              "name": "name",
              "type": "string"
            },
            {
              "internalType": "string",
              "name": "sharkscopeLink",
              "type": "string"
            },
            {
              "internalType": "string",
              "name": "profilePicPath",
              "type": "string"
            },
            {
              "internalType": "uint256[]",
              "name": "stakeIds",
              "type": "uint256[]"
            },
            {
              "internalType": "uint256",
              "name": "createdTimestamp",
              "type": "uint256"
            }
          ],
          "internalType": "struct Staking.Player",
          "name": "",
          "type": "tuple"
        }
      ],
      "stateMutability": "view",
      "type": "function",
      "constant": true
    },
    {
      "inputs": [],
      "name": "kill",
      "outputs": [],
      "stateMutability": "nonpayable",
      "type": "function"
    },
    {
      "inputs": [
        {
          "internalType": "uint256",
          "name": "id",
          "type": "uint256"
        }
      ],
      "name": "getStake",
      "outputs": [
        {
          "components": [
            {
              "internalType": "uint256",
              "name": "id",
              "type": "uint256"
            },
            {
              "internalType": "address payable",
              "name": "horse",
              "type": "address"
            },
            {
              "internalType": "address payable",
              "name": "backer",
              "type": "address"
            },
            {
              "internalType": "uint256",
              "name": "amount",
              "type": "uint256"
            },
            {
              "internalType": "uint256",
              "name": "escrow",
              "type": "uint256"
            },
            {
              "internalType": "uint256",
              "name": "profitShare",
              "type": "uint256"
            },
            {
              "internalType": "uint256",
              "name": "profit",
              "type": "uint256"
            },
            {
              "internalType": "enum Staking.StakeStatus",
              "name": "status",
              "type": "uint8"
            },
            {
              "internalType": "bool",
              "name": "horseWon",
              "type": "bool"
            },
            {
              "internalType": "enum Staking.GameType",
              "name": "gameType",
              "type": "uint8"
            },
            {
              "internalType": "string",
              "name": "apiId",
              "type": "string"
            },
            {
              "components": [
                {
                  "internalType": "uint256",
                  "name": "createdTimestamp",
                  "type": "uint256"
                },
                {
                  "internalType": "uint256",
                  "name": "filledTimestamp",
                  "type": "uint256"
                },
                {
                  "internalType": "uint256",
                  "name": "gamePlayedTimestamp",
                  "type": "uint256"
                }
              ],
              "internalType": "struct Staking.StakeTimeStamp",
              "name": "stakeTimeStamp",
              "type": "tuple"
            }
          ],
          "internalType": "struct Staking.Stake",
          "name": "",
          "type": "tuple"
        }
      ],
      "stateMutability": "view",
      "type": "function",
      "constant": true
    },
    {
      "inputs": [
        {
          "internalType": "uint256",
          "name": "amount",
          "type": "uint256"
        },
        {
          "internalType": "uint256",
          "name": "profitShare",
          "type": "uint256"
        },
        {
          "internalType": "uint256",
          "name": "escrow",
          "type": "uint256"
        },
        {
          "internalType": "enum Staking.GameType",
          "name": "gameType",
          "type": "uint8"
        },
        {
          "internalType": "string",
          "name": "apiId",
          "type": "string"
        }
      ],
      "name": "createRequest",
      "outputs": [],
      "stateMutability": "payable",
      "type": "function",
      "payable": true
    },
    {
      "inputs": [
        {
          "internalType": "uint256",
          "name": "id",
          "type": "uint256"
        }
      ],
      "name": "stakeHorse",
      "outputs": [],
      "stateMutability": "payable",
      "type": "function",
      "payable": true
    },
    {
      "inputs": [
        {
          "internalType": "uint256",
          "name": "id",
          "type": "uint256"
        }
      ],
      "name": "cancelStakeAsHorse",
      "outputs": [],
      "stateMutability": "nonpayable",
      "type": "function"
    },
    {
      "inputs": [
        {
          "internalType": "uint256",
          "name": "id",
          "type": "uint256"
        }
      ],
      "name": "returnProfits",
      "outputs": [],
      "stateMutability": "payable",
      "type": "function",
      "payable": true
    },
    {
      "inputs": [
        {
          "internalType": "uint256",
          "name": "id",
          "type": "uint256"
        },
        {
          "internalType": "uint256",
          "name": "profit",
          "type": "uint256"
        }
      ],
      "name": "gamePlayed",
      "outputs": [],
      "stateMutability": "nonpayable",
      "type": "function"
    },
    {
      "inputs": [
        {
          "internalType": "uint256",
          "name": "id",
          "type": "uint256"
        }
      ],
      "name": "backerClaimEscrow",
      "outputs": [],
      "stateMutability": "nonpayable",
      "type": "function"
    }
  ],
  "bytecode": "0x60806040526000805534801561001457600080fd5b5033600260006101000a81548173ffffffffffffffffffffffffffffffffffffffff021916908373ffffffffffffffffffffffffffffffffffffffff160217905550613f1f806100656000396000f3fe6080604052600436106100dd5760003560e01c80638da5cb5b1161007f578063d5a44f8611610059578063d5a44f861461027c578063d8aedc55146102c4578063dd15ece5146102e0578063e2eb41ff146102fc576100dd565b80638da5cb5b146101f8578063a141efea14610223578063ce325bf81461023f576100dd565b806353da1bd0116100bb57806353da1bd01461013e5780635badbe4c146101675780635c12cd4b146101925780635f904775146101cf576100dd565b80630be3721d146100e257806341c0e1b5146100fe5780634d6199b514610115575b600080fd5b6100fc60048036038101906100f79190612fcd565b61033e565b005b34801561010a57600080fd5b506101136109b8565b005b34801561012157600080fd5b5061013c60048036038101906101379190612ffa565b610a7a565b005b34801561014a57600080fd5b5061016560048036038101906101609190612fcd565b610c5b565b005b34801561017357600080fd5b5061017c611006565b6040516101899190613049565b60405180910390f35b34801561019e57600080fd5b506101b960048036038101906101b491906130c2565b61100c565b6040516101c6919061331f565b60405180910390f35b3480156101db57600080fd5b506101f660048036038101906101f19190612fcd565b611365565b005b34801561020457600080fd5b5061020d61195e565b60405161021a9190613350565b60405180910390f35b61023d60048036038101906102389190612fcd565b611984565b005b34801561024b57600080fd5b5061026660048036038101906102619190612fcd565b612001565b604051610273919061358b565b60405180910390f35b34801561028857600080fd5b506102a3600480360381019061029e9190612fcd565b6122ac565b6040516102bb9c9b9a99989796959493929190613666565b60405180910390f35b6102de60048036038101906102d9919061385c565b612423565b005b6102fa60048036038101906102f59190613958565b61275f565b005b34801561030857600080fd5b50610323600480360381019061031e91906130c2565b612b2a565b604051610335969594939291906139ef565b60405180910390f35b61034781612da6565b61038857806040517f6640151600000000000000000000000000000000000000000000000000000000815260040161037f9190613049565b60405180910390fd5b60006001600083815260200190815260200160002060405180610180016040529081600082015481526020016001820160009054906101000a900473ffffffffffffffffffffffffffffffffffffffff1673ffffffffffffffffffffffffffffffffffffffff1673ffffffffffffffffffffffffffffffffffffffff1681526020016002820160009054906101000a900473ffffffffffffffffffffffffffffffffffffffff1673ffffffffffffffffffffffffffffffffffffffff1673ffffffffffffffffffffffffffffffffffffffff168152602001600382015481526020016004820154815260200160058201548152602001600682015481526020016007820160009054906101000a900460ff1660068111156104ac576104ab61336b565b5b60068111156104be576104bd61336b565b5b81526020016007820160019054906101000a900460ff161515151581526020016007820160029054906101000a900460ff1660018111156105025761050161336b565b5b60018111156105145761051361336b565b5b815260200160088201805461052890613a9b565b80601f016020809104026020016040519081016040528092919081815260200182805461055490613a9b565b80156105a15780601f10610576576101008083540402835291602001916105a1565b820191906000526020600020905b81548152906001019060200180831161058457829003601f168201915b50505050508152602001600982016040518060600160405290816000820154815260200160018201548152602001600282015481525050815250509050806020015173ffffffffffffffffffffffffffffffffffffffff163373ffffffffffffffffffffffffffffffffffffffff161461065a57813382602001516040517f6764e9b700000000000000000000000000000000000000000000000000000000815260040161065193929190613b3b565b60405180910390fd5b6004600681111561066e5761066d61336b565b5b8160e0015160068111156106855761068461336b565b5b146106cd57818160e001516040517ffb9857830000000000000000000000000000000000000000000000000000000081526004016106c4929190613b72565b60405180910390fd5b600060648260a001518360c001516106e59190613bca565b6106ef9190613c53565b82606001516106fe9190613c84565b9050816040015173ffffffffffffffffffffffffffffffffffffffff166108fc829081150290604051600060405180830381858888f1935050505015801561074a573d6000803e3d6000fd5b506000826080015111156107a857816020015173ffffffffffffffffffffffffffffffffffffffff166108fc83608001519081150290604051600060405180830381858888f193505050501580156107a6573d6000803e3d6000fd5b505b60058260e0019060068111156107c1576107c061336b565b5b908160068111156107d5576107d461336b565b5b8152505081600160008581526020019081526020016000206000820151816000015560208201518160010160006101000a81548173ffffffffffffffffffffffffffffffffffffffff021916908373ffffffffffffffffffffffffffffffffffffffff16021790555060408201518160020160006101000a81548173ffffffffffffffffffffffffffffffffffffffff021916908373ffffffffffffffffffffffffffffffffffffffff160217905550606082015181600301556080820151816004015560a0820151816005015560c0820151816006015560e08201518160070160006101000a81548160ff021916908360068111156108d8576108d761336b565b5b02179055506101008201518160070160016101000a81548160ff0219169083151502179055506101208201518160070160026101000a81548160ff0219169083600181111561092a5761092961336b565b5b021790555061014082015181600801908051906020019061094c929190612db3565b506101608201518160090160008201518160000155602082015181600101556040820151816002015550509050507f120c71dc5e7cec3dab59d0ac108c8fcf42b7789d60d79cadf046b35476c321b983826040516109ab929190613cda565b60405180910390a1505050565b600260009054906101000a900473ffffffffffffffffffffffffffffffffffffffff1673ffffffffffffffffffffffffffffffffffffffff163373ffffffffffffffffffffffffffffffffffffffff1614610a3f576040517f205fc15e00000000000000000000000000000000000000000000000000000000815260040160405180910390fd5b600260009054906101000a900473ffffffffffffffffffffffffffffffffffffffff1673ffffffffffffffffffffffffffffffffffffffff16ff5b610a8382612da6565b610ac457816040517f66401516000000000000000000000000000000000000000000000000000000008152600401610abb9190613049565b60405180910390fd5b60016006811115610ad857610ad761336b565b5b6001600084815260200190815260200160002060070160009054906101000a900460ff166006811115610b0e57610b0d61336b565b5b14610b7557816001600084815260200190815260200160002060070160009054906101000a900460ff166040517f8d2ce626000000000000000000000000000000000000000000000000000000008152600401610b6c929190613b72565b60405180910390fd5b60046001600084815260200190815260200160002060070160006101000a81548160ff02191690836006811115610baf57610bae61336b565b5b0217905550806001600084815260200190815260200160002060060181905550600081116001600084815260200190815260200160002060070160016101000a81548160ff0219169083151502179055504260016000848152602001908152602001600020600901600201819055507fcccca5c37cd734d94742d46e24d5fcdc3e6ef8dd90dda510dae0e35530add4a28282604051610c4f929190613cda565b60405180910390a15050565b610c6481612da6565b610ca557806040517f66401516000000000000000000000000000000000000000000000000000000008152600401610c9c9190613049565b60405180910390fd5b60046006811115610cb957610cb861336b565b5b6001600083815260200190815260200160002060070160009054906101000a900460ff166006811115610cef57610cee61336b565b5b14610d5657806001600083815260200190815260200160002060070160009054906101000a900460ff166040517f18d0648e000000000000000000000000000000000000000000000000000000008152600401610d4d929190613b72565b60405180910390fd5b6001600082815260200190815260200160002060020160009054906101000a900473ffffffffffffffffffffffffffffffffffffffff1673ffffffffffffffffffffffffffffffffffffffff163373ffffffffffffffffffffffffffffffffffffffff1614610e3657806001600083815260200190815260200160002060020160009054906101000a900473ffffffffffffffffffffffffffffffffffffffff16336040517fd9275265000000000000000000000000000000000000000000000000000000008152600401610e2d93929190613d03565b60405180910390fd5b600060016000838152602001908152602001600020600401541415610eaa578060016000838152602001908152602001600020600401546040517f9113b1c2000000000000000000000000000000000000000000000000000000008152600401610ea1929190613cda565b60405180910390fd5b6001600082815260200190815260200160002060020160009054906101000a900473ffffffffffffffffffffffffffffffffffffffff1673ffffffffffffffffffffffffffffffffffffffff166108fc60016000848152602001908152602001600020600401549081150290604051600060405180830381858888f19350505050158015610f3c573d6000803e3d6000fd5b5060066001600083815260200190815260200160002060070160006101000a81548160ff02191690836006811115610f7757610f7661336b565b5b02179055507fa768e527233d17984f1796f3e374ca38761c79bc6e27ae499cb41343983a69978160016000848152602001908152602001600020600401546001600085815260200190815260200160002060020160009054906101000a900473ffffffffffffffffffffffffffffffffffffffff16604051610ffb93929190613d3a565b60405180910390a150565b60005481565b611014612e39565b600360008373ffffffffffffffffffffffffffffffffffffffff1673ffffffffffffffffffffffffffffffffffffffff1681526020019081526020016000206040518060e00160405290816000820160009054906101000a900473ffffffffffffffffffffffffffffffffffffffff1673ffffffffffffffffffffffffffffffffffffffff1673ffffffffffffffffffffffffffffffffffffffff1681526020016001820180546110c490613a9b565b80601f01602080910402602001604051908101604052809291908181526020018280546110f090613a9b565b801561113d5780601f106111125761010080835404028352916020019161113d565b820191906000526020600020905b81548152906001019060200180831161112057829003601f168201915b5050505050815260200160028201805461115690613a9b565b80601f016020809104026020016040519081016040528092919081815260200182805461118290613a9b565b80156111cf5780601f106111a4576101008083540402835291602001916111cf565b820191906000526020600020905b8154815290600101906020018083116111b257829003601f168201915b505050505081526020016003820180546111e890613a9b565b80601f016020809104026020016040519081016040528092919081815260200182805461121490613a9b565b80156112615780601f1061123657610100808354040283529160200191611261565b820191906000526020600020905b81548152906001019060200180831161124457829003601f168201915b5050505050815260200160048201805461127a90613a9b565b80601f01602080910402602001604051908101604052809291908181526020018280546112a690613a9b565b80156112f35780601f106112c8576101008083540402835291602001916112f3565b820191906000526020600020905b8154815290600101906020018083116112d657829003601f168201915b505050505081526020016005820180548060200260200160405190810160405280929190818152602001828054801561134b57602002820191906000526020600020905b815481526020019060010190808311611337575b505050505081526020016006820154815250509050919050565b61136e81612da6565b6113af57806040517f664015160000000000000000000000000000000000000000000000000000000081526004016113a69190613049565b60405180910390fd5b60006001600083815260200190815260200160002060405180610180016040529081600082015481526020016001820160009054906101000a900473ffffffffffffffffffffffffffffffffffffffff1673ffffffffffffffffffffffffffffffffffffffff1673ffffffffffffffffffffffffffffffffffffffff1681526020016002820160009054906101000a900473ffffffffffffffffffffffffffffffffffffffff1673ffffffffffffffffffffffffffffffffffffffff1673ffffffffffffffffffffffffffffffffffffffff168152602001600382015481526020016004820154815260200160058201548152602001600682015481526020016007820160009054906101000a900460ff1660068111156114d3576114d261336b565b5b60068111156114e5576114e461336b565b5b81526020016007820160019054906101000a900460ff161515151581526020016007820160029054906101000a900460ff1660018111156115295761152861336b565b5b600181111561153b5761153a61336b565b5b815260200160088201805461154f90613a9b565b80601f016020809104026020016040519081016040528092919081815260200182805461157b90613a9b565b80156115c85780601f1061159d576101008083540402835291602001916115c8565b820191906000526020600020905b8154815290600101906020018083116115ab57829003601f168201915b50505050508152602001600982016040518060600160405290816000820154815260200160018201548152602001600282015481525050815250509050806020015173ffffffffffffffffffffffffffffffffffffffff163373ffffffffffffffffffffffffffffffffffffffff161461168157813382602001516040517ffc1bd14500000000000000000000000000000000000000000000000000000000815260040161167893929190613b3b565b60405180910390fd5b600060068111156116955761169461336b565b5b8160e0015160068111156116ac576116ab61336b565b5b146116f457818160e001516040517f28763d080000000000000000000000000000000000000000000000000000000081526004016116eb929190613b72565b60405180910390fd5b60008160800151111561175157806020015173ffffffffffffffffffffffffffffffffffffffff166108fc82608001519081150290604051600060405180830381858888f1935050505015801561174f573d6000803e3d6000fd5b505b60038160e00190600681111561176a5761176961336b565b5b9081600681111561177e5761177d61336b565b5b8152505080600160008481526020019081526020016000206000820151816000015560208201518160010160006101000a81548173ffffffffffffffffffffffffffffffffffffffff021916908373ffffffffffffffffffffffffffffffffffffffff16021790555060408201518160020160006101000a81548173ffffffffffffffffffffffffffffffffffffffff021916908373ffffffffffffffffffffffffffffffffffffffff160217905550606082015181600301556080820151816004015560a0820151816005015560c0820151816006015560e08201518160070160006101000a81548160ff021916908360068111156118815761188061336b565b5b02179055506101008201518160070160016101000a81548160ff0219169083151502179055506101208201518160070160026101000a81548160ff021916908360018111156118d3576118d261336b565b5b02179055506101408201518160080190805190602001906118f5929190612db3565b506101608201518160090160008201518160000155602082015181600101556040820151816002015550509050507f5d556abff222ff6c24a87f221f26036806352e4b08fb27b5a885d5f0064264a4826040516119529190613049565b60405180910390a15050565b600260009054906101000a900473ffffffffffffffffffffffffffffffffffffffff1681565b60005481106119ca57806040517f664015160000000000000000000000000000000000000000000000000000000081526004016119c19190613049565b60405180910390fd5b60006001600083815260200190815260200160002060405180610180016040529081600082015481526020016001820160009054906101000a900473ffffffffffffffffffffffffffffffffffffffff1673ffffffffffffffffffffffffffffffffffffffff1673ffffffffffffffffffffffffffffffffffffffff1681526020016002820160009054906101000a900473ffffffffffffffffffffffffffffffffffffffff1673ffffffffffffffffffffffffffffffffffffffff1673ffffffffffffffffffffffffffffffffffffffff168152602001600382015481526020016004820154815260200160058201548152602001600682015481526020016007820160009054906101000a900460ff166006811115611aee57611aed61336b565b5b6006811115611b0057611aff61336b565b5b81526020016007820160019054906101000a900460ff161515151581526020016007820160029054906101000a900460ff166001811115611b4457611b4361336b565b5b6001811115611b5657611b5561336b565b5b8152602001600882018054611b6a90613a9b565b80601f0160208091040260200160405190810160405280929190818152602001828054611b9690613a9b565b8015611be35780601f10611bb857610100808354040283529160200191611be3565b820191906000526020600020905b815481529060010190602001808311611bc657829003601f168201915b5050505050815260200160098201604051806060016040529081600082015481526020016001820154815260200160028201548152505081525050905060006006811115611c3457611c3361336b565b5b8160e001516006811115611c4b57611c4a61336b565b5b14611c8d57816040517f63d82b43000000000000000000000000000000000000000000000000000000008152600401611c849190613049565b60405180910390fd5b60008160200151905060003390508073ffffffffffffffffffffffffffffffffffffffff168273ffffffffffffffffffffffffffffffffffffffff161415611d10578382826040517fb6ccca7f000000000000000000000000000000000000000000000000000000008152600401611d0793929190613d71565b60405180910390fd5b82606001513414611d6057833484606001516040517faad22d6f000000000000000000000000000000000000000000000000000000008152600401611d5793929190613da8565b60405180910390fd5b60018360e001906006811115611d7957611d7861336b565b5b90816006811115611d8d57611d8c61336b565b5b8152505080836040019073ffffffffffffffffffffffffffffffffffffffff16908173ffffffffffffffffffffffffffffffffffffffff16815250504283610160015160200181815250508173ffffffffffffffffffffffffffffffffffffffff166108fc84606001519081150290604051600060405180830381858888f19350505050158015611e22573d6000803e3d6000fd5b5082600160008681526020019081526020016000206000820151816000015560208201518160010160006101000a81548173ffffffffffffffffffffffffffffffffffffffff021916908373ffffffffffffffffffffffffffffffffffffffff16021790555060408201518160020160006101000a81548173ffffffffffffffffffffffffffffffffffffffff021916908373ffffffffffffffffffffffffffffffffffffffff160217905550606082015181600301556080820151816004015560a0820151816005015560c0820151816006015560e08201518160070160006101000a81548160ff02191690836006811115611f2257611f2161336b565b5b02179055506101008201518160070160016101000a81548160ff0219169083151502179055506101208201518160070160026101000a81548160ff02191690836001811115611f7457611f7361336b565b5b0217905550610140820151816008019080519060200190611f96929190612db3565b506101608201518160090160008201518160000155602082015181600101556040820151816002015550509050507f528623db7afbc119c11f04ec769eea3316cf0661c97f9361c0566d9edf4caa7d83604051611ff3919061358b565b60405180910390a150505050565b612009612e8c565b61201282612da6565b61205357816040517f6640151600000000000000000000000000000000000000000000000000000000815260040161204a9190613049565b60405180910390fd5b6001600083815260200190815260200160002060405180610180016040529081600082015481526020016001820160009054906101000a900473ffffffffffffffffffffffffffffffffffffffff1673ffffffffffffffffffffffffffffffffffffffff1673ffffffffffffffffffffffffffffffffffffffff1681526020016002820160009054906101000a900473ffffffffffffffffffffffffffffffffffffffff1673ffffffffffffffffffffffffffffffffffffffff1673ffffffffffffffffffffffffffffffffffffffff168152602001600382015481526020016004820154815260200160058201548152602001600682015481526020016007820160009054906101000a900460ff1660068111156121755761217461336b565b5b60068111156121875761218661336b565b5b81526020016007820160019054906101000a900460ff161515151581526020016007820160029054906101000a900460ff1660018111156121cb576121ca61336b565b5b60018111156121dd576121dc61336b565b5b81526020016008820180546121f190613a9b565b80601f016020809104026020016040519081016040528092919081815260200182805461221d90613a9b565b801561226a5780601f1061223f5761010080835404028352916020019161226a565b820191906000526020600020905b81548152906001019060200180831161224d57829003601f168201915b50505050508152602001600982016040518060600160405290816000820154815260200160018201548152602001600282015481525050815250509050919050565b60016020528060005260406000206000915090508060000154908060010160009054906101000a900473ffffffffffffffffffffffffffffffffffffffff16908060020160009054906101000a900473ffffffffffffffffffffffffffffffffffffffff16908060030154908060040154908060050154908060060154908060070160009054906101000a900460ff16908060070160019054906101000a900460ff16908060070160029054906101000a900460ff169080600801805461237290613a9b565b80601f016020809104026020016040519081016040528092919081815260200182805461239e90613a9b565b80156123eb5780601f106123c0576101008083540402835291602001916123eb565b820191906000526020600020905b8154815290600101906020018083116123ce57829003601f168201915b50505050509080600901604051806060016040529081600082015481526020016001820154815260200160028201548152505090508c565b600073ffffffffffffffffffffffffffffffffffffffff16600360003373ffffffffffffffffffffffffffffffffffffffff1673ffffffffffffffffffffffffffffffffffffffff16815260200190815260200160002060000160009054906101000a900473ffffffffffffffffffffffffffffffffffffffff1673ffffffffffffffffffffffffffffffffffffffff16146124f657336040517f609c043e0000000000000000000000000000000000000000000000000000000081526004016124ed9190613ddf565b60405180910390fd5b83600360003373ffffffffffffffffffffffffffffffffffffffff1673ffffffffffffffffffffffffffffffffffffffff168152602001908152602001600020600101908051906020019061254c929190612db3565b5033600360003373ffffffffffffffffffffffffffffffffffffffff1673ffffffffffffffffffffffffffffffffffffffff16815260200190815260200160002060000160006101000a81548173ffffffffffffffffffffffffffffffffffffffff021916908373ffffffffffffffffffffffffffffffffffffffff16021790555082600360003373ffffffffffffffffffffffffffffffffffffffff1673ffffffffffffffffffffffffffffffffffffffff1681526020019081526020016000206002019080519060200190612624929190612db3565b5081600360003373ffffffffffffffffffffffffffffffffffffffff1673ffffffffffffffffffffffffffffffffffffffff168152602001908152602001600020600301908051906020019061267b929190612db3565b5080600360003373ffffffffffffffffffffffffffffffffffffffff1673ffffffffffffffffffffffffffffffffffffffff16815260200190815260200160002060040190805190602001906126d2929190612db3565b5042600360003373ffffffffffffffffffffffffffffffffffffffff1673ffffffffffffffffffffffffffffffffffffffff168152602001908152602001600020600601819055507f7f9d16a3c205132230d8fdf1dbfaa2b2b741f5a3f0599a6c813d1e94acd66e323385858585604051612751959493929190613dfa565b60405180910390a150505050565b60648411156127a557836040517f7a59383600000000000000000000000000000000000000000000000000000000815260040161279c9190613049565b60405180910390fd5b6000831180156127b55750348314155b156127f95782346040517fb911ac7c0000000000000000000000000000000000000000000000000000000081526004016127f0929190613cda565b60405180910390fd5b60006040518060600160405280428152602001600081526020016000815250905060405180610180016040528060005481526020013373ffffffffffffffffffffffffffffffffffffffff168152602001600073ffffffffffffffffffffffffffffffffffffffff16815260200187815260200185815260200186815260200160008152602001600060068111156128945761289361336b565b5b81526020016000151581526020018460018111156128b5576128b461336b565b5b81526020018381526020018281525060016000805481526020019081526020016000206000820151816000015560208201518160010160006101000a81548173ffffffffffffffffffffffffffffffffffffffff021916908373ffffffffffffffffffffffffffffffffffffffff16021790555060408201518160020160006101000a81548173ffffffffffffffffffffffffffffffffffffffff021916908373ffffffffffffffffffffffffffffffffffffffff160217905550606082015181600301556080820151816004015560a0820151816005015560c0820151816006015560e08201518160070160006101000a81548160ff021916908360068111156129c3576129c261336b565b5b02179055506101008201518160070160016101000a81548160ff0219169083151502179055506101208201518160070160026101000a81548160ff02191690836001811115612a1557612a1461336b565b5b0217905550610140820151816008019080519060200190612a37929190612db3565b50610160820151816009016000820151816000015560208201518160010155604082015181600201555050905050600360003373ffffffffffffffffffffffffffffffffffffffff1673ffffffffffffffffffffffffffffffffffffffff1681526020019081526020016000206005016000549080600181540180825580915050600190039060005260206000200160009091909190915055600080815480929190612ae290613e69565b91905055507fc1e517c7b7e52bcb43f08b43f62d341ce29d8f40f41ff21811ffc93aa10e8553338786604051612b1a93929190613eb2565b60405180910390a1505050505050565b60036020528060005260406000206000915090508060000160009054906101000a900473ffffffffffffffffffffffffffffffffffffffff1690806001018054612b7390613a9b565b80601f0160208091040260200160405190810160405280929190818152602001828054612b9f90613a9b565b8015612bec5780601f10612bc157610100808354040283529160200191612bec565b820191906000526020600020905b815481529060010190602001808311612bcf57829003601f168201915b505050505090806002018054612c0190613a9b565b80601f0160208091040260200160405190810160405280929190818152602001828054612c2d90613a9b565b8015612c7a5780601f10612c4f57610100808354040283529160200191612c7a565b820191906000526020600020905b815481529060010190602001808311612c5d57829003601f168201915b505050505090806003018054612c8f90613a9b565b80601f0160208091040260200160405190810160405280929190818152602001828054612cbb90613a9b565b8015612d085780601f10612cdd57610100808354040283529160200191612d08565b820191906000526020600020905b815481529060010190602001808311612ceb57829003601f168201915b505050505090806004018054612d1d90613a9b565b80601f0160208091040260200160405190810160405280929190818152602001828054612d4990613a9b565b8015612d965780601f10612d6b57610100808354040283529160200191612d96565b820191906000526020600020905b815481529060010190602001808311612d7957829003601f168201915b5050505050908060060154905086565b6000805482109050919050565b828054612dbf90613a9b565b90600052602060002090601f016020900481019282612de15760008555612e28565b82601f10612dfa57805160ff1916838001178555612e28565b82800160010185558215612e28579182015b82811115612e27578251825591602001919060010190612e0c565b5b509050612e359190612f45565b5090565b6040518060e00160405280600073ffffffffffffffffffffffffffffffffffffffff1681526020016060815260200160608152602001606081526020016060815260200160608152602001600081525090565b60405180610180016040528060008152602001600073ffffffffffffffffffffffffffffffffffffffff168152602001600073ffffffffffffffffffffffffffffffffffffffff1681526020016000815260200160008152602001600081526020016000815260200160006006811115612f0957612f0861336b565b5b815260200160001515815260200160006001811115612f2b57612f2a61336b565b5b815260200160608152602001612f3f612f62565b81525090565b5b80821115612f5e576000816000905550600101612f46565b5090565b60405180606001604052806000815260200160008152602001600081525090565b6000604051905090565b600080fd5b600080fd5b6000819050919050565b612faa81612f97565b8114612fb557600080fd5b50565b600081359050612fc781612fa1565b92915050565b600060208284031215612fe357612fe2612f8d565b5b6000612ff184828501612fb8565b91505092915050565b6000806040838503121561301157613010612f8d565b5b600061301f85828601612fb8565b925050602061303085828601612fb8565b9150509250929050565b61304381612f97565b82525050565b600060208201905061305e600083018461303a565b92915050565b600073ffffffffffffffffffffffffffffffffffffffff82169050919050565b600061308f82613064565b9050919050565b61309f81613084565b81146130aa57600080fd5b50565b6000813590506130bc81613096565b92915050565b6000602082840312156130d8576130d7612f8d565b5b60006130e6848285016130ad565b91505092915050565b60006130fa82613064565b9050919050565b61310a816130ef565b82525050565b600081519050919050565b600082825260208201905092915050565b60005b8381101561314a57808201518184015260208101905061312f565b83811115613159576000848401525b50505050565b6000601f19601f8301169050919050565b600061317b82613110565b613185818561311b565b935061319581856020860161312c565b61319e8161315f565b840191505092915050565b600081519050919050565b600082825260208201905092915050565b6000819050602082019050919050565b6131de81612f97565b82525050565b60006131f083836131d5565b60208301905092915050565b6000602082019050919050565b6000613214826131a9565b61321e81856131b4565b9350613229836131c5565b8060005b8381101561325a57815161324188826131e4565b975061324c836131fc565b92505060018101905061322d565b5085935050505092915050565b600060e08301600083015161327f6000860182613101565b50602083015184820360208601526132978282613170565b915050604083015184820360408601526132b18282613170565b915050606083015184820360608601526132cb8282613170565b915050608083015184820360808601526132e58282613170565b91505060a083015184820360a08601526132ff8282613209565b91505060c083015161331460c08601826131d5565b508091505092915050565b600060208201905081810360008301526133398184613267565b905092915050565b61334a816130ef565b82525050565b60006020820190506133656000830184613341565b92915050565b7f4e487b7100000000000000000000000000000000000000000000000000000000600052602160045260246000fd5b600781106133ab576133aa61336b565b5b50565b60008190506133bc8261339a565b919050565b60006133cc826133ae565b9050919050565b6133dc816133c1565b82525050565b60008115159050919050565b6133f7816133e2565b82525050565b6002811061340e5761340d61336b565b5b50565b600081905061341f826133fd565b919050565b600061342f82613411565b9050919050565b61343f81613424565b82525050565b60608201600082015161345b60008501826131d5565b50602082015161346e60208501826131d5565b50604082015161348160408501826131d5565b50505050565b60006101c0830160008301516134a060008601826131d5565b5060208301516134b36020860182613101565b5060408301516134c66040860182613101565b5060608301516134d960608601826131d5565b5060808301516134ec60808601826131d5565b5060a08301516134ff60a08601826131d5565b5060c083015161351260c08601826131d5565b5060e083015161352560e08601826133d3565b5061010083015161353a6101008601826133ee565b5061012083015161354f610120860182613436565b506101408301518482036101408601526135698282613170565b915050610160830151613580610160860182613445565b508091505092915050565b600060208201905081810360008301526135a58184613487565b905092915050565b6135b6816133c1565b82525050565b6135c5816133e2565b82525050565b6135d481613424565b82525050565b600082825260208201905092915050565b60006135f682613110565b61360081856135da565b935061361081856020860161312c565b6136198161315f565b840191505092915050565b60608201600082015161363a60008501826131d5565b50602082015161364d60208501826131d5565b50604082015161366060408501826131d5565b50505050565b60006101c08201905061367c600083018f61303a565b613689602083018e613341565b613696604083018d613341565b6136a3606083018c61303a565b6136b0608083018b61303a565b6136bd60a083018a61303a565b6136ca60c083018961303a565b6136d760e08301886135ad565b6136e56101008301876135bc565b6136f36101208301866135cb565b81810361014083015261370681856135eb565b9050613716610160830184613624565b9d9c50505050505050505050505050565b600080fd5b600080fd5b7f4e487b7100000000000000000000000000000000000000000000000000000000600052604160045260246000fd5b6137698261315f565b810181811067ffffffffffffffff8211171561378857613787613731565b5b80604052505050565b600061379b612f83565b90506137a78282613760565b919050565b600067ffffffffffffffff8211156137c7576137c6613731565b5b6137d08261315f565b9050602081019050919050565b82818337600083830152505050565b60006137ff6137fa846137ac565b613791565b90508281526020810184848401111561381b5761381a61372c565b5b6138268482856137dd565b509392505050565b600082601f83011261384357613842613727565b5b81356138538482602086016137ec565b91505092915050565b6000806000806080858703121561387657613875612f8d565b5b600085013567ffffffffffffffff81111561389457613893612f92565b5b6138a08782880161382e565b945050602085013567ffffffffffffffff8111156138c1576138c0612f92565b5b6138cd8782880161382e565b935050604085013567ffffffffffffffff8111156138ee576138ed612f92565b5b6138fa8782880161382e565b925050606085013567ffffffffffffffff81111561391b5761391a612f92565b5b6139278782880161382e565b91505092959194509250565b6002811061394057600080fd5b50565b60008135905061395281613933565b92915050565b600080600080600060a0868803121561397457613973612f8d565b5b600061398288828901612fb8565b955050602061399388828901612fb8565b94505060406139a488828901612fb8565b93505060606139b588828901613943565b925050608086013567ffffffffffffffff8111156139d6576139d5612f92565b5b6139e28882890161382e565b9150509295509295909350565b600060c082019050613a046000830189613341565b8181036020830152613a1681886135eb565b90508181036040830152613a2a81876135eb565b90508181036060830152613a3e81866135eb565b90508181036080830152613a5281856135eb565b9050613a6160a083018461303a565b979650505050505050565b7f4e487b7100000000000000000000000000000000000000000000000000000000600052602260045260246000fd5b60006002820490506001821680613ab357607f821691505b60208210811415613ac757613ac6613a6c565b5b50919050565b613ad681613084565b82525050565b6000819050919050565b6000613b01613afc613af784613064565b613adc565b613064565b9050919050565b6000613b1382613ae6565b9050919050565b6000613b2582613b08565b9050919050565b613b3581613b1a565b82525050565b6000606082019050613b50600083018661303a565b613b5d6020830185613acd565b613b6a6040830184613b2c565b949350505050565b6000604082019050613b87600083018561303a565b613b9460208301846135ad565b9392505050565b7f4e487b7100000000000000000000000000000000000000000000000000000000600052601160045260246000fd5b6000613bd582612f97565b9150613be083612f97565b9250817fffffffffffffffffffffffffffffffffffffffffffffffffffffffffffffffff0483118215151615613c1957613c18613b9b565b5b828202905092915050565b7f4e487b7100000000000000000000000000000000000000000000000000000000600052601260045260246000fd5b6000613c5e82612f97565b9150613c6983612f97565b925082613c7957613c78613c24565b5b828204905092915050565b6000613c8f82612f97565b9150613c9a83612f97565b9250827fffffffffffffffffffffffffffffffffffffffffffffffffffffffffffffffff03821115613ccf57613cce613b9b565b5b828201905092915050565b6000604082019050613cef600083018561303a565b613cfc602083018461303a565b9392505050565b6000606082019050613d18600083018661303a565b613d256020830185613b2c565b613d326040830184613acd565b949350505050565b6000606082019050613d4f600083018661303a565b613d5c602083018561303a565b613d696040830184613b2c565b949350505050565b6000606082019050613d86600083018661303a565b613d936020830185613b2c565b613da06040830184613b2c565b949350505050565b6000606082019050613dbd600083018661303a565b613dca602083018561303a565b613dd7604083018461303a565b949350505050565b6000602082019050613df46000830184613acd565b92915050565b600060a082019050613e0f6000830188613acd565b8181036020830152613e2181876135eb565b90508181036040830152613e3581866135eb565b90508181036060830152613e4981856135eb565b90508181036080830152613e5d81846135eb565b90509695505050505050565b6000613e7482612f97565b91507fffffffffffffffffffffffffffffffffffffffffffffffffffffffffffffffff821415613ea757613ea6613b9b565b5b600182019050919050565b6000606082019050613ec76000830186613acd565b613ed4602083018561303a565b613ee1604083018461303a565b94935050505056fea2646970667358221220dab0b4470fd4bb1af4e9519a1cc9caa17b4290eb312aa9cfbcc8eb4f30ff001164736f6c63430008090033",
  "immutableReferences": {},
  "source": "// SPDX-License-Identifier: MIT\npragma solidity ^0.8.9;\n\ncontract Staking {\n    uint public requestCount = 0;\n    mapping(uint => Stake) public stakes;\n    address payable public owner;\n\n    mapping(address => Player) public players;\n\n    enum StakeStatus {\n        Requested,\n        Filled,\n        Expired, // TODO: When will we use this\n        Cancelled,\n        AwaitingReturnPayment,\n        Completed,\n        EscrowClaimed\n    }\n\n    enum GameType {\n        SingleGame,\n        Tournament\n    }\n\n    struct Stake {\n        uint id;\n        address payable horse;\n        address payable backer;\n        uint amount;\n        uint escrow;\n        uint profitShare;\n        uint profit;\n        StakeStatus status;\n        bool horseWon;\n        GameType gameType;\n        string apiId;\n        StakeTimeStamp stakeTimeStamp;\n    }\n\n    struct StakeTimeStamp {\n        uint256 createdTimestamp;\n        uint256 filledTimestamp;\n        uint256 gamePlayedTimestamp;\n    }\n\n    struct Player {\n        address payable playerAddress;\n        string apiId;\n        string name;\n        string sharkscopeLink;\n        string profilePicPath;\n        uint[] stakeIds; // stakes where the player is the horse.\n        uint256 createdTimestamp;\n    }\n\n    constructor() {\n        owner = payable(msg.sender);\n    }\n\n    event PlayerCreated(address playerAddress, string apiId, string name, string sharkscopeLink, string profilePicPath);\n\n    /// A player with this address already exists\n    error PlayerAlreadyExists(address playerAddress);\n\n    function createPlayer(string memory apiId, string memory name, string memory sharkscopeLink, string memory profilePicPath) external payable {\n        if (players[msg.sender].playerAddress != address(0)) {\n            revert PlayerAlreadyExists(msg.sender);\n        }\n        players[msg.sender].apiId = apiId;\n        players[msg.sender].playerAddress = payable(msg.sender);\n        players[msg.sender].name = name;\n        players[msg.sender].sharkscopeLink = sharkscopeLink;\n        players[msg.sender].profilePicPath = profilePicPath;\n        players[msg.sender].createdTimestamp = block.timestamp;\n\n        emit PlayerCreated(msg.sender, apiId, name, sharkscopeLink, profilePicPath);\n    }\n\n    function getPlayer(address add) external view returns (Player memory) {\n        return players[add];\n    }\n\n    /// Only the owner can kill this contract\n    error OnlyOwnerCanKill();\n\n    function kill() external {\n        if (msg.sender != owner) {\n            revert OnlyOwnerCanKill();\n        }\n        selfdestruct(owner);\n    }\n\n    // Get an individual stake\n\n    /// Not a valid id for a stake request\n    error InvalidStakeId(uint id);\n\n    function getStake(uint id) external view returns (Stake memory) {\n        if (!validId(id)) {\n            revert InvalidStakeId(id);\n        }\n\n        return stakes[id];\n    }\n\n    // Creating a new stake request\n    event StakeRequested(address horse, uint amount, uint escrow);\n\n    /// Profit share must be between 0 and 100\n    error InvalidProfitShare(uint profitShare);\n    /// Escrow does not match msg.value\n    error EscrowValueNotMatching(uint escrow, uint value);\n\n    function createRequest(uint amount, uint profitShare, uint escrow, GameType gameType, string memory apiId) external payable {\n        if (profitShare > 100) {\n            revert InvalidProfitShare(profitShare);\n        }\n        if (escrow > 0 && escrow != msg.value) {\n            revert EscrowValueNotMatching(escrow, msg.value);\n        }\n        StakeTimeStamp memory stakeTimeStamp = StakeTimeStamp(block.timestamp, 0, 0);\n        stakes[requestCount] = Stake(requestCount, payable(msg.sender), payable(address(0)), amount, escrow, profitShare, 0, StakeStatus.Requested, false, gameType, apiId, stakeTimeStamp);\n        players[msg.sender].stakeIds.push(requestCount);\n        requestCount++;\n\n        emit StakeRequested(msg.sender, amount, escrow);\n    }\n\n    // Staking a request\n    event StakeFilled(Stake stake);\n    \n    /// Stake has already been filled/cancelled\n    error StakeNotFillable(uint id);\n    /// You cannot stake yourself\n    error StakingSelf(uint id, address horse, address backer);\n    /// Message value doesn't match the requested amount\n    error ValueDoesNotMatchStakeAmount(uint id, uint value, uint amount);\n   \n    function stakeHorse(uint id) external payable {\n        // require(validId(id), \"This is not a valid ID for a stake!\");\n        if (id >= requestCount) {\n            revert InvalidStakeId(id);\n        }\n    \n        Stake memory stake = stakes[id];\n        if (stake.status != StakeStatus.Requested) {\n            revert StakeNotFillable(id);\n        }\n\n        address payable horse = stake.horse;\n        address payable backer = payable(msg.sender);\n        if (horse == backer) {\n            revert StakingSelf(id, horse, backer);\n        }\n        \n        if (msg.value != stake.amount) {\n            revert ValueDoesNotMatchStakeAmount(id, msg.value, stake.amount);\n        }\n\n        // Update stake status and transfer funds\n        stake.status = StakeStatus.Filled;\n        stake.backer = backer;\n        stake.stakeTimeStamp.filledTimestamp = block.timestamp;\n        horse.transfer(stake.amount);\n\n        stakes[id] = stake;\n        emit StakeFilled(stake);\n    }\n\n    // Cancelling a reqested stake\n    event StakeCancelled(uint id);\n    \n    /// Only the horse can cancel a requested stake\n    error CancellingSenderIsNotHorse(uint id, address canceller, address horse);\n    /// A horse can only cancel a stake when it has only been requested\n    error StakeIsNotCancellable(uint id, StakeStatus status);\n\n    function cancelStakeAsHorse(uint id) external {\n        if(!validId(id)) {\n            revert InvalidStakeId(id);\n        }\n        Stake memory stake = stakes[id];\n        \n        if (msg.sender != stake.horse) {\n            revert CancellingSenderIsNotHorse(id, msg.sender, stake.horse);\n        }\n        \n        if (stake.status != StakeStatus.Requested) {\n            revert StakeIsNotCancellable(id, stake.status);\n        }\n\n        if (stake.escrow > 0) {\n            stake.horse.transfer(stake.escrow);\n        }\n        stake.status = StakeStatus.Cancelled;\n\n        stakes[id] = stake;\n        emit StakeCancelled(id);\n    }\n    \n    // TODO: How might we allow this?\n    \n    // function cancelStakeAsBacker(uint id) external payable {\n    //     Stake memory stake = stakes[id];\n    //     require(msg.sender == stake.backer);\n    //     require(validId(id), \"This is not a valid ID for a stake!\");\n    // }\n\n    // Returning profits to backer after completing games\n    event ProfitsReturned(uint id, uint backerReturns);\n    \n    /// Only the horse can return the profits from a stake\n    error ReturningProfitsSenderIsNotHorse(uint id, address sender, address horse);\n    /// Profits can only be returned if a stake has been filled\n    error StakeProfitNotReturnable(uint id, StakeStatus status);\n    /// Message value not equal to the profit returns of the backer\n    error MessageValueNotEqualToBackerReturns(uint value, uint backerReturns);\n    \n    // TODO: handle the case where no profit was made\n    function returnProfits(uint id) external payable {\n        if(!validId(id)) {\n            revert InvalidStakeId(id);\n        }\n        Stake memory stake = stakes[id];\n\n        if (msg.sender != stake.horse) {\n            revert ReturningProfitsSenderIsNotHorse(id, msg.sender, stake.horse);\n        }\n        \n        if (stake.status != StakeStatus.AwaitingReturnPayment) {\n            revert StakeProfitNotReturnable(id, stake.status);\n        }\n\n        // TODO: Check this calculation. Do we do it here or calculate it in the frontend?\n        uint backerReturns = stake.amount + ((stake.profit * stake.profitShare) / 100);\n\n        // TODO: See above before we can do this\n        // if (msg.value != backerReturns) {\n        //     revert MessageValueNotEqualToBackerReturns(msg.value, backerReturns);\n        // }\n        stake.backer.transfer(backerReturns);\n        if (stake.escrow > 0) {\n            stake.horse.transfer(stake.escrow);\n        }\n        stake.status = StakeStatus.Completed;\n\n        stakes[id] = stake;\n        emit ProfitsReturned(id, backerReturns);\n    }\n\n\n    // Setting the status of a stake to AwaitingReturnPayment\n\n    event GamePlayed(uint id, uint profit);\n\n    /// You can only complete a game after it has been filled\n    error CanOnlyPlayedFilledStakes(uint id, StakeStatus status);\n\n    function gamePlayed(uint id, uint profit) external {\n        if(!validId(id)) {\n            revert InvalidStakeId(id);\n        }\n\n        if (stakes[id].status != StakeStatus.Filled) {\n            revert CanOnlyPlayedFilledStakes(id, stakes[id].status);\n        }\n\n        stakes[id].status = StakeStatus.AwaitingReturnPayment;\n        stakes[id].profit = profit;\n        stakes[id].horseWon = profit > 0; \n        stakes[id].stakeTimeStamp.gamePlayedTimestamp = block.timestamp;\n        emit GamePlayed(id, profit);\n    }\n\n\n    // Requesting back your escrow while awaiting return payment\n    event EscrowClaimed(uint id, uint escrow, address backer);\n\n    /// You can only request your escrow back when the status of the stake is awaiting return payment\n    error CanOnlyReturnEscrowWhenAwaitingReturnPayment(uint id, StakeStatus status);\n    /// Only the stake backer can request the contract's escrow\n    error OnlyBackerCanRequestEscrow(uint id, address backer, address sender);\n    /// Cannot return back escrow for a stake which never had an escrow put up\n    error CannotReturnNoEscrow(uint id, uint escrow);\n\n    // TODO: Only allow this when the state is actually AwaitingReturnPaymentClaimEscrow\n    function backerClaimEscrow(uint id) external {\n        if(!validId(id)) {\n            revert InvalidStakeId(id);\n        }\n        if (stakes[id].status != StakeStatus.AwaitingReturnPayment) {\n            revert CanOnlyReturnEscrowWhenAwaitingReturnPayment(id, stakes[id].status);\n        }\n        if (msg.sender != stakes[id].backer) {\n            revert OnlyBackerCanRequestEscrow(id, stakes[id].backer, msg.sender);\n        }\n        if (stakes[id].escrow == 0) {\n            revert CannotReturnNoEscrow(id, stakes[id].escrow);\n        }\n\n        stakes[id].backer.transfer(stakes[id].escrow);\n        stakes[id].status = StakeStatus.EscrowClaimed;\n        emit EscrowClaimed(id, stakes[id].escrow, stakes[id].backer);\n    }\n\n    function validId(uint id) internal view returns (bool) {\n        return id < requestCount;\n    }\n\n\n\n}",
  "sourcePath": "/Users/julesdehon/Documents/Uni/year-3/group-project/decentralized_poker_staking/contracts/Staking.sol",
  "compiler": {
    "name": "solc",
    "version": "0.8.9+commit.e5eed63a.Emscripten.clang"
  },
  "schemaVersion": "3.4.3",
  "updatedAt": "2021-11-18T14:56:39.721Z",
  "networkType": "ethereum",
  "devdoc": {
    "kind": "dev",
    "methods": {},
    "version": 1
  },
  "userdoc": {
    "errors": {
      "CanOnlyPlayedFilledStakes(uint256,uint8)": [
        {
          "notice": "You can only complete a game after it has been filled"
        }
      ],
      "CanOnlyReturnEscrowWhenAwaitingReturnPayment(uint256,uint8)": [
        {
          "notice": "You can only request your escrow back when the status of the stake is awaiting return payment"
        }
      ],
      "CancellingSenderIsNotHorse(uint256,address,address)": [
        {
          "notice": "Only the horse can cancel a requested stake"
        }
      ],
      "CannotReturnNoEscrow(uint256,uint256)": [
        {
          "notice": "Cannot return back escrow for a stake which never had an escrow put up"
        }
      ],
      "EscrowValueNotMatching(uint256,uint256)": [
        {
          "notice": "Escrow does not match msg.value"
        }
      ],
      "InvalidProfitShare(uint256)": [
        {
          "notice": "Profit share must be between 0 and 100"
        }
      ],
      "InvalidStakeId(uint256)": [
        {
          "notice": "Not a valid id for a stake request"
        }
      ],
      "MessageValueNotEqualToBackerReturns(uint256,uint256)": [
        {
          "notice": "Message value not equal to the profit returns of the backer"
        }
      ],
      "OnlyBackerCanRequestEscrow(uint256,address,address)": [
        {
          "notice": "Only the stake backer can request the contract's escrow"
        }
      ],
      "OnlyOwnerCanKill()": [
        {
          "notice": "Only the owner can kill this contract"
        }
      ],
      "PlayerAlreadyExists(address)": [
        {
          "notice": "A player with this address already exists"
        }
      ],
      "ReturningProfitsSenderIsNotHorse(uint256,address,address)": [
        {
          "notice": "Only the horse can return the profits from a stake"
        }
      ],
      "StakeIsNotCancellable(uint256,uint8)": [
        {
          "notice": "A horse can only cancel a stake when it has only been requested"
        }
      ],
      "StakeNotFillable(uint256)": [
        {
          "notice": "Stake has already been filled/cancelled"
        }
      ],
      "StakeProfitNotReturnable(uint256,uint8)": [
        {
          "notice": "Profits can only be returned if a stake has been filled"
        }
      ],
      "StakingSelf(uint256,address,address)": [
        {
          "notice": "You cannot stake yourself"
        }
      ],
      "ValueDoesNotMatchStakeAmount(uint256,uint256,uint256)": [
        {
          "notice": "Message value doesn't match the requested amount"
        }
      ]
    },
    "kind": "user",
    "methods": {},
    "version": 1
  }
}