{
  "contractName": "Staking",
  "abi": [
    {
      "inputs": [
        {
          "internalType": "address",
          "name": "tokenAddress",
          "type": "address"
        }
      ],
      "stateMutability": "nonpayable",
      "type": "constructor"
    },
    {
      "inputs": [
        {
          "internalType": "uint256",
          "name": "id",
          "type": "uint256"
        },
        {
          "internalType": "enum Staking.StakeStatus",
          "name": "status",
          "type": "uint8"
        }
      ],
      "name": "CanOnlyPlayedFilledStakes",
      "type": "error"
    },
    {
      "inputs": [
        {
          "internalType": "uint256",
          "name": "id",
          "type": "uint256"
        },
        {
          "internalType": "enum Staking.StakeStatus",
          "name": "status",
          "type": "uint8"
        }
      ],
      "name": "CanOnlyReturnEscrowWhenAwaitingReturnPayment",
      "type": "error"
    },
    {
      "inputs": [
        {
          "internalType": "uint256",
          "name": "id",
          "type": "uint256"
        },
        {
          "internalType": "address",
          "name": "canceller",
          "type": "address"
        },
        {
          "internalType": "address",
          "name": "horse",
          "type": "address"
        }
      ],
      "name": "CancellingSenderIsNotHorse",
      "type": "error"
    },
    {
      "inputs": [
        {
          "internalType": "uint256",
          "name": "id",
          "type": "uint256"
        },
        {
          "internalType": "uint256",
          "name": "escrow",
          "type": "uint256"
        }
      ],
      "name": "CannotReturnNoEscrow",
      "type": "error"
    },
    {
      "inputs": [
        {
          "internalType": "uint256",
          "name": "escrow",
          "type": "uint256"
        },
        {
          "internalType": "uint256",
          "name": "value",
          "type": "uint256"
        }
      ],
      "name": "EscrowValueNotMatching",
      "type": "error"
    },
    {
      "inputs": [
        {
          "internalType": "uint256",
          "name": "profitShare",
          "type": "uint256"
        }
      ],
      "name": "InvalidProfitShare",
      "type": "error"
    },
    {
      "inputs": [
        {
          "internalType": "uint256",
          "name": "id",
          "type": "uint256"
        }
      ],
      "name": "InvalidStakeId",
      "type": "error"
    },
    {
      "inputs": [
        {
          "internalType": "uint256",
          "name": "value",
          "type": "uint256"
        },
        {
          "internalType": "uint256",
          "name": "backerReturns",
          "type": "uint256"
        }
      ],
      "name": "MessageValueNotEqualToBackerReturns",
      "type": "error"
    },
    {
      "inputs": [
        {
          "internalType": "uint256",
          "name": "id",
          "type": "uint256"
        },
        {
          "internalType": "address",
          "name": "sender",
          "type": "address"
        }
      ],
      "name": "OnlyBackerCanRequestEscrow",
      "type": "error"
    },
    {
      "inputs": [],
      "name": "OnlyOwnerCanKill",
      "type": "error"
    },
    {
      "inputs": [
        {
          "internalType": "address",
          "name": "playerAddress",
          "type": "address"
        }
      ],
      "name": "PlayerAlreadyExists",
      "type": "error"
    },
    {
      "inputs": [
        {
          "internalType": "address",
          "name": "sender",
          "type": "address"
        }
      ],
      "name": "PlayerDoesNotExist",
      "type": "error"
    },
    {
      "inputs": [
        {
          "internalType": "address",
          "name": "playerAddress",
          "type": "address"
        }
      ],
      "name": "PlayerDoesntExist",
      "type": "error"
    },
    {
      "inputs": [
        {
          "internalType": "address",
          "name": "player",
          "type": "address"
        }
      ],
      "name": "PlayerNotAllowedToCreateStake",
      "type": "error"
    },
    {
      "inputs": [
        {
          "internalType": "uint256",
          "name": "id",
          "type": "uint256"
        },
        {
          "internalType": "address",
          "name": "sender",
          "type": "address"
        },
        {
          "internalType": "address",
          "name": "horse",
          "type": "address"
        }
      ],
      "name": "ReturningProfitsSenderIsNotHorse",
      "type": "error"
    },
    {
      "inputs": [
        {
          "internalType": "uint256",
          "name": "id",
          "type": "uint256"
        },
        {
          "internalType": "enum Staking.StakeStatus",
          "name": "status",
          "type": "uint8"
        }
      ],
      "name": "StakeIsNotCancellable",
      "type": "error"
    },
    {
      "inputs": [
        {
          "internalType": "uint256",
          "name": "id",
          "type": "uint256"
        },
        {
          "internalType": "enum Staking.StakeStatus",
          "name": "status",
          "type": "uint8"
        }
      ],
      "name": "StakeIsNotExpirable",
      "type": "error"
    },
    {
      "inputs": [
        {
          "internalType": "uint256",
          "name": "id",
          "type": "uint256"
        }
      ],
      "name": "StakeNotFillable",
      "type": "error"
    },
    {
      "inputs": [
        {
          "internalType": "uint256",
          "name": "id",
          "type": "uint256"
        },
        {
          "internalType": "enum Staking.StakeStatus",
          "name": "status",
          "type": "uint8"
        }
      ],
      "name": "StakeProfitNotReturnable",
      "type": "error"
    },
    {
      "inputs": [
        {
          "internalType": "uint256",
          "name": "id",
          "type": "uint256"
        },
        {
          "internalType": "uint256",
          "name": "stakedAmount",
          "type": "uint256"
        },
        {
          "internalType": "uint256",
          "name": "remainingAmount",
          "type": "uint256"
        }
      ],
      "name": "StakedMoreThanRemaining",
      "type": "error"
    },
    {
      "inputs": [
        {
          "internalType": "uint256",
          "name": "id",
          "type": "uint256"
        },
        {
          "internalType": "address",
          "name": "horse",
          "type": "address"
        },
        {
          "internalType": "address",
          "name": "backer",
          "type": "address"
        }
      ],
      "name": "StakingSelf",
      "type": "error"
    },
    {
      "inputs": [
        {
          "internalType": "uint256",
          "name": "amount",
          "type": "uint256"
        },
        {
          "internalType": "uint256",
          "name": "value",
          "type": "uint256"
        }
      ],
      "name": "ValueAndAmountDoNotMatch",
      "type": "error"
    },
    {
      "anonymous": false,
      "inputs": [
        {
          "indexed": false,
          "internalType": "uint256",
          "name": "id",
          "type": "uint256"
        },
        {
          "indexed": false,
          "internalType": "uint256",
          "name": "escrow",
          "type": "uint256"
        },
        {
          "indexed": false,
          "internalType": "address",
          "name": "backer",
          "type": "address"
        }
      ],
      "name": "EscrowClaimed",
      "type": "event"
    },
    {
      "anonymous": false,
      "inputs": [
        {
          "indexed": false,
          "internalType": "uint256",
          "name": "id",
          "type": "uint256"
        },
        {
          "indexed": false,
          "internalType": "int256",
          "name": "pnl",
          "type": "int256"
        },
        {
          "indexed": false,
          "internalType": "uint256",
          "name": "backerReturns",
          "type": "uint256"
        }
      ],
      "name": "GamePlayed",
      "type": "event"
    },
    {
      "anonymous": false,
      "inputs": [
        {
          "indexed": false,
          "internalType": "address",
          "name": "playerAddress",
          "type": "address"
        },
        {
          "indexed": false,
          "internalType": "string",
          "name": "apiId",
          "type": "string"
        },
        {
          "indexed": false,
          "internalType": "string",
          "name": "name",
          "type": "string"
        },
        {
          "indexed": false,
          "internalType": "string",
          "name": "sharkscopeLink",
          "type": "string"
        },
        {
          "indexed": false,
          "internalType": "string",
          "name": "profilePicPath",
          "type": "string"
        }
      ],
      "name": "PlayerCreated",
      "type": "event"
    },
    {
      "anonymous": false,
      "inputs": [
        {
          "indexed": false,
          "internalType": "address",
          "name": "playerAddress",
          "type": "address"
        }
      ],
      "name": "PlayerEdited",
      "type": "event"
    },
    {
      "anonymous": false,
      "inputs": [
        {
          "indexed": false,
          "internalType": "uint256",
          "name": "id",
          "type": "uint256"
        },
        {
          "indexed": false,
          "internalType": "uint256",
          "name": "backerReturns",
          "type": "uint256"
        }
      ],
      "name": "ProfitsReturned",
      "type": "event"
    },
    {
      "anonymous": false,
      "inputs": [
        {
          "indexed": false,
          "internalType": "uint256",
          "name": "id",
          "type": "uint256"
        }
      ],
      "name": "StakeCancelled",
      "type": "event"
    },
    {
      "anonymous": false,
      "inputs": [
        {
          "indexed": false,
          "internalType": "uint256",
          "name": "id",
          "type": "uint256"
        }
      ],
      "name": "StakeExpired",
      "type": "event"
    },
    {
      "anonymous": false,
      "inputs": [
        {
          "components": [
            {
              "internalType": "uint256",
              "name": "id",
              "type": "uint256"
            },
            {
              "internalType": "address payable",
              "name": "horse",
              "type": "address"
            },
            {
              "components": [
                {
                  "internalType": "address payable[]",
                  "name": "backers",
                  "type": "address[]"
                },
                {
                  "internalType": "uint256[]",
                  "name": "investments",
                  "type": "uint256[]"
                },
                {
                  "internalType": "uint256[]",
                  "name": "backerReturns",
                  "type": "uint256[]"
                },
                {
                  "internalType": "uint256",
                  "name": "filledAmount",
                  "type": "uint256"
                },
                {
                  "internalType": "uint256",
                  "name": "playThreshold",
                  "type": "uint256"
                }
              ],
              "internalType": "struct Staking.InvestmentDetails",
              "name": "investmentDetails",
              "type": "tuple"
            },
            {
              "internalType": "uint256",
              "name": "amount",
              "type": "uint256"
            },
            {
              "internalType": "uint256",
              "name": "escrow",
              "type": "uint256"
            },
            {
              "internalType": "uint256",
              "name": "profitShare",
              "type": "uint256"
            },
            {
              "internalType": "int256",
              "name": "pnl",
              "type": "int256"
            },
            {
              "internalType": "uint256",
              "name": "backerReturns",
              "type": "uint256"
            },
            {
              "internalType": "enum Staking.StakeStatus",
              "name": "status",
              "type": "uint8"
            },
            {
              "internalType": "enum Staking.GameType",
              "name": "gameType",
              "type": "uint8"
            },
            {
              "internalType": "string",
              "name": "apiId",
              "type": "string"
            },
            {
              "components": [
                {
                  "internalType": "uint256",
                  "name": "createdTimestamp",
                  "type": "uint256"
                },
                {
                  "internalType": "uint256",
                  "name": "lastFilledTimestamp",
                  "type": "uint256"
                },
                {
                  "internalType": "uint256",
                  "name": "gamePlayedTimestamp",
                  "type": "uint256"
                },
                {
                  "internalType": "uint256",
                  "name": "scheduledForTimestamp",
                  "type": "uint256"
                }
              ],
              "internalType": "struct Staking.StakeTimeStamp",
              "name": "stakeTimeStamp",
              "type": "tuple"
            }
          ],
          "indexed": false,
          "internalType": "struct Staking.Stake",
          "name": "stake",
          "type": "tuple"
        }
      ],
      "name": "StakeFilled",
      "type": "event"
    },
    {
      "anonymous": false,
      "inputs": [
        {
          "components": [
            {
              "internalType": "uint256",
              "name": "id",
              "type": "uint256"
            },
            {
              "internalType": "address payable",
              "name": "horse",
              "type": "address"
            },
            {
              "components": [
                {
                  "internalType": "address payable[]",
                  "name": "backers",
                  "type": "address[]"
                },
                {
                  "internalType": "uint256[]",
                  "name": "investments",
                  "type": "uint256[]"
                },
                {
                  "internalType": "uint256[]",
                  "name": "backerReturns",
                  "type": "uint256[]"
                },
                {
                  "internalType": "uint256",
                  "name": "filledAmount",
                  "type": "uint256"
                },
                {
                  "internalType": "uint256",
                  "name": "playThreshold",
                  "type": "uint256"
                }
              ],
              "internalType": "struct Staking.InvestmentDetails",
              "name": "investmentDetails",
              "type": "tuple"
            },
            {
              "internalType": "uint256",
              "name": "amount",
              "type": "uint256"
            },
            {
              "internalType": "uint256",
              "name": "escrow",
              "type": "uint256"
            },
            {
              "internalType": "uint256",
              "name": "profitShare",
              "type": "uint256"
            },
            {
              "internalType": "int256",
              "name": "pnl",
              "type": "int256"
            },
            {
              "internalType": "uint256",
              "name": "backerReturns",
              "type": "uint256"
            },
            {
              "internalType": "enum Staking.StakeStatus",
              "name": "status",
              "type": "uint8"
            },
            {
              "internalType": "enum Staking.GameType",
              "name": "gameType",
              "type": "uint8"
            },
            {
              "internalType": "string",
              "name": "apiId",
              "type": "string"
            },
            {
              "components": [
                {
                  "internalType": "uint256",
                  "name": "createdTimestamp",
                  "type": "uint256"
                },
                {
                  "internalType": "uint256",
                  "name": "lastFilledTimestamp",
                  "type": "uint256"
                },
                {
                  "internalType": "uint256",
                  "name": "gamePlayedTimestamp",
                  "type": "uint256"
                },
                {
                  "internalType": "uint256",
                  "name": "scheduledForTimestamp",
                  "type": "uint256"
                }
              ],
              "internalType": "struct Staking.StakeTimeStamp",
              "name": "stakeTimeStamp",
              "type": "tuple"
            }
          ],
          "indexed": false,
          "internalType": "struct Staking.Stake",
          "name": "stake",
          "type": "tuple"
        }
      ],
      "name": "StakeRequested",
      "type": "event"
    },
    {
      "inputs": [],
      "name": "owner",
      "outputs": [
        {
          "internalType": "address payable",
          "name": "",
          "type": "address"
        }
      ],
      "stateMutability": "view",
      "type": "function",
      "constant": true
    },
    {
      "inputs": [
        {
          "internalType": "address",
          "name": "",
          "type": "address"
        }
      ],
      "name": "players",
      "outputs": [
        {
          "internalType": "address payable",
          "name": "playerAddress",
          "type": "address"
        },
        {
          "internalType": "string",
          "name": "apiId",
          "type": "string"
        },
        {
          "internalType": "string",
          "name": "name",
          "type": "string"
        },
        {
          "internalType": "string",
          "name": "sharkscopeLink",
          "type": "string"
        },
        {
          "internalType": "string",
          "name": "profilePicPath",
          "type": "string"
        },
        {
          "internalType": "uint256",
          "name": "createdTimestamp",
          "type": "uint256"
        },
        {
          "internalType": "bool",
          "name": "canCreateStake",
          "type": "bool"
        }
      ],
      "stateMutability": "view",
      "type": "function",
      "constant": true
    },
    {
      "inputs": [],
      "name": "requestCount",
      "outputs": [
        {
          "internalType": "uint256",
          "name": "",
          "type": "uint256"
        }
      ],
      "stateMutability": "view",
      "type": "function",
      "constant": true
    },
    {
      "inputs": [
        {
          "internalType": "uint256",
          "name": "",
          "type": "uint256"
        }
      ],
      "name": "stakes",
      "outputs": [
        {
          "internalType": "uint256",
          "name": "id",
          "type": "uint256"
        },
        {
          "internalType": "address payable",
          "name": "horse",
          "type": "address"
        },
        {
          "components": [
            {
              "internalType": "address payable[]",
              "name": "backers",
              "type": "address[]"
            },
            {
              "internalType": "uint256[]",
              "name": "investments",
              "type": "uint256[]"
            },
            {
              "internalType": "uint256[]",
              "name": "backerReturns",
              "type": "uint256[]"
            },
            {
              "internalType": "uint256",
              "name": "filledAmount",
              "type": "uint256"
            },
            {
              "internalType": "uint256",
              "name": "playThreshold",
              "type": "uint256"
            }
          ],
          "internalType": "struct Staking.InvestmentDetails",
          "name": "investmentDetails",
          "type": "tuple"
        },
        {
          "internalType": "uint256",
          "name": "amount",
          "type": "uint256"
        },
        {
          "internalType": "uint256",
          "name": "escrow",
          "type": "uint256"
        },
        {
          "internalType": "uint256",
          "name": "profitShare",
          "type": "uint256"
        },
        {
          "internalType": "int256",
          "name": "pnl",
          "type": "int256"
        },
        {
          "internalType": "uint256",
          "name": "backerReturns",
          "type": "uint256"
        },
        {
          "internalType": "enum Staking.StakeStatus",
          "name": "status",
          "type": "uint8"
        },
        {
          "internalType": "enum Staking.GameType",
          "name": "gameType",
          "type": "uint8"
        },
        {
          "internalType": "string",
          "name": "apiId",
          "type": "string"
        },
        {
          "components": [
            {
              "internalType": "uint256",
              "name": "createdTimestamp",
              "type": "uint256"
            },
            {
              "internalType": "uint256",
              "name": "lastFilledTimestamp",
              "type": "uint256"
            },
            {
              "internalType": "uint256",
              "name": "gamePlayedTimestamp",
              "type": "uint256"
            },
            {
              "internalType": "uint256",
              "name": "scheduledForTimestamp",
              "type": "uint256"
            }
          ],
          "internalType": "struct Staking.StakeTimeStamp",
          "name": "stakeTimeStamp",
          "type": "tuple"
        }
      ],
      "stateMutability": "view",
      "type": "function",
      "constant": true
    },
    {
      "inputs": [],
      "name": "token",
      "outputs": [
        {
          "internalType": "contract Token",
          "name": "",
          "type": "address"
        }
      ],
      "stateMutability": "view",
      "type": "function",
      "constant": true
    },
    {
      "inputs": [
        {
          "internalType": "string",
          "name": "apiId",
          "type": "string"
        },
        {
          "internalType": "string",
          "name": "name",
          "type": "string"
        },
        {
          "internalType": "string",
          "name": "sharkscopeLink",
          "type": "string"
        },
        {
          "internalType": "string",
          "name": "profilePicPath",
          "type": "string"
        }
      ],
      "name": "createPlayer",
      "outputs": [],
      "stateMutability": "payable",
      "type": "function",
      "payable": true
    },
    {
      "inputs": [
        {
          "internalType": "address",
          "name": "add",
          "type": "address"
        }
      ],
      "name": "getPlayer",
      "outputs": [
        {
          "components": [
            {
              "internalType": "address payable",
              "name": "playerAddress",
              "type": "address"
            },
            {
              "internalType": "string",
              "name": "apiId",
              "type": "string"
            },
            {
              "internalType": "string",
              "name": "name",
              "type": "string"
            },
            {
              "internalType": "string",
              "name": "sharkscopeLink",
              "type": "string"
            },
            {
              "internalType": "string",
              "name": "profilePicPath",
              "type": "string"
            },
            {
              "internalType": "uint256[]",
              "name": "stakeIds",
              "type": "uint256[]"
            },
            {
              "internalType": "uint256",
              "name": "createdTimestamp",
              "type": "uint256"
            },
            {
              "internalType": "bool",
              "name": "canCreateStake",
              "type": "bool"
            }
          ],
          "internalType": "struct Staking.Player",
          "name": "",
          "type": "tuple"
        }
      ],
      "stateMutability": "view",
      "type": "function",
      "constant": true
    },
    {
      "inputs": [
        {
          "internalType": "string",
          "name": "name",
          "type": "string"
        },
        {
          "internalType": "string",
          "name": "sharkscopeLink",
          "type": "string"
        },
        {
          "internalType": "string",
          "name": "profilePicPath",
          "type": "string"
        }
      ],
      "name": "editPlayer",
      "outputs": [],
      "stateMutability": "nonpayable",
      "type": "function"
    },
    {
      "inputs": [],
      "name": "kill",
      "outputs": [],
      "stateMutability": "nonpayable",
      "type": "function"
    },
    {
      "inputs": [
        {
          "internalType": "uint256",
          "name": "id",
          "type": "uint256"
        }
      ],
      "name": "getStake",
      "outputs": [
        {
          "components": [
            {
              "internalType": "uint256",
              "name": "id",
              "type": "uint256"
            },
            {
              "internalType": "address payable",
              "name": "horse",
              "type": "address"
            },
            {
              "components": [
                {
                  "internalType": "address payable[]",
                  "name": "backers",
                  "type": "address[]"
                },
                {
                  "internalType": "uint256[]",
                  "name": "investments",
                  "type": "uint256[]"
                },
                {
                  "internalType": "uint256[]",
                  "name": "backerReturns",
                  "type": "uint256[]"
                },
                {
                  "internalType": "uint256",
                  "name": "filledAmount",
                  "type": "uint256"
                },
                {
                  "internalType": "uint256",
                  "name": "playThreshold",
                  "type": "uint256"
                }
              ],
              "internalType": "struct Staking.InvestmentDetails",
              "name": "investmentDetails",
              "type": "tuple"
            },
            {
              "internalType": "uint256",
              "name": "amount",
              "type": "uint256"
            },
            {
              "internalType": "uint256",
              "name": "escrow",
              "type": "uint256"
            },
            {
              "internalType": "uint256",
              "name": "profitShare",
              "type": "uint256"
            },
            {
              "internalType": "int256",
              "name": "pnl",
              "type": "int256"
            },
            {
              "internalType": "uint256",
              "name": "backerReturns",
              "type": "uint256"
            },
            {
              "internalType": "enum Staking.StakeStatus",
              "name": "status",
              "type": "uint8"
            },
            {
              "internalType": "enum Staking.GameType",
              "name": "gameType",
              "type": "uint8"
            },
            {
              "internalType": "string",
              "name": "apiId",
              "type": "string"
            },
            {
              "components": [
                {
                  "internalType": "uint256",
                  "name": "createdTimestamp",
                  "type": "uint256"
                },
                {
                  "internalType": "uint256",
                  "name": "lastFilledTimestamp",
                  "type": "uint256"
                },
                {
                  "internalType": "uint256",
                  "name": "gamePlayedTimestamp",
                  "type": "uint256"
                },
                {
                  "internalType": "uint256",
                  "name": "scheduledForTimestamp",
                  "type": "uint256"
                }
              ],
              "internalType": "struct Staking.StakeTimeStamp",
              "name": "stakeTimeStamp",
              "type": "tuple"
            }
          ],
          "internalType": "struct Staking.Stake",
          "name": "",
          "type": "tuple"
        }
      ],
      "stateMutability": "view",
      "type": "function",
      "constant": true
    },
    {
      "inputs": [
        {
          "internalType": "uint256",
          "name": "amount",
          "type": "uint256"
        },
        {
          "internalType": "uint256",
          "name": "profitShare",
          "type": "uint256"
        },
        {
          "internalType": "uint256",
          "name": "escrow",
          "type": "uint256"
        },
        {
          "internalType": "uint256",
          "name": "playThreshold",
          "type": "uint256"
        },
        {
          "internalType": "enum Staking.GameType",
          "name": "gameType",
          "type": "uint8"
        },
        {
          "internalType": "string",
          "name": "apiId",
          "type": "string"
        },
        {
          "internalType": "uint256",
          "name": "scheduledFor",
          "type": "uint256"
        }
      ],
      "name": "createRequest",
      "outputs": [],
      "stateMutability": "payable",
      "type": "function",
      "payable": true
    },
    {
      "inputs": [
        {
          "internalType": "uint256",
          "name": "id",
          "type": "uint256"
        },
        {
          "internalType": "uint256",
          "name": "amount",
          "type": "uint256"
        }
      ],
      "name": "stakeHorse",
      "outputs": [],
      "stateMutability": "payable",
      "type": "function",
      "payable": true
    },
    {
      "inputs": [
        {
          "internalType": "uint256",
          "name": "id",
          "type": "uint256"
        }
      ],
      "name": "expireStake",
      "outputs": [],
      "stateMutability": "nonpayable",
      "type": "function"
    },
    {
      "inputs": [
        {
          "internalType": "uint256",
          "name": "id",
          "type": "uint256"
        }
      ],
      "name": "cancelStakeAsHorse",
      "outputs": [],
      "stateMutability": "nonpayable",
      "type": "function"
    },
    {
      "inputs": [
        {
          "internalType": "uint256",
          "name": "id",
          "type": "uint256"
        }
      ],
      "name": "returnProfits",
      "outputs": [],
      "stateMutability": "payable",
      "type": "function",
      "payable": true
    },
    {
      "inputs": [
        {
          "internalType": "uint256",
          "name": "id",
          "type": "uint256"
        },
        {
          "internalType": "int256",
          "name": "pnl",
          "type": "int256"
        }
      ],
      "name": "gamePlayed",
      "outputs": [],
      "stateMutability": "nonpayable",
      "type": "function"
    },
    {
      "inputs": [
        {
          "internalType": "uint256",
          "name": "id",
          "type": "uint256"
        }
      ],
      "name": "backerClaimEscrow",
      "outputs": [],
      "stateMutability": "nonpayable",
      "type": "function"
    }
  ],
  "bytecode": "0x608060405260006001553480156200001657600080fd5b50604051620040413803806200404183398101604081905262000039916200006d565b60038054336001600160a01b031991821617909155600080549091166001600160a01b03929092169190911790556200009f565b6000602082840312156200008057600080fd5b81516001600160a01b03811681146200009857600080fd5b9392505050565b613f9280620000af6000396000f3fe6080604052600436106100fe5760003560e01c80635f90477511610095578063ce325bf811610064578063ce325bf814610281578063d5a44f86146102ae578063d8aedc55146102e6578063e2eb41ff146102f9578063fc0c546a1461032c57600080fd5b80635f904775146102035780635f9af981146102235780638da5cb5b14610236578063a9b25f7b1461026e57600080fd5b806353da1bd0116100d157806353da1bd01461016d5780635badbe4c1461018d5780635c12cd4b146101b65780635dee65dc146101e357600080fd5b80630be3721d146101035780631a55d43b1461011857806341c0e1b51461013857806352ec50ce1461014d575b600080fd5b6101166101113660046133d1565b61034c565b005b34801561012457600080fd5b506101166101333660046133d1565b610799565b34801561014457600080fd5b50610116610e6d565b34801561015957600080fd5b5061011661016836600461348d565b610ea6565b34801561017957600080fd5b506101166101883660046133d1565b610fbf565b34801561019957600080fd5b506101a360015481565b6040519081526020015b60405180910390f35b3480156101c257600080fd5b506101d66101d1366004613515565b6112c8565b6040516101ad91906135cd565b3480156101ef57600080fd5b506101166101fe3660046136a4565b61160f565b34801561020f57600080fd5b5061011661021e3660046133d1565b6118f6565b6101166102313660046136c6565b611edf565b34801561024257600080fd5b50600354610256906001600160a01b031681565b6040516001600160a01b0390911681526020016101ad565b61011661027c3660046136a4565b61226c565b34801561028d57600080fd5b506102a161029c3660046133d1565b61280b565b6040516101ad919061381e565b3480156102ba57600080fd5b506102ce6102c93660046133d1565b612b15565b6040516101ad9c9b9a99989796959493929190613918565b6101166102f43660046139d5565b612d68565b34801561030557600080fd5b50610319610314366004613515565b612eb3565b6040516101ad9796959493929190613a82565b34801561033857600080fd5b50600054610256906001600160a01b031681565b610357816001541190565b61037c576040516333200a8b60e11b8152600481018290526024015b60405180910390fd5b600081815260026020526040902060018101546001600160a01b031633146103d5576001810154604051636764e9b760e01b8152600481018490523360248201526001600160a01b039091166044820152606401610373565b6004600c82015460ff1660078111156103f0576103f06137e4565b1461041b57600c81015460405163fb98578360e01b815261037391849160ff90911690600401613afc565b60005b6002820154811015610513576000546002830180546001600160a01b03909216916323b872dd9133918590811061045757610457613b10565b6000918252602090912001546004860180546001600160a01b03909216918690811061048557610485613b10565b90600052602060002001546040518463ffffffff1660e01b81526004016104ae93929190613b26565b602060405180830381600087803b1580156104c857600080fd5b505af11580156104dc573d6000803e3d6000fd5b505050506040513d601f19601f820116820180604052508101906105009190613b4a565b508061050b81613b82565b91505061041e565b506008810154156105b0576000546001820154600883015460405163a9059cbb60e01b81526001600160a01b039283166004820152602481019190915291169063a9059cbb90604401602060405180830381600087803b15801561057657600080fd5b505af115801561058a573d6000803e3d6000fd5b505050506040513d601f19601f820116820180604052508101906105ae9190613b4a565b505b600c810180546005919060ff19166001830217905550600181810180546001600160a01b039081166000908152600460209081526040808320600701805460ff19168717905587835260029182905290912085548155925493830180546001600160a01b0319169490921693909317905581830180548493830190610638908290849061311c565b506001828101805461064d928401919061311c565b5060028281018054610662928401919061311c565b5060038281015490820155600491820154910155600782810154828201556008808401549083015560098084015490830155600a8084015490830155600b8084015490830155600c80840154908301805460ff90921692909160ff19169060019084908111156106d4576106d46137e4565b0217905550600c82810154908201805460ff61010093849004169261ff001990911690836001811115610709576107096137e4565b0217905550600d820181600d0190805461072290613b9d565b61072d92919061316c565b50600e8281015490820155600f808301549082015560108083015490820155601191820154910155600b8101546040805184815260208101929092527f120c71dc5e7cec3dab59d0ac108c8fcf42b7789d60d79cadf046b35476c321b991015b60405180910390a15050565b6107a4816001541190565b6107c4576040516333200a8b60e11b815260048101829052602401610373565b60008181526002602081815260408084208151610180810183528154815260018201546001600160a01b0316818501528251948201805460c095810287018601855260a087018181529296939594870194919284929091849184018282801561085657602002820191906000526020600020905b81546001600160a01b03168152600190910190602001808311610838575b50505050508152602001600182018054806020026020016040519081016040528092919081815260200182805480156108ae57602002820191906000526020600020905b81548152602001906001019080831161089a575b505050505081526020016002820180548060200260200160405190810160405280929190818152602001828054801561090657602002820191906000526020600020905b8154815260200190600101908083116108f2575b50505050508152602001600382015481526020016004820154815250508152602001600782015481526020016008820154815260200160098201548152602001600a8201548152602001600b8201548152602001600c820160009054906101000a900460ff16600781111561097d5761097d6137e4565b600781111561098e5761098e6137e4565b8152602001600c820160019054906101000a900460ff1660018111156109b6576109b66137e4565b60018111156109c7576109c76137e4565b8152602001600d820180546109db90613b9d565b80601f0160208091040260200160405190810160405280929190818152602001828054610a0790613b9d565b8015610a545780601f10610a2957610100808354040283529160200191610a54565b820191906000526020600020905b815481529060010190602001808311610a3757829003601f168201915b505050918352505060408051608081018252600e8401548152600f84015460208281019190915260108501549282019290925260119093015460608401520152905060008161010001516007811115610aaf57610aaf6137e4565b14158015610ad4575060078161010001516007811115610ad157610ad16137e4565b14155b15610afa5761010081015160405163c17f7b2360e01b8152610373918491600401613afc565b60078161010001516007811115610b1357610b136137e4565b1415610c1a5760005b60408201515151811015610c185760005460408301515180516001600160a01b039092169163a9059cbb919084908110610b5857610b58613b10565b60200260200101518460400151602001518481518110610b7a57610b7a613b10565b60200260200101516040518363ffffffff1660e01b8152600401610bb39291906001600160a01b03929092168252602082015260400190565b602060405180830381600087803b158015610bcd57600080fd5b505af1158015610be1573d6000803e3d6000fd5b505050506040513d601f19601f82011682018060405250810190610c059190613b4a565b5080610c1081613b82565b915050610b1c565b505b608081015115610cb6576000546020820151608083015160405163a9059cbb60e01b81526001600160a01b039283166004820152602481019190915291169063a9059cbb90604401602060405180830381600087803b158015610c7c57600080fd5b505af1158015610c90573d6000803e3d6000fd5b505050506040513d601f19601f82011682018060405250810190610cb49190613b4a565b505b600261010082018190526000838152602082815260409182902084518155818501516001820180546001600160a01b0319166001600160a01b0390921691909117905591840151805180518695929392850192610d179284929101906131e6565b506020828101518051610d30926001850192019061323b565b5060408201518051610d4c91600284019160209091019061323b565b5060608201518160030155608082015181600401555050606082015181600701556080820151816008015560a0820151816009015560c082015181600a015560e082015181600b015561010082015181600c0160006101000a81548160ff02191690836007811115610dc057610dc06137e4565b0217905550610120820151600c8201805461ff001916610100836001811115610deb57610deb6137e4565b02179055506101408201518051610e0c91600d840191602090910190613276565b5061016091909101518051600e830155602080820151600f8401556040808301516010850155606090920151601190930192909255518381527f6c34b941d3225b0d595f0c4a79b97e492c627f68a9b6c9e21084e68511f618c2910161078d565b6003546001600160a01b03163314610e985760405163102fe0af60e11b815260040160405180910390fd5b6003546001600160a01b0316ff5b336000908152600460205260409020546001600160a01b0316610f11576040513381527f2331a775e7acafeac91fb7978e92af7120c11dec8c6e73fd7f2be8ab7a92aee09060200160405180910390a1604051631c56515760e31b8152336004820152602401610373565b3360009081526004602090815260409091208451610f3792600290920191860190613276565b503360009081526004602090815260409091208351610f5e92600390920191850190613276565b503360009081526004602081815260409092208351610f8593919092019190840190613276565b506040513381527f2331a775e7acafeac91fb7978e92af7120c11dec8c6e73fd7f2be8ab7a92aee0906020015b60405180910390a1505050565b610fca816001541190565b610fea576040516333200a8b60e11b815260048101829052602401610373565b60046000828152600260205260409020600c015460ff166007811115611012576110126137e4565b1461104b5760008181526002602052604090819020600c01549051630c68324760e11b815261037391839160ff90911690600401613afc565b6000818152600260205260409020600801546110985760008181526002602052604090819020600801549051634889d8e160e11b8152610373918391600401918252602082015260400190565b6000805b60008381526002602081905260409091200154811015611240576000838152600260208190526040909120018054829081106110da576110da613b10565b6000918252602090912001546001600160a01b031633141561122e57600080548482526002602081905260409092209091018054600194506001600160a01b039092169163a9059cbb91908490811061113557611135613b10565b6000918252602080832090910154878352600290915260409091206005810154600390910180546001600160a01b03909316928690811061117857611178613b10565b906000526020600020015460026000898152602001908152602001600020600801546111a49190613bd8565b6111ae9190613bf7565b6040516001600160e01b031960e085901b1681526001600160a01b0390921660048301526024820152604401602060405180830381600087803b1580156111f457600080fd5b505af1158015611208573d6000803e3d6000fd5b505050506040513d601f19601f8201168201806040525081019061122c9190613b4a565b505b8061123881613b82565b91505061109c565b5080611268576040516305a16d1960e31b815260048101839052336024820152604401610373565b600082815260026020908152604091829020600c8101805460ff191660061790556008015482518581529182015233918101919091527fa768e527233d17984f1796f3e374ca38761c79bc6e27ae499cb41343983a69979060600161078d565b61131b60405180610100016040528060006001600160a01b031681526020016060815260200160608152602001606081526020016060815260200160608152602001600081526020016000151581525090565b6001600160a01b0380831660009081526004602090815260409182902082516101008101909352805490931682526001830180549293929184019161135f90613b9d565b80601f016020809104026020016040519081016040528092919081815260200182805461138b90613b9d565b80156113d85780601f106113ad576101008083540402835291602001916113d8565b820191906000526020600020905b8154815290600101906020018083116113bb57829003601f168201915b505050505081526020016002820180546113f190613b9d565b80601f016020809104026020016040519081016040528092919081815260200182805461141d90613b9d565b801561146a5780601f1061143f5761010080835404028352916020019161146a565b820191906000526020600020905b81548152906001019060200180831161144d57829003601f168201915b5050505050815260200160038201805461148390613b9d565b80601f01602080910402602001604051908101604052809291908181526020018280546114af90613b9d565b80156114fc5780601f106114d1576101008083540402835291602001916114fc565b820191906000526020600020905b8154815290600101906020018083116114df57829003601f168201915b5050505050815260200160048201805461151590613b9d565b80601f016020809104026020016040519081016040528092919081815260200182805461154190613b9d565b801561158e5780601f106115635761010080835404028352916020019161158e565b820191906000526020600020905b81548152906001019060200180831161157157829003601f168201915b50505050508152602001600582018054806020026020016040519081016040528092919081815260200182805480156115e657602002820191906000526020600020905b8154815260200190600101908083116115d2575b50505091835250506006820154602082015260079091015460ff16151560409091015292915050565b61161a826001541190565b61163a576040516333200a8b60e11b815260048101839052602401610373565b60016000838152600260205260409020600c015460ff166007811115611662576116626137e4565b14806116b5575060076000838152600260205260409020600c015460ff166007811115611691576116916137e4565b1480156116b557506000828152600260205260409020600681015460059091015410155b6116ed5760008281526002602052604090819020600c01549051634696731360e11b815261037391849160ff90911690600401613afc565b60008082121561176757600083815260026020526040812060050154611714908490613c19565b905060008113611741576000848152600260205260408120600c01805460ff191660051790559150611761565b6000848152600260205260409020600c01805460ff191660041790559050805b506117cb565b6000838152600260205260409020600901546064906117869084613bd8565b6117909190613bf7565b6000848152600260205260409020600501546117ac9190613c5a565b6000848152600260205260409020600c01805460ff1916600417905590505b60005b600084815260026020819052604090912001548110156118735760008481526002602052604090206005810154600390910180548390811061181257611812613b10565b9060005260206000200154836118289190613bd8565b6118329190613bf7565b600085815260026020526040902060040180548390811061185557611855613b10565b6000918252602090912001558061186b81613b82565b9150506117ce565b506000838152600260209081526040808320600a8101869055600b8101859055426010820155600101546001600160a01b031683526004825291829020600701805460ff1916905581518581529081018490529081018290527f16c789abef2652197ccb19511e836a8f2ef9394a419b3cff6efb5fa69de8271c90606001610fb2565b611901816001541190565b611921576040516333200a8b60e11b815260048101829052602401610373565b60008181526002602081815260408084208151610180810183528154815260018201546001600160a01b0316818501528251948201805460c095810287018601855260a08701818152929693959487019491928492909184918401828280156119b357602002820191906000526020600020905b81546001600160a01b03168152600190910190602001808311611995575b5050505050815260200160018201805480602002602001604051908101604052809291908181526020018280548015611a0b57602002820191906000526020600020905b8154815260200190600101908083116119f7575b5050505050815260200160028201805480602002602001604051908101604052809291908181526020018280548015611a6357602002820191906000526020600020905b815481526020019060010190808311611a4f575b50505050508152602001600382015481526020016004820154815250508152602001600782015481526020016008820154815260200160098201548152602001600a8201548152602001600b8201548152602001600c820160009054906101000a900460ff166007811115611ada57611ada6137e4565b6007811115611aeb57611aeb6137e4565b8152602001600c820160019054906101000a900460ff166001811115611b1357611b136137e4565b6001811115611b2457611b246137e4565b8152602001600d82018054611b3890613b9d565b80601f0160208091040260200160405190810160405280929190818152602001828054611b6490613b9d565b8015611bb15780601f10611b8657610100808354040283529160200191611bb1565b820191906000526020600020905b815481529060010190602001808311611b9457829003601f168201915b50505050508152602001600e820160405180608001604052908160008201548152602001600182015481526020016002820154815260200160038201548152505081525050905080602001516001600160a01b0316336001600160a01b031614611c4c57602081015160405163fc1bd14560e01b8152600481018490523360248201526001600160a01b039091166044820152606401610373565b60008161010001516007811115611c6557611c656137e4565b14611c8b5761010081015160405163050ec7a160e31b8152610373918491600401613afc565b608081015115611d27576000546020820151608083015160405163a9059cbb60e01b81526001600160a01b039283166004820152602481019190915291169063a9059cbb90604401602060405180830381600087803b158015611ced57600080fd5b505af1158015611d01573d6000803e3d6000fd5b505050506040513d601f19601f82011682018060405250810190611d259190613b4a565b505b600361010082015260008281526002602081815260409283902084518155818501516001820180546001600160a01b0319166001600160a01b039092169190911790559284015180518051869594929392850192611d899284929101906131e6565b506020828101518051611da2926001850192019061323b565b5060408201518051611dbe91600284019160209091019061323b565b5060608201518160030155608082015181600401555050606082015181600701556080820151816008015560a0820151816009015560c082015181600a015560e082015181600b015561010082015181600c0160006101000a81548160ff02191690836007811115611e3257611e326137e4565b0217905550610120820151600c8201805461ff001916610100836001811115611e5d57611e5d6137e4565b02179055506101408201518051611e7e91600d840191602090910190613276565b5061016091909101518051600e830155602080820151600f8401556040808301516010850155606090920151601190930192909255518381527f5d556abff222ff6c24a87f221f26036806352e4b08fb27b5a885d5f0064264a4910161078d565b336000908152600460205260409020546001600160a01b0316611f175760405163a125d24160e01b8152336004820152602401610373565b3360009081526004602052604090206007015460ff16611f4c57604051632ab50b9d60e21b8152336004820152602401610373565b6064861115611f7157604051633d2c9c1b60e11b815260048101879052602401610373565b8415611fff576000546040516323b872dd60e01b81526001600160a01b03909116906323b872dd90611fab90339030908a90600401613b26565b602060405180830381600087803b158015611fc557600080fd5b505af1158015611fd9573d6000803e3d6000fd5b505050506040513d601f19601f82011682018060405250810190611ffd9190613b4a565b505b6000604051806080016040528042815260200160008152602001600081526020018381525090506120586040518060a0016040528060608152602001606081526020016060815260200160008152602001600081525090565b6080810186905260018054600081815260026020818152604080842094855593850180546001600160a01b03191633179055845483528383206007018e9055845483528383206005018390559354825291902083518051859492909301926120c392849201906131e6565b5060208281015180516120dc926001850192019061323b565b50604082015180516120f891600284019160209091019061323b565b5060608201516003820155608090910151600490910155600180546000908152600260205260408082206008018a9055825482528082206009018b905582548252808220600c908101805460ff19169055835483529120018054879261ff001990911690610100908490811115612171576121716137e4565b02179055506001546000908152600260209081526040909120855161219e92600d90920191870190613276565b506001805460009081526002602090815260408083208651600e82015582870151600f82015581870151601082015560608701516011909101553383526004825282208354600590910180548086018255908452918320909101558154919061220683613b82565b91905055507f74b2fcd82579577d402b8188390b8447c55bdaec3bfb7a4946045a97294a5048600260006001805461223e9190613c72565b81526020019081526020016000206040516122599190613edf565b60405180910390a1505050505050505050565b6001548210612291576040516333200a8b60e11b815260048101839052602401610373565b600082815260026020526040812090600c82015460ff1660078111156122b9576122b96137e4565b141580156122e057506007600c82015460ff1660078111156122dd576122dd6137e4565b14155b15612301576040516363d82b4360e01b815260048101849052602401610373565b60018101546001600160a01b0316338082141561234b5760405163b6ccca7f60e01b8152600481018690526001600160a01b03808416602483015282166044820152606401610373565b6007830154600584015461235f9086613c5a565b11156123a85784848460020160030154856007015461237e9190613c72565b604051630f59198960e01b8152600481019390935260248301919091526044820152606401610373565b6006830154600584018054600c8601805460ff1916600717905591821015918691906000906123d8908490613c5a565b90915550506007840154600585015414156123fd57600c8401805460ff191660011790555b8015801561241357506006840154600585015410155b15612536576000546040516323b872dd60e01b81526001600160a01b03909116906323b872dd9061244c90339030908a90600401613b26565b602060405180830381600087803b15801561246657600080fd5b505af115801561247a573d6000803e3d6000fd5b505050506040513d601f19601f8201168201806040525081019061249e9190613b4a565b506000546001850154600586015460405163a9059cbb60e01b81526001600160a01b039283166004820152602481019190915291169063a9059cbb906044015b602060405180830381600087803b1580156124f857600080fd5b505af115801561250c573d6000803e3d6000fd5b505050506040513d601f19601f820116820180604052508101906125309190613b4a565b50612608565b60068401546005850154106125805760005460018501546040516323b872dd60e01b81526001600160a01b03928316926323b872dd926124de923392909116908a90600401613b26565b6000546040516323b872dd60e01b81526001600160a01b03909116906323b872dd906125b490339030908a90600401613b26565b602060405180830381600087803b1580156125ce57600080fd5b505af11580156125e2573d6000803e3d6000fd5b505050506040513d601f19601f820116820180604052508101906126069190613b4a565b505b60028085018054600181810183556000838152602080822090930180546001600160a01b03808a166001600160a01b03199283161790925560038b0180548086018255908452858420018c905560048b01805480860182559084528584200183905542600f8c01558c835293869052604090912089548155828a015492810180549094169290911691909117909155815487939192918301906126ae908290849061311c565b50600182810180546126c3928401919061311c565b50600282810180546126d8928401919061311c565b5060038281015490820155600491820154910155600782810154828201556008808401549083015560098084015490830155600a8084015490830155600b8084015490830155600c80840154908301805460ff90921692909160ff191690600190849081111561274a5761274a6137e4565b0217905550600c82810154908201805460ff61010093849004169261ff00199091169083600181111561277f5761277f6137e4565b0217905550600d820181600d0190805461279890613b9d565b6127a392919061316c565b50600e8281015490820155600f8083015490820155601080830154908201556011918201549101556040517fd8bcc4c3f457f8c4855c1b35305da14304eece612b6af8babd3ddfc09598bbd4906127fb908690613edf565b60405180910390a1505050505050565b6128136132e9565b61281e826001541190565b61283e576040516333200a8b60e11b815260048101839052602401610373565b6000828152600260208181526040928390208351610180810185528154815260018201546001600160a01b0316818401528451938201805460c094810286018501875260a08601818152929693959387019491928492909184918401828280156128d157602002820191906000526020600020905b81546001600160a01b031681526001909101906020018083116128b3575b505050505081526020016001820180548060200260200160405190810160405280929190818152602001828054801561292957602002820191906000526020600020905b815481526020019060010190808311612915575b505050505081526020016002820180548060200260200160405190810160405280929190818152602001828054801561298157602002820191906000526020600020905b81548152602001906001019080831161296d575b50505050508152602001600382015481526020016004820154815250508152602001600782015481526020016008820154815260200160098201548152602001600a8201548152602001600b8201548152602001600c820160009054906101000a900460ff1660078111156129f8576129f86137e4565b6007811115612a0957612a096137e4565b8152602001600c820160019054906101000a900460ff166001811115612a3157612a316137e4565b6001811115612a4257612a426137e4565b8152602001600d82018054612a5690613b9d565b80601f0160208091040260200160405190810160405280929190818152602001828054612a8290613b9d565b8015612acf5780601f10612aa457610100808354040283529160200191612acf565b820191906000526020600020905b815481529060010190602001808311612ab257829003601f168201915b505050918352505060408051608081018252600e8401548152600f8401546020828101919091526010850154928201929092526011909301546060840152015292915050565b600260208181526000928352604092839020805460018201548551948301805460c09581028701860190975260a0860187815292966001600160a01b03909216959394909284929091849190840182828015612b9a57602002820191906000526020600020905b81546001600160a01b03168152600190910190602001808311612b7c575b5050505050815260200160018201805480602002602001604051908101604052809291908181526020018280548015612bf257602002820191906000526020600020905b815481526020019060010190808311612bde575b5050505050815260200160028201805480602002602001604051908101604052809291908181526020018280548015612c4a57602002820191906000526020600020905b815481526020019060010190808311612c36575b505050918352505060038201546020820152600490910154604090910152600782015460088301546009840154600a850154600b860154600c870154600d8801805497989697959694959394929360ff8084169461010090940416929190612cb190613b9d565b80601f0160208091040260200160405190810160405280929190818152602001828054612cdd90613b9d565b8015612d2a5780601f10612cff57610100808354040283529160200191612d2a565b820191906000526020600020905b815481529060010190602001808311612d0d57829003601f168201915b505060408051608081018252600e8701548152600f8701546020820152601087015491810191909152601190950154606086015250919291508d9050565b336000908152600460205260409020546001600160a01b031615612da15760405163304e021f60e11b8152336004820152602401610373565b3360009081526004602090815260409091208551612dc792600190920191870190613276565b5033600081815260046020908152604090912080546001600160a01b03191690921782558451612dfd9260020191860190613276565b503360009081526004602090815260409091208351612e2492600390920191850190613276565b503360009081526004602081815260409092208351612e4b93919092019190840190613276565b503360008181526004602052604090819020426006820155600701805460ff19166001179055517f7f9d16a3c205132230d8fdf1dbfaa2b2b741f5a3f0599a6c813d1e94acd66e3291612ea5918790879087908790613ef2565b60405180910390a150505050565b600460205260009081526040902080546001820180546001600160a01b039092169291612edf90613b9d565b80601f0160208091040260200160405190810160405280929190818152602001828054612f0b90613b9d565b8015612f585780601f10612f2d57610100808354040283529160200191612f58565b820191906000526020600020905b815481529060010190602001808311612f3b57829003601f168201915b505050505090806002018054612f6d90613b9d565b80601f0160208091040260200160405190810160405280929190818152602001828054612f9990613b9d565b8015612fe65780601f10612fbb57610100808354040283529160200191612fe6565b820191906000526020600020905b815481529060010190602001808311612fc957829003601f168201915b505050505090806003018054612ffb90613b9d565b80601f016020809104026020016040519081016040528092919081815260200182805461302790613b9d565b80156130745780601f1061304957610100808354040283529160200191613074565b820191906000526020600020905b81548152906001019060200180831161305757829003601f168201915b50505050509080600401805461308990613b9d565b80601f01602080910402602001604051908101604052809291908181526020018280546130b590613b9d565b80156131025780601f106130d757610100808354040283529160200191613102565b820191906000526020600020905b8154815290600101906020018083116130e557829003601f168201915b50505050600683015460079093015491929160ff16905087565b82805482825590600052602060002090810192821561315c5760005260206000209182015b8281111561315c578254825591600101919060010190613141565b506131689291506133bc565b5090565b82805461317890613b9d565b90600052602060002090601f01602090048101928261319a576000855561315c565b82601f106131ab578054855561315c565b8280016001018555821561315c57600052602060002091601f016020900482018281111561315c578254825591600101919060010190613141565b82805482825590600052602060002090810192821561315c579160200282015b8281111561315c57825182546001600160a01b0319166001600160a01b03909116178255602090920191600190910190613206565b82805482825590600052602060002090810192821561315c579160200282015b8281111561315c57825182559160200191906001019061325b565b82805461328290613b9d565b90600052602060002090601f0160209004810192826132a4576000855561315c565b82601f106132bd57805160ff191683800117855561315c565b8280016001018555821561315c579182018281111561315c57825182559160200191906001019061325b565b6040518061018001604052806000815260200160006001600160a01b0316815260200161333e6040518060a0016040528060608152602001606081526020016060815260200160008152602001600081525090565b8152602001600081526020016000815260200160008152602001600081526020016000815260200160006007811115613379576133796137e4565b815260200160008152602001606081526020016133b76040518060800160405280600081526020016000815260200160008152602001600081525090565b905290565b5b8082111561316857600081556001016133bd565b6000602082840312156133e357600080fd5b5035919050565b634e487b7160e01b600052604160045260246000fd5b600082601f83011261341157600080fd5b813567ffffffffffffffff8082111561342c5761342c6133ea565b604051601f8301601f19908116603f01168101908282118183101715613454576134546133ea565b8160405283815286602085880101111561346d57600080fd5b836020870160208301376000602085830101528094505050505092915050565b6000806000606084860312156134a257600080fd5b833567ffffffffffffffff808211156134ba57600080fd5b6134c687838801613400565b945060208601359150808211156134dc57600080fd5b6134e887838801613400565b935060408601359150808211156134fe57600080fd5b5061350b86828701613400565b9150509250925092565b60006020828403121561352757600080fd5b81356001600160a01b038116811461353e57600080fd5b9392505050565b6000815180845260005b8181101561356b5760208185018101518683018201520161354f565b8181111561357d576000602083870101525b50601f01601f19169290920160200192915050565b600081518084526020808501945080840160005b838110156135c2578151875295820195908201906001016135a6565b509495945050505050565b602081526135e76020820183516001600160a01b03169052565b60006020830151610100806040850152613605610120850183613545565b91506040850151601f19808685030160608701526136238483613545565b935060608701519150808685030160808701526136408483613545565b935060808701519150808685030160a087015261365d8483613545565b935060a08701519150808685030160c08701525061367b8382613592565b92505060c085015160e085015260e085015161369a8286018215159052565b5090949350505050565b600080604083850312156136b757600080fd5b50508035926020909101359150565b600080600080600080600060e0888a0312156136e157600080fd5b8735965060208801359550604088013594506060880135935060808801356002811061370c57600080fd5b925060a088013567ffffffffffffffff81111561372857600080fd5b6137348a828b01613400565b92505060c0880135905092959891949750929550565b805160a080845281519084018190526000916020919082019060c0860190845b8181101561378f5783516001600160a01b03168352928401929184019160010161376a565b5050828501519150858103838701526137a88183613592565b92505050604083015184820360408601526137c38282613592565b91505060608301516060850152608083015160808501528091505092915050565b634e487b7160e01b600052602160045260246000fd5b6008811061380a5761380a6137e4565b9052565b6002811061380a5761380a6137e4565b60208152815160208201526000602083015161384560408401826001600160a01b03169052565b5060408301516101e0606084015261386161020084018261374a565b905060608401516080840152608084015160a084015260a084015160c084015260c084015160e084015260e08401516101008181860152808601519150506101206138ae818601836137fa565b85015190506101406138c28582018361380e565b80860151915050610160601f1985840301818601526138e18383613545565b950151805161018086015260208101516101a086015260408101516101c0860152606001516101e090940193909352509192915050565b8c81526001600160a01b038c1660208201526101e0604082018190526000906139438382018e61374a565b90508b60608401528a60808401528960a08401528860c08401528760e08401526139716101008401886137fa565b61397f61012084018761380e565b8281036101408401526139928186613545565b8451610160850152602085015161018085015260408501516101a085015260608501516101c085015291506139c49050565b9d9c50505050505050505050505050565b600080600080608085870312156139eb57600080fd5b843567ffffffffffffffff80821115613a0357600080fd5b613a0f88838901613400565b95506020870135915080821115613a2557600080fd5b613a3188838901613400565b94506040870135915080821115613a4757600080fd5b613a5388838901613400565b93506060870135915080821115613a6957600080fd5b50613a7687828801613400565b91505092959194509250565b6001600160a01b038816815260e060208201819052600090613aa690830189613545565b8281036040840152613ab88189613545565b90508281036060840152613acc8188613545565b90508281036080840152613ae08187613545565b60a0840195909552505090151560c09091015295945050505050565b8281526040810161353e60208301846137fa565b634e487b7160e01b600052603260045260246000fd5b6001600160a01b039384168152919092166020820152604081019190915260600190565b600060208284031215613b5c57600080fd5b8151801515811461353e57600080fd5b634e487b7160e01b600052601160045260246000fd5b6000600019821415613b9657613b96613b6c565b5060010190565b600181811c90821680613bb157607f821691505b60208210811415613bd257634e487b7160e01b600052602260045260246000fd5b50919050565b6000816000190483118215151615613bf257613bf2613b6c565b500290565b600082613c1457634e487b7160e01b600052601260045260246000fd5b500490565b600080821280156001600160ff1b0384900385131615613c3b57613c3b613b6c565b600160ff1b8390038412811615613c5457613c54613b6c565b50500190565b60008219821115613c6d57613c6d613b6c565b500190565b600082821015613c8457613c84613b6c565b500390565b6000815480845260208085019450836000528060002060005b838110156135c257815487529582019560019182019101613ca2565b600060a0830160a0845280835480835260c08601915084600052602092508260002060005b82811015613d085781546001600160a01b031684529284019260019182019101613ce3565b50505084810382860152613d1f8160018601613c89565b9150508381036040850152613d378160028501613c89565b6003840154606086015260049093015460809094019390935250919050565b8054600090600181811c9080831680613d7057607f831692505b6020808410821415613d9257634e487b7160e01b600052602260045260246000fd5b83885260208801828015613dad5760018114613dbe57613de9565b60ff19871682528282019750613de9565b60008981526020902060005b87811015613de357815484820152908601908401613dca565b83019850505b5050505050505092915050565b60006101e082548452613e1360018401546001600160a01b031690565b6001600160a01b0316602085015260408401819052613e3781850160028501613cbe565b90506007830154606085015260088301546080850152600983015460a0850152600a83015460c0850152600b83015460e0850152600c830154613e81610100860160ff83166137fa565b613e95610120860160ff8360081c1661380e565b50838103610140850152613eac81600d8501613d56565b600e840154610160860152600f84015461018086015260108401546101a086015260118401546101c0860152905061353e565b60208152600061353e6020830184613df6565b6001600160a01b038616815260a060208201819052600090613f1690830187613545565b8281036040840152613f288187613545565b90508281036060840152613f3c8186613545565b90508281036080840152613f508185613545565b9897505050505050505056fea2646970667358221220c4b8ed475000622aace030682c1e4a8e62eeac10a7451ebafff4dcb718181d4e64736f6c63430008090033",
  "immutableReferences": {},
  "source": "// SPDX-License-Identifier: MIT\npragma solidity ^0.8.9;\n\n// Dai or StakeCoin (production or development)\ninterface Token {\n    function transfer(address dst, uint amount) external returns (bool);\n    function transferFrom(address src, address dst, uint amount) external returns (bool);\n    function balanceOf(address guy) external view returns (uint);\n    function approve(address spender, uint amount) external returns (bool);\n}\n\ncontract Staking {\n    Token public token;\n    uint public requestCount = 0;\n    mapping(uint => Stake) public stakes;\n    address payable public owner;\n\n    mapping(address => Player) public players;\n\n    enum StakeStatus {\n        Requested,\n        Filled,\n        Expired, // TODO: When will we use this\n        Cancelled,\n        AwaitingReturnPayment,\n        Completed,\n        EscrowClaimed,\n        PartiallyFilled\n    }\n\n    enum GameType {\n        SingleGame,\n        Tournament\n    }\n\n    struct InvestmentDetails {\n        address payable[] backers;\n        uint[] investments;\n        uint[] backerReturns;\n        uint filledAmount;\n        uint playThreshold;\n    }\n\n    struct Stake {\n        uint id;\n        address payable horse;\n        InvestmentDetails investmentDetails;\n        uint amount;\n        uint escrow;\n        uint profitShare;\n        int pnl;\n        uint backerReturns;\n        StakeStatus status;\n        GameType gameType;\n        string apiId;\n        StakeTimeStamp stakeTimeStamp;\n    }\n\n    struct StakeTimeStamp {\n        uint256 createdTimestamp;\n        uint256 lastFilledTimestamp;\n        uint256 gamePlayedTimestamp;\n        uint256 scheduledForTimestamp;\n    }\n\n    struct Player {\n        address payable playerAddress;\n        string apiId;\n        string name;\n        string sharkscopeLink;\n        string profilePicPath;\n        uint[] stakeIds; // stakes where the player is the horse.\n        uint256 createdTimestamp;\n        bool canCreateStake; // False when they have a stake that is awaiting repayment\n    }\n\n    constructor(address tokenAddress) {\n        owner = payable(msg.sender);\n        token = Token(tokenAddress);\n    }\n\n    event PlayerCreated(address playerAddress, string apiId, string name, string sharkscopeLink, string profilePicPath);\n\n    /// A player with this address already exists\n    error PlayerAlreadyExists(address playerAddress);\n\n    function createPlayer(string memory apiId, string memory name, string memory sharkscopeLink, string memory profilePicPath) external payable {\n        if (players[msg.sender].playerAddress != address(0)) {\n            revert PlayerAlreadyExists(msg.sender);\n        }\n        players[msg.sender].apiId = apiId;\n        players[msg.sender].playerAddress = payable(msg.sender);\n        players[msg.sender].name = name;\n        players[msg.sender].sharkscopeLink = sharkscopeLink;\n        players[msg.sender].profilePicPath = profilePicPath;\n        players[msg.sender].createdTimestamp = block.timestamp;\n        players[msg.sender].canCreateStake = true;\n\n        emit PlayerCreated(msg.sender, apiId, name, sharkscopeLink, profilePicPath);\n    }\n\n    function getPlayer(address add) external view returns (Player memory) {\n        return players[add];\n    }\n\n    // player doesn't exist\n    error PlayerDoesntExist(address playerAddress);\n\n    event PlayerEdited(address playerAddress);\n\n    function editPlayer(string memory name, string memory sharkscopeLink, string memory profilePicPath) external {\n        if (players[msg.sender].playerAddress == address(0)) {\n            emit PlayerEdited(msg.sender);\n            revert PlayerDoesntExist(msg.sender);\n        }\n\n        players[msg.sender].name = name;\n        players[msg.sender].sharkscopeLink = sharkscopeLink;\n        players[msg.sender].profilePicPath = profilePicPath;\n\n        emit PlayerEdited(msg.sender);\n    }\n\n    /// Only the owner can kill this contract\n    error OnlyOwnerCanKill();\n\n    function kill() external {\n        if (msg.sender != owner) {\n            revert OnlyOwnerCanKill();\n        }\n        selfdestruct(owner);\n    }\n\n    // Get an individual stake\n\n    /// Not a valid id for a stake request\n    error InvalidStakeId(uint id);\n\n    function getStake(uint id) external view returns (Stake memory) {\n        if (!validId(id)) {\n            revert InvalidStakeId(id);\n        }\n\n        return stakes[id];\n    }\n\n    // Creating a new stake request\n    event StakeRequested(Stake stake);\n\n    /// Profit share must be between 0 and 100\n    error InvalidProfitShare(uint profitShare);\n    /// Escrow does not match msg.value\n    error EscrowValueNotMatching(uint escrow, uint value);\n    /// Player has not registered\n    error PlayerDoesNotExist(address sender);\n    /// Player is locked from creating new stakes. Return awaiting payments first.\n    error PlayerNotAllowedToCreateStake(address player);\n\n    function createRequest(uint amount, uint profitShare, uint escrow, uint playThreshold, GameType gameType, string memory apiId, uint256 scheduledFor) external payable {\n        if (players[msg.sender].playerAddress == address(0)) {\n            revert PlayerDoesNotExist(msg.sender);\n        }\n        if (!players[msg.sender].canCreateStake) {\n            revert PlayerNotAllowedToCreateStake(msg.sender);\n        }\n        if (profitShare > 100) {\n            revert InvalidProfitShare(profitShare);\n        }\n        if (escrow > 0) {\n            token.transferFrom(msg.sender, address(this), escrow);\n        }\n\n        StakeTimeStamp memory stakeTimeStamp = StakeTimeStamp(block.timestamp, 0, 0, scheduledFor);\n        InvestmentDetails memory investmentDetails;\n        investmentDetails.playThreshold = playThreshold;\n\n        stakes[requestCount].id = requestCount;\n        stakes[requestCount].horse = payable(msg.sender);\n        stakes[requestCount].amount = amount;\n        stakes[requestCount].investmentDetails.filledAmount = 0;\n        stakes[requestCount].investmentDetails = investmentDetails;\n        stakes[requestCount].escrow = escrow;\n        stakes[requestCount].profitShare = profitShare;\n        stakes[requestCount].status = StakeStatus.Requested;\n        stakes[requestCount].gameType = gameType;\n        stakes[requestCount].apiId = apiId;\n        stakes[requestCount].stakeTimeStamp = stakeTimeStamp;\n\n        players[msg.sender].stakeIds.push(requestCount);\n        requestCount++;\n\n        emit StakeRequested(stakes[requestCount - 1]);\n    }\n\n    // Staking a request\n    event StakeFilled(Stake stake);\n    \n    /// Stake has already been filled/cancelled\n    error StakeNotFillable(uint id);\n    /// You cannot stake yourself\n    error StakingSelf(uint id, address horse, address backer);\n    /// Cannot stake more than the remaining amount\n    error StakedMoreThanRemaining(uint id, uint stakedAmount, uint remainingAmount);\n    /// Staked amount and msg value do not match\n    error ValueAndAmountDoNotMatch(uint amount, uint value);\n   \n    function stakeHorse(uint id, uint amount) external payable {\n//         require(validId(id), \"This is not a valid ID for a stake!\");\n        if (id >= requestCount) {\n            revert InvalidStakeId(id);\n        }\n    \n        Stake storage stake = stakes[id];\n        if (stake.status != StakeStatus.Requested && stake.status != StakeStatus.PartiallyFilled) {\n            revert StakeNotFillable(id);\n        }\n\n        address payable horse = stake.horse;\n        address payable backer = payable(msg.sender);\n        if (horse == backer) {\n            revert StakingSelf(id, horse, backer);\n        }\n//        if (msg.value != amount) {\n//            revert ValueAndAmountDoNotMatch(amount, msg.value);\n//        }\n\n        if (amount + stake.investmentDetails.filledAmount > stake.amount) {\n            revert StakedMoreThanRemaining(id, amount, stake.amount - stake.investmentDetails.filledAmount);\n        }\n\n        bool passedThresholdBefore = stake.investmentDetails.filledAmount >= stake.investmentDetails.playThreshold;\n        stake.status = StakeStatus.PartiallyFilled;\n        // Update stake status and transfer funds\n        stake.investmentDetails.filledAmount += amount;\n        if (stake.investmentDetails.filledAmount == stake.amount) {\n            stake.status = StakeStatus.Filled;\n        }\n        if (!passedThresholdBefore && stake.investmentDetails.filledAmount >= stake.investmentDetails.playThreshold) {\n            // Just passed the threshold - send money pool to horse\n            token.transferFrom(msg.sender, address(this), amount);\n            token.transfer(stake.horse, stake.investmentDetails.filledAmount);\n        } else if (stake.investmentDetails.filledAmount >= stake.investmentDetails.playThreshold) {\n            // We have already passed the threshold - send money directly to horse\n            token.transferFrom(msg.sender, stake.horse, amount);\n        } else {\n            // We are still below the threshold - add to money pool\n            token.transferFrom(msg.sender, address(this), amount);\n        }\n        stake.investmentDetails.backers.push(payable(backer));\n        stake.investmentDetails.investments.push(amount);\n        stake.investmentDetails.backerReturns.push(0);\n        stake.stakeTimeStamp.lastFilledTimestamp = block.timestamp;\n\n        stakes[id] = stake;\n        emit StakeFilled(stake);\n    }\n\n    // Expiring a stake for a game that has been played\n    event StakeExpired(uint id);\n\n    // A stake can only be expired if it is status Requested or PartiallyFilled\n    error StakeIsNotExpirable(uint id, StakeStatus status);\n\n    // Only the oracle can expire stakes\n    //TODO: this!!\n    // error OnlyOracleCanExpireStake(uint id, address sender);\n\n    function expireStake(uint id) external {\n        if (!validId(id)) {\n            revert InvalidStakeId(id);\n        }\n        Stake memory stake = stakes[id];\n\n        // TODO: This!!\n        // if (msg.sender != /*<oracle_address>*/) {\n        //     revert OnlyOracleCanExpireStake(id, msg.sender)\n        // }\n\n        if (stake.status != StakeStatus.Requested && stake.status != StakeStatus.PartiallyFilled) {\n            revert StakeIsNotExpirable(id, stake.status);\n        }\n\n        if (stake.status == StakeStatus.PartiallyFilled) {\n            for (uint i = 0; i < stake.investmentDetails.backers.length; i++) {\n                token.transfer(stake.investmentDetails.backers[i], stake.investmentDetails.investments[i]);\n            }\n        }\n\n        if (stake.escrow > 0) {\n            token.transfer(stake.horse, stake.escrow);\n        }\n\n        stake.status = StakeStatus.Expired;\n        stakes[id] = stake;\n        emit StakeExpired(id);\n    }\n\n    // Cancelling a reqested stake\n    event StakeCancelled(uint id);\n    \n    /// Only the horse can cancel a requested stake\n    error CancellingSenderIsNotHorse(uint id, address canceller, address horse);\n    /// A horse can only cancel a stake when it has only been requested\n    error StakeIsNotCancellable(uint id, StakeStatus status);\n\n    function cancelStakeAsHorse(uint id) external {\n        if(!validId(id)) {\n            revert InvalidStakeId(id);\n        }\n        Stake memory stake = stakes[id];\n        \n        if (msg.sender != stake.horse) {\n            revert CancellingSenderIsNotHorse(id, msg.sender, stake.horse);\n        }\n        \n        if (stake.status != StakeStatus.Requested) {\n            revert StakeIsNotCancellable(id, stake.status);\n        }\n\n        if (stake.escrow > 0) {\n            token.transfer(stake.horse, stake.escrow);\n            // stake.horse.transfer(stake.escrow);\n        }\n        stake.status = StakeStatus.Cancelled;\n\n        stakes[id] = stake;\n        emit StakeCancelled(id);\n    }\n    \n\n    // Returning profits to backer after completing games\n    event ProfitsReturned(uint id, uint backerReturns);\n    \n    /// Only the horse can return the profits from a stake\n    error ReturningProfitsSenderIsNotHorse(uint id, address sender, address horse);\n    /// Profits can only be returned if a stake has been filled\n    error StakeProfitNotReturnable(uint id, StakeStatus status);\n    /// Message value not equal to the profit returns of the backer\n    error MessageValueNotEqualToBackerReturns(uint value, uint backerReturns);\n    \n    function returnProfits(uint id) external payable {\n        if(!validId(id)) {\n            revert InvalidStakeId(id);\n        }\n        Stake storage stake = stakes[id];\n\n        if (msg.sender != stake.horse) {\n            revert ReturningProfitsSenderIsNotHorse(id, msg.sender, stake.horse);\n        }\n        \n        if (stake.status != StakeStatus.AwaitingReturnPayment) {\n            revert StakeProfitNotReturnable(id, stake.status);\n        }\n\n        // TODO: See above before we can do this\n        // if (msg.value != backerReturns) {\n        //     revert MessageValueNotEqualToBackerReturns(msg.value, backerReturns);\n        // }\n        for (uint i = 0; i < stake.investmentDetails.backers.length; i++) {\n            token.transferFrom(msg.sender, stake.investmentDetails.backers[i], stake.investmentDetails.backerReturns[i]);\n        }\n        if (stake.escrow > 0) {\n            token.transfer(stake.horse, stake.escrow);\n            // stake.horse.transfer(stake.escrow);\n        }\n        stake.status = StakeStatus.Completed;\n        players[stake.horse].canCreateStake = true;\n\n        stakes[id] = stake;\n        emit ProfitsReturned(id, stake.backerReturns);\n    }\n\n\n    // Setting the status of a stake to AwaitingReturnPayment\n\n    event GamePlayed(uint id, int pnl, uint backerReturns);\n\n    /// You can only complete a game after it has been filled\n    error CanOnlyPlayedFilledStakes(uint id, StakeStatus status);\n\n    function gamePlayed(uint id, int pnl) external {\n        if(!validId(id)) {\n            revert InvalidStakeId(id);\n        }\n\n        if (!(stakes[id].status == StakeStatus.Filled || (stakes[id].status == StakeStatus.PartiallyFilled && stakes[id].investmentDetails.filledAmount >= stakes[id].investmentDetails.playThreshold))) {\n            revert CanOnlyPlayedFilledStakes(id, stakes[id].status);\n        }\n\n        // TODO: Check this calculation. Do we do it here or calculate it in the frontend?\n        uint backerReturns;\n        if (pnl < 0) {\n            int owed = int(stakes[id].investmentDetails.filledAmount) + pnl;\n            if (owed <= 0) {\n                backerReturns = 0;\n                stakes[id].status = StakeStatus.Completed;\n            } else {\n                backerReturns = uint(owed);\n                stakes[id].status = StakeStatus.AwaitingReturnPayment;\n            }\n        } else {\n            backerReturns = stakes[id].investmentDetails.filledAmount + ((uint(pnl) * stakes[id].profitShare) / 100);\n            stakes[id].status = StakeStatus.AwaitingReturnPayment;\n        }\n\n        for (uint i = 0; i < stakes[id].investmentDetails.backers.length; i++) {\n            stakes[id].investmentDetails.backerReturns[i] = (backerReturns * stakes[id].investmentDetails.investments[i]) / stakes[id].investmentDetails.filledAmount;\n        }\n\n        stakes[id].pnl = pnl;\n        stakes[id].backerReturns = backerReturns;\n        stakes[id].stakeTimeStamp.gamePlayedTimestamp = block.timestamp;\n        players[stakes[id].horse].canCreateStake = false;\n        emit GamePlayed(id, pnl, backerReturns);\n    }\n\n\n    // Requesting back your escrow while awaiting return payment\n    event EscrowClaimed(uint id, uint escrow, address backer);\n\n    /// You can only request your escrow back when the status of the stake is awaiting return payment\n    error CanOnlyReturnEscrowWhenAwaitingReturnPayment(uint id, StakeStatus status);\n    /// Only the stake backer can request the contract's escrow\n    error OnlyBackerCanRequestEscrow(uint id, address sender);\n    /// Cannot return back escrow for a stake which never had an escrow put up\n    error CannotReturnNoEscrow(uint id, uint escrow);\n\n    // TODO: Only allow this when the state is actually AwaitingReturnPaymentClaimEscrow\n    function backerClaimEscrow(uint id) external {\n        if(!validId(id)) {\n            revert InvalidStakeId(id);\n        }\n        if (stakes[id].status != StakeStatus.AwaitingReturnPayment) {\n            revert CanOnlyReturnEscrowWhenAwaitingReturnPayment(id, stakes[id].status);\n        }\n\n        if (stakes[id].escrow == 0) {\n            revert CannotReturnNoEscrow(id, stakes[id].escrow);\n        }\n\n        bool isBacker = false;\n        for (uint i = 0; i < stakes[id].investmentDetails.backers.length; i++) {\n            if (msg.sender == stakes[id].investmentDetails.backers[i]) {\n                isBacker = true;\n                token.transfer(stakes[id].investmentDetails.backers[i], (stakes[id].escrow * stakes[id].investmentDetails.investments[i] / stakes[id].investmentDetails.filledAmount));\n            }\n        }\n        if (!isBacker) {\n            revert OnlyBackerCanRequestEscrow(id, msg.sender);\n        }\n\n        stakes[id].status = StakeStatus.EscrowClaimed;\n        emit EscrowClaimed(id, stakes[id].escrow, msg.sender);\n    }\n\n    function validId(uint id) internal view returns (bool) {\n        return id < requestCount;\n    }\n\n\n\n}",
  "sourcePath": "/Users/julesdehon/Documents/Uni/year-3/group-project/decentralized_poker_staking/contracts/Staking.sol",
  "compiler": {
    "name": "solc",
    "version": "0.8.9+commit.e5eed63a.Emscripten.clang"
  },
  "schemaVersion": "3.4.3",
  "updatedAt": "2021-12-02T14:26:15.528Z",
  "networkType": "ethereum",
  "devdoc": {
    "kind": "dev",
    "methods": {},
    "version": 1
  },
  "userdoc": {
    "errors": {
      "CanOnlyPlayedFilledStakes(uint256,uint8)": [
        {
          "notice": "You can only complete a game after it has been filled"
        }
      ],
      "CanOnlyReturnEscrowWhenAwaitingReturnPayment(uint256,uint8)": [
        {
          "notice": "You can only request your escrow back when the status of the stake is awaiting return payment"
        }
      ],
      "CancellingSenderIsNotHorse(uint256,address,address)": [
        {
          "notice": "Only the horse can cancel a requested stake"
        }
      ],
      "CannotReturnNoEscrow(uint256,uint256)": [
        {
          "notice": "Cannot return back escrow for a stake which never had an escrow put up"
        }
      ],
      "EscrowValueNotMatching(uint256,uint256)": [
        {
          "notice": "Escrow does not match msg.value"
        }
      ],
      "InvalidProfitShare(uint256)": [
        {
          "notice": "Profit share must be between 0 and 100"
        }
      ],
      "InvalidStakeId(uint256)": [
        {
          "notice": "Not a valid id for a stake request"
        }
      ],
      "MessageValueNotEqualToBackerReturns(uint256,uint256)": [
        {
          "notice": "Message value not equal to the profit returns of the backer"
        }
      ],
      "OnlyBackerCanRequestEscrow(uint256,address)": [
        {
          "notice": "Only the stake backer can request the contract's escrow"
        }
      ],
      "OnlyOwnerCanKill()": [
        {
          "notice": "Only the owner can kill this contract"
        }
      ],
      "PlayerAlreadyExists(address)": [
        {
          "notice": "A player with this address already exists"
        }
      ],
      "PlayerDoesNotExist(address)": [
        {
          "notice": "Player has not registered"
        }
      ],
      "PlayerNotAllowedToCreateStake(address)": [
        {
          "notice": "Player is locked from creating new stakes. Return awaiting payments first."
        }
      ],
      "ReturningProfitsSenderIsNotHorse(uint256,address,address)": [
        {
          "notice": "Only the horse can return the profits from a stake"
        }
      ],
      "StakeIsNotCancellable(uint256,uint8)": [
        {
          "notice": "A horse can only cancel a stake when it has only been requested"
        }
      ],
      "StakeNotFillable(uint256)": [
        {
          "notice": "Stake has already been filled/cancelled"
        }
      ],
      "StakeProfitNotReturnable(uint256,uint8)": [
        {
          "notice": "Profits can only be returned if a stake has been filled"
        }
      ],
      "StakedMoreThanRemaining(uint256,uint256,uint256)": [
        {
          "notice": "Cannot stake more than the remaining amount"
        }
      ],
      "StakingSelf(uint256,address,address)": [
        {
          "notice": "You cannot stake yourself"
        }
      ],
      "ValueAndAmountDoNotMatch(uint256,uint256)": [
        {
          "notice": "Staked amount and msg value do not match"
        }
      ]
    },
    "kind": "user",
    "methods": {},
    "version": 1
  }
}