{
  "contractName": "Staking",
  "abi": [
    {
      "inputs": [
        {
          "internalType": "uint256",
          "name": "profitShare",
          "type": "uint256"
        }
      ],
      "name": "InvalidProfitShare",
      "type": "error"
    },
    {
      "inputs": [
        {
          "internalType": "uint256",
          "name": "id",
          "type": "uint256"
        }
      ],
      "name": "InvalidStake",
      "type": "error"
    },
    {
      "inputs": [
        {
          "internalType": "uint256",
          "name": "id",
          "type": "uint256"
        }
      ],
      "name": "StakeNotFillable",
      "type": "error"
    },
    {
      "inputs": [
        {
          "internalType": "uint256",
          "name": "id",
          "type": "uint256"
        },
        {
          "internalType": "address",
          "name": "horse",
          "type": "address"
        },
        {
          "internalType": "address",
          "name": "backer",
          "type": "address"
        }
      ],
      "name": "StakingSelf",
      "type": "error"
    },
    {
      "anonymous": false,
      "inputs": [
        {
          "indexed": false,
          "internalType": "uint256",
          "name": "id",
          "type": "uint256"
        }
      ],
      "name": "ProfitsReturned",
      "type": "event"
    },
    {
      "anonymous": false,
      "inputs": [
        {
          "indexed": false,
          "internalType": "uint256",
          "name": "id",
          "type": "uint256"
        }
      ],
      "name": "StakeCanceled",
      "type": "event"
    },
    {
      "anonymous": false,
      "inputs": [
        {
          "indexed": false,
          "internalType": "uint256",
          "name": "stakeId",
          "type": "uint256"
        },
        {
          "indexed": false,
          "internalType": "address",
          "name": "horse",
          "type": "address"
        },
        {
          "indexed": false,
          "internalType": "address",
          "name": "backer",
          "type": "address"
        },
        {
          "indexed": false,
          "internalType": "uint256",
          "name": "amount",
          "type": "uint256"
        }
      ],
      "name": "StakeFilled",
      "type": "event"
    },
    {
      "anonymous": false,
      "inputs": [
        {
          "indexed": false,
          "internalType": "address",
          "name": "horse",
          "type": "address"
        },
        {
          "indexed": false,
          "internalType": "uint256",
          "name": "amount",
          "type": "uint256"
        }
      ],
      "name": "StakeRequested",
      "type": "event"
    },
    {
      "inputs": [],
      "name": "requestCount",
      "outputs": [
        {
          "internalType": "uint256",
          "name": "",
          "type": "uint256"
        }
      ],
      "stateMutability": "view",
      "type": "function",
      "constant": true
    },
    {
      "inputs": [
        {
          "internalType": "uint256",
          "name": "",
          "type": "uint256"
        }
      ],
      "name": "stakes",
      "outputs": [
        {
          "internalType": "uint256",
          "name": "id",
          "type": "uint256"
        },
        {
          "internalType": "address payable",
          "name": "horse",
          "type": "address"
        },
        {
          "internalType": "address payable",
          "name": "backer",
          "type": "address"
        },
        {
          "internalType": "uint256",
          "name": "amount",
          "type": "uint256"
        },
        {
          "internalType": "uint256",
          "name": "profitShare",
          "type": "uint256"
        },
        {
          "internalType": "uint256",
          "name": "profit",
          "type": "uint256"
        },
        {
          "internalType": "enum Staking.StakeStatus",
          "name": "status",
          "type": "uint8"
        },
        {
          "internalType": "bool",
          "name": "matchFinished",
          "type": "bool"
        },
        {
          "internalType": "bool",
          "name": "horseWon",
          "type": "bool"
        }
      ],
      "stateMutability": "view",
      "type": "function",
      "constant": true
    },
    {
      "inputs": [
        {
          "internalType": "uint256",
          "name": "amount",
          "type": "uint256"
        },
        {
          "internalType": "uint256",
          "name": "profitShare",
          "type": "uint256"
        }
      ],
      "name": "createRequest",
      "outputs": [],
      "stateMutability": "nonpayable",
      "type": "function"
    },
    {
      "inputs": [
        {
          "internalType": "uint256",
          "name": "id",
          "type": "uint256"
        }
      ],
      "name": "stakeHorse",
      "outputs": [],
      "stateMutability": "payable",
      "type": "function",
      "payable": true
    },
    {
      "inputs": [
        {
          "internalType": "uint256",
          "name": "id",
          "type": "uint256"
        }
      ],
      "name": "cancelStake",
      "outputs": [],
      "stateMutability": "payable",
      "type": "function",
      "payable": true
    },
    {
      "inputs": [
        {
          "internalType": "uint256",
          "name": "id",
          "type": "uint256"
        }
      ],
      "name": "returnProfits",
      "outputs": [],
      "stateMutability": "payable",
      "type": "function",
      "payable": true
    }
  ],
  "bytecode": "0x60806040526000805534801561001457600080fd5b506113c8806100246000396000f3fe6080604052600436106100555760003560e01c80630be3721d1461005a5780635badbe4c1461007657806363c6ded3146100a1578063a141efea146100ca578063d5a44f86146100e6578063d8de94801461012b575b600080fd5b610074600480360381019061006f9190610da5565b610147565b005b34801561008257600080fd5b5061008b61040a565b6040516100989190610de1565b60405180910390f35b3480156100ad57600080fd5b506100c860048036038101906100c39190610dfc565b610410565b005b6100e460048036038101906100df9190610da5565b610671565b005b3480156100f257600080fd5b5061010d60048036038101906101089190610da5565b610a0c565b60405161012299989796959493929190610f0f565b60405180910390f35b61014560048036038101906101409190610da5565b610ac1565b005b60006001600083815260200190815260200160002060405180610120016040529081600082015481526020016001820160009054906101000a900473ffffffffffffffffffffffffffffffffffffffff1673ffffffffffffffffffffffffffffffffffffffff1673ffffffffffffffffffffffffffffffffffffffff1681526020016002820160009054906101000a900473ffffffffffffffffffffffffffffffffffffffff1673ffffffffffffffffffffffffffffffffffffffff1673ffffffffffffffffffffffffffffffffffffffff1681526020016003820154815260200160048201548152602001600582015481526020016006820160009054906101000a900460ff16600581111561026157610260610e7d565b5b600581111561027357610272610e7d565b5b81526020016006820160019054906101000a900460ff161515151581526020016006820160029054906101000a900460ff16151515158152505090506102b882610d40565b6102f7576040517f08c379a00000000000000000000000000000000000000000000000000000000081526004016102ee9061101f565b60405180910390fd5b8060e0015161033b576040517f08c379a0000000000000000000000000000000000000000000000000000000008152600401610332906110b1565b60405180910390fd5b806101000151610380576040517f08c379a000000000000000000000000000000000000000000000000000000000815260040161037790611143565b60405180910390fd5b806040015173ffffffffffffffffffffffffffffffffffffffff166108fc8260a001519081150290604051600060405180830381858888f193505050501580156103ce573d6000803e3d6000fd5b507f414aa128e641f6ec817056ff84c025b18f24ebc9161695c002d42a07b9634eea826040516103fe9190610de1565b60405180910390a15050565b60005481565b606481111561045657806040517f7a59383600000000000000000000000000000000000000000000000000000000815260040161044d9190610de1565b60405180910390fd5b60405180610120016040528060005481526020013373ffffffffffffffffffffffffffffffffffffffff168152602001600073ffffffffffffffffffffffffffffffffffffffff16815260200183815260200182815260200160008152602001600060058111156104ca576104c9610e7d565b5b81526020016000151581526020016000151581525060016000805481526020019081526020016000206000820151816000015560208201518160010160006101000a81548173ffffffffffffffffffffffffffffffffffffffff021916908373ffffffffffffffffffffffffffffffffffffffff16021790555060408201518160020160006101000a81548173ffffffffffffffffffffffffffffffffffffffff021916908373ffffffffffffffffffffffffffffffffffffffff160217905550606082015181600301556080820151816004015560a0820151816005015560c08201518160060160006101000a81548160ff021916908360058111156105d4576105d3610e7d565b5b021790555060e08201518160060160016101000a81548160ff0219169083151502179055506101008201518160060160026101000a81548160ff02191690831515021790555090505060008081548092919061062f90611192565b91905055507f49cee4f5002995b36067cf0f209184d84f0b3cc2eb9e0bd67dbde672694beb8233836040516106659291906111fc565b60405180910390a15050565b61067a81610d40565b6106b9576040517f08c379a00000000000000000000000000000000000000000000000000000000081526004016106b09061101f565b60405180910390fd5b60006001600083815260200190815260200160002060405180610120016040529081600082015481526020016001820160009054906101000a900473ffffffffffffffffffffffffffffffffffffffff1673ffffffffffffffffffffffffffffffffffffffff1673ffffffffffffffffffffffffffffffffffffffff1681526020016002820160009054906101000a900473ffffffffffffffffffffffffffffffffffffffff1673ffffffffffffffffffffffffffffffffffffffff1673ffffffffffffffffffffffffffffffffffffffff1681526020016003820154815260200160048201548152602001600582015481526020016006820160009054906101000a900460ff1660058111156107d3576107d2610e7d565b5b60058111156107e5576107e4610e7d565b5b81526020016006820160019054906101000a900460ff161515151581526020016006820160029054906101000a900460ff16151515158152505090506000600581111561083557610834610e7d565b5b8160c00151600581111561084c5761084b610e7d565b5b1461088e57816040517f63d82b430000000000000000000000000000000000000000000000000000000081526004016108859190610de1565b60405180910390fd5b60008160200151905060003390508073ffffffffffffffffffffffffffffffffffffffff168273ffffffffffffffffffffffffffffffffffffffff161415610911578382826040517fb6ccca7f00000000000000000000000000000000000000000000000000000000815260040161090893929190611284565b60405180910390fd5b60018360c00190600581111561092a57610929610e7d565b5b9081600581111561093e5761093d610e7d565b5b8152505080836040019073ffffffffffffffffffffffffffffffffffffffff16908173ffffffffffffffffffffffffffffffffffffffff16815250508173ffffffffffffffffffffffffffffffffffffffff166108fc84606001519081150290604051600060405180830381858888f193505050501580156109c4573d6000803e3d6000fd5b507fab1ccc3ac4f271f2e437d159236c5ceed2978a1949de79df70cf17069bac8e2084838386606001516040516109fe94939291906112bb565b60405180910390a150505050565b60016020528060005260406000206000915090508060000154908060010160009054906101000a900473ffffffffffffffffffffffffffffffffffffffff16908060020160009054906101000a900473ffffffffffffffffffffffffffffffffffffffff16908060030154908060040154908060050154908060060160009054906101000a900460ff16908060060160019054906101000a900460ff16908060060160029054906101000a900460ff16905089565b60006001600083815260200190815260200160002060405180610120016040529081600082015481526020016001820160009054906101000a900473ffffffffffffffffffffffffffffffffffffffff1673ffffffffffffffffffffffffffffffffffffffff1673ffffffffffffffffffffffffffffffffffffffff1681526020016002820160009054906101000a900473ffffffffffffffffffffffffffffffffffffffff1673ffffffffffffffffffffffffffffffffffffffff1673ffffffffffffffffffffffffffffffffffffffff1681526020016003820154815260200160048201548152602001600582015481526020016006820160009054906101000a900460ff166005811115610bdb57610bda610e7d565b5b6005811115610bed57610bec610e7d565b5b81526020016006820160019054906101000a900460ff161515151581526020016006820160029054906101000a900460ff1615151515815250509050610c3282610d40565b610c71576040517f08c379a0000000000000000000000000000000000000000000000000000000008152600401610c689061101f565b60405180910390fd5b8060e0015115610cb6576040517f08c379a0000000000000000000000000000000000000000000000000000000008152600401610cad90611372565b60405180910390fd5b806040015173ffffffffffffffffffffffffffffffffffffffff166108fc82606001519081150290604051600060405180830381858888f19350505050158015610d04573d6000803e3d6000fd5b507f228683e8c8f1f5c38d2eae8f5b8e5ef47a084a41ffc5de8b9b38164870c0009f82604051610d349190610de1565b60405180910390a15050565b600080821080610d5257506000548210155b15610d605760009050610d65565b600190505b919050565b600080fd5b6000819050919050565b610d8281610d6f565b8114610d8d57600080fd5b50565b600081359050610d9f81610d79565b92915050565b600060208284031215610dbb57610dba610d6a565b5b6000610dc984828501610d90565b91505092915050565b610ddb81610d6f565b82525050565b6000602082019050610df66000830184610dd2565b92915050565b60008060408385031215610e1357610e12610d6a565b5b6000610e2185828601610d90565b9250506020610e3285828601610d90565b9150509250929050565b600073ffffffffffffffffffffffffffffffffffffffff82169050919050565b6000610e6782610e3c565b9050919050565b610e7781610e5c565b82525050565b7f4e487b7100000000000000000000000000000000000000000000000000000000600052602160045260246000fd5b60068110610ebd57610ebc610e7d565b5b50565b6000819050610ece82610eac565b919050565b6000610ede82610ec0565b9050919050565b610eee81610ed3565b82525050565b60008115159050919050565b610f0981610ef4565b82525050565b600061012082019050610f25600083018c610dd2565b610f32602083018b610e6e565b610f3f604083018a610e6e565b610f4c6060830189610dd2565b610f596080830188610dd2565b610f6660a0830187610dd2565b610f7360c0830186610ee5565b610f8060e0830185610f00565b610f8e610100830184610f00565b9a9950505050505050505050565b600082825260208201905092915050565b7f54686973206973206e6f7420612076616c696420494420666f7220612073746160008201527f6b65210000000000000000000000000000000000000000000000000000000000602082015250565b6000611009602383610f9c565b915061101482610fad565b604082019050919050565b6000602082019050818103600083015261103881610ffc565b9050919050565b7f546865206d617463682068617320746f2066696e697368206265666f7265207460008201527f6865206261636b65722067657473207468652070726f66697473210000000000602082015250565b600061109b603b83610f9c565b91506110a68261103f565b604082019050919050565b600060208201905081810360008301526110ca8161108e565b9050919050565b7f54686520686f72736520646f6573206e65656420746f2072657475726e20616e60008201527f792070726f666974730000000000000000000000000000000000000000000000602082015250565b600061112d602983610f9c565b9150611138826110d1565b604082019050919050565b6000602082019050818103600083015261115c81611120565b9050919050565b7f4e487b7100000000000000000000000000000000000000000000000000000000600052601160045260246000fd5b600061119d82610d6f565b91507fffffffffffffffffffffffffffffffffffffffffffffffffffffffffffffffff8214156111d0576111cf611163565b5b600182019050919050565b60006111e682610e3c565b9050919050565b6111f6816111db565b82525050565b600060408201905061121160008301856111ed565b61121e6020830184610dd2565b9392505050565b6000819050919050565b600061124a61124561124084610e3c565b611225565b610e3c565b9050919050565b600061125c8261122f565b9050919050565b600061126e82611251565b9050919050565b61127e81611263565b82525050565b60006060820190506112996000830186610dd2565b6112a66020830185611275565b6112b36040830184611275565b949350505050565b60006080820190506112d06000830187610dd2565b6112dd6020830186611275565b6112ea6040830185611275565b6112f76060830184610dd2565b95945050505050565b7f596f752063616e6e6f742063616e63656c20796f7572207374616b652c20746860008201527f65206d617463682068617320616c72656164792066696e697368656421000000602082015250565b600061135c603d83610f9c565b915061136782611300565b604082019050919050565b6000602082019050818103600083015261138b8161134f565b905091905056fea26469706673582212201555a20dcc75ed52a3dc721eb496ebb4c3d7f863d315b55b2a578e211509551664736f6c63430008090033",
  "immutableReferences": {},
  "source": "pragma solidity ^0.8.9;\n\ncontract Staking {\n    uint public requestCount = 0;\n    mapping(uint => Stake) public stakes;\n\n    enum StakeStatus {\n        Requested,\n        Filled,\n        Expired,\n        Cancelled,\n        AwaitingReturnPayment,\n        Completed\n    }\n\n    struct Stake {\n        uint id;\n        address payable horse;\n        address payable backer;\n        uint amount;\n        uint profitShare;\n        uint profit;\n        StakeStatus status;\n        bool matchFinished;\n        bool horseWon;\n    }\n\n    // Creating a new stake request\n\n    event StakeRequested(address horse, uint amount);\n\n    /// Profit share must be between 0 and 100\n    error InvalidProfitShare(uint profitShare);\n\n    function createRequest(uint amount, uint profitShare) external {\n        if (profitShare > 100) {\n            revert InvalidProfitShare(profitShare);\n        } \n        stakes[requestCount] = Stake(requestCount, payable(msg.sender), payable(address(0)), amount, profitShare, 0, StakeStatus.Requested,false,false);\n        requestCount++;\n\n        emit StakeRequested(msg.sender, amount);\n    }\n\n    // Staking a request\n    event StakeFilled(uint stakeId, address horse, address backer, uint amount);\n    /// Stake has already been filled/cancelled\n    error StakeNotFillable(uint id);\n    /// Stake does not exist\n    error InvalidStake(uint id);\n    /// You cannot stake yourself\n    error StakingSelf(uint id, address horse, address backer);\n   \n    function stakeHorse(uint id) external payable {\n        require(validId(id), \"This is not a valid ID for a stake!\");\n    \n        Stake memory stake = stakes[id];\n        if (stake.status != StakeStatus.Requested) {\n            revert StakeNotFillable(id);\n        }\n\n        address payable horse = stake.horse;\n        address payable backer = payable(msg.sender);\n        if (horse == backer) {\n            revert StakingSelf(id, horse, backer);\n        }\n\n        // Update stake status and transfer funds\n        stake.status = StakeStatus.Filled;\n        stake.backer = backer;\n        horse.transfer(stake.amount);\n\n        emit StakeFilled(id, horse, backer, stake.amount);\n    }\n\n    // Cancelling a reqested stake\n\n    event StakeCanceled(uint id);\n\n    function cancelStake(uint id) external payable {\n        Stake memory stake = stakes[id];\n        require(validId(id), \"This is not a valid ID for a stake!\");\n        require(!stake.matchFinished, \"You cannot cancel your stake, the match has already finished!\");\n        stake.backer.transfer(stake.amount);\n        //stake.horse.balances -= stake.amount;\n        emit StakeCanceled(id);\n    }\n\n    // Returning profits to backer after completing games\n\n    event ProfitsReturned(uint id);\n\n    function returnProfits(uint id) external payable {\n        Stake memory stake = stakes[id];\n        require(validId(id), \"This is not a valid ID for a stake!\");\n        require(stake.matchFinished,\"The match has to finish before the backer gets the profits!\");\n        require(stake.horseWon, \"The horse does need to return any profits\");\n        stake.backer.transfer(stake.profit);\n        emit ProfitsReturned(id);\n    }\n\n    function validId(uint id) internal returns (bool) {\n        if(id < 0 || id >= requestCount) {\n            return false;\n        }\n        return true;\n    }\n\n}",
  "sourcePath": "/home/dragonulq/decentralized_poker_staking/contracts/Staking.sol",
  "compiler": {
    "name": "solc",
    "version": "0.8.9+commit.e5eed63a.Emscripten.clang"
  },
  "schemaVersion": "3.4.3",
  "updatedAt": "2021-10-20T18:05:10.931Z",
  "networkType": "ethereum",
  "devdoc": {
    "kind": "dev",
    "methods": {},
    "version": 1
  },
  "userdoc": {
    "errors": {
      "InvalidProfitShare(uint256)": [
        {
          "notice": "Profit share must be between 0 and 100"
        }
      ],
      "InvalidStake(uint256)": [
        {
          "notice": "Stake does not exist"
        }
      ],
      "StakeNotFillable(uint256)": [
        {
          "notice": "Stake has already been filled/cancelled"
        }
      ],
      "StakingSelf(uint256,address,address)": [
        {
          "notice": "You cannot stake yourself"
        }
      ]
    },
    "kind": "user",
    "methods": {},
    "version": 1
  }
}