{
  "contractName": "Staking",
  "abi": [
    {
      "inputs": [
        {
          "internalType": "uint256",
          "name": "profitShare",
          "type": "uint256"
        }
      ],
      "name": "InvalidProfitShare",
      "type": "error"
    },
    {
      "inputs": [
        {
          "internalType": "uint256",
          "name": "id",
          "type": "uint256"
        }
      ],
      "name": "StakeNotFillable",
      "type": "error"
    },
    {
      "inputs": [
        {
          "internalType": "uint256",
          "name": "id",
          "type": "uint256"
        },
        {
          "internalType": "address",
          "name": "horse",
          "type": "address"
        },
        {
          "internalType": "address",
          "name": "backer",
          "type": "address"
        }
      ],
      "name": "StakingSelf",
      "type": "error"
    },
    {
      "anonymous": false,
      "inputs": [
        {
          "indexed": false,
          "internalType": "uint256",
          "name": "id",
          "type": "uint256"
        },
        {
          "indexed": false,
          "internalType": "uint256",
          "name": "backerReturns",
          "type": "uint256"
        }
      ],
      "name": "ProfitsReturned",
      "type": "event"
    },
    {
      "anonymous": false,
      "inputs": [
        {
          "indexed": false,
          "internalType": "uint256",
          "name": "id",
          "type": "uint256"
        }
      ],
      "name": "StakeCanceled",
      "type": "event"
    },
    {
      "anonymous": false,
      "inputs": [
        {
          "indexed": false,
          "internalType": "uint256",
          "name": "stakeId",
          "type": "uint256"
        },
        {
          "indexed": false,
          "internalType": "address",
          "name": "horse",
          "type": "address"
        },
        {
          "indexed": false,
          "internalType": "address",
          "name": "backer",
          "type": "address"
        },
        {
          "indexed": false,
          "internalType": "uint256",
          "name": "amount",
          "type": "uint256"
        }
      ],
      "name": "StakeFilled",
      "type": "event"
    },
    {
      "anonymous": false,
      "inputs": [
        {
          "indexed": false,
          "internalType": "address",
          "name": "horse",
          "type": "address"
        },
        {
          "indexed": false,
          "internalType": "uint256",
          "name": "amount",
          "type": "uint256"
        }
      ],
      "name": "StakeRequested",
      "type": "event"
    },
    {
      "inputs": [],
      "name": "requestCount",
      "outputs": [
        {
          "internalType": "uint256",
          "name": "",
          "type": "uint256"
        }
      ],
      "stateMutability": "view",
      "type": "function"
    },
    {
      "inputs": [
        {
          "internalType": "uint256",
          "name": "",
          "type": "uint256"
        }
      ],
      "name": "stakes",
      "outputs": [
        {
          "internalType": "uint256",
          "name": "id",
          "type": "uint256"
        },
        {
          "internalType": "address payable",
          "name": "horse",
          "type": "address"
        },
        {
          "internalType": "address payable",
          "name": "backer",
          "type": "address"
        },
        {
          "internalType": "uint256",
          "name": "amount",
          "type": "uint256"
        },
        {
          "internalType": "uint256",
          "name": "profitShare",
          "type": "uint256"
        },
        {
          "internalType": "uint256",
          "name": "profit",
          "type": "uint256"
        },
        {
          "internalType": "enum Staking.StakeStatus",
          "name": "status",
          "type": "uint8"
        },
        {
          "internalType": "bool",
          "name": "horseWon",
          "type": "bool"
        }
      ],
      "stateMutability": "view",
      "type": "function"
    },
    {
      "inputs": [
        {
          "internalType": "uint256",
          "name": "id",
          "type": "uint256"
        }
      ],
      "name": "getStake",
      "outputs": [
        {
          "components": [
            {
              "internalType": "uint256",
              "name": "id",
              "type": "uint256"
            },
            {
              "internalType": "address payable",
              "name": "horse",
              "type": "address"
            },
            {
              "internalType": "address payable",
              "name": "backer",
              "type": "address"
            },
            {
              "internalType": "uint256",
              "name": "amount",
              "type": "uint256"
            },
            {
              "internalType": "uint256",
              "name": "profitShare",
              "type": "uint256"
            },
            {
              "internalType": "uint256",
              "name": "profit",
              "type": "uint256"
            },
            {
              "internalType": "enum Staking.StakeStatus",
              "name": "status",
              "type": "uint8"
            },
            {
              "internalType": "bool",
              "name": "horseWon",
              "type": "bool"
            }
          ],
          "internalType": "struct Staking.Stake",
          "name": "",
          "type": "tuple"
        }
      ],
      "stateMutability": "view",
      "type": "function"
    },
    {
      "inputs": [
        {
          "internalType": "uint256",
          "name": "amount",
          "type": "uint256"
        },
        {
          "internalType": "uint256",
          "name": "profitShare",
          "type": "uint256"
        }
      ],
      "name": "createRequest",
      "outputs": [],
      "stateMutability": "nonpayable",
      "type": "function"
    },
    {
      "inputs": [
        {
          "internalType": "uint256",
          "name": "id",
          "type": "uint256"
        }
      ],
      "name": "stakeHorse",
      "outputs": [],
      "stateMutability": "payable",
      "type": "function"
    },
    {
      "inputs": [
        {
          "internalType": "uint256",
          "name": "id",
          "type": "uint256"
        }
      ],
      "name": "cancelStakeAsHorse",
      "outputs": [],
      "stateMutability": "payable",
      "type": "function"
    },
    {
      "inputs": [
        {
          "internalType": "uint256",
          "name": "id",
          "type": "uint256"
        },
        {
          "internalType": "uint256",
          "name": "profit",
          "type": "uint256"
        }
      ],
      "name": "returnProfits",
      "outputs": [],
      "stateMutability": "payable",
      "type": "function"
    }
  ],
  "bytecode": "0x60806040526000805534801561001457600080fd5b50611ddc806100246000396000f3fe6080604052600436106100705760003560e01c8063a141efea1161004e578063a141efea146100e5578063a274425014610101578063ce325bf81461011d578063d5a44f861461015a57610070565b80635badbe4c146100755780635f904775146100a057806363c6ded3146100bc575b600080fd5b34801561008157600080fd5b5061008a61019e565b604051610097919061144f565b60405180910390f35b6100ba60048036038101906100b5919061149b565b6101a4565b005b3480156100c857600080fd5b506100e360048036038101906100de91906114c8565b6105ee565b005b6100ff60048036038101906100fa919061149b565b610825565b005b61011b600480360381019061011691906114c8565b610cc2565b005b34801561012957600080fd5b50610144600480360381019061013f919061149b565b611145565b604051610151919061168c565b60405180910390f35b34801561016657600080fd5b50610181600480360381019061017c919061149b565b6112e5565b6040516101959897969594939291906116d5565b60405180910390f35b60005481565b6101ad81611387565b6101ec576040517f08c379a00000000000000000000000000000000000000000000000000000000081526004016101e3906117d6565b60405180910390fd5b60006001600083815260200190815260200160002060405180610100016040529081600082015481526020016001820160009054906101000a900473ffffffffffffffffffffffffffffffffffffffff1673ffffffffffffffffffffffffffffffffffffffff1673ffffffffffffffffffffffffffffffffffffffff1681526020016002820160009054906101000a900473ffffffffffffffffffffffffffffffffffffffff1673ffffffffffffffffffffffffffffffffffffffff1673ffffffffffffffffffffffffffffffffffffffff1681526020016003820154815260200160048201548152602001600582015481526020016006820160009054906101000a900460ff16600581111561030657610305611558565b5b600581111561031857610317611558565b5b81526020016006820160019054906101000a900460ff1615151515815250509050806020015173ffffffffffffffffffffffffffffffffffffffff163373ffffffffffffffffffffffffffffffffffffffff16146103ab576040517f08c379a00000000000000000000000000000000000000000000000000000000081526004016103a290611868565b60405180910390fd5b600060058111156103bf576103be611558565b5b8160c0015160058111156103d6576103d5611558565b5b14610416576040517f08c379a000000000000000000000000000000000000000000000000000000000815260040161040d906118fa565b60405180910390fd5b806040015173ffffffffffffffffffffffffffffffffffffffff166108fc82606001519081150290604051600060405180830381858888f19350505050158015610464573d6000803e3d6000fd5b5060038160c00190600581111561047e5761047d611558565b5b9081600581111561049257610491611558565b5b8152505080600160008481526020019081526020016000206000820151816000015560208201518160010160006101000a81548173ffffffffffffffffffffffffffffffffffffffff021916908373ffffffffffffffffffffffffffffffffffffffff16021790555060408201518160020160006101000a81548173ffffffffffffffffffffffffffffffffffffffff021916908373ffffffffffffffffffffffffffffffffffffffff160217905550606082015181600301556080820151816004015560a0820151816005015560c08201518160060160006101000a81548160ff0219169083600581111561058b5761058a611558565b5b021790555060e08201518160060160016101000a81548160ff0219169083151502179055509050507f228683e8c8f1f5c38d2eae8f5b8e5ef47a084a41ffc5de8b9b38164870c0009f826040516105e2919061144f565b60405180910390a15050565b606481111561063457806040517f7a59383600000000000000000000000000000000000000000000000000000000815260040161062b919061144f565b60405180910390fd5b60405180610100016040528060005481526020013373ffffffffffffffffffffffffffffffffffffffff168152602001600073ffffffffffffffffffffffffffffffffffffffff16815260200183815260200182815260200160008152602001600060058111156106a8576106a7611558565b5b81526020016000151581525060016000805481526020019081526020016000206000820151816000015560208201518160010160006101000a81548173ffffffffffffffffffffffffffffffffffffffff021916908373ffffffffffffffffffffffffffffffffffffffff16021790555060408201518160020160006101000a81548173ffffffffffffffffffffffffffffffffffffffff021916908373ffffffffffffffffffffffffffffffffffffffff160217905550606082015181600301556080820151816004015560a0820151816005015560c08201518160060160006101000a81548160ff021916908360058111156107a9576107a8611558565b5b021790555060e08201518160060160016101000a81548160ff0219169083151502179055509050506000808154809291906107e390611949565b91905055507f49cee4f5002995b36067cf0f209184d84f0b3cc2eb9e0bd67dbde672694beb8233836040516108199291906119b3565b60405180910390a15050565b61082e81611387565b61086d576040517f08c379a0000000000000000000000000000000000000000000000000000000008152600401610864906117d6565b60405180910390fd5b60006001600083815260200190815260200160002060405180610100016040529081600082015481526020016001820160009054906101000a900473ffffffffffffffffffffffffffffffffffffffff1673ffffffffffffffffffffffffffffffffffffffff1673ffffffffffffffffffffffffffffffffffffffff1681526020016002820160009054906101000a900473ffffffffffffffffffffffffffffffffffffffff1673ffffffffffffffffffffffffffffffffffffffff1673ffffffffffffffffffffffffffffffffffffffff1681526020016003820154815260200160048201548152602001600582015481526020016006820160009054906101000a900460ff16600581111561098757610986611558565b5b600581111561099957610998611558565b5b81526020016006820160019054906101000a900460ff1615151515815250509050600060058111156109ce576109cd611558565b5b8160c0015160058111156109e5576109e4611558565b5b14610a2757816040517f63d82b43000000000000000000000000000000000000000000000000000000008152600401610a1e919061144f565b60405180910390fd5b60008160200151905060003390508073ffffffffffffffffffffffffffffffffffffffff168273ffffffffffffffffffffffffffffffffffffffff161415610aaa578382826040517fb6ccca7f000000000000000000000000000000000000000000000000000000008152600401610aa193929190611a3b565b60405180910390fd5b60018360c001906005811115610ac357610ac2611558565b5b90816005811115610ad757610ad6611558565b5b8152505080836040019073ffffffffffffffffffffffffffffffffffffffff16908173ffffffffffffffffffffffffffffffffffffffff16815250508173ffffffffffffffffffffffffffffffffffffffff166108fc84606001519081150290604051600060405180830381858888f19350505050158015610b5d573d6000803e3d6000fd5b5082600160008681526020019081526020016000206000820151816000015560208201518160010160006101000a81548173ffffffffffffffffffffffffffffffffffffffff021916908373ffffffffffffffffffffffffffffffffffffffff16021790555060408201518160020160006101000a81548173ffffffffffffffffffffffffffffffffffffffff021916908373ffffffffffffffffffffffffffffffffffffffff160217905550606082015181600301556080820151816004015560a0820151816005015560c08201518160060160006101000a81548160ff02191690836005811115610c5357610c52611558565b5b021790555060e08201518160060160016101000a81548160ff0219169083151502179055509050507fab1ccc3ac4f271f2e437d159236c5ceed2978a1949de79df70cf17069bac8e208483838660600151604051610cb49493929190611a72565b60405180910390a150505050565b610ccb82611387565b610d0a576040517f08c379a0000000000000000000000000000000000000000000000000000000008152600401610d01906117d6565b60405180910390fd5b60006001600084815260200190815260200160002060405180610100016040529081600082015481526020016001820160009054906101000a900473ffffffffffffffffffffffffffffffffffffffff1673ffffffffffffffffffffffffffffffffffffffff1673ffffffffffffffffffffffffffffffffffffffff1681526020016002820160009054906101000a900473ffffffffffffffffffffffffffffffffffffffff1673ffffffffffffffffffffffffffffffffffffffff1673ffffffffffffffffffffffffffffffffffffffff1681526020016003820154815260200160048201548152602001600582015481526020016006820160009054906101000a900460ff166005811115610e2457610e23611558565b5b6005811115610e3657610e35611558565b5b81526020016006820160019054906101000a900460ff1615151515815250509050806020015173ffffffffffffffffffffffffffffffffffffffff163373ffffffffffffffffffffffffffffffffffffffff1614610ec9576040517f08c379a0000000000000000000000000000000000000000000000000000000008152600401610ec090611b29565b60405180910390fd5b60016005811115610edd57610edc611558565b5b8160c001516005811115610ef457610ef3611558565b5b14610f34576040517f08c379a0000000000000000000000000000000000000000000000000000000008152600401610f2b90611be1565b60405180910390fd5b818160a0018181525050600060648260800151610f519190611c30565b83610f5c9190611c61565b8260600151610f6b9190611cbb565b9050816040015173ffffffffffffffffffffffffffffffffffffffff166108fc829081150290604051600060405180830381858888f19350505050158015610fb7573d6000803e3d6000fd5b5060058260c001906005811115610fd157610fd0611558565b5b90816005811115610fe557610fe4611558565b5b8152505081600160008681526020019081526020016000206000820151816000015560208201518160010160006101000a81548173ffffffffffffffffffffffffffffffffffffffff021916908373ffffffffffffffffffffffffffffffffffffffff16021790555060408201518160020160006101000a81548173ffffffffffffffffffffffffffffffffffffffff021916908373ffffffffffffffffffffffffffffffffffffffff160217905550606082015181600301556080820151816004015560a0820151816005015560c08201518160060160006101000a81548160ff021916908360058111156110de576110dd611558565b5b021790555060e08201518160060160016101000a81548160ff0219169083151502179055509050507f120c71dc5e7cec3dab59d0ac108c8fcf42b7789d60d79cadf046b35476c321b98482604051611137929190611d11565b60405180910390a150505050565b61114d6113b1565b61115682611387565b611195576040517f08c379a000000000000000000000000000000000000000000000000000000000815260040161118c90611d86565b60405180910390fd5b6001600083815260200190815260200160002060405180610100016040529081600082015481526020016001820160009054906101000a900473ffffffffffffffffffffffffffffffffffffffff1673ffffffffffffffffffffffffffffffffffffffff1673ffffffffffffffffffffffffffffffffffffffff1681526020016002820160009054906101000a900473ffffffffffffffffffffffffffffffffffffffff1673ffffffffffffffffffffffffffffffffffffffff1673ffffffffffffffffffffffffffffffffffffffff1681526020016003820154815260200160048201548152602001600582015481526020016006820160009054906101000a900460ff1660058111156112ad576112ac611558565b5b60058111156112bf576112be611558565b5b81526020016006820160019054906101000a900460ff1615151515815250509050919050565b60016020528060005260406000206000915090508060000154908060010160009054906101000a900473ffffffffffffffffffffffffffffffffffffffff16908060020160009054906101000a900473ffffffffffffffffffffffffffffffffffffffff16908060030154908060040154908060050154908060060160009054906101000a900460ff16908060060160019054906101000a900460ff16905088565b60008082108061139957506000548210155b156113a757600090506113ac565b600190505b919050565b60405180610100016040528060008152602001600073ffffffffffffffffffffffffffffffffffffffff168152602001600073ffffffffffffffffffffffffffffffffffffffff1681526020016000815260200160008152602001600081526020016000600581111561142757611426611558565b5b81526020016000151581525090565b6000819050919050565b61144981611436565b82525050565b60006020820190506114646000830184611440565b92915050565b600080fd5b61147881611436565b811461148357600080fd5b50565b6000813590506114958161146f565b92915050565b6000602082840312156114b1576114b061146a565b5b60006114bf84828501611486565b91505092915050565b600080604083850312156114df576114de61146a565b5b60006114ed85828601611486565b92505060206114fe85828601611486565b9150509250929050565b61151181611436565b82525050565b600073ffffffffffffffffffffffffffffffffffffffff82169050919050565b600061154282611517565b9050919050565b61155281611537565b82525050565b7f4e487b7100000000000000000000000000000000000000000000000000000000600052602160045260246000fd5b6006811061159857611597611558565b5b50565b60008190506115a982611587565b919050565b60006115b98261159b565b9050919050565b6115c9816115ae565b82525050565b60008115159050919050565b6115e4816115cf565b82525050565b610100820160008201516116016000850182611508565b5060208201516116146020850182611549565b5060408201516116276040850182611549565b50606082015161163a6060850182611508565b50608082015161164d6080850182611508565b5060a082015161166060a0850182611508565b5060c082015161167360c08501826115c0565b5060e082015161168660e08501826115db565b50505050565b6000610100820190506116a260008301846115ea565b92915050565b6116b181611537565b82525050565b6116c0816115ae565b82525050565b6116cf816115cf565b82525050565b6000610100820190506116eb600083018b611440565b6116f8602083018a6116a8565b61170560408301896116a8565b6117126060830188611440565b61171f6080830187611440565b61172c60a0830186611440565b61173960c08301856116b7565b61174660e08301846116c6565b9998505050505050505050565b600082825260208201905092915050565b7f54686973206973206e6f7420612076616c696420494420666f7220612073746160008201527f6b65210000000000000000000000000000000000000000000000000000000000602082015250565b60006117c0602383611753565b91506117cb82611764565b604082019050919050565b600060208201905081810360008301526117ef816117b3565b9050919050565b7f596f752063616e206f6e6c792063616e63656c20796f7572206f776e2073746160008201527f6b65732100000000000000000000000000000000000000000000000000000000602082015250565b6000611852602483611753565b915061185d826117f6565b604082019050919050565b6000602082019050818103600083015261188181611845565b9050919050565b7f596f752063616e206f6e6c792063616e63656c20796f7572207374616b65206960008201527f6620697420686173206e6f74206265656e2066696c6c65642100000000000000602082015250565b60006118e4603983611753565b91506118ef82611888565b604082019050919050565b60006020820190508181036000830152611913816118d7565b9050919050565b7f4e487b7100000000000000000000000000000000000000000000000000000000600052601160045260246000fd5b600061195482611436565b91507fffffffffffffffffffffffffffffffffffffffffffffffffffffffffffffffff8214156119875761198661191a565b5b600182019050919050565b600061199d82611517565b9050919050565b6119ad81611992565b82525050565b60006040820190506119c860008301856119a4565b6119d56020830184611440565b9392505050565b6000819050919050565b6000611a016119fc6119f784611517565b6119dc565b611517565b9050919050565b6000611a13826119e6565b9050919050565b6000611a2582611a08565b9050919050565b611a3581611a1a565b82525050565b6000606082019050611a506000830186611440565b611a5d6020830185611a2c565b611a6a6040830184611a2c565b949350505050565b6000608082019050611a876000830187611440565b611a946020830186611a2c565b611aa16040830185611a2c565b611aae6060830184611440565b95945050505050565b7f4f6e6c792074686520686f7273652063616e2072657475726e2070726f66697460008201527f7300000000000000000000000000000000000000000000000000000000000000602082015250565b6000611b13602183611753565b9150611b1e82611ab7565b604082019050919050565b60006020820190508181036000830152611b4281611b06565b9050919050565b7f43616e206f6e6c792072657475726e2070726f66697473206f6e20612073746160008201527f6b65207468617420686173206265656e2066696c6c656420616e6420706c617960208201527f65642e0000000000000000000000000000000000000000000000000000000000604082015250565b6000611bcb604383611753565b9150611bd682611b49565b606082019050919050565b60006020820190508181036000830152611bfa81611bbe565b9050919050565b7f4e487b7100000000000000000000000000000000000000000000000000000000600052601260045260246000fd5b6000611c3b82611436565b9150611c4683611436565b925082611c5657611c55611c01565b5b828204905092915050565b6000611c6c82611436565b9150611c7783611436565b9250817fffffffffffffffffffffffffffffffffffffffffffffffffffffffffffffffff0483118215151615611cb057611caf61191a565b5b828202905092915050565b6000611cc682611436565b9150611cd183611436565b9250827fffffffffffffffffffffffffffffffffffffffffffffffffffffffffffffffff03821115611d0657611d0561191a565b5b828201905092915050565b6000604082019050611d266000830185611440565b611d336020830184611440565b9392505050565b7f54686973206973206e6f7420612076616c6964207374616b6520696421000000600082015250565b6000611d70601d83611753565b9150611d7b82611d3a565b602082019050919050565b60006020820190508181036000830152611d9f81611d63565b905091905056fea2646970667358221220fd46e57786c04ec3bae9e794eef63c4238161fa8b36650e2a9e7176e3f3a818464736f6c63430008090033",
  "immutableReferences": {},
  "source": "pragma solidity ^0.8.9;\n\ncontract Staking {\n    uint public requestCount = 0;\n    mapping(uint => Stake) public stakes;\n\n    enum StakeStatus {\n        Requested,\n        Filled,\n        Expired,\n        Cancelled,\n        AwaitingReturnPayment,\n        Completed\n    }\n\n    struct Stake {\n        uint id;\n        address payable horse;\n        address payable backer;\n        uint amount;\n        uint profitShare;\n        uint profit;\n        StakeStatus status;\n        bool horseWon;\n    }\n\n    // Get an individual stake\n\n    function getStake(uint id) external view returns (Stake memory) {\n        require(validId(id), \"This is not a valid stake id!\");\n\n        return stakes[id];\n    }\n\n    // Creating a new stake request\n\n    event StakeRequested(address horse, uint amount);\n\n    /// Profit share must be between 0 and 100\n    error InvalidProfitShare(uint profitShare);\n\n    function createRequest(uint amount, uint profitShare) external {\n        if (profitShare > 100) {\n            revert InvalidProfitShare(profitShare);\n        } \n        stakes[requestCount] = Stake(requestCount, payable(msg.sender), payable(address(0)), amount, profitShare, 0, StakeStatus.Requested,false);\n        requestCount++;\n\n        emit StakeRequested(msg.sender, amount);\n    }\n\n    // Staking a request\n    event StakeFilled(uint stakeId, address horse, address backer, uint amount);\n    /// Stake has already been filled/cancelled\n    error StakeNotFillable(uint id);\n    /// You cannot stake yourself\n    error StakingSelf(uint id, address horse, address backer);\n   \n    function stakeHorse(uint id) external payable {\n        require(validId(id), \"This is not a valid ID for a stake!\");\n    \n        Stake memory stake = stakes[id];\n        if (stake.status != StakeStatus.Requested) {\n            revert StakeNotFillable(id);\n        }\n\n        address payable horse = stake.horse;\n        address payable backer = payable(msg.sender);\n        if (horse == backer) {\n            revert StakingSelf(id, horse, backer);\n        }\n\n        // Update stake status and transfer funds\n        stake.status = StakeStatus.Filled;\n        stake.backer = backer;\n        horse.transfer(stake.amount);\n\n        stakes[id] = stake;\n        emit StakeFilled(id, horse, backer, stake.amount);\n    }\n\n    // Cancelling a reqested stake\n\n    event StakeCanceled(uint id);\n\n    function cancelStakeAsHorse(uint id) external payable {\n        require(validId(id), \"This is not a valid ID for a stake!\");\n        Stake memory stake = stakes[id];\n\n        require(msg.sender == stake.horse, \"You can only cancel your own stakes!\");\n        require(stake.status == StakeStatus.Requested, \"You can only cancel your stake if it has not been filled!\");\n\n        stake.backer.transfer(stake.amount);\n        stake.status = StakeStatus.Cancelled;\n\n        stakes[id] = stake;\n        emit StakeCanceled(id);\n    }\n    \n    // TODO: How might we allow this?\n    \n    // function cancelStakeAsBacker(uint id) external payable {\n    //     Stake memory stake = stakes[id];\n    //     require(msg.sender == stake.backer);\n    //     require(validId(id), \"This is not a valid ID for a stake!\");\n    // }\n\n    // Returning profits to backer after completing games\n\n    event ProfitsReturned(uint id, uint backerReturns);\n\n    // TODO: handle the case where no profit was made\n    function returnProfits(uint id, uint profit) external payable {\n        require(validId(id), \"This is not a valid ID for a stake!\");\n        Stake memory stake = stakes[id];\n\n        require(msg.sender == stake.horse, \"Only the horse can return profits\");\n        require(stake.status == StakeStatus.Filled, \"Can only return profits on a stake that has been filled and played.\");\n\n        // TODO: Check this calculation. Do we do it here or calculate it in the frontend?\n        stake.profit = profit;\n        uint backerReturns = stake.amount + (profit * (stake.profitShare / 100));\n\n        stake.backer.transfer(backerReturns);\n        stake.status = StakeStatus.Completed;\n\n        stakes[id] = stake;\n        emit ProfitsReturned(id, backerReturns);\n    }\n\n    function validId(uint id) internal view returns (bool) {\n        if(id < 0 || id >= requestCount) {\n            return false;\n        }\n        return true;\n    }\n\n}",
  "sourcePath": "/Users/casey/dev/uni/group_project/decentralized_poker_staking/contracts/Staking.sol",
  "compiler": {
    "name": "solc",
    "version": "0.8.9+commit.e5eed63a.Emscripten.clang"
  },
  "schemaVersion": "3.4.3",
  "updatedAt": "2021-10-21T13:28:37.655Z",
  "devdoc": {
    "kind": "dev",
    "methods": {},
    "version": 1
  },
  "userdoc": {
    "errors": {
      "InvalidProfitShare(uint256)": [
        {
          "notice": "Profit share must be between 0 and 100"
        }
      ],
      "StakeNotFillable(uint256)": [
        {
          "notice": "Stake has already been filled/cancelled"
        }
      ],
      "StakingSelf(uint256,address,address)": [
        {
          "notice": "You cannot stake yourself"
        }
      ]
    },
    "kind": "user",
    "methods": {},
    "version": 1
  }
}