{
  "contractName": "Staking",
  "abi": [
    {
      "inputs": [
        {
          "internalType": "uint256",
          "name": "profitShare",
          "type": "uint256"
        }
      ],
      "name": "InvalidProfitShare",
      "type": "error"
    },
    {
      "inputs": [
        {
          "internalType": "uint256",
          "name": "id",
          "type": "uint256"
        }
      ],
      "name": "InvalidStake",
      "type": "error"
    },
    {
      "inputs": [
        {
          "internalType": "uint256",
          "name": "id",
          "type": "uint256"
        }
      ],
      "name": "StakeNotFillable",
      "type": "error"
    },
    {
      "inputs": [
        {
          "internalType": "uint256",
          "name": "id",
          "type": "uint256"
        },
        {
          "internalType": "address",
          "name": "horse",
          "type": "address"
        },
        {
          "internalType": "address",
          "name": "backer",
          "type": "address"
        }
      ],
      "name": "StakingSelf",
      "type": "error"
    },
    {
      "anonymous": false,
      "inputs": [
        {
          "indexed": false,
          "internalType": "uint256",
          "name": "stakeId",
          "type": "uint256"
        },
        {
          "indexed": false,
          "internalType": "address",
          "name": "horse",
          "type": "address"
        },
        {
          "indexed": false,
          "internalType": "address",
          "name": "backer",
          "type": "address"
        },
        {
          "indexed": false,
          "internalType": "uint256",
          "name": "amount",
          "type": "uint256"
        }
      ],
      "name": "StakeFilled",
      "type": "event"
    },
    {
      "anonymous": false,
      "inputs": [
        {
          "indexed": false,
          "internalType": "address",
          "name": "horse",
          "type": "address"
        },
        {
          "indexed": false,
          "internalType": "uint256",
          "name": "amount",
          "type": "uint256"
        }
      ],
      "name": "StakeRequested",
      "type": "event"
    },
    {
      "inputs": [],
      "name": "requestCount",
      "outputs": [
        {
          "internalType": "uint256",
          "name": "",
          "type": "uint256"
        }
      ],
      "stateMutability": "view",
      "type": "function",
      "constant": true
    },
    {
      "inputs": [
        {
          "internalType": "uint256",
          "name": "",
          "type": "uint256"
        }
      ],
      "name": "stakes",
      "outputs": [
        {
          "internalType": "uint256",
          "name": "id",
          "type": "uint256"
        },
        {
          "internalType": "address payable",
          "name": "horse",
          "type": "address"
        },
        {
          "internalType": "address payable",
          "name": "backer",
          "type": "address"
        },
        {
          "internalType": "uint256",
          "name": "amount",
          "type": "uint256"
        },
        {
          "internalType": "uint256",
          "name": "profitShare",
          "type": "uint256"
        },
        {
          "internalType": "uint256",
          "name": "profit",
          "type": "uint256"
        },
        {
          "internalType": "enum Staking.StakeStatus",
          "name": "status",
          "type": "uint8"
        }
      ],
      "stateMutability": "view",
      "type": "function",
      "constant": true
    },
    {
      "inputs": [
        {
          "internalType": "uint256",
          "name": "amount",
          "type": "uint256"
        },
        {
          "internalType": "uint256",
          "name": "profitShare",
          "type": "uint256"
        }
      ],
      "name": "createRequest",
      "outputs": [],
      "stateMutability": "nonpayable",
      "type": "function"
    },
    {
      "inputs": [
        {
          "internalType": "uint256",
          "name": "id",
          "type": "uint256"
        }
      ],
      "name": "stakeHorse",
      "outputs": [],
      "stateMutability": "payable",
      "type": "function",
      "payable": true
    }
  ],
  "bytecode": "0x60806040526000805534801561001457600080fd5b50610ad4806100246000396000f3fe60806040526004361061003f5760003560e01c80635badbe4c1461004457806363c6ded31461006f578063a141efea14610098578063d5a44f86146100b4575b600080fd5b34801561005057600080fd5b506100596100f7565b6040516100669190610721565b60405180910390f35b34801561007b57600080fd5b506100966004803603810190610091919061076d565b6100fd565b005b6100b260048036038101906100ad91906107ad565b61030a565b005b3480156100c057600080fd5b506100db60048036038101906100d691906107ad565b610679565b6040516100ee9796959493929190610892565b60405180910390f35b60005481565b606481111561014357806040517f7a59383600000000000000000000000000000000000000000000000000000000815260040161013a9190610721565b60405180910390fd5b6040518060e0016040528060005481526020013373ffffffffffffffffffffffffffffffffffffffff168152602001600073ffffffffffffffffffffffffffffffffffffffff16815260200183815260200182815260200160008152602001600060058111156101b6576101b561081b565b5b81525060016000805481526020019081526020016000206000820151816000015560208201518160010160006101000a81548173ffffffffffffffffffffffffffffffffffffffff021916908373ffffffffffffffffffffffffffffffffffffffff16021790555060408201518160020160006101000a81548173ffffffffffffffffffffffffffffffffffffffff021916908373ffffffffffffffffffffffffffffffffffffffff160217905550606082015181600301556080820151816004015560a0820151816005015560c08201518160060160006101000a81548160ff021916908360058111156102ae576102ad61081b565b5b02179055509050506000808154809291906102c890610930565b91905055507f49cee4f5002995b36067cf0f209184d84f0b3cc2eb9e0bd67dbde672694beb8233836040516102fe92919061099a565b60405180910390a15050565b600081108061031b57506000548110155b1561035d57806040517f4da22e160000000000000000000000000000000000000000000000000000000081526004016103549190610721565b60405180910390fd5b6000600160008381526020019081526020016000206040518060e0016040529081600082015481526020016001820160009054906101000a900473ffffffffffffffffffffffffffffffffffffffff1673ffffffffffffffffffffffffffffffffffffffff1673ffffffffffffffffffffffffffffffffffffffff1681526020016002820160009054906101000a900473ffffffffffffffffffffffffffffffffffffffff1673ffffffffffffffffffffffffffffffffffffffff1673ffffffffffffffffffffffffffffffffffffffff1681526020016003820154815260200160048201548152602001600582015481526020016006820160009054906101000a900460ff1660058111156104765761047561081b565b5b60058111156104885761048761081b565b5b815250509050600060058111156104a2576104a161081b565b5b8160c0015160058111156104b9576104b861081b565b5b146104fb57816040517f63d82b430000000000000000000000000000000000000000000000000000000081526004016104f29190610721565b60405180910390fd5b60008160200151905060003390508073ffffffffffffffffffffffffffffffffffffffff168273ffffffffffffffffffffffffffffffffffffffff16141561057e578382826040517fb6ccca7f00000000000000000000000000000000000000000000000000000000815260040161057593929190610a22565b60405180910390fd5b60018360c0019060058111156105975761059661081b565b5b908160058111156105ab576105aa61081b565b5b8152505080836040019073ffffffffffffffffffffffffffffffffffffffff16908173ffffffffffffffffffffffffffffffffffffffff16815250508173ffffffffffffffffffffffffffffffffffffffff166108fc84606001519081150290604051600060405180830381858888f19350505050158015610631573d6000803e3d6000fd5b507fab1ccc3ac4f271f2e437d159236c5ceed2978a1949de79df70cf17069bac8e20848383866060015160405161066b9493929190610a59565b60405180910390a150505050565b60016020528060005260406000206000915090508060000154908060010160009054906101000a900473ffffffffffffffffffffffffffffffffffffffff16908060020160009054906101000a900473ffffffffffffffffffffffffffffffffffffffff16908060030154908060040154908060050154908060060160009054906101000a900460ff16905087565b6000819050919050565b61071b81610708565b82525050565b60006020820190506107366000830184610712565b92915050565b600080fd5b61074a81610708565b811461075557600080fd5b50565b60008135905061076781610741565b92915050565b600080604083850312156107845761078361073c565b5b600061079285828601610758565b92505060206107a385828601610758565b9150509250929050565b6000602082840312156107c3576107c261073c565b5b60006107d184828501610758565b91505092915050565b600073ffffffffffffffffffffffffffffffffffffffff82169050919050565b6000610805826107da565b9050919050565b610815816107fa565b82525050565b7f4e487b7100000000000000000000000000000000000000000000000000000000600052602160045260246000fd5b6006811061085b5761085a61081b565b5b50565b600081905061086c8261084a565b919050565b600061087c8261085e565b9050919050565b61088c81610871565b82525050565b600060e0820190506108a7600083018a610712565b6108b4602083018961080c565b6108c1604083018861080c565b6108ce6060830187610712565b6108db6080830186610712565b6108e860a0830185610712565b6108f560c0830184610883565b98975050505050505050565b7f4e487b7100000000000000000000000000000000000000000000000000000000600052601160045260246000fd5b600061093b82610708565b91507fffffffffffffffffffffffffffffffffffffffffffffffffffffffffffffffff82141561096e5761096d610901565b5b600182019050919050565b6000610984826107da565b9050919050565b61099481610979565b82525050565b60006040820190506109af600083018561098b565b6109bc6020830184610712565b9392505050565b6000819050919050565b60006109e86109e36109de846107da565b6109c3565b6107da565b9050919050565b60006109fa826109cd565b9050919050565b6000610a0c826109ef565b9050919050565b610a1c81610a01565b82525050565b6000606082019050610a376000830186610712565b610a446020830185610a13565b610a516040830184610a13565b949350505050565b6000608082019050610a6e6000830187610712565b610a7b6020830186610a13565b610a886040830185610a13565b610a956060830184610712565b9594505050505056fea2646970667358221220ab3e4cd6ab66424867d62d3fe34054c420052bd4c70710e2dec08d000024c3a664736f6c63430008090033",
  "immutableReferences": {},
  "source": "pragma solidity ^0.8.9;\n\ncontract Staking {\n    uint public requestCount = 0;\n    mapping(uint => Stake) public stakes;\n\n    enum StakeStatus {\n        Requested,\n        Filled,\n        Expired,\n        Cancelled,\n        AwaitingReturnPayment,\n        Completed\n    }\n\n    struct Stake {\n        uint id;\n        address payable horse;\n        address payable backer;\n        uint amount;\n        uint profitShare;\n        uint profit;\n        StakeStatus status;\n    }\n\n    // Creating a new stake request\n\n    event StakeRequested(address horse, uint amount);\n\n    /// Profit share must be between 0 and 100\n    error InvalidProfitShare(uint profitShare);\n\n    function createRequest(uint amount, uint profitShare) external {\n        if (profitShare > 100) {\n            revert InvalidProfitShare(profitShare);\n        } \n        stakes[requestCount] = Stake(requestCount, payable(msg.sender), payable(address(0)), amount, profitShare, 0, StakeStatus.Requested);\n        requestCount++;\n\n        emit StakeRequested(msg.sender, amount);\n    }\n\n    // Staking a request\n\n    event StakeFilled(uint stakeId, address horse, address backer, uint amount);\n\n    /// Stake has already been filled/cancelled\n    error StakeNotFillable(uint id);\n    /// Stake does not exist\n    error InvalidStake(uint id);\n    /// You cannot stake yourself\n    error StakingSelf(uint id, address horse, address backer);\n\n    function stakeHorse(uint id) external payable {\n        if (id < 0 || id >= requestCount) {\n            revert InvalidStake(id);\n        }\n\n        Stake memory stake = stakes[id];\n        if (stake.status != StakeStatus.Requested) {\n            revert StakeNotFillable(id);\n        }\n\n        address payable horse = stake.horse;\n        address payable backer = payable(msg.sender);\n        if (horse == backer) {\n            revert StakingSelf(id, horse, backer);\n        }\n\n        // Update stake status and transfer funds\n        stake.status = StakeStatus.Filled;\n        stake.backer = backer;\n        horse.transfer(stake.amount);\n\n        emit StakeFilled(id, horse, backer, stake.amount);\n    }\n\n    // Cancelling a reqested stake\n\n\n    // Returning profits to backer after completing games\n\n}",
  "sourcePath": "/Users/casey/dev/uni/group_project/decentralized_poker_staking/contracts/Staking.sol",
  "compiler": {
    "name": "solc",
    "version": "0.8.9+commit.e5eed63a.Emscripten.clang"
  },
  "schemaVersion": "3.4.3",
  "updatedAt": "2021-10-20T10:53:41.590Z",
  "networkType": "ethereum",
  "devdoc": {
    "kind": "dev",
    "methods": {},
    "version": 1
  },
  "userdoc": {
    "errors": {
      "InvalidProfitShare(uint256)": [
        {
          "notice": "Profit share must be between 0 and 100"
        }
      ],
      "InvalidStake(uint256)": [
        {
          "notice": "Stake does not exist"
        }
      ],
      "StakeNotFillable(uint256)": [
        {
          "notice": "Stake has already been filled/cancelled"
        }
      ],
      "StakingSelf(uint256,address,address)": [
        {
          "notice": "You cannot stake yourself"
        }
      ]
    },
    "kind": "user",
    "methods": {},
    "version": 1
  }
}