{
  "contractName": "Staking",
  "abi": [
    {
      "inputs": [
        {
          "internalType": "uint256",
          "name": "profitShare",
          "type": "uint256"
        }
      ],
      "name": "InvalidProfitShare",
      "type": "error"
    },
    {
      "inputs": [
        {
          "internalType": "uint256",
          "name": "id",
          "type": "uint256"
        }
      ],
      "name": "InvalidStakeId",
      "type": "error"
    },
    {
      "inputs": [
        {
          "internalType": "uint256",
          "name": "id",
          "type": "uint256"
        }
      ],
      "name": "StakeNotFillable",
      "type": "error"
    },
    {
      "inputs": [
        {
          "internalType": "uint256",
          "name": "id",
          "type": "uint256"
        },
        {
          "internalType": "address",
          "name": "horse",
          "type": "address"
        },
        {
          "internalType": "address",
          "name": "backer",
          "type": "address"
        }
      ],
      "name": "StakingSelf",
      "type": "error"
    },
    {
      "anonymous": false,
      "inputs": [
        {
          "indexed": false,
          "internalType": "uint256",
          "name": "id",
          "type": "uint256"
        },
        {
          "indexed": false,
          "internalType": "uint256",
          "name": "backerReturns",
          "type": "uint256"
        }
      ],
      "name": "ProfitsReturned",
      "type": "event"
    },
    {
      "anonymous": false,
      "inputs": [
        {
          "indexed": false,
          "internalType": "uint256",
          "name": "id",
          "type": "uint256"
        }
      ],
      "name": "StakeCanceled",
      "type": "event"
    },
    {
      "anonymous": false,
      "inputs": [
        {
          "indexed": false,
          "internalType": "uint256",
          "name": "stakeId",
          "type": "uint256"
        },
        {
          "indexed": false,
          "internalType": "address",
          "name": "horse",
          "type": "address"
        },
        {
          "indexed": false,
          "internalType": "address",
          "name": "backer",
          "type": "address"
        },
        {
          "indexed": false,
          "internalType": "uint256",
          "name": "amount",
          "type": "uint256"
        }
      ],
      "name": "StakeFilled",
      "type": "event"
    },
    {
      "anonymous": false,
      "inputs": [
        {
          "indexed": false,
          "internalType": "address",
          "name": "horse",
          "type": "address"
        },
        {
          "indexed": false,
          "internalType": "uint256",
          "name": "amount",
          "type": "uint256"
        }
      ],
      "name": "StakeRequested",
      "type": "event"
    },
    {
      "inputs": [],
      "name": "requestCount",
      "outputs": [
        {
          "internalType": "uint256",
          "name": "",
          "type": "uint256"
        }
      ],
      "stateMutability": "view",
      "type": "function",
      "constant": true
    },
    {
      "inputs": [
        {
          "internalType": "uint256",
          "name": "",
          "type": "uint256"
        }
      ],
      "name": "stakes",
      "outputs": [
        {
          "internalType": "uint256",
          "name": "id",
          "type": "uint256"
        },
        {
          "internalType": "address payable",
          "name": "horse",
          "type": "address"
        },
        {
          "internalType": "address payable",
          "name": "backer",
          "type": "address"
        },
        {
          "internalType": "uint256",
          "name": "amount",
          "type": "uint256"
        },
        {
          "internalType": "uint256",
          "name": "profitShare",
          "type": "uint256"
        },
        {
          "internalType": "uint256",
          "name": "profit",
          "type": "uint256"
        },
        {
          "internalType": "enum Staking.StakeStatus",
          "name": "status",
          "type": "uint8"
        },
        {
          "internalType": "bool",
          "name": "horseWon",
          "type": "bool"
        }
      ],
      "stateMutability": "view",
      "type": "function",
      "constant": true
    },
    {
      "inputs": [
        {
          "internalType": "uint256",
          "name": "id",
          "type": "uint256"
        }
      ],
      "name": "getStake",
      "outputs": [
        {
          "components": [
            {
              "internalType": "uint256",
              "name": "id",
              "type": "uint256"
            },
            {
              "internalType": "address payable",
              "name": "horse",
              "type": "address"
            },
            {
              "internalType": "address payable",
              "name": "backer",
              "type": "address"
            },
            {
              "internalType": "uint256",
              "name": "amount",
              "type": "uint256"
            },
            {
              "internalType": "uint256",
              "name": "profitShare",
              "type": "uint256"
            },
            {
              "internalType": "uint256",
              "name": "profit",
              "type": "uint256"
            },
            {
              "internalType": "enum Staking.StakeStatus",
              "name": "status",
              "type": "uint8"
            },
            {
              "internalType": "bool",
              "name": "horseWon",
              "type": "bool"
            }
          ],
          "internalType": "struct Staking.Stake",
          "name": "",
          "type": "tuple"
        }
      ],
      "stateMutability": "view",
      "type": "function",
      "constant": true
    },
    {
      "inputs": [
        {
          "internalType": "uint256",
          "name": "amount",
          "type": "uint256"
        },
        {
          "internalType": "uint256",
          "name": "profitShare",
          "type": "uint256"
        }
      ],
      "name": "createRequest",
      "outputs": [],
      "stateMutability": "nonpayable",
      "type": "function"
    },
    {
      "inputs": [
        {
          "internalType": "uint256",
          "name": "id",
          "type": "uint256"
        }
      ],
      "name": "stakeHorse",
      "outputs": [],
      "stateMutability": "payable",
      "type": "function",
      "payable": true
    },
    {
      "inputs": [
        {
          "internalType": "uint256",
          "name": "id",
          "type": "uint256"
        }
      ],
      "name": "cancelStakeAsHorse",
      "outputs": [],
      "stateMutability": "payable",
      "type": "function",
      "payable": true
    },
    {
      "inputs": [
        {
          "internalType": "uint256",
          "name": "id",
          "type": "uint256"
        },
        {
          "internalType": "uint256",
          "name": "profit",
          "type": "uint256"
        }
      ],
      "name": "returnProfits",
      "outputs": [],
      "stateMutability": "payable",
      "type": "function",
      "payable": true
    }
  ],
  "bytecode": "0x60806040526000805534801561001457600080fd5b50611e5f806100246000396000f3fe6080604052600436106100705760003560e01c8063a141efea1161004e578063a141efea146100e5578063a274425014610101578063ce325bf81461011d578063d5a44f861461015a57610070565b80635badbe4c146100755780635f904775146100a057806363c6ded3146100bc575b600080fd5b34801561008157600080fd5b5061008a61019e565b60405161009791906114a3565b60405180910390f35b6100ba60048036038101906100b591906114ef565b6101a4565b005b3480156100c857600080fd5b506100e360048036038101906100de919061151c565b6105ee565b005b6100ff60048036038101906100fa91906114ef565b610898565b005b61011b6004803603810190610116919061151c565b610d33565b005b34801561012957600080fd5b50610144600480360381019061013f91906114ef565b6111b6565b60405161015191906116e0565b60405180910390f35b34801561016657600080fd5b50610181600480360381019061017c91906114ef565b611356565b604051610195989796959493929190611729565b60405180910390f35b60005481565b6101ad816113f8565b6101ec576040517f08c379a00000000000000000000000000000000000000000000000000000000081526004016101e39061182a565b60405180910390fd5b60006001600083815260200190815260200160002060405180610100016040529081600082015481526020016001820160009054906101000a900473ffffffffffffffffffffffffffffffffffffffff1673ffffffffffffffffffffffffffffffffffffffff1673ffffffffffffffffffffffffffffffffffffffff1681526020016002820160009054906101000a900473ffffffffffffffffffffffffffffffffffffffff1673ffffffffffffffffffffffffffffffffffffffff1673ffffffffffffffffffffffffffffffffffffffff1681526020016003820154815260200160048201548152602001600582015481526020016006820160009054906101000a900460ff166005811115610306576103056115ac565b5b6005811115610318576103176115ac565b5b81526020016006820160019054906101000a900460ff1615151515815250509050806020015173ffffffffffffffffffffffffffffffffffffffff163373ffffffffffffffffffffffffffffffffffffffff16146103ab576040517f08c379a00000000000000000000000000000000000000000000000000000000081526004016103a2906118bc565b60405180910390fd5b600060058111156103bf576103be6115ac565b5b8160c0015160058111156103d6576103d56115ac565b5b14610416576040517f08c379a000000000000000000000000000000000000000000000000000000000815260040161040d9061194e565b60405180910390fd5b806040015173ffffffffffffffffffffffffffffffffffffffff166108fc82606001519081150290604051600060405180830381858888f19350505050158015610464573d6000803e3d6000fd5b5060038160c00190600581111561047e5761047d6115ac565b5b90816005811115610492576104916115ac565b5b8152505080600160008481526020019081526020016000206000820151816000015560208201518160010160006101000a81548173ffffffffffffffffffffffffffffffffffffffff021916908373ffffffffffffffffffffffffffffffffffffffff16021790555060408201518160020160006101000a81548173ffffffffffffffffffffffffffffffffffffffff021916908373ffffffffffffffffffffffffffffffffffffffff160217905550606082015181600301556080820151816004015560a0820151816005015560c08201518160060160006101000a81548160ff0219169083600581111561058b5761058a6115ac565b5b021790555060e08201518160060160016101000a81548160ff0219169083151502179055509050507f228683e8c8f1f5c38d2eae8f5b8e5ef47a084a41ffc5de8b9b38164870c0009f826040516105e291906114a3565b60405180910390a15050565b606481111561063457806040517f7a59383600000000000000000000000000000000000000000000000000000000815260040161062b91906114a3565b60405180910390fd5b60405180610100016040528060005481526020013373ffffffffffffffffffffffffffffffffffffffff168152602001600073ffffffffffffffffffffffffffffffffffffffff16815260200183815260200182815260200160008152602001600060058111156106a8576106a76115ac565b5b81526020016000151581525060016000805481526020019081526020016000206000820151816000015560208201518160010160006101000a81548173ffffffffffffffffffffffffffffffffffffffff021916908373ffffffffffffffffffffffffffffffffffffffff16021790555060408201518160020160006101000a81548173ffffffffffffffffffffffffffffffffffffffff021916908373ffffffffffffffffffffffffffffffffffffffff160217905550606082015181600301556080820151816004015560a0820151816005015560c08201518160060160006101000a81548160ff021916908360058111156107a9576107a86115ac565b5b021790555060e08201518160060160016101000a81548160ff0219169083151502179055509050503373ffffffffffffffffffffffffffffffffffffffff16600160008054815260200190815260200160002060010160009054906101000a900473ffffffffffffffffffffffffffffffffffffffff1673ffffffffffffffffffffffffffffffffffffffff16146108445761084361196e565b5b600080815480929190610856906119cc565b91905055507f49cee4f5002995b36067cf0f209184d84f0b3cc2eb9e0bd67dbde672694beb82338360405161088c929190611a36565b60405180910390a15050565b60005481106108de57806040517f664015160000000000000000000000000000000000000000000000000000000081526004016108d591906114a3565b60405180910390fd5b60006001600083815260200190815260200160002060405180610100016040529081600082015481526020016001820160009054906101000a900473ffffffffffffffffffffffffffffffffffffffff1673ffffffffffffffffffffffffffffffffffffffff1673ffffffffffffffffffffffffffffffffffffffff1681526020016002820160009054906101000a900473ffffffffffffffffffffffffffffffffffffffff1673ffffffffffffffffffffffffffffffffffffffff1673ffffffffffffffffffffffffffffffffffffffff1681526020016003820154815260200160048201548152602001600582015481526020016006820160009054906101000a900460ff1660058111156109f8576109f76115ac565b5b6005811115610a0a57610a096115ac565b5b81526020016006820160019054906101000a900460ff161515151581525050905060006005811115610a3f57610a3e6115ac565b5b8160c001516005811115610a5657610a556115ac565b5b14610a9857816040517f63d82b43000000000000000000000000000000000000000000000000000000008152600401610a8f91906114a3565b60405180910390fd5b60008160200151905060003390508073ffffffffffffffffffffffffffffffffffffffff168273ffffffffffffffffffffffffffffffffffffffff161415610b1b578382826040517fb6ccca7f000000000000000000000000000000000000000000000000000000008152600401610b1293929190611abe565b60405180910390fd5b60018360c001906005811115610b3457610b336115ac565b5b90816005811115610b4857610b476115ac565b5b8152505080836040019073ffffffffffffffffffffffffffffffffffffffff16908173ffffffffffffffffffffffffffffffffffffffff16815250508173ffffffffffffffffffffffffffffffffffffffff166108fc84606001519081150290604051600060405180830381858888f19350505050158015610bce573d6000803e3d6000fd5b5082600160008681526020019081526020016000206000820151816000015560208201518160010160006101000a81548173ffffffffffffffffffffffffffffffffffffffff021916908373ffffffffffffffffffffffffffffffffffffffff16021790555060408201518160020160006101000a81548173ffffffffffffffffffffffffffffffffffffffff021916908373ffffffffffffffffffffffffffffffffffffffff160217905550606082015181600301556080820151816004015560a0820151816005015560c08201518160060160006101000a81548160ff02191690836005811115610cc457610cc36115ac565b5b021790555060e08201518160060160016101000a81548160ff0219169083151502179055509050507fab1ccc3ac4f271f2e437d159236c5ceed2978a1949de79df70cf17069bac8e208483838660600151604051610d259493929190611af5565b60405180910390a150505050565b610d3c826113f8565b610d7b576040517f08c379a0000000000000000000000000000000000000000000000000000000008152600401610d729061182a565b60405180910390fd5b60006001600084815260200190815260200160002060405180610100016040529081600082015481526020016001820160009054906101000a900473ffffffffffffffffffffffffffffffffffffffff1673ffffffffffffffffffffffffffffffffffffffff1673ffffffffffffffffffffffffffffffffffffffff1681526020016002820160009054906101000a900473ffffffffffffffffffffffffffffffffffffffff1673ffffffffffffffffffffffffffffffffffffffff1673ffffffffffffffffffffffffffffffffffffffff1681526020016003820154815260200160048201548152602001600582015481526020016006820160009054906101000a900460ff166005811115610e9557610e946115ac565b5b6005811115610ea757610ea66115ac565b5b81526020016006820160019054906101000a900460ff1615151515815250509050806020015173ffffffffffffffffffffffffffffffffffffffff163373ffffffffffffffffffffffffffffffffffffffff1614610f3a576040517f08c379a0000000000000000000000000000000000000000000000000000000008152600401610f3190611bac565b60405180910390fd5b60016005811115610f4e57610f4d6115ac565b5b8160c001516005811115610f6557610f646115ac565b5b14610fa5576040517f08c379a0000000000000000000000000000000000000000000000000000000008152600401610f9c90611c64565b60405180910390fd5b818160a0018181525050600060648260800151610fc29190611cb3565b83610fcd9190611ce4565b8260600151610fdc9190611d3e565b9050816040015173ffffffffffffffffffffffffffffffffffffffff166108fc829081150290604051600060405180830381858888f19350505050158015611028573d6000803e3d6000fd5b5060058260c001906005811115611042576110416115ac565b5b90816005811115611056576110556115ac565b5b8152505081600160008681526020019081526020016000206000820151816000015560208201518160010160006101000a81548173ffffffffffffffffffffffffffffffffffffffff021916908373ffffffffffffffffffffffffffffffffffffffff16021790555060408201518160020160006101000a81548173ffffffffffffffffffffffffffffffffffffffff021916908373ffffffffffffffffffffffffffffffffffffffff160217905550606082015181600301556080820151816004015560a0820151816005015560c08201518160060160006101000a81548160ff0219169083600581111561114f5761114e6115ac565b5b021790555060e08201518160060160016101000a81548160ff0219169083151502179055509050507f120c71dc5e7cec3dab59d0ac108c8fcf42b7789d60d79cadf046b35476c321b984826040516111a8929190611d94565b60405180910390a150505050565b6111be611405565b6111c7826113f8565b611206576040517f08c379a00000000000000000000000000000000000000000000000000000000081526004016111fd90611e09565b60405180910390fd5b6001600083815260200190815260200160002060405180610100016040529081600082015481526020016001820160009054906101000a900473ffffffffffffffffffffffffffffffffffffffff1673ffffffffffffffffffffffffffffffffffffffff1673ffffffffffffffffffffffffffffffffffffffff1681526020016002820160009054906101000a900473ffffffffffffffffffffffffffffffffffffffff1673ffffffffffffffffffffffffffffffffffffffff1673ffffffffffffffffffffffffffffffffffffffff1681526020016003820154815260200160048201548152602001600582015481526020016006820160009054906101000a900460ff16600581111561131e5761131d6115ac565b5b60058111156113305761132f6115ac565b5b81526020016006820160019054906101000a900460ff1615151515815250509050919050565b60016020528060005260406000206000915090508060000154908060010160009054906101000a900473ffffffffffffffffffffffffffffffffffffffff16908060020160009054906101000a900473ffffffffffffffffffffffffffffffffffffffff16908060030154908060040154908060050154908060060160009054906101000a900460ff16908060060160019054906101000a900460ff16905088565b6000805482109050919050565b60405180610100016040528060008152602001600073ffffffffffffffffffffffffffffffffffffffff168152602001600073ffffffffffffffffffffffffffffffffffffffff1681526020016000815260200160008152602001600081526020016000600581111561147b5761147a6115ac565b5b81526020016000151581525090565b6000819050919050565b61149d8161148a565b82525050565b60006020820190506114b86000830184611494565b92915050565b600080fd5b6114cc8161148a565b81146114d757600080fd5b50565b6000813590506114e9816114c3565b92915050565b600060208284031215611505576115046114be565b5b6000611513848285016114da565b91505092915050565b60008060408385031215611533576115326114be565b5b6000611541858286016114da565b9250506020611552858286016114da565b9150509250929050565b6115658161148a565b82525050565b600073ffffffffffffffffffffffffffffffffffffffff82169050919050565b60006115968261156b565b9050919050565b6115a68161158b565b82525050565b7f4e487b7100000000000000000000000000000000000000000000000000000000600052602160045260246000fd5b600681106115ec576115eb6115ac565b5b50565b60008190506115fd826115db565b919050565b600061160d826115ef565b9050919050565b61161d81611602565b82525050565b60008115159050919050565b61163881611623565b82525050565b61010082016000820151611655600085018261155c565b506020820151611668602085018261159d565b50604082015161167b604085018261159d565b50606082015161168e606085018261155c565b5060808201516116a1608085018261155c565b5060a08201516116b460a085018261155c565b5060c08201516116c760c0850182611614565b5060e08201516116da60e085018261162f565b50505050565b6000610100820190506116f6600083018461163e565b92915050565b6117058161158b565b82525050565b61171481611602565b82525050565b61172381611623565b82525050565b60006101008201905061173f600083018b611494565b61174c602083018a6116fc565b61175960408301896116fc565b6117666060830188611494565b6117736080830187611494565b61178060a0830186611494565b61178d60c083018561170b565b61179a60e083018461171a565b9998505050505050505050565b600082825260208201905092915050565b7f54686973206973206e6f7420612076616c696420494420666f7220612073746160008201527f6b65210000000000000000000000000000000000000000000000000000000000602082015250565b60006118146023836117a7565b915061181f826117b8565b604082019050919050565b6000602082019050818103600083015261184381611807565b9050919050565b7f596f752063616e206f6e6c792063616e63656c20796f7572206f776e2073746160008201527f6b65732100000000000000000000000000000000000000000000000000000000602082015250565b60006118a66024836117a7565b91506118b18261184a565b604082019050919050565b600060208201905081810360008301526118d581611899565b9050919050565b7f596f752063616e206f6e6c792063616e63656c20796f7572207374616b65206960008201527f6620697420686173206e6f74206265656e2066696c6c65642100000000000000602082015250565b60006119386039836117a7565b9150611943826118dc565b604082019050919050565b600060208201905081810360008301526119678161192b565b9050919050565b7f4e487b7100000000000000000000000000000000000000000000000000000000600052600160045260246000fd5b7f4e487b7100000000000000000000000000000000000000000000000000000000600052601160045260246000fd5b60006119d78261148a565b91507fffffffffffffffffffffffffffffffffffffffffffffffffffffffffffffffff821415611a0a57611a0961199d565b5b600182019050919050565b6000611a208261156b565b9050919050565b611a3081611a15565b82525050565b6000604082019050611a4b6000830185611a27565b611a586020830184611494565b9392505050565b6000819050919050565b6000611a84611a7f611a7a8461156b565b611a5f565b61156b565b9050919050565b6000611a9682611a69565b9050919050565b6000611aa882611a8b565b9050919050565b611ab881611a9d565b82525050565b6000606082019050611ad36000830186611494565b611ae06020830185611aaf565b611aed6040830184611aaf565b949350505050565b6000608082019050611b0a6000830187611494565b611b176020830186611aaf565b611b246040830185611aaf565b611b316060830184611494565b95945050505050565b7f4f6e6c792074686520686f7273652063616e2072657475726e2070726f66697460008201527f7300000000000000000000000000000000000000000000000000000000000000602082015250565b6000611b966021836117a7565b9150611ba182611b3a565b604082019050919050565b60006020820190508181036000830152611bc581611b89565b9050919050565b7f43616e206f6e6c792072657475726e2070726f66697473206f6e20612073746160008201527f6b65207468617420686173206265656e2066696c6c656420616e6420706c617960208201527f65642e0000000000000000000000000000000000000000000000000000000000604082015250565b6000611c4e6043836117a7565b9150611c5982611bcc565b606082019050919050565b60006020820190508181036000830152611c7d81611c41565b9050919050565b7f4e487b7100000000000000000000000000000000000000000000000000000000600052601260045260246000fd5b6000611cbe8261148a565b9150611cc98361148a565b925082611cd957611cd8611c84565b5b828204905092915050565b6000611cef8261148a565b9150611cfa8361148a565b9250817fffffffffffffffffffffffffffffffffffffffffffffffffffffffffffffffff0483118215151615611d3357611d3261199d565b5b828202905092915050565b6000611d498261148a565b9150611d548361148a565b9250827fffffffffffffffffffffffffffffffffffffffffffffffffffffffffffffffff03821115611d8957611d8861199d565b5b828201905092915050565b6000604082019050611da96000830185611494565b611db66020830184611494565b9392505050565b7f54686973206973206e6f7420612076616c6964207374616b6520696421000000600082015250565b6000611df3601d836117a7565b9150611dfe82611dbd565b602082019050919050565b60006020820190508181036000830152611e2281611de6565b905091905056fea264697066735822122033357b27db9368e9e55d80283aed4fa291ff8e47e617c13469c1de8c22eb434f64736f6c63430008090033",
  "immutableReferences": {},
  "source": "pragma solidity ^0.8.9;\n\ncontract Staking {\n    uint public requestCount = 0;\n    mapping(uint => Stake) public stakes;\n\n    enum StakeStatus {\n        Requested,\n        Filled,\n        Expired,\n        Cancelled,\n        AwaitingReturnPayment,\n        Completed\n    }\n\n    struct Stake {\n        uint id;\n        address payable horse;\n        address payable backer;\n        uint amount;\n        uint profitShare;\n        uint profit;\n        StakeStatus status;\n        bool horseWon;\n    }\n\n    // Get an individual stake\n\n    function getStake(uint id) external view returns (Stake memory) {\n        require(validId(id), \"This is not a valid stake id!\");\n\n        return stakes[id];\n    }\n\n    // Creating a new stake request\n\n    event StakeRequested(address horse, uint amount);\n\n    /// Profit share must be between 0 and 100\n    error InvalidProfitShare(uint profitShare);\n\n    function createRequest(uint amount, uint profitShare) external {\n        if (profitShare > 100) {\n            revert InvalidProfitShare(profitShare);\n        } \n        stakes[requestCount] = Stake(requestCount, payable(msg.sender), payable(address(0)), amount, profitShare, 0, StakeStatus.Requested, false);\n        assert(stakes[requestCount].horse == msg.sender);\n        requestCount++;\n\n        emit StakeRequested(msg.sender, amount);\n    }\n\n    // Staking a request\n    event StakeFilled(uint stakeId, address horse, address backer, uint amount);\n    /// Stake has already been filled/cancelled\n    error StakeNotFillable(uint id);\n    /// You cannot stake yourself\n    error StakingSelf(uint id, address horse, address backer);\n    /// Not a valid id for a stake request\n    error InvalidStakeId(uint id);\n   \n    function stakeHorse(uint id) external payable {\n        // require(validId(id), \"This is not a valid ID for a stake!\");\n        if (id >= requestCount) {\n            revert InvalidStakeId(id);\n        }\n    \n        Stake memory stake = stakes[id];\n        if (stake.status != StakeStatus.Requested) {\n            revert StakeNotFillable(id);\n        }\n\n        address payable horse = stake.horse;\n        address payable backer = payable(msg.sender);\n        if (horse == backer) {\n            revert StakingSelf(id, horse, backer);\n        }\n\n        // Update stake status and transfer funds\n        stake.status = StakeStatus.Filled;\n        stake.backer = backer;\n        horse.transfer(stake.amount);\n\n        stakes[id] = stake;\n        emit StakeFilled(id, horse, backer, stake.amount);\n    }\n\n    // Cancelling a reqested stake\n\n    event StakeCanceled(uint id);\n\n    function cancelStakeAsHorse(uint id) external payable {\n        require(validId(id), \"This is not a valid ID for a stake!\");\n        Stake memory stake = stakes[id];\n\n        require(msg.sender == stake.horse, \"You can only cancel your own stakes!\");\n        require(stake.status == StakeStatus.Requested, \"You can only cancel your stake if it has not been filled!\");\n\n        stake.backer.transfer(stake.amount);\n        stake.status = StakeStatus.Cancelled;\n\n        stakes[id] = stake;\n        emit StakeCanceled(id);\n    }\n    \n    // TODO: How might we allow this?\n    \n    // function cancelStakeAsBacker(uint id) external payable {\n    //     Stake memory stake = stakes[id];\n    //     require(msg.sender == stake.backer);\n    //     require(validId(id), \"This is not a valid ID for a stake!\");\n    // }\n\n    // Returning profits to backer after completing games\n\n    event ProfitsReturned(uint id, uint backerReturns);\n\n    // TODO: handle the case where no profit was made\n    function returnProfits(uint id, uint profit) external payable {\n        require(validId(id), \"This is not a valid ID for a stake!\");\n        Stake memory stake = stakes[id];\n\n        require(msg.sender == stake.horse, \"Only the horse can return profits\");\n        require(stake.status == StakeStatus.Filled, \"Can only return profits on a stake that has been filled and played.\");\n\n        // TODO: Check this calculation. Do we do it here or calculate it in the frontend?\n        stake.profit = profit;\n        uint backerReturns = stake.amount + (profit * (stake.profitShare / 100));\n\n        stake.backer.transfer(backerReturns);\n        stake.status = StakeStatus.Completed;\n\n        stakes[id] = stake;\n        emit ProfitsReturned(id, backerReturns);\n    }\n\n    function validId(uint id) internal view returns (bool) {\n        return id < requestCount;\n    }\n\n}",
  "sourcePath": "/Users/julesdehon/Documents/Uni/year-3/decentralized_poker_staking/contracts/Staking.sol",
  "compiler": {
    "name": "solc",
    "version": "0.8.9+commit.e5eed63a.Emscripten.clang"
  },
  "schemaVersion": "3.4.3",
  "updatedAt": "2021-10-22T07:27:35.673Z",
  "networkType": "ethereum",
  "devdoc": {
    "kind": "dev",
    "methods": {},
    "version": 1
  },
  "userdoc": {
    "errors": {
      "InvalidProfitShare(uint256)": [
        {
          "notice": "Profit share must be between 0 and 100"
        }
      ],
      "InvalidStakeId(uint256)": [
        {
          "notice": "Not a valid id for a stake request"
        }
      ],
      "StakeNotFillable(uint256)": [
        {
          "notice": "Stake has already been filled/cancelled"
        }
      ],
      "StakingSelf(uint256,address,address)": [
        {
          "notice": "You cannot stake yourself"
        }
      ]
    },
    "kind": "user",
    "methods": {},
    "version": 1
  }
}