{
  "contractName": "Staking",
  "abi": [
    {
      "inputs": [
        {
          "internalType": "uint256",
          "name": "profitShare",
          "type": "uint256"
        }
      ],
      "name": "InvalidProfitShare",
      "type": "error"
    },
    {
      "inputs": [
        {
          "internalType": "uint256",
          "name": "id",
          "type": "uint256"
        }
      ],
      "name": "StakeNotFillable",
      "type": "error"
    },
    {
      "inputs": [
        {
          "internalType": "uint256",
          "name": "id",
          "type": "uint256"
        },
        {
          "internalType": "address",
          "name": "horse",
          "type": "address"
        },
        {
          "internalType": "address",
          "name": "backer",
          "type": "address"
        }
      ],
      "name": "StakingSelf",
      "type": "error"
    },
    {
      "anonymous": false,
      "inputs": [
        {
          "indexed": false,
          "internalType": "uint256",
          "name": "id",
          "type": "uint256"
        }
      ],
      "name": "ProfitsReturned",
      "type": "event"
    },
    {
      "anonymous": false,
      "inputs": [
        {
          "indexed": false,
          "internalType": "uint256",
          "name": "id",
          "type": "uint256"
        }
      ],
      "name": "StakeCanceled",
      "type": "event"
    },
    {
      "anonymous": false,
      "inputs": [
        {
          "indexed": false,
          "internalType": "uint256",
          "name": "stakeId",
          "type": "uint256"
        },
        {
          "indexed": false,
          "internalType": "address",
          "name": "horse",
          "type": "address"
        },
        {
          "indexed": false,
          "internalType": "address",
          "name": "backer",
          "type": "address"
        },
        {
          "indexed": false,
          "internalType": "uint256",
          "name": "amount",
          "type": "uint256"
        }
      ],
      "name": "StakeFilled",
      "type": "event"
    },
    {
      "anonymous": false,
      "inputs": [
        {
          "indexed": false,
          "internalType": "address",
          "name": "horse",
          "type": "address"
        },
        {
          "indexed": false,
          "internalType": "uint256",
          "name": "amount",
          "type": "uint256"
        }
      ],
      "name": "StakeRequested",
      "type": "event"
    },
    {
      "inputs": [],
      "name": "requestCount",
      "outputs": [
        {
          "internalType": "uint256",
          "name": "",
          "type": "uint256"
        }
      ],
      "stateMutability": "view",
      "type": "function"
    },
    {
      "inputs": [
        {
          "internalType": "uint256",
          "name": "",
          "type": "uint256"
        }
      ],
      "name": "stakes",
      "outputs": [
        {
          "internalType": "uint256",
          "name": "id",
          "type": "uint256"
        },
        {
          "internalType": "address payable",
          "name": "horse",
          "type": "address"
        },
        {
          "internalType": "address payable",
          "name": "backer",
          "type": "address"
        },
        {
          "internalType": "uint256",
          "name": "amount",
          "type": "uint256"
        },
        {
          "internalType": "uint256",
          "name": "profitShare",
          "type": "uint256"
        },
        {
          "internalType": "uint256",
          "name": "profit",
          "type": "uint256"
        },
        {
          "internalType": "enum Staking.StakeStatus",
          "name": "status",
          "type": "uint8"
        },
        {
          "internalType": "bool",
          "name": "horseWon",
          "type": "bool"
        }
      ],
      "stateMutability": "view",
      "type": "function"
    },
    {
      "inputs": [
        {
          "internalType": "uint256",
          "name": "amount",
          "type": "uint256"
        },
        {
          "internalType": "uint256",
          "name": "profitShare",
          "type": "uint256"
        }
      ],
      "name": "createRequest",
      "outputs": [],
      "stateMutability": "nonpayable",
      "type": "function"
    },
    {
      "inputs": [
        {
          "internalType": "uint256",
          "name": "id",
          "type": "uint256"
        }
      ],
      "name": "stakeHorse",
      "outputs": [],
      "stateMutability": "payable",
      "type": "function"
    },
    {
      "inputs": [
        {
          "internalType": "uint256",
          "name": "id",
          "type": "uint256"
        }
      ],
      "name": "cancelStakeAsHorse",
      "outputs": [],
      "stateMutability": "payable",
      "type": "function"
    },
    {
      "inputs": [
        {
          "internalType": "uint256",
          "name": "id",
          "type": "uint256"
        }
      ],
      "name": "cancelStakeAsBacker",
      "outputs": [],
      "stateMutability": "payable",
      "type": "function"
    },
    {
      "inputs": [
        {
          "internalType": "uint256",
          "name": "id",
          "type": "uint256"
        }
      ],
      "name": "returnProfits",
      "outputs": [],
      "stateMutability": "payable",
      "type": "function"
    }
  ],
  "bytecode": "0x60806040526000805534801561001457600080fd5b50611607806100246000396000f3fe6080604052600436106100705760003560e01c806363c6ded31161004e57806363c6ded3146100d8578063a141efea14610101578063d5a44f861461011d578063e49953341461016157610070565b80630be3721d146100755780635badbe4c146100915780635f904775146100bc575b600080fd5b61008f600480360381019061008a9190610ff3565b61017d565b005b34801561009d57600080fd5b506100a661041f565b6040516100b3919061102f565b60405180910390f35b6100d660048036038101906100d19190610ff3565b610425565b005b3480156100e457600080fd5b506100ff60048036038101906100fa919061104a565b610760565b005b61011b60048036038101906101169190610ff3565b610997565b005b34801561012957600080fd5b50610144600480360381019061013f9190610ff3565b610d17565b60405161015898979695949392919061115d565b60405180910390f35b61017b60048036038101906101769190610ff3565b610db9565b005b60006001600083815260200190815260200160002060405180610100016040529081600082015481526020016001820160009054906101000a900473ffffffffffffffffffffffffffffffffffffffff1673ffffffffffffffffffffffffffffffffffffffff1673ffffffffffffffffffffffffffffffffffffffff1681526020016002820160009054906101000a900473ffffffffffffffffffffffffffffffffffffffff1673ffffffffffffffffffffffffffffffffffffffff1673ffffffffffffffffffffffffffffffffffffffff1681526020016003820154815260200160048201548152602001600582015481526020016006820160009054906101000a900460ff166005811115610297576102966110cb565b5b60058111156102a9576102a86110cb565b5b81526020016006820160019054906101000a900460ff16151515158152505090506102d382610f8e565b610312576040517f08c379a00000000000000000000000000000000000000000000000000000000081526004016103099061125e565b60405180910390fd5b8060e00151610356576040517f08c379a000000000000000000000000000000000000000000000000000000000815260040161034d906112f0565b60405180910390fd5b806040015173ffffffffffffffffffffffffffffffffffffffff166108fc8260a001519081150290604051600060405180830381858888f193505050501580156103a4573d6000803e3d6000fd5b5060056001600084815260200190815260200160002060060160006101000a81548160ff021916908360058111156103df576103de6110cb565b5b02179055507f414aa128e641f6ec817056ff84c025b18f24ebc9161695c002d42a07b9634eea82604051610413919061102f565b60405180910390a15050565b60005481565b60006001600083815260200190815260200160002060405180610100016040529081600082015481526020016001820160009054906101000a900473ffffffffffffffffffffffffffffffffffffffff1673ffffffffffffffffffffffffffffffffffffffff1673ffffffffffffffffffffffffffffffffffffffff1681526020016002820160009054906101000a900473ffffffffffffffffffffffffffffffffffffffff1673ffffffffffffffffffffffffffffffffffffffff1673ffffffffffffffffffffffffffffffffffffffff1681526020016003820154815260200160048201548152602001600582015481526020016006820160009054906101000a900460ff16600581111561053f5761053e6110cb565b5b6005811115610551576105506110cb565b5b81526020016006820160019054906101000a900460ff1615151515815250509050806020015173ffffffffffffffffffffffffffffffffffffffff163373ffffffffffffffffffffffffffffffffffffffff16146105e4576040517f08c379a00000000000000000000000000000000000000000000000000000000081526004016105db90611382565b60405180910390fd5b600060058111156105f8576105f76110cb565b5b8160c00151600581111561060f5761060e6110cb565b5b1461064f576040517f08c379a000000000000000000000000000000000000000000000000000000000815260040161064690611414565b60405180910390fd5b61065882610f8e565b610697576040517f08c379a000000000000000000000000000000000000000000000000000000000815260040161068e9061125e565b60405180910390fd5b806040015173ffffffffffffffffffffffffffffffffffffffff166108fc82606001519081150290604051600060405180830381858888f193505050501580156106e5573d6000803e3d6000fd5b5060036001600084815260200190815260200160002060060160006101000a81548160ff021916908360058111156107205761071f6110cb565b5b02179055507f228683e8c8f1f5c38d2eae8f5b8e5ef47a084a41ffc5de8b9b38164870c0009f82604051610754919061102f565b60405180910390a15050565b60648111156107a657806040517f7a59383600000000000000000000000000000000000000000000000000000000815260040161079d919061102f565b60405180910390fd5b60405180610100016040528060005481526020013373ffffffffffffffffffffffffffffffffffffffff168152602001600073ffffffffffffffffffffffffffffffffffffffff168152602001838152602001828152602001600081526020016000600581111561081a576108196110cb565b5b81526020016000151581525060016000805481526020019081526020016000206000820151816000015560208201518160010160006101000a81548173ffffffffffffffffffffffffffffffffffffffff021916908373ffffffffffffffffffffffffffffffffffffffff16021790555060408201518160020160006101000a81548173ffffffffffffffffffffffffffffffffffffffff021916908373ffffffffffffffffffffffffffffffffffffffff160217905550606082015181600301556080820151816004015560a0820151816005015560c08201518160060160006101000a81548160ff0219169083600581111561091b5761091a6110cb565b5b021790555060e08201518160060160016101000a81548160ff02191690831515021790555090505060008081548092919061095590611463565b91905055507f49cee4f5002995b36067cf0f209184d84f0b3cc2eb9e0bd67dbde672694beb82338360405161098b9291906114cd565b60405180910390a15050565b6109a081610f8e565b6109df576040517f08c379a00000000000000000000000000000000000000000000000000000000081526004016109d69061125e565b60405180910390fd5b60006001600083815260200190815260200160002060405180610100016040529081600082015481526020016001820160009054906101000a900473ffffffffffffffffffffffffffffffffffffffff1673ffffffffffffffffffffffffffffffffffffffff1673ffffffffffffffffffffffffffffffffffffffff1681526020016002820160009054906101000a900473ffffffffffffffffffffffffffffffffffffffff1673ffffffffffffffffffffffffffffffffffffffff1673ffffffffffffffffffffffffffffffffffffffff1681526020016003820154815260200160048201548152602001600582015481526020016006820160009054906101000a900460ff166005811115610af957610af86110cb565b5b6005811115610b0b57610b0a6110cb565b5b81526020016006820160019054906101000a900460ff161515151581525050905060006005811115610b4057610b3f6110cb565b5b8160c001516005811115610b5757610b566110cb565b5b14610b9957816040517f63d82b43000000000000000000000000000000000000000000000000000000008152600401610b90919061102f565b60405180910390fd5b60008160200151905060003390508073ffffffffffffffffffffffffffffffffffffffff168273ffffffffffffffffffffffffffffffffffffffff161415610c1c578382826040517fb6ccca7f000000000000000000000000000000000000000000000000000000008152600401610c1393929190611555565b60405180910390fd5b60018360c001906005811115610c3557610c346110cb565b5b90816005811115610c4957610c486110cb565b5b8152505080836040019073ffffffffffffffffffffffffffffffffffffffff16908173ffffffffffffffffffffffffffffffffffffffff16815250508173ffffffffffffffffffffffffffffffffffffffff166108fc84606001519081150290604051600060405180830381858888f19350505050158015610ccf573d6000803e3d6000fd5b507fab1ccc3ac4f271f2e437d159236c5ceed2978a1949de79df70cf17069bac8e208483838660600151604051610d09949392919061158c565b60405180910390a150505050565b60016020528060005260406000206000915090508060000154908060010160009054906101000a900473ffffffffffffffffffffffffffffffffffffffff16908060020160009054906101000a900473ffffffffffffffffffffffffffffffffffffffff16908060030154908060040154908060050154908060060160009054906101000a900460ff16908060060160019054906101000a900460ff16905088565b60006001600083815260200190815260200160002060405180610100016040529081600082015481526020016001820160009054906101000a900473ffffffffffffffffffffffffffffffffffffffff1673ffffffffffffffffffffffffffffffffffffffff1673ffffffffffffffffffffffffffffffffffffffff1681526020016002820160009054906101000a900473ffffffffffffffffffffffffffffffffffffffff1673ffffffffffffffffffffffffffffffffffffffff1673ffffffffffffffffffffffffffffffffffffffff1681526020016003820154815260200160048201548152602001600582015481526020016006820160009054906101000a900460ff166005811115610ed357610ed26110cb565b5b6005811115610ee557610ee46110cb565b5b81526020016006820160019054906101000a900460ff1615151515815250509050806040015173ffffffffffffffffffffffffffffffffffffffff163373ffffffffffffffffffffffffffffffffffffffff1614610f4257600080fd5b610f4b82610f8e565b610f8a576040517f08c379a0000000000000000000000000000000000000000000000000000000008152600401610f819061125e565b60405180910390fd5b5050565b600080821080610fa057506000548210155b15610fae5760009050610fb3565b600190505b919050565b600080fd5b6000819050919050565b610fd081610fbd565b8114610fdb57600080fd5b50565b600081359050610fed81610fc7565b92915050565b60006020828403121561100957611008610fb8565b5b600061101784828501610fde565b91505092915050565b61102981610fbd565b82525050565b60006020820190506110446000830184611020565b92915050565b6000806040838503121561106157611060610fb8565b5b600061106f85828601610fde565b925050602061108085828601610fde565b9150509250929050565b600073ffffffffffffffffffffffffffffffffffffffff82169050919050565b60006110b58261108a565b9050919050565b6110c5816110aa565b82525050565b7f4e487b7100000000000000000000000000000000000000000000000000000000600052602160045260246000fd5b6006811061110b5761110a6110cb565b5b50565b600081905061111c826110fa565b919050565b600061112c8261110e565b9050919050565b61113c81611121565b82525050565b60008115159050919050565b61115781611142565b82525050565b600061010082019050611173600083018b611020565b611180602083018a6110bc565b61118d60408301896110bc565b61119a6060830188611020565b6111a76080830187611020565b6111b460a0830186611020565b6111c160c0830185611133565b6111ce60e083018461114e565b9998505050505050505050565b600082825260208201905092915050565b7f54686973206973206e6f7420612076616c696420494420666f7220612073746160008201527f6b65210000000000000000000000000000000000000000000000000000000000602082015250565b60006112486023836111db565b9150611253826111ec565b604082019050919050565b600060208201905081810360008301526112778161123b565b9050919050565b7f54686520686f72736520646f6573206e65656420746f2072657475726e20616e60008201527f792070726f666974730000000000000000000000000000000000000000000000602082015250565b60006112da6029836111db565b91506112e58261127e565b604082019050919050565b60006020820190508181036000830152611309816112cd565b9050919050565b7f596f752063616e206f6e6c792063616e63656c20796f7572206f776e2073746160008201527f6b65732100000000000000000000000000000000000000000000000000000000602082015250565b600061136c6024836111db565b915061137782611310565b604082019050919050565b6000602082019050818103600083015261139b8161135f565b9050919050565b7f596f752063616e206f6e6c792063616e63656c20796f7572207374616b65206960008201527f6620697420686173206e6f74206265656e2066696c6c65642100000000000000602082015250565b60006113fe6039836111db565b9150611409826113a2565b604082019050919050565b6000602082019050818103600083015261142d816113f1565b9050919050565b7f4e487b7100000000000000000000000000000000000000000000000000000000600052601160045260246000fd5b600061146e82610fbd565b91507fffffffffffffffffffffffffffffffffffffffffffffffffffffffffffffffff8214156114a1576114a0611434565b5b600182019050919050565b60006114b78261108a565b9050919050565b6114c7816114ac565b82525050565b60006040820190506114e260008301856114be565b6114ef6020830184611020565b9392505050565b6000819050919050565b600061151b6115166115118461108a565b6114f6565b61108a565b9050919050565b600061152d82611500565b9050919050565b600061153f82611522565b9050919050565b61154f81611534565b82525050565b600060608201905061156a6000830186611020565b6115776020830185611546565b6115846040830184611546565b949350505050565b60006080820190506115a16000830187611020565b6115ae6020830186611546565b6115bb6040830185611546565b6115c86060830184611020565b9594505050505056fea2646970667358221220e48ff542304a1aab15952fd3a6ae712bab4f58aa36f63c2578efdd9737e41a1b64736f6c63430008090033",
  "immutableReferences": {},
  "source": "pragma solidity ^0.8.9;\n\ncontract Staking {\n    uint public requestCount = 0;\n    mapping(uint => Stake) public stakes;\n\n    enum StakeStatus {\n        Requested,\n        Filled,\n        Expired,\n        Cancelled,\n        AwaitingReturnPayment,\n        Completed\n    }\n\n    struct Stake {\n        uint id;\n        address payable horse;\n        address payable backer;\n        uint amount;\n        uint profitShare;\n        uint profit;\n        StakeStatus status;\n        bool horseWon;\n    }\n\n    // Creating a new stake request\n\n    event StakeRequested(address horse, uint amount);\n\n    /// Profit share must be between 0 and 100\n    error InvalidProfitShare(uint profitShare);\n\n    function createRequest(uint amount, uint profitShare) external {\n        if (profitShare > 100) {\n            revert InvalidProfitShare(profitShare);\n        } \n        stakes[requestCount] = Stake(requestCount, payable(msg.sender), payable(address(0)), amount, profitShare, 0, StakeStatus.Requested,false);\n        requestCount++;\n\n        emit StakeRequested(msg.sender, amount);\n    }\n\n    // Staking a request\n    event StakeFilled(uint stakeId, address horse, address backer, uint amount);\n    /// Stake has already been filled/cancelled\n    error StakeNotFillable(uint id);\n    /// You cannot stake yourself\n    error StakingSelf(uint id, address horse, address backer);\n   \n    function stakeHorse(uint id) external payable {\n        require(validId(id), \"This is not a valid ID for a stake!\");\n    \n        Stake memory stake = stakes[id];\n        if (stake.status != StakeStatus.Requested) {\n            revert StakeNotFillable(id);\n        }\n\n        address payable horse = stake.horse;\n        address payable backer = payable(msg.sender);\n        if (horse == backer) {\n            revert StakingSelf(id, horse, backer);\n        }\n\n        // Update stake status and transfer funds\n        stake.status = StakeStatus.Filled;\n        stake.backer = backer;\n        horse.transfer(stake.amount);\n\n        emit StakeFilled(id, horse, backer, stake.amount);\n    }\n\n    // Cancelling a reqested stake\n\n    event StakeCanceled(uint id);\n\n    function cancelStakeAsHorse(uint id) external payable {\n        Stake memory stake = stakes[id];\n        require(msg.sender == stake.horse,\"You can only cancel your own stakes!\");\n        require(stake.status == StakeStatus.Requested,\"You can only cancel your stake if it has not been filled!\");\n        require(validId(id), \"This is not a valid ID for a stake!\");\n        stake.backer.transfer(stake.amount);\n        stakes[id].status = StakeStatus.Cancelled;\n        emit StakeCanceled(id);\n    }\n    \n    // Still need to figure out this part\n    \n    function cancelStakeAsBacker(uint id) external payable {\n        Stake memory stake = stakes[id];\n        require(msg.sender == stake.backer);\n        require(validId(id), \"This is not a valid ID for a stake!\");\n    }\n\n    // Returning profits to backer after completing games\n\n    event ProfitsReturned(uint id);\n\n    function returnProfits(uint id) external payable {\n        Stake memory stake = stakes[id];\n        require(validId(id), \"This is not a valid ID for a stake!\");\n        require(stake.horseWon, \"The horse does need to return any profits\");\n        stake.backer.transfer(stake.profit);\n        stakes[id].status = StakeStatus.Completed;\n        emit ProfitsReturned(id);\n    }\n\n    function validId(uint id) internal returns (bool) {\n        if(id < 0 || id >= requestCount) {\n            return false;\n        }\n        return true;\n    }\n\n}",
  "sourcePath": "/home/dragonulq/decentralized_poker_staking/contracts/Staking.sol",
  "compiler": {
    "name": "solc",
    "version": "0.8.9+commit.e5eed63a.Emscripten.clang"
  },
  "schemaVersion": "3.4.3",
  "updatedAt": "2021-10-21T11:24:13.367Z",
  "devdoc": {
    "kind": "dev",
    "methods": {},
    "version": 1
  },
  "userdoc": {
    "errors": {
      "InvalidProfitShare(uint256)": [
        {
          "notice": "Profit share must be between 0 and 100"
        }
      ],
      "StakeNotFillable(uint256)": [
        {
          "notice": "Stake has already been filled/cancelled"
        }
      ],
      "StakingSelf(uint256,address,address)": [
        {
          "notice": "You cannot stake yourself"
        }
      ]
    },
    "kind": "user",
    "methods": {},
    "version": 1
  }
}