{
  "contractName": "UserList",
  "abi": [
    {
      "constant": true,
      "inputs": [
        {
          "internalType": "uint256",
          "name": "",
          "type": "uint256"
        }
      ],
      "name": "users",
      "outputs": [
        {
          "internalType": "address",
          "name": "",
          "type": "address"
        }
      ],
      "payable": false,
      "stateMutability": "view",
      "type": "function"
    },
    {
      "constant": false,
      "inputs": [],
      "name": "add",
      "outputs": [],
      "payable": false,
      "stateMutability": "nonpayable",
      "type": "function"
    },
    {
      "constant": true,
      "inputs": [],
      "name": "getUsers",
      "outputs": [
        {
          "internalType": "address[]",
          "name": "",
          "type": "address[]"
        }
      ],
      "payable": false,
      "stateMutability": "view",
      "type": "function"
    }
  ],
  "bytecode": "0x608060405234801561001057600080fd5b50610283806100206000396000f3fe608060405234801561001057600080fd5b50600436106100405760003560e01c8062ce8e3e14610045578063365b98b2146100a45780634f2be91f14610112575b600080fd5b61004d61011c565b6040518080602001828103825283818151815260200191508051906020019060200280838360005b83811015610090578082015181840152602081019050610075565b505050509050019250505060405180910390f35b6100d0600480360360208110156100ba57600080fd5b81019080803590602001909291905050506101aa565b604051808273ffffffffffffffffffffffffffffffffffffffff1673ffffffffffffffffffffffffffffffffffffffff16815260200191505060405180910390f35b61011a6101e6565b005b606060008054806020026020016040519081016040528092919081815260200182805480156101a057602002820191906000526020600020905b8160009054906101000a900473ffffffffffffffffffffffffffffffffffffffff1673ffffffffffffffffffffffffffffffffffffffff1681526020019060010190808311610156575b5050505050905090565b600081815481106101b757fe5b906000526020600020016000915054906101000a900473ffffffffffffffffffffffffffffffffffffffff1681565b60003390806001815401808255809150509060018203906000526020600020016000909192909190916101000a81548173ffffffffffffffffffffffffffffffffffffffff021916908373ffffffffffffffffffffffffffffffffffffffff1602179055505056fea265627a7a72315820c8a497d8a9ceea937ae183025473eada1462d49c72645a7492a0f4ea2526045664736f6c63430005100032",
  "source": "pragma solidity ^0.5.6;\n\ncontract UserList {\n    address[] public users;\n\n    // Add to users\n    function add() public {\n        users.push(msg.sender);\n    }\n\n    // Retrieving the users\n    function getUsers() public view returns (address[] memory) {\n        return users;\n    }\n}",
  "sourcePath": "/Users/julesdehon/Documents/Uni/year-3/decentralized_poker_staking/contracts/UserList.sol",
  "compiler": {
    "name": "solc",
    "version": "0.5.16+commit.9c3226ce.Emscripten.clang"
  },
  "schemaVersion": "3.4.3",
  "updatedAt": "2021-10-18T13:44:23.764Z",
  "networkType": "ethereum",
  "devdoc": {
    "methods": {}
  },
  "userdoc": {
    "methods": {}
  }
}